:100000000C9430060C944D060C944D060C94DD2F88
:100010000C944D060C944D060C944D060C944D0614
:100020000C944D060C944D060C94231B0C94DF1A73
:100030000C94DE270C944D060C944D060C944D0642
:100040000C944D060C944D060C944D060C944D06E4
:100050000C944D060C94FC1B0C944D060C944D0610
:100060000C944D060C944D060C944D060C944D06C4
:100070000C944D060C944D060C944D060C944D06B4
:100080000C944D060C944D060C944D060C944D06A4
:100090000C944D060C944D060C944D060C944D0694
:1000A0000C944D060C944D060C944D0605010980E8
:1000B000A101850319012AB700150126B700950192
:1000C00075108100C0050C0901A101850419012AE0
:1000D000A002150126A002950175108100C005013E
:1000E0000906A1018506050719E029E71500250184
:1000F0009508750181020507190029EF15002501F2
:1001000095F075018102050819012905950575010C
:100110009102950175039101C00660FF0961A1017B
:100120000962150026FF00952075088102096315F4
:100130000026FF00952075089102C005010906A15F
:1001400001050719E029E7150025019508750181CA
:10015000029501750881010507190029FF15002680
:10016000FF00950675088100050819012905950508
:1001700075019102950175039101C0000000000016
:10018000000000000000000000000000000000006F
:100190000000000000000000000000000000007EE1
:1001A0000F00D4FFFFFFC700000078000000000030
:1001B0000000002A2B2800000000000000000000C2
:1001C00000000000000029000000002C1E34202147
:1001D0002224342627252E362D3738271E1F20218E
:1001E00022232425263333362E37381F04050607ED
:1001F00008090A0B0C0D0E0F101112131415161707
:1002000018191A1B1C1D2F3130232D350405060724
:1002100008090A0B0C0D0E0F1011121314151617E6
:1002200018191A1B1C1D2F3130354C00DA0281FFC2
:10023000D9F1DB20A4A62EAF00A0C000A1C800AE5B
:10024000D580A81FD300408D14200020202020003E
:100250005343522000202020200043415020002002
:10026000202020004E554D2000556E646566696E55
:100270006564004746756E6300474E756D004761C3
:100280006D696E67004D656469610046756E6374E3
:10029000696F6E73004E756D6265727300426173B3
:1002A00065004C617965723A200080818283848583
:1002B000868788898A8B8C8D8E8F9091929394A05B
:1002C000A1A2A3A4A5A6A7A8A9AAABACADAEAFB0A6
:1002D000B1B2B3B4C0C1C2C3C4C5C6C7C8C9CACB12
:1002E000CCCDCECFD0D1D2D3D400000101010101B9
:1002F00001010101020202020202020202030303DF
:1003000003030303030404040404040405050505AE
:10031000050606060606070707070708080808096E
:100320000909090A0A0A0B0B0B0C0C0C0D0D0D0E1A
:100330000E0E0F0F0F1010111111121213131414AF
:10034000151516161717181819191A1A1B1B1C1D24
:100350001D1E1E1F2020212222232424252626277D
:100360002829292A2B2C2D2D2E2F303132323334AF
:1003700035363738393A3B3C3D3E3F4041424344B5
:1003800045464748494A4C4D4E4F50515354555697
:1003900058595A5B5D5E5F616264656668696B6C43
:1003A0006D6F7072737577787A7B7D7E80828385BE
:1003B00087888A8C8E8F91939596989A9C9EA0A2FE
:1003C000A3A5A7A9ABADAFB1B3B5B7BABCBEC0C208
:1003D000C4C6C9CBCDCFD1D4D6D8DBDDDFE2E4E7CC
:1003E000E9EBEEF0F3F5F8FAFDFF00AF00AE165CB6
:1003F00014001A000800150017002B6204001600F4
:10040000070009000A0039611D001B0006001900E1
:100410000500000000000000E30001512C002A004C
:10042000130012000C0018001C00347233000F007F
:100430000E000D000B00317138003700360010003F
:100440001100000000000000767402512800350001
:100450001E001F00200021002200010000000000FB
:1004600052000000000001000000500051004F0049
:100470000000000000000000010001000100010078
:100480002700260025002400230001003100300051
:100490002F002E002D000100310230022F022E020B
:1004A0002D0200000000000047000351010035004C
:1004B0003A003B003C003D003E00010049004A007C
:1004C00052004D004B0001005000500051004F0001
:1004D0004E00000000000000010003510100010077
:1004E00043004200410040003F00000000000000C7
:1004F00000000000000000000000000000000000FC
:10050000145C000000000000010001000100005C1C
:1005100000000000000000000000C25CC55CC75C79
:10052000C95C00000000C35CC65CC85CCA5C00001B
:100530000000000000000000010001000100DE5C7E
:100540000000000000000000000014500000000047
:10055000A9000000000000000000AB00AA00AC00F1
:100560000000000000000000AE0001000100165C69
:10057000170014001A0008001500E1000A0004002A
:10058000160007000900E0001D001B00060019000E
:100590000500000000000000065105512C002A0053
:1005A000130012000C0018001C00340033000F0070
:1005B0000E000D000B00310038003700360010002F
:1005C0001100000000000000E6000000280001000B
:1005D0001E001F0020002100220000002300240034
:1005E0002500260027000000000000000000000099
:1005F00028000000000000000100010001000000D0
:1006000000000000000000000000000000000000EA
:10061000000000000000105000000000000000007A
:1006200000000000000000000000000028000100A1
:100630003A003B003C003D003E0000003F0040000F
:1006400041004200430000000000000000000000E4
:10065000280000000000000001000100010000006F
:10066000000000000000000000000000000000008A
:10067000000000000000105000000000000000001A
:100680000000000000000000000000002800090237
:100690005B00030100A0FA0904000001030101004E
:1006A0000921110100012240000705810308000112
:1006B00009040100020300000009211101000122C8
:1006C0002200070582032000010705030320000123
:1006D00009040200010300000009211101000122A8
:1006E0006D000705840320000112010002000000D4
:1006F00008534601000100010200010C0343006F92
:100700000072006E0065000000100366006F006F4D
:10071000007300740061006E00000004030904000F
:1007200000000000003E5B4F5B3E003E6B4F6B3EA7
:10073000001C3E7C3E1C00183C7E3C18001C577D73
:10074000571C001C5E7F5E1C0000183C180000FF58
:10075000E7C3E7FF00001824180000FFE7DBE7FF0E
:100760000030483A060E00262979292600407F05E8
:10077000050700407F05253F005A3CE73C5A007FB3
:100780003E1C1C0800081C1C3E7F0014227F221403
:10079000005F5F005F5F0006097F017F00006689E0
:1007A000956A0060606060600094A2FFA2940008F7
:1007B000047E04080010207E20100008082A1C086F
:1007C00000081C2A0808001E10101010000C1E0C37
:1007D0001E0C0030383E383000060E3E0E0600007B
:1007E000000000000000005F00000000070007009C
:1007F00000147F147F1400242A7F2A120023130878
:1008000064620036495620500000080703000000CB
:100810001C224100000041221C00002A1C7F1C2ACF
:100820000008083E08080000807030000008080832
:100830000808000000606000002010080402003E6C
:100840005149453E0000427F4000007249494946F7
:10085000002141494D33001814127F1000274545EF
:100860004539003C4A494931004121110907003608
:100870004949493600464949291E00000014000034
:100880000000403400000000081422410014141439
:100890001414000041221408000201590906003E08
:1008A000415D594E007C1211127C007F4949493646
:1008B000003E41414122007F4141413E007F494984
:1008C0004941007F09090901003E41415173007F00
:1008D0000808087F0000417F4100002040413F019F
:1008E000007F08142241007F40404040007F021CEE
:1008F000027F007F0408107F003E4141413E007F9F
:1009000009090906003E4151215E007F0919294667
:100910000026494949320003017F0103003F40405E
:10092000403F001F2040201F003F4038403F0063F1
:1009300014081463000304780403006159494D430B
:1009400000007F41414100020408102000004141A5
:10095000417F00040201020400404040404000008A
:1009600003070800002054547840007F284444388E
:1009700000384444442800384444287F0038545404
:1009800054180000087E0902001824241C78007FF7
:10099000080404780000447D4000002040403D00F1
:1009A000007F102844000000417F4000007C047854
:1009B0000478007C08040478003844444438007CFF
:1009C0001824241800182424187C007C0804040827
:1009D0000048545454240004043F4424003C404044
:1009E000207C001C2040201C003C4030403C004447
:1009F00028102844004C9090907C004464544C444F
:100A00000000083641000000007700000000413679
:100A10000800000201020402003C2623263C0000DC
:100A2000000000000000000000000000000000C006
:100A3000E0F0F8F81800C0F0FCFEFFFFFFFFFFFF3A
:100A4000FF7E00000000000000000080C0E0E0E049
:100A5000E0E0E0E0E0C0800000000080C0E0E0E016
:100A6000E0E0E0E0E0C080000000E0E0C0C0E0E0E6
:100A7000E0E00000E0E0C0C0E0E0E0E0E0C08000D6
:100A800000000080C0E0E0E0E0E0E0E0E0C08000E6
:100A900000000000000000000000000000E0F0F096
:100AA000F0E0ECEEF7F37020007C7C7C7E007E7E34
:100AB0007E7F7F7F000080C0E07E5B4F5BFEC000DA
:100AC00000C000DCD7DEDEDED7DC00C000000000A6
:100AD0000000000000000000000000000000000016
:100AE0000000000000000000F8FCFEFFE000FFFF37
:100AF000FFFFFFFF80FFFFFFFFFFFFFFFFFF1F075D
:100B000001000000000000000000FFFFFF81000066
:100B10000000000081C3C3C30000FFFFFF8100008D
:100B20000000000081FFFFFF0000FFFFFF01000049
:100B300000000000FFFFFF010000000001FFFFFFB9
:100B40000000FFFFFF9D1C1C1C1C1C1C9DDFDFDF29
:100B5000000000000000000000000000000F1F3F28
:100B60007F7F7F7F7F3F1E0C001F1F1F3F003F3F87
:100B70003F7F7F7F00307B7F7830202030787F3B45
:100B80000003000F7F0F0F0F7F0F00030000000016
:100B90000000000000000000000000000000000055
:100BA0000000000000000000030F1F3F3F3F3F1FF9
:100BB0001F3F3F7F7F7F3F3F1F3F7F7F7F7F7C784F
:100BC00078381C0F00000000000000010307070731
:100BD00007070707070301000000000103070707D5
:100BE00007070707070301000000070707000000C9
:100BF00000000000070707000000000000070707CB
:100C000000000001030707070707070707030100A4
:100C100000000000000000000000000000000000D4
:100C200000000000000000000000000000000000C4
:100C300000000000000000000000000000000000B4
:100C400000000000000000000000000000000000A4
:100C50000000000000000000000000000000000094
:100C600011241FBECFEFDAE0DEBFCDBF12E0A0E05F
:100C7000B1E0E6E1FCE602C005900D92AC3EB107A2
:100C8000D9F727E0ACEEB2E001C01D92A638B2075A
:100C9000E1F70E9405280C94D9350C940000FC0162
:100CA000AC014C5F5F4F8FEF91E32191822728E0E9
:100CB00030E087FF09C0880F892721503109C9F723
:100CC000E417F50791F70895880FF7CFE8EDF0E006
:100CD00080818E7F80831092E2001092DA00109261
:100CE000E100A0EEB0E08C9181608C9380818F77E1
:100CF000808319BCA7EDB0E08C918E7F8C938081AE
:100D00008F7E80831092150508952091E400309124
:100D1000E50095E6A9012091EC00822F817020FF6B
:100D200006C08091E80080FF06C080E00895209111
:100D3000E80022FD1AC080913A05882389F08530A9
:100D400089F08091EB0085FD0FC02091E400309187
:100D5000E50042175307F9F29150E1F684E0089557
:100D600082E0089583E0089581E00895EF92FF9274
:100D70000F931F93CF937C018B010E948506C82F90
:100D8000811117C08091E80085FD0BC08091E800BB
:100D90008E778093E8000E948506882399F3C82FF8
:100DA00008C0F70181917F018093F1000150110982
:100DB00049F78C2FCF911F910F91FF90EF900895DD
:100DC00080913C0587FF13C08091E80082FF06C038
:100DD0008091E8008B778093E80004C080913A0509
:100DE0008111F2CF089580913A058823D9F380913B
:100DF000E80080FFF8CF8091E8008E77ECCF982F45
:100E00009093E900242F762F50E0891731F07091EC
:100E1000EC002091ED005091F00021FD07C09F5F94
:100E2000973071F78093E90081E008953091EB00ED
:100E30003E7F3093EB003091ED003D7F3093ED002D
:100E40003091EB0031603093EB007093EC00209315
:100E5000ED005093F0002091EE0027FDE0CF80E000
:100E60000895B0E0A0E0E7E3F7E00C941731C8ED97
:100E7000D0E088818F7E8883E7EDF0E0808181601B
:100E8000808384E082BF81E08093150588818E7F16
:100E9000888302EE10E0F80110821092DA0081EEF1
:100EA000C82ED12CF601108288818F7788838881A3
:100EB0008068888388818F7D888319BC10923A0569
:100EC00010923B05109239051092380590EEE92EEC
:100ED000F12CF70180818B7F8083888181608883FA
:100EE00042E060E080E00E94FF06F60180818E7F94
:100EF0008083F80180818160808380818860808325
:100F0000F70180818E7F8083888180618883CDB75F
:100F1000DEB7E8E00C943331FC01809142059091FA
:100F2000430586179707A0F06115710529F4909184
:100F3000E8009E779093E80090E06115710551F408
:100F4000911108C08091E80082FF34C080E00895CC
:100F5000BC01F2CF80913A058823C1F18530C1F1FF
:100F60008091E80083FD30C08091E80082FDEACFE7
:100F70008091E80080FFE1CF8091F3002091F200A2
:100F8000382F6115710519F02830310558F091E0BE
:100F90002830310509F090E02091E8002E77209369
:100FA000E800CBCF81918093F100615071092F5FF0
:100FB0003F4FE7CF80913A05882341F0853041F0DB
:100FC0008091E80083FFBECF81E0089582E008951C
:100FD00083E008950895089580911705089587E79F
:100FE00097E7909301088093000888E19AE00FB694
:100FF000F894A895809360000FBE90936000FFCF97
:101000002FB7F89460910C0570910D0580910E0535
:1010100090910F052FBF0895209165012223C9F0FB
:101020002091100527FF15C0E62FE695E695E69579
:10103000EE31D8F4E80FF92FF11D677021E030E0B0
:1010400001C0220F6A95EAF7209582812823228326
:101050000895FC01329608962191621303C0DF01C6
:1010600011971C92E817F907B9F7089520916501C7
:101070002223C1F02091100527FF14C0E62FE6952A
:10108000E695E695EE31F8F4E80FF92FF11D67705B
:1010900021E030E001C0220F6A95EAF78281822BBD
:1010A00082830895FC0132962FEF30E0419164175E
:1010B00051F02F3F19F4411101C0232F3F5F36300B
:1010C000A9F72F3F09F40895820F911D27FD9A95E6
:1010D000FC01628308952091090530910A052817C3
:1010E000390771F090930A0580930905E09107058F
:1010F000F0910805309721F00084F185E02D0995E5
:10110000089520910505309106052817390771F0DB
:101110009093060580930505E0910705F091080579
:10112000309721F00680F781E02D09950895FA01A6
:10113000811101C0FB0109950895ECE7F7E02481D6
:101140003AE0231B08F420E0248380915B04816053
:1011500080935B040895ECE7F7E024813AE0230FE5
:1011600008F42FEF248380915B04816080935B04FB
:10117000089590917C07937071F080937D07609340
:101180007E07473908F046E940937F0780915B046A
:10119000822B80935B040895ECE7F7E0438128E01D
:1011A000421B08F440E0818121E0628190E00E94CE
:1011B000B9080895ECE7F7E0438128E0420F08F40E
:1011C0004FEF818121E0628190E00E94B90808958B
:1011D000ECE7F7E0628128E0621B08F460E08181BF
:1011E00021E0438190E00E94B9080895ECE7F7E020
:1011F000628128E0620F08F46FEF818121E0438172
:1012000090E00E94B9080895ECE7F7E0818121E0C1
:10121000438162818850990B0E94B9080895ECE7D8
:10122000F7E0818190E021E04381628108960E948D
:10123000B908089590917C07937061F081110BC0FB
:10124000946090937C071092640180915B04862BDC
:1012500080935B040895853010F09061F2CF880F81
:10126000880F982BEECF80917C07869586958150CC
:1012700009F484E061E00E941A09089580917C07D6
:10128000869586958F5F853008F081E061E00E9449
:101290001A09089522E8241B08F420E0620F08953B
:1012A0004095282F429F412D1124842F08950E949C
:1012B0006C130895FF920F931F93CF93DF93182F12
:1012C000062FF42ED0E0C0E02F2D402F612FCE014D
:1012D0000E9457092196C633D105B1F7CDB7DEB7C5
:1012E000E5E00C943631AF92BF92CF92DF92FF923D
:1012F0000F931F93CF93DF93362F472FE82FF0E004
:10130000E651FD4F71110FC0E4918E2F2E2F6E2FDD
:10131000722FDF91CF911F910F91FF90DF90CF90AF
:10132000BF90AF900895C72FD0E02491F22E022FE6
:1013300010E056E0659FC0011124EFEFF0E0BF011F
:101340000E94F930832F90E0880F991F35E5369F72
:10135000D001379FB00D11248A1B9B0B982F990F3A
:10136000980F6F01CC1ADD0AC09ED001C19EB00D4E
:10137000D09EB00D11248B2F499FA0011124452F21
:1013800055276F01C41AD50AC09EA001C19E500DF9
:10139000D09E500D11245F01A91AB108AC9E6001C6
:1013A000AD9ED00CBC9ED00C1124CD2CDD24EC19AC
:1013B000FD09E09FE001E19FD00DF09FD00D1124C9
:1013C000ED2F62307105A1F050F46115710509F43B
:1013D0009ECF6130710581F0EB2F852F98CF64305F
:1013E000710569F080F06630710509F490CFF4CF93
:1013F000E22F2B2F8D2F8BCFE22F252F88CFEB2F96
:10140000822F2D2F84CF2B2F8F2DE52F80CF80E0A3
:101410000895F894E82FE295EF70F0E031A1282FBD
:101420002F7081E090E001C0880F2A95EAF7982F8D
:101430009095932391A392A1892B82A378940895E8
:101440009091100592FF06C0282F28712830F9F4DA
:10145000877F846093FF06C0282F28712831F1F41C
:10146000877E84612091110520FF06C0382F3871D6
:101470003830D9F4877F816021FF06C0282F28717A
:101480002831D1F4877E816194FD877E0895282FCD
:1014900024712430F9F68B7F8860DCCF282F2471EB
:1014A000243101F78B7E8861DDCF382F31713130E7
:1014B00019F78E7F8860E0CF282F2171213121F725
:1014C0008E7E8861E1CFCF93DF93EC018238910566
:1014D000A9F1D8F58133910509F496C048F5893210
:1014E000910509F48AC08A9709F495C0C11522E5CF
:1014F000D20708F0B6C0C11531E5D30708F026C100
:10150000C83ED10508F09CC0C03ED10560F5C83A80
:10151000D10508F087C0C53AD10508F0EFC0C13049
:10152000D10509F12097F9F0C430D105E0F440C0AD
:101530008533910509F45AC0C997C1F68091100509
:10154000837089F0C0EED0E00EC0833E910599F122
:1015500070F4803E910501F1823E910539F680914B
:10156000100582FD21C0CE01DF91CF910895863E06
:10157000910561F1873E910571F1843E910509F075
:10158000B5CF8091110581FFEECF80911005C7EE98
:10159000D0E084FD0DC0E7CF8091100580FD07C12C
:1015A0009091110590FFDFCFC3EED0E084FFDBCF39
:1015B000D0E0C0E0D8CF8091100582FDFBC09091B3
:1015C000110590FDBFCF84FFCECFF2CF80911005E3
:1015D00083FDDDCFC8CF8091100583FDEEC09091D3
:1015E000110591FFF0CFC4EED0E0BDCF8091100582
:1015F00085FFB9CFC9E2D0E0B6CF8091100585FF55
:10160000B2CFC5E3D0E0AFCF8091100586FFABCF5E
:10161000CAE2D0E0A8CF8091100586FFA4CFC1E335
:10162000D0E0A1CFCF3BD10518F6C85AD0E0CC0FFF
:10163000DD1FC454DE4F0990D881C02DD46493CFF0
:10164000C11540E5D40708F064C0C11580E4D8078F
:1016500008F05CC0CE019A9581159F4108F483CFB4
:10166000A7CFC11536E5D30718F5C11545E5D40751
:1016700008F084C0C11584E5D80708F07AC09C2F13
:10168000969596959E0123703327C115D34508F48E
:1016900062C0C1E0D0E002C0CC0FDD1F2A95E2F7A6
:1016A00030E2939FC0011124C82BD92BDA685BCF9D
:1016B000C1158AE5D80778F4C11599E5D90708F06E
:1016C00068C0C11528E5D20708F472CFDC2FCC27FB
:1016D000C06FD06A48CFCE0190568115904208F075
:1016E00067CF8D2F8F710E94200A90E0982F882756
:1016F00088279F719C012C2BE90149C0C55AD0E075
:10170000C754DE4FC881D0E0D0642DCFDF70D06ADF
:101710002ACFCE01E4E096958795EA95E1F78370AC
:101720002C2F26952695237040E2249F90011124AA
:10173000382B8C2F8370C1E0D0E002C0CC0FDD1FAE
:101740008A95E2F7C22BD32BDC680DCFDC2FCC2798
:10175000C16FD06A08CFC1E0D0E002C0CC0FDD1F5E
:101760002A95E2F720E2929FC0011124C82BD92BC1
:10177000EBCFDC2FCC27C46FD06AF5CE8C2F0E9424
:10178000200AC82FD0E0DC2FCC27CC27DF71D06215
:10179000EACE8C2F8F700E94200A34E0D695C79530
:1017A0003A95E1F7CF709C2FEC01D069DCCEC9E30C
:1017B000D0E0D9CEC2EED0E0D6CEC6EED0E0D3CEC9
:1017C0008091C10381111092C10308959091110578
:1017D00092FF05C09091C10398138093C1030895AF
:1017E00080959091BF0398239093BF0308958091B3
:1017F0005A0390912903981301C008958F5F877051
:10180000FACF292F983078F5863068F590E036E0E9
:10181000239F800D911D1124682F677023E09695FA
:1018200087952A95E1F7FC01EE0FFF1FE80FF91FDE
:10183000EF5EFC4F50E040E080E0219130E0062E6A
:1018400002C0369527950A94E2F721703327042EBB
:1018500001C0220F0A94EAF7822B4F5F5F4F43309B
:10186000510559F7089580E00895292F983098F58B
:10187000863088F590E036E0239F800D911D11247D
:10188000282F277041E001C0440F2A95EAF723E092
:10189000969587952A95E1F7FC01EE0FFF1FE80F5B
:1018A000F91FEF5EFC4F30E020E070E05191DF0166
:1018B0001197CB01022E02C0969587950A94E2F704
:1018C000817081958527842385278C932F5F3F4FD7
:1018D0002330310559F70895982F92959F7011F094
:1018E000892F94E0282F2695269511F09E5F822F50
:1018F000869509F09F5F892F0895CF93DF93682F16
:1019000081E06A3019F06D3031F480E00E940B0DF7
:10191000DF91CF910895809151079091520726E071
:10192000FC01ABE4B7E001900D922A95E1F7603E2F
:1019300008F458C026E0FC0111922A95E9F7C091FD
:101940005107D091520746E050E0BE018BE497E08A
:101950000E94D2329E012B543540892B41F1C9019E
:1019600045E0969587954A95E1F741E050E0BA0148
:1019700002C0660F771F8A95E2F7CB016091490597
:1019800070914A05862B972BB9016B5F7F4FE5E07D
:1019900076956795EA95E1F702C0440F551F6A9561
:1019A000E2F7842B952B90934A05809349052A5F93
:1019B0003F4F40914805642F70E0C9010E94F93003
:1019C000481B463010F4240F311D211572E03707F3
:1019D00010F030E020E0255B3A4F3093520720931F
:1019E000510796CFF6E06F9FB0011124615E784FEA
:1019F00046E050E00E949E31A2CFCF93DF93EC01EE
:101A0000FE018491811103C0DF91CF9108950E945E
:101A10007D0C2196F5CFCF93382FE0915107F091AF
:101A20005207EB54F54020914805622F70E0CF013A
:101A30000E94F930281B822F332361F066E00E9458
:101A40004431C82FC15010F4CF91089580E20E9414
:101A50007D0CF8CF9F01280F311D2115324018F061
:101A600080E0F0E0E0E08E0F9F2F911D855B9A4FA4
:101A70009093520780935107E7CF0E94FD0C81E0BD
:101A80000E940B0D08958091BF039091C003892B94
:101A90008093EE029091C1039923A1F0892B80934A
:101AA000EE02809165018823E1F18091100587FFA6
:101AB00038C08EE1E0EFF2E090E08150A0F59111A6
:101AC0000E94E00B40E250E06CE573E08EEE92E0A5
:101AD0000E94D232892B21F180E2EEEEF2E0ACE5F9
:101AE000B3E001900D928A95E1F7E0910705F0913E
:101AF00008053097A9F080916501882359F08091FD
:101B0000100587FF07C08091EE028093EF0286E008
:101B10008093EE020280F381E02D8EEE92E0099533
:101B2000089586E0C7CF2191222339F29F5FC5CF68
:101B300090E080E00E94810890E080E00E946B08C5
:101B40001092C0030E94430D0895809347050E94A0
:101B5000980D089580914705982F9670963021F43E
:101B600088600E94A50D0895877FFBCF21E030E0BB
:101B700001C0220F8A95EAF72095809147058223BC
:101B80000E94A50D089590915B0380958923809311
:101B90005B03282F277091F4282F082E000C330B9D
:101BA0009217130659F09091110592FF07C0859581
:101BB000859585950E94B60D10925B03089521E0EE
:101BC00030E001C0220F8A95EAF780914705822B09
:101BD0000E94A50D08958093B6030E94980D089564
:101BE0001092BF0380916501E0EFF2E0882361F07D
:101BF0008091100587FF08C08EE1DF011D928A9554
:101C0000E9F70E94980D089586E0F7CFAAE2B0E0C8
:101C1000ECE0FEE00C941C318CE395E02091F100A7
:101C2000DC012D93CD01B5E084349B07B9F7809199
:101C30003D05833009F472C0B8F4813009F449C01D
:101C4000823009F4B3C08091E80083FF8BC2809199
:101C50003C0590913D059A3008F084C2E92FF0E0F0
:101C6000E552FA4C0C946F318A3009F48EC08B30F7
:101C700009F471C0893039F780913C05813219F738
:101C80008091400590914105009711F00297D9F697
:101C90008091E800877F8093E8008091E80082FFD0
:101CA00038C09091F3008091F200029731F4809156
:101CB000F100813011F0863021F48091F1008093A1
:101CC00017058091E8008B778093E8000E94E0067A
:101CD000BACF80913C05813A09F0B5CF8091E800F8
:101CE000877F8093E8008091400590914105892B82
:101CF00061F460E288E195E070E00E948C078091D9
:101D0000E8008B778093E8009ECF60E090E080E071
:101D1000F3CF80913A058111C0CF95CF80913C05DA
:101D2000813A09F090CF8091400590914105892B2F
:101D300009F089CF8091E800877F8093E800809147
:101D4000E80080FFFCCF809165018093F1008091D5
:101D5000E8008E77B9CF80913C05813209F073CFCE
:101D60008091400590914105892B09F06CCF8091BD
:101D7000E800877F8093E8000E94E00680913E059E
:101D8000809365010E94F00D5ECF80913C05813209
:101D900009F059CF8091E800877F8093E8000E9486
:101DA000E00680913F05809316054DCF80913C055C
:101DB000813A09F048CF8091E800877F8093E8005E
:101DC0008091E80080FFFCCF80911605BECF80385F
:101DD00099F0823809F0C6C1809140058F70873034
:101DE00008F0C0C18093E9008091EB0085FB882753
:101DF00080F91092E90006C080913805909139056C
:101E0000911182609091E800977F9093E800809311
:101E1000F1001092F1008091E8008E779FC1882335
:101E200009F48DC1823009F09DC180913E05811178
:101E300090C1809140058F702FEF280F263008F059
:101E400091C18093E9002091EB0020FF82C1933083
:101E500031F48091EB0080628093EB007AC1909125
:101E6000EB0090619093EB0021E030E001C0220F85
:101E70008A95EAF72093EA001092EA008091EB003D
:101E80008860EACF81116EC110913E051F77809165
:101E9000E3008078812B8093E3008091E800877FC6
:101EA0008093E8000E94E0068091E80080FFFCCF6C
:101EB0008091E30080688093E30082E0111183E069
:101EC00080933A054FC18058823008F04BC1209171
:101ED0003E0530913F052C3DE3E03E07A1F583E050
:101EE0008A838AE289834FB7F894DE01139620E053
:101EF0003EE051E2E32FF0E050935700E49120FFE1
:101F000003C0E295EF703F5FEF708E2F90E0EA30F4
:101F1000C0F0C7968D939D932F5F243159F74FBF23
:101F20008091E800877F8093E8006AE270E0CE014C
:101F300001960E948C078091E8008B778093E800DF
:101F400011C1C096E7CF8091400590914105432F84
:101F500055274330510509F44AC078F54130510501
:101F600009F47AC08BE590E0EEE8F6E042305105E6
:101F700009F0F8C02091E800277F2093E800209125
:101F80004205309143058217930708F49C0140E015
:101F90002115310509F065C0411163C08091E80049
:101FA00082FDC9CF80913A05882329F2853019F244
:101FB0008091E80083FFF2CFBECF4132510509F492
:101FC0003CC04232510509F0CDC08330910508F084
:101FD000C9C0FC01EE0FFF1FE35FFD4F0190F081D0
:101FE000E02D865F9D4FDC018C9190E01AC0332775
:101FF00021303105D1F02115310561F02230310554
:1020000009F0B0C0EBEFF6E0E4918E2F90E0EBEF3B
:10201000F6E007C0EBE1F7E0E4918E2F90E0EBE112
:10202000F7E0009709F49EC0A5CFE9E0F7E0E4915E
:102030008E2F90E0E9E0F7E0F4CF8330910508F0CF
:1020400091C0880F991FFC01ED5EFD4F0190F0815A
:10205000E02D89E090E08ECF82E190E0E9EEF6E0BD
:1020600089CF80913A05882309F465CF853009F43A
:1020700062CF8091E80083FD5ECF8091E80082FD11
:102080008DCF8091E80080FF83CF9091F300809105
:10209000F2002115310519F08830910550F041E02A
:1020A000089709F040E08091E8008E778093E8007F
:1020B0006FCF44914093F100319621503109019640
:1020C000E8CF803809F04EC08091E800877F809388
:1020D000E80080913B058093F1009DCE811142C0C4
:1020E00010913E051230F0F58091E800877F8093D3
:1020F000E80010933B050E94E006112311F084E0F4
:1021000005C08091E30087FDFACF81E080933A0516
:1021100042E061EC81E00E94FF0642E261EC84E073
:102120000E94FF0642E261EC82E00E94FF0642E26A
:1021300060EC83E00E94FF0680913A0513C0809115
:102140003E05813079F481E0933009F080E080939E
:1021500039051092E9008091E800877F8093E800BC
:102160000E94E0068091E80083FF0AC08091E800A9
:10217000877F8093E8008091EB0080628093EB0082
:10218000AA96E3E00C943831882321F00E94F00BEA
:102190000E94430D0895882339F09091BF03982B36
:1021A0009093BF030E94430D0895882351F19CEF43
:1021B000980F913A40F4682F8EEE92E00E940C083E
:1021C0000E94430D089590E2980F983050F4877064
:1021D00091E001C0990F8A95EAF7892F0E94F00BD0
:1021E000EFCF9BE5980F933028F490E080E00E94B9
:1021F00081080895885A873120F490E080E00E9499
:102200006B080895CF93C82F8823D9F18CEF8C0FDA
:10221000813AC8F580916501882311F180911005FC
:1022200087FF1EC0EC2FE695E695E695F0E0E251BB
:10223000FD4F828190E04C2F477021E030E002C0DA
:10224000220F331F4A95E2F782239323892B91F0C3
:102250006C2F8EEE92E00E940C080E94430D0AC083
:10226000E0EFF2E086EF92E02191C21789F38E173A
:102270009F07D1F76C2F8EEE92E00E9436080E94E5
:10228000430DCF91089580E28C0F883068F4C770B9
:1022900021E030E001C0220FCA95EAF78091BF0328
:1022A000822B8093BF03EBCFEBE5EC0FE33040F4E0
:1022B000F0E0E754FE4F808190E00E948108E1CF7A
:1022C000C85AC731F0F6EC2FF0E0EE0FFF1FE454D0
:1022D000FE4F808191810E946B08D3CFB0E0A0E0D7
:1022E000E4E7F1E10C9417316C017B0164E670E0E6
:1022F00088E70E94542EEC0197FD12C010E000E028
:10230000F601E00FF11F849164E670E00E94C22E96
:10231000EC01892B29F40F5F1F4F0E151F0581F764
:102320000E94392FCE01CDB7DEB7E8E00C943331EF
:102330008091020590910305911103C091E08927D6
:102340000895882369F062E070E08CEE93E00E94CB
:102350006E11892B19F080910205089510920205E3
:1023600080910205EBCFCF93C091020580910305C8
:102370008823D1F00E940008605A75418F4F9F4F0B
:102380006093FE047093FF04809300059093010511
:10239000C11108C062E070E08AEE93E00E946E1105
:1023A000892B29F0C09102058C2FCF91089581E0EF
:1023B00080930205F7CF8093120570931405609304
:1023C000130580913A058430F9F48093E9008FEF8A
:1023D0009091E800815095FD06C095ED9A95F1F732
:1023E00000008111F5CF8091E80085FF0DC050E01D
:1023F00040E063E070E082E195E00E94B6068091E3
:10240000E8008E778093E8000895BC0184E00E9484
:10241000DB110895BC0183E00E94DB110895CF9386
:10242000DF93EC01809165018823B1F18091100563
:1024300087FF32C060E284E08093E9008FEF9091E3
:10244000E800815095FD06C095ED9A95F1F70000E2
:102450008111F5CF8091E80085FF1BC08091650157
:1024600070E050E040E0811104C050E040E068E0DE
:1024700070E0CE010E94B6068091E8008E778093CE
:10248000E80080E2FE01A8E1B5E001900D928A9596
:10249000E1F7DF91CF91089568E081E0CDCF539AC5
:1024A0003BB1377F2BB128604FB7F8948CE594E0AF
:1024B000FC015191CF0168E02BB9000000C057FF2B
:1024C0003BB9550F000000C000C000C03BB900C0C0
:1024D0006A9591F7F4E08E3F9F0751F74FBF8FE564
:1024E00094E00197F1F700C000000895B0E0A0E08B
:1024F000ECE7F2E10C9415317C015B016A018091FB
:10250000CA0301E010E08A3010F40AE010E0C1E0F4
:10251000D0E0B501C701F6010995811104C02196EB
:102520000C171D072CF4CDB7DEB7EAE00C9431315F
:10253000CC9F9001CD9F300D300D112490E080E0B4
:1025400045E34A95F1F70000019682179307C1F71A
:10255000E0CF80918703811110C08091D800806105
:102560008093D8008AE18A95F1F700C08091D90064
:1025700080FF0AC081E08093870381E09091870308
:10258000913009F080E0089582E0809387030E94F3
:10259000660610923A05F1CFB0E0A0E0E2EDF2E17C
:1025A0000C9415317C01C09166018BE0C89FC02D51
:1025B00011241BE01C0F173308F016E30E94A91228
:1025C000882319F01C3108F01BE10E94A912811127
:1025D00003C0CB3108F4CBE12091800731E0230F19
:1025E00008F42FEF30E050E040E06FEF7FEF80E045
:1025F00090E00E9450316901D0E001E0B12CA12CA3
:102600002C2FC11758F00E94A912882309F447C043
:1026100081E01B3108F447C080E045C0FE01EB5467
:10262000FD4F808190916701892329F180915307A3
:102630008150082E000C990B87FF1FC0B601309106
:102640008007300F08F43FEFA501639F412D739F72
:10265000400D511D112460917D0770917E0780917E
:102660007F07F70109950E947309462F282F672FCE
:10267000CE010E9457092196C3CFFC01ED5AF84FB5
:10268000318932130AC0FC01EE0FFF1FED5AF84FDB
:10269000618D728D6C157D0590F20197CDCF81E033
:1026A000163308F0B9CFCDB7DEB7EAE00C9431317C
:1026B0000E94A912811103C0809104050895E09140
:1026C0000705F0910805309729F00190F081E02D81
:1026D0000995089580E00895FF920F931F93CF937B
:1026E000DF93EC01F62E042F122F0E94A912811104
:1026F0000FC0CB31D1057CF06B97FE01EE0FFF1FB1
:10270000EC0FFD1FE45AFB4FF1820083128303C0DC
:10271000CB31D10594F3CDB7DEB7E5E00C9436317B
:10272000B0E0A0E0E6E9F3E10C941831C82F809105
:1027300063018C1325C090917C07937020916201F6
:1027400030E081E09217130609F480E081708093F5
:1027500068018091810790916701981739F0809303
:10276000670140E060E080E00E945A09C23009F44D
:1027700076C040F4CC2381F0C130C1F080E046C087
:1027800081E0E4CFC33009F4DEC08AE499E0C430CC
:10279000A9F70E94CC123AC0809168018823B1F158
:1027A00040E060E080E00E945A09E8CF00916601B5
:1027B0008BE0089F002D1124DBE0D00FD73308F009
:1027C000D6E30E94A912882319F0DC3108F0DBE17E
:1027D0000E94A912811103C00B3108F40BE1609132
:1027E0007D0770917E0780917F070E947309F62E06
:1027F000E72ED82E10E00D1708F10E94A9128823A9
:1028000009F49CC081E0DB3108F0B8CF90916601FB
:102810009F5F9093660181110CC082E080936401F8
:1028200080916801811105C0C11103C083E08093CC
:102830006401CDB7DEB7E7E00C943431F801EB5416
:10284000FD4F808190916701892331F02D2D4F2D0F
:102850006E2DC8010E9457090F5F1F4FCCCF00910A
:1028600066018BE0089F002D1124DBE0D00FD733E9
:1028700008F0D6E30E94A912882319F0DC3108F091
:10288000DBE10E94A912811103C00B3108F40BE1B6
:1028900060917D0770917E0740917F07E09156041B
:1028A000F09157048091800786958695869530E053
:1028B00020E0E89F212DF89F200D311D1124922F3B
:1028C00096FD2095322F3F7096FD3F5F2695269509
:1028D00026952670E22FF0E0EE5FFD4F8181839F09
:1028E000802D312D112482958F703295307F832B6E
:1028F0002081820F97FD819587FD8195880F282F74
:10290000249F212D1124822F0E947309F62EE72E79
:10291000D82E10E00D1708F070CFF801EB54FD4FE2
:10292000808190916701892331F02D2D4F2D6E2DDF
:10293000C8010E9457090F5F1F4FECCF81E0D633CB
:1029400008F464CF1BCF80E599E023CFCF93C82F45
:10295000882391F080915A0481110EC00E94901337
:102960001092630180917C078370809362010E94C2
:102970004F1283E080936401C0935A04CF9108956D
:102980000F931F930E94A912882329F00E94000828
:102990001F910F9108950E9400080091CB031091A0
:1029A000CC032091CD033091CE03600F711F821FA5
:1029B000931FEECFCF92DF92EF92FF926B017C01DB
:1029C0000E94A9128823A1F02FB7F89460910C05FA
:1029D00070910D0580910E0590910F052FBF6C1918
:1029E0007D098E099F09FF90EF90DF90CF900895A9
:1029F0000E94C014F4CF1F93CF93DF93182FD0E021
:102A0000C0E0893311F4C0E5D0E0812F0E940211AB
:102A1000209739F4812F0E94D510DF91CF911F911B
:102A200008958FE99FE00197F1F700C0000021971A
:102A3000EFCF0E94F00D2FEF84E39CE02150804007
:102A40009040E1F700C0000088E19AE00FB6F894EA
:102A5000A895809360000FBE90936000FFCFCF9346
:102A6000DF93C7ECD2E060E0CE010E94B53521963D
:102A7000C11584E0D807B9F7DF91CF9108951F936E
:102A8000CF93DF93122F8730E0F46830D0F44630D4
:102A9000C0F4C42FD0E0CC0FDD1F9CE0699FC00DB7
:102AA000D11D112490E6899FC00DD11D1124632FE3
:102AB000CE0187960E94B535612FCE0188960E947F
:102AC000B535DF91CF911F910895AF92BF92CF920C
:102AD000DF92EF92FF921F93CF93DF938EEEC82E7B
:102AE00083E0D82ED0E07601C0E014C0F501259136
:102AF0003491412F6C2F8D2F0E943F1582E0A80E3C
:102B0000B11C1F5F163091F78CE0E80EF11CCF5F0F
:102B1000C83019F0570110E0E9CFDF5F80E6C80E3A
:102B2000D11CD73001F7DF91CF911F91FF90EF902B
:102B3000DF90CF90BF90AF900895CF93C82F6FEFE5
:102B4000811162E283E290E00E94B5356FEFC1111E
:102B500066E084E290E00E94B5356FEFC11161E25A
:102B600085E290E00E94B535CF91089580E00E9403
:102B70009D1560E086E290E00E94B5350E946515E3
:102B80000E942F1581E00E949D150895CF93C0915A
:102B90001105C2FB992790F9981791F080FBC2F9B3
:102BA000C09311056091100584E090E00E94B53556
:102BB0006C2F82E290E00E94B53582E00E94C30D46
:102BC000CF9108950F931F93CF93DF93873030F504
:102BD000683020F5463010F5C42FD0E0CC0FDD1F53
:102BE0002CE0629FC00DD11D112430E6839FC00DE3
:102BF000D11D1124CE0187960E949735082F10E031
:102C0000102F0027CE0188960E9497359801282B17
:102C1000C901DF91CF911F910F91089590E080E05D
:102C2000F8CF462F873040F4783030F4663020F407
:102C3000672F0E94E215089590E080E00895CF92FA
:102C4000DF92FF920F931F93CF93DF936C0100915C
:102C500047058091B603082BC7E0D0E010E0FC2EBA
:102C6000C8010C2E02C0959587950A94E2F780FD65
:102C70000CC02197A0F7F12C8F2DDF91CF911F91E0
:102C80000F91FF90DF90CF900895B6018C2F0E9496
:102C900011160E94630A019761F3EECFCF93DF9381
:102CA000EC010E941F16BE010E9411160E94630AC9
:102CB000DF91CF910895FC01808191810E944E1691
:102CC00092959F70963091F058F4925F9F70923079
:102CD00058F4803F19F030F4883E30F481E00895D4
:102CE0009A5FF4CF843FD1F380E00895883EB0F33B
:102CF000813FD1F7F3CF83E290E00E949735823293
:102D000089F484E290E00E949735863059F485E298
:102D100090E00E94973591E0813209F090E0892F90
:102D20008170089580E0FCCFCF9384E090E00E9412
:102D30009735C82F82E290E00E949735982F8C2F0C
:102D4000CF91089546E050E06CE170E08CE797E0A9
:102D50000E94A53510925B040895B0E0A0E0E3EB7B
:102D6000F6E10C940F3160915204709153048091FC
:102D70005404909155040E94DA146B017C010E9466
:102D8000C0144B015C018092520490925304A092B3
:102D90005404B0925504A0912904E9E2F4E08A2F8A
:102DA00090E04FEF5FEF60E070E04C195D096E0955
:102DB0007F09A91320C08093290480915A04C0E0A0
:102DC000811108C080917C07C82FC37019F0C82FEB
:102DD000C695C695809164018130B9F18823F1F0E0
:102DE000823009F4E8C0833009F4F0C0CDB7DEB713
:102DF000E0E10C942B31218D328D2901712C612C55
:102E0000441555056605770520F481509F5F32967D
:102E1000D0CF2C0D3D1D328F218FF8CF109266013F
:102E20008092560490925704A0925804B09259048C
:102E300089E2E9E2F4E0A3E5B7E001900D928A951A
:102E4000E1F781E080936401D1CF8C2F0E94901331
:102E5000CC2361F2E09066018BE0E89E802D112486
:102E600025EF922E980EE82E26E3281710F496E30D
:102E7000E92E0E945813C92DD0E081FD32C0809107
:102E800047050E946C0C182F882309F4AFCF89E105
:102E9000C82E82E0D82EF12C560100E0F501C19138
:102EA0005F01C91508F43FC0EC16E8F1602F7F2DD3
:102EB000812F0E94111681159C45B1F420E040E05D
:102EC0006FEF8C2F90E02DC0FE01EB54FD4F808101
:102ED00082FF06C02FEF4FEF6FEFCE010E94570920
:102EE0002196EC1688F7CBCF602F7F2D812F0E9483
:102EF00011168E3D9C4511F3602F7F2D812F0E946E
:102F00001116029708F440C0D0E0133011F1B8F464
:102F10001130E9F020E0123009F02FEF4FEF6FEFA2
:102F2000CE010E9457090F5F063009F0B7CFF39426
:102F300086E0C80ED11CE8E0FE12AECF57CF1530A8
:102F400009F150F020E0163041F74FEF12C02FEF9B
:102F5000FCCF2FEF40E0E3CF602F7F2D84E00E9475
:102F600011168730910561F030F4049749F020E0A4
:102F700040E060E0D5CF8631910511F04A97B9F76E
:102F800020E0E8CF2FEFF4CF602F7F2D812F0E941C
:102F900011162AE04AE06AE0019709F492CF602F07
:102FA0007F2D812F0E941116892B09F0BCCF20E0C4
:102FB00040E060E086CFC093630180917C0783701E
:102FC000809362010E944F1283E03CCF80915B04AA
:102FD00081110E94A216609156047091570480914D
:102FE0005804909159040E94DA14603171058105EA
:102FF000910508F4FBCE10926401F8CEECE7F7E0FF
:1030000085E080838091690190916A01A0916B01B4
:1030100081839283A3838FE784838FEF85830E94CC
:10302000A2160895B0E0A0E0E8E1F8E10C941831B0
:103030007901C82F880FDD0B41155105A9F0FE015C
:1030400093E0EE0FFF1F9A95E1F7EA5FFE4F818153
:10305000928188579C4F208130E04217530708F433
:103060009A01A9010E94DF32CE010E948330D82E3E
:103070008823D1F001151105B9F083E0CC0FDD1FD5
:103080008A95E1F7FE01EA5FFE4F438150E00417A5
:10309000150708F4A801CA5FDE4F6C817D8168576F
:1030A0007C4FC7010E94DF328D2DCDB7DEB7E7E040
:1030B0000C943431A3E0B0E0E0E6F8E10C941B316D
:1030C0008091C2039091C303A091C403B091C50342
:1030D0002FB7F89440910C0550910D0560910E05A5
:1030E00070910F052FBF481B590B6A0B7B0B81E0BA
:1030F000443651056105710508F480E09091BF03E5
:103100009983443651056105710520F42091980397
:10311000291381E09091C0039A83811106C081E058
:1031200020919903291301C080E09091C1039B83F2
:10313000811105C080919A0311E08917C9F010E050
:1031400000E030E020E043E050E0BE016F5F7F4FE1
:1031500087E00E941218182F882351F00E9400085F
:103160006093C2037093C3038093C4039093C50319
:10317000812F2396E4E00C943731A4E0B0E0E3EC37
:10318000F8E10C941B314091AE035091AF03609174
:10319000B0037091B1032FB7F89480910C05909112
:1031A0000D05A0910E05B0910F052FBF841B950B47
:1031B000A60BB70B11E084369105A105B10518F1F6
:1031C0000E94C0146E5F7F4F8F4F9F4F69837A8339
:1031D0008B839C8310E000E030E020E044E050E08E
:1031E000BE016F5F7F4F83E00E941218182F882363
:1031F00051F00E9400086093AE037093AF03809378
:10320000B0039093B103812F2496E4E00C943731FE
:10321000A5E0B0E0EEE0F9E10C9419317B0101E0AA
:1032200010E09E012B5F3F4F50E040E070E060E017
:1032300080E00E941218182F882309F452C0409190
:10324000A6035091A7036091A8037091A9032FB71B
:10325000F89480910C0590910D05A0910E05B09108
:103260000F052FBF841B950BA60BB70B843691055A
:10327000A105B10538F489E893E00E944F069D81CD
:10328000891779F104E010E09E012F5F3F4F50E075
:1032900040E070E060E081E00E941218082F89E8A9
:1032A00093E00E944F0611E09D81981310E01023D7
:1032B00031F10E9400086093A6037093A7038093E6
:1032C000A8039093A90389819A81AB81BC818093E3
:1032D000A2039093A303A093A403B093A50311E0CA
:1032E0000EC08091890390918A03A0918B03B091C5
:1032F0008C0389839A83AB83BC831111E4CF8091C3
:10330000A2039091A303A091A403B091A503F70198
:1033100080839183A283B383812F2596E6E00C946A
:1033200035318F929F92AF92BF92EF92FF920F939F
:103330001F93CF937B01942FB901A801F7018080DF
:103340009180A280B380EFB7F89400910C051091A2
:103350000D0520910E0530910F05EFBF08191909D1
:103360002A093B09043611052105310518F4C1E08D
:10337000992381F010E000E030E020E00E94121874
:10338000C82F882339F00E940008F70160837183F9
:10339000828393838C2FCF911F910F91FF90EF9099
:1033A000BF90AF909F908F9008950F931F9341E02F
:1033B0009091950380914705981301C040E001E08A
:1033C00010E027E435E067EB73E084E00E94911998
:1033D000882389F041E0909196038091B603981379
:1033E00001C040E001E010E026EB33E062EB73E067
:1033F00085E00E9491191F910F910895CF92DF925D
:10340000FF920F931F93CF93DF93F82E6B01EA0186
:10341000A801B901CE010E94D23241E0892B09F402
:1034200040E09E01B6018F2D0E949119DF91CF914E
:103430001F910F91FF90DF90CF900895A7E0B0E02B
:10344000E4E2FAE10C941B3186E0ECE7F7E0DE0100
:10345000119601900D928A95E1F780915A048F831D
:1034600007E010E02BE933E0AE014F5F5F4F66EC01
:1034700073E088E00E94FE192796E4E00C9437314F
:10348000A1E0B0E0E6E4FAE10C941B310E9458138D
:10349000898301E010E027E933E0AE014F5F5F4F21
:1034A0006BEB73E086E00E94FE192196E4E00C9439
:1034B00037310F931F9304E010E02DE833E0AC01A7
:1034C0006AEA73E082E00E94FE191F910F9108954D
:1034D00090E080E00E949F35883E9E4F19F40E9444
:1034E0007B16089580E0089568EE7EEF90E080E01E
:1034F0000E94D33560E082E090E00E94B53560E044
:1035000083E090E00E94B5351092B60360E084E05D
:1035100090E00E94B53564E082E290E00E94B5350B
:1035200060E085E090E00E94B53560E086E090E0E4
:103530000E94B5356FEF87E090E00E94B53540E01E
:1035400050E0BA0188E090E00E94C73560E08DE06D
:1035500090E00E94B53540E050E0BA0188E190E08B
:103560000E94C73560E087E190E00E94B53540E0F9
:1035700050E0BA018CE190E00E94C73570E060E055
:1035800080E290E00E94D33540E050E0BA0188E14B
:1035900090E00E94C73580E00E949D150E94B615FC
:1035A00040E050E0BA018FE090E00E94C73540E073
:1035B00050E0BA0183E190E00E94C73508951F9260
:1035C0000F920FB60F9211242F933F934F935F9357
:1035D0006F937F938F939F93AF93BF93CF93DF931B
:1035E000EF93FF93D091E900DF708091EC00C82F3A
:1035F000C17080FDC0E81092E9008091F000877FE3
:103600008093F00078940E94060E1092E900809159
:10361000F00088608093F000CD2BCF70C093E9005C
:10362000FF91EF91DF91CF91BF91AF919F918F91DA
:103630007F916F915F914F913F912F910F900FBEAE
:103640000F901F9018951F920F920FB60F92112492
:103650002F933F934F935F936F937F938F939F939A
:10366000AF93BF93EF93FF938091E10082FF09C076
:103670008091E20082FF05C08091E1008B7F809302
:10368000E1008091DA0080FF24C08091D80080FFA3
:1036900020C08091DA008E7F8093DA008091D9007B
:1036A00080FF9DC080E189BD82E189BD09B400FE33
:1036B000FDCF81E080933A0580911505811109C005
:1036C0000E9466060E9431078091E2008460809328
:1036D000E2008091E10080FF17C08091E20080FF4E
:1036E00013C08091E2008E7F8093E2008091E2001F
:1036F00080618093E2008091D80080628093D8003E
:1037000019BC85E080933A058091E10084FF2BC0CD
:103710008091E20084FF27C080E189BD82E189BDFC
:1037200089B5982F917080FFFBCF8091D8008F7D55
:103730008093D8008091E1008F7E8093E10080919A
:10374000E2008F7E8093E2008091E20081608093AE
:10375000E20080913B05882309F447C084E0809310
:103760003A0580913A058091E10083FF27C080915E
:10377000E20083FF23C08091E100877F8093E10016
:1037800082E080933A0510923B058091E1008E7FA4
:103790008093E1008091E2008E7F8093E20080912F
:1037A000E20080618093E20042E060E080E00E94FD
:1037B000FF068091F00088608093F000FF91EF9108
:1037C000BF91AF919F918F917F916F915F914F9139
:1037D0003F912F910F900FBE0F901F90189519BC1D
:1037E00010923A051092150574CF8091E30087FD81
:1037F00093E090933A05B5CF78941F921FB61F922D
:1038000011248F939F93AF93BF9380910C05909158
:103810000D05A0910E05B0910F050196A11DB11DDA
:1038200080930C0590930D05A0930E05B0930F05A2
:10383000BF91AF919F918F911F901FBE1F901895C0
:103840009C014FB7F89480910C0590910D05A091C3
:103850000E05B0910F054FBF821B930B08952FB734
:10386000F89480910C0590910D05A0910E05B091F2
:103870000F052FBF08950F931F93CF93DF93C62F8C
:10388000D42F022FFC0182818823A9F06093460582
:103890000E942F1C9093450580934405C77081E0DA
:1038A00001C0880FCA95EAF70E94CB10DF91CF9133
:1038B0001F910F91089580914605681332C0809141
:1038C0004405909145050E94201C883C910548F5CF
:1038D00010E21D0FCD17B9F080E28C0F883040F454
:1038E000C77081E001C0880FCA95EAF70E94C41032
:1038F000183048F481E09D2F977001C0880F9A9589
:10390000EAF70E94CB10802F0E94FB14183070F64B
:10391000D77081E001C0880FDA95EAF70E94C410E1
:10392000C5CFC77081E001C0880FCA95EAF7F6CF0E
:10393000A5E0B0E0EEE9FCE10C940E318C01FC0155
:1039400083819481892B31F08081918189238F3FFC
:1039500009F0BEC52596E1E10C942A310E941F169C
:10396000F82E682F89819A810E94350C69817A81AD
:103970008F2D0E9411167C01F8018281882309F4A1
:103980009AC5C70182519F45409708F036C58FEF11
:1039900093E00E949735811128C0FEEEEF0E57ECA0
:1039A000852E52E0952EE11032C01C821B824424E9
:1039B00043944AE0342E74018FEFE81AF80AC401E8
:1039C0000E94973589831A82882379F09FEF980F98
:1039D000933058F58A83498292E0890E911CC70181
:1039E0000E9497358B83811121C080915B03877082
:1039F00009F4B0CFF8018281882309F4ABCF80911C
:103A0000110582FFA7CF82E00E94C30DA3CF8114CE
:103A100024E0920651F3C4010E949735811101C040
:103A2000EA943FEF831A930ABECF4701FE01319615
:103A30007F01F7012081222309F4BDCF213009F055
:103A400047C091818281913031F4F2E0EF0EF11C98
:103A50000E94FB1407C0923049F422E0E20EF11CF0
:103A60000E9402113FEFE31AF30AE3CF933031F4DF
:103A700032E0E30EF11C0E94D510F4CF943021F017
:103A80008FEFE81AF80AEECF92E0E90EF11C30E071
:103A900020E0B7016F5F7F4FF70141818053990BA1
:103AA0008A30910550F021503109E0F28FE99FE012
:103AB0000197F1F700C00000F6CF329EF001339E6F
:103AC000F00D11249C012E0F3F1F842F7B01E1CFAD
:103AD000E22FF0E0E555FE4F5490822F86958695B3
:103AE000869590E0FC01E556FE4F64902770712C9E
:103AF000022E02C0759467940A94E2F7E1E06E2208
:103B00007724FC01E557FE4FA490B12C022E02C091
:103B1000B594A7940A94E2F7F1E0AF22BB24FC012C
:103B2000E558FE4FC490D12C02C0D594C7942A9575
:103B3000E2F721E0C222DD246114710419F081EE64
:103B40000E940211A114B10419F086EE0E94021124
:103B5000852D0E94FB14A114B10419F086EE0E9479
:103B6000D5106114710419F081EE0E94D510C114B2
:103B7000D10409F477CF8CE26BCF81E00E94DF0D96
:103B80000E94AA0D32CF81E00E94B60DF9CF82E0EB
:103B9000F5CFC7014BC490910E03992301F18CE43A
:103BA0000E94D51010920E0320CFF3EFEF16FCE524
:103BB000FF0609F487C008F06AC038EDE3163CE55B
:103BC000F30609F47BC099EDE9169CE5F90609F4C2
:103BD00085C0E7EDEE16ECE5FE0609F46BC0F801D2
:103BE0009281992309F485C410924605F3E0EF16FB
:103BF000FDE5FF0608F075C02AEFE2162CE5F20697
:103C000038F4970122503C452431310508F075C045
:103C10000E9494169093110580931005E1E1EE1631
:103C2000ECE5FE0609F44DC108F0BBC029E0E21640
:103C30002CE5F20609F433C108F084C085E0E816EB
:103C40008CE5F80609F41FC108F06DC0E3E0EE163C
:103C5000ECE5FE0609F40DC108F011C180911005D4
:103C6000816022E0E2162CE5F20609F405C16091BC
:103C70001005F090110584E090E00E94B5356F2D9D
:103C800082E290E00E94B5350E94F00DAECEF5EFD5
:103C9000EF16FCE5FF06F1F0C8F027E245EE66EE10
:103CA00036EFE3163CE5F30609F099CFC8010E9410
:103CB0003B1C9BCE26E241EE61EEF8CF27E245EEBB
:103CC00065EEF4CF26E241EE60EEF0CF27E245EE5E
:103CD00064EEECCF26E241EE62EEE8CF28E241E06E
:103CE000EFCF31E6E3163DE5F30609F491CF95EA0F
:103CF000E9169DE5F90609F48BCF36E1E3163CE5BC
:103D0000F30609F074C48A7A91E009F490E0909384
:103D1000100369E2811165E38EEE92E00E9436089D
:103D20000E94430D62CE80911005806237E0E31659
:103D30003CE5F30609F4A0C008F4ADC0809110057D
:103D400080649AC0809110058B7F9DE0E9169CE508
:103D5000F90609F491C0B0F4809110058E7FFBE064
:103D6000EF16FCE5FF0609F487C0809110058C6012
:103D70002CE0E2162CE5F20608F47EC080911005D6
:103D80008D7F7AC0809110058F7E3FE0E3163CE581
:103D9000F30609F471C008F488C0809110058F7D86
:103DA0006BC09DEFE9169CE5F90609F486C078F52D
:103DB000F5E1EF16FCE5FF0609F491C0A0F480914F
:103DC0001005837F33E1E3163CE5F30609F454C0A4
:103DD00008F47BC00E94F00D90911005892F97FB8D
:103DE00087F9805849C09BEFE9169CE5F90609F46C
:103DF0004EC008F05EC0809111058160FAEFEF16A9
:103E0000FCE5FF0609F033CF8093110530CF21E0A8
:103E1000E2162DE5F20609F46EC0B8F48FEFE8164D
:103E20008CE5F80609F457C0809111058360E11410
:103E30009DE5F90648F380911105982F90959170B2
:103E40008E7F892B90FB81F9DFCFE1E6EE16EDE561
:103E5000FE0609F456C0F5EAEF16FDE5FF0609F483
:103E600057C022E0E2162DE5F20609F000CF60E02F
:103E700043C080911005826080931005F8CE809138
:103E800010058460F9CF809110058860F5CF80918E
:103E900011058260B9CF809110058061EDCF0E943D
:103EA000F00D809110058068E7CF80911005877F25
:103EB000E3CF809111058E7FA7CF809111058D7F73
:103EC000A3CF809110058F7BD7CF0E94F00D8091FA
:103ED00010058F77D1CF809111058C7F95CF809180
:103EE000100582FB992790F921E0922790FB82F937
:103EF00090FB83F9C1CF61E08EE090E00E94B53580
:103F0000B6CE90911005892F8F7E94FF8061B4CF3B
:103F100090911005892F8E7F90FF8160ADCF8091A9
:103F2000100369E2811165E38EEE92E00E940C08B5
:103F3000F7CE43E359E06EE379E00E94970855CD50
:103F40004EE359E063E379E0F8CF44E059E06FE0F5
:103F500079E0F3CF4CEC58E06AED78E0EECF61E029
:103F600081E00E941A0941CD0E94F00D8FEF94E389
:103F7000ECE081509040E040E1F700C000000E947A
:103F8000EF078091110582FB882780F991E089274E
:103F90000E94C615F8018281E080F180882309F42F
:103FA00045C0C7010E941F16D82E682FC7010E9466
:103FB000350CB7018D2D0E9411160E94630A7C01F9
:103FC000882EF801D280B580B2943FE0B322809170
:103FD0005B038770C1F0AD2CDD20B1F08F2D807FA9
:103FE000803421F080E28E0D883068F080911105D8
:103FF00082FF09C082E00E94C30D80915B0387703D
:10400000AA24A3948111A12C9F2C92942FE0922298
:10401000FBE0F91508F479C0E92DF0E0EB51FA4C1A
:104020000C946F3181E0B4CF80E0B2CFC7010E9421
:10403000010CD82EBECF2F2D2F70C22E8F2D807F3A
:1040400019F0C29490EFC922DD20B9F0CC2069F0BC
:1040500080E28E0D883010F0811009C08091BF037E
:10406000C82AC092BF030E94430D8E2D4CC0809180
:10407000C003C82AC092C003F6CF8E2D0E94D5106F
:10408000CC2009F442C080E28E0D883010F08110FF
:1040900004C08C2D0E94F00B06C0C0948091C00318
:1040A000C822C092C0030E94430D2FC03F2D3F7015
:1040B000C32E8F2D807F803219F0C29480EFC822EA
:1040C000882089F081E0881609F463C0DD2009F4B6
:1040D0006DC0BB2009F463C0F801858180FFC5CFA6
:1040E0008F7085835CC08091110582FD35C0DD2015
:1040F00069F1CC2039F08091BF03C82AC092BF0378
:104100000E94430D80E00E940211292D2850330B9C
:104110002430310510F40E945813AA2009F41ACC57
:1041200080915B0380FD16CCF80112828595859500
:1041300085950E94DF0DC8010E94981C80915B0349
:104140008595859585950E94B60D04CC80E00E94EA
:10415000D510CC20D1F29DCFDD2071F08091C1032C
:104160008C29B11003C00E94CB10CFCF91E0B912BF
:10417000FACF0E94E60BC9CFB11006C00E94E00B37
:104180008C2D0E94C410C1CFE1E0BE1609F4BDCF52
:10419000F5CFDD2031F0F5E0FB1508F4B6CF8C2D1E
:1041A000E2CF24E02B1508F4B0CFEACFBB2041F3D7
:1041B000F9E38F1209C02FEF37EE83E02150304032
:1041C0008040E1F700C000008E2D0E94D5109DCFE9
:1041D0008F2D86958695837061F0813009F095CF9B
:1041E000C7019370D11002C090E080E00E946B087C
:1041F0008CCFC7019370D11002C090E080E00E9484
:10420000810883CF8F2D837091F5D1107ECF4E2DF5
:10421000429546954770440F440F8E2D8F70042EA3
:1042200001C0880F0A94EAF72E2D2071E4FE07C022
:104230002FE030E001C0220F4A95EAF720953F2D8C
:10424000369536953370323069F050F44091B603AC
:10425000313029F0822B84230E94EB0D56CF842B22
:10426000822BFACF282B8091B6038227F5CF869533
:10427000DD2011F08F2D8170882309F446CF4E2D5B
:10428000429546954770440F440F8E2D8F70042E33
:1042900001C0880F0A94EAF72E2D2071E4FE07C0B2
:1042A0002FE030E001C0220F4A95EAF720953F2D1C
:1042B000369536953370323069F050F440914705A9
:1042C000313029F0822B84230E94A50D1ECF842B30
:1042D000822BFACF282B809147058227F5CF9F2D7F
:1042E0009F70F92EDD2029F0892F0E94DF0D8E2D81
:1042F0003ACF8E2D0E94C4108F2D0E94B60D05CF8F
:104300008E2DE2EF8E16B1F1E81570F0F0EF8F16FA
:10431000D1F021EF821691F0DD2009F45EC0B110DA
:10432000A4CE8F2D8F712AC033EF831651F194EFF5
:104330008912F2CF8091110582FD2FC08F2D8F71D0
:10434000DD20D9F21BC0DD2081F0E4E0EB1508F49C
:10435000DCCE2F2D2F7181E090E001C0880F2A95CF
:10436000EAF7909147058927AFCFF5E0FB1508F4F0
:10437000CCCEEFCF8F2D8F71D110BFCF0E94DF0D2C
:10438000C4CE80E0DD2009F49FCF9F2D9F7181E096
:1043900001C0880F9A95EAF797CFDD2099F02F2D6D
:1043A0002F71F22E822F0E94DF0D8091110582FF66
:1043B00007C038E0F39EC0011124836080935B0343
:1043C0008F2DDCCF81E00E94C30D81E08B1508F0BA
:1043D0009CCE82E00E94C30D98CEBB2059F0893359
:1043E00009F0F2CE9FEFE7EEF3E09150E040F040AD
:1043F000E1F7E8CE8F2D8F7180CFF0E1EF16FFE56A
:10440000FF0609F4BACB21E1E2162FE5F20609F422
:10441000BECBC70190568115E0E29E0728F0905E62
:104420008115904108F0B5CBC701992720E28C3364
:10443000910520F4FC01E358FE4F20811F922F9339
:104440009F938F93F80180811F928F9381811F9298
:104450008F938CE691E09F938F931F9288E18F93C7
:1044600084EE93E09F938F930E94E8320FB6F89406
:10447000DEBF0FBECDBF8091BF0380930F033AE232
:10448000E316F10409F091CBF8019281992309F424
:1044900082CB982F927209F4A2CB82E20E94F00B99
:1044A0008CE40E94021181E080930E0380910F033F
:1044B0008093BF039ACA30E1E3163FE5F30609F49F
:1044C00062CB81E1E8168FE5F806A9F682E05CCBC5
:1044D00085E0DE01119601900D928A95E1F7F801D1
:1044E000228189819A81211139CA0E94010CF82EFA
:1044F0003DCAF6E1EF16FCE5FF0609F410CD827225
:1045000029ECE2162CE5F20609F424CDE0F595EC51
:10451000E9169CE5F90609F418CDE0F4F3ECEF1682
:10452000FCE5FF0609F405CD08F00ACD32ECE316F0
:104530003CE5F30609F02ECD80917C0791E08927B8
:1045400080937C071092640180915B04816080936A
:104550005B044BCA48EE58E066EF78E097ECE9164A
:104560009CE5F90609F4E9CC4FE059E064E079E014
:10457000E8ECEE16ECE5FE0608F4DFCC46EF58E07A
:1045800068EE78E0DACCFDECEF16FCE5FF0609F406
:10459000E6CCC8F44DE958E06BEA78E03BECE31672
:1045A0003CE5F30609F4C9CC4AED58E06CEC78E040
:1045B0009CECE9169CE5F90608F4BFCC4BEA58E000
:1045C0006DE978E0BACCE6EDEE16ECE5FE0648F4CF
:1045D00061E082E0FFECEF16FCE5FF0608F4C1CCD9
:1045E00004CA2DE5E216F20609F4FFC9D3CC3AE578
:1045F000E3163DE5F30609F415CD78F4E1149CE5E6
:10460000F90609F4B1CCEEEDEE16ECE5FE0609F084
:10461000C1CC0E94741A0E941915FCE5EF16FDE545
:10462000FF0609F4AECC08F4FFCC37EAE3163DE50B
:10463000F30689F3AFCC1F93CF93DF9380912803C8
:10464000807F09F049C080912503882309F444C084
:1046500080915A03D0912903609123037091240320
:10466000A0912603B0912703C62FC72316E0D817C1
:1046700099F190E0109711F0CF3F19F401968770EF
:10468000F6CF189F9001199F300D1124F901E65DB6
:10469000FC4F41814713F2CF40814613EFCF428157
:1046A0004111ECCF438154814A1B5B0B483C5105BF
:1046B00028F7809128038F70806180932803F90187
:1046C000E15DFC4F80818F708061808383E293E0A5
:1046D0000E94981C0E94F70BDF91CF911F910895C3
:1046E000A1E1B0E0E6E7F3E20C9415318C0185E03E
:1046F000F801DE011D9601900D928A95E1F7F8010F
:10470000E28083E2A82E83E0B82E609126037091A8
:1047100027036115710509F426C190912303409187
:104720002403892F84238F3F09F41DC12081318107
:10473000C380D480F0902503F601E61BF70BFF2021
:1047400009F4DCC080912803582F507FE83CF10524
:1047500008F09FC051116BC0FE2C431314C092137C
:1047600012C0E11010C08F70806180932803C501D2
:104770000E94981C80912803F80185838F2D6196F3
:10478000EAE00C943131C114D10429F0822F832343
:104790008F3F09F003C180E0F82FF170DF2E80FF1A
:1047A0003CC080915A034091290356E0841315C000
:1047B0002D873E878D859E850E944E16292F229536
:1047C0002F702230F0F0243018F59F70F1F0F801CE
:1047D0009581907FD1F4D12C1EC090E0589FF001BC
:1047E000599FF00D1124E65DFC4F6181361306C020
:1047F0006081261303C06281E6120FC001968770A4
:10480000D5CF9F7011F0882331F3805E883018F384
:10481000C8010E94981CFD2CB1CFEE2009F4AECF48
:1048200080912803816080932803F12CA7CF431344
:1048300006C0921304C0F801EE2009F479C0C80143
:104840000E945B16882309F1EE20F9F0809128037D
:10485000803270F0209123033091240338872F8316
:104860001986DB86CA868C87CE0107960E94981C23
:1048700086E0F801A3E2B3E001900D928A95E1F79A
:104880000E941B23FF24F39479CFC8010E94981C37
:10489000F9CF51110AC083E293E00E94981C86E090
:1048A000F50111928A95E9F7C0CF43130FC0921317
:1048B0000DC0E1100BC0F8018583C8010E94981C4F
:1048C00086E0F50111928A95E9F758CFC8010E9458
:1048D0005B168823D1F2EE20C1F28091280380324A
:1048E00038F220912303309124033A8329831B82D9
:1048F000DD82CC828E83CE010196B8CFE83CF105F3
:10490000F8F6FE2CEE2009F243131FC092131DC0CF
:104910008091280380FD10C0982F907F69F0F801E6
:104920008583903F31F0982F907F905F8F70892B17
:104930008583C8010E94981C86E0F801A3E2B3E0D9
:1049400001900D928A95E1F719CFC8010E945B167C
:1049500081118ECF80912803816080932803C80144
:104960000E94981C0BCFEE2009F48FCFC8010E9443
:104970005B16F82E882309F488CF86E0F801A3E2BD
:10498000B3E001900D928A95E1F780912303909115
:1049900024030E944E160E941B23F0CE81E08E2538
:1049A000FBCEA7E1B0E0E7EDF4E20C941C314B8BB9
:1049B0005C8B6D8B7E8B8F8B61111092C0031A8A7A
:1049C000198A85E0FE017396DE011D9601900D9215
:1049D0008A95E1F786E0FE013D96DE01179601908B
:1049E0000D928A95E1F7CE0107960E9470238823E5
:1049F00059F016E080915A0390912903891343C01E
:104A00006796E3E00C94383186E0FE013796DE01CC
:104A1000119601900D928A95E1F78A859B85892BE5
:104A200041F38F81988589238F3F19F320912903C2
:104A300030E0C90101968770992740915A034817C1
:104A4000190671F40E94F00D1092290310925A0376
:104A500086E0E3E2F3E0DF011D928A95E9F7C9CF32
:104A600096E0929FD001939FB00D1124A65DBC4F9C
:104A7000FE01319601900D929A95E1F780932903FA
:104A80000E94F70BB6CF819FC0011124865D9C4F19
:104A90000E947023882309F4B3CF80915A0390E0D9
:104AA00001968770992780935A03A4CFACE0B0E0B9
:104AB000ECE5F5E20C940D318E010F5F1F4F88E09D
:104AC000D8011D928A95E9F74CEEC42E41E0D42E10
:104AD000F12CE12CAA24A394B12CF60181916F0151
:104AE0008F3F09F443C0F894E82FE295EF70F0E0AF
:104AF00021A18F70A50102C0440F551F8A95E2F7CE
:104B0000CA01922F982B91A392A18095892382A309
:104B1000789400C0E0EFF1E0912C31E021912F3F3B
:104B200009F4B0C0A22FA295AF70B0E090968C911E
:104B300090E02F7002C0959587952A95E2F780FD49
:104B4000A1C0832F982A330F51E0E63FF50731F7D4
:104B5000F601319780818F3F11F00E94090A80EAA7
:104B60008A95F1F7F801EE0DFF1D9082AFEFEA1A7A
:104B7000FA0AB4E0EB16F10409F0AFCF48E050E0D8
:104B8000B80181ED93E00E94D2327C01892B41F083
:104B900088E0F801A1EDB3E001900D928A95E1F76C
:104BA0000091DA0310E00F5D1B4FD0907F03DD20F2
:104BB00009F483C10E942F1C20917D0330917E0354
:104BC000AC01421B530B90937E0380937D034F3FB8
:104BD000510511F008F058C04115510509F44EC0B7
:104BE000642E6091CF037091D00310927F031092D6
:104BF0007C0390E080E0712C512CAA24A394B12C6A
:104C000030E020E01801280E391EFC01EF52FC4F65
:104C10004F01FB01E20FF31FC0804C2CE89440F8D9
:104C20004420E9F04C2C4694AC2DA170CA2E4416B9
:104C3000150609F064F5A083A1112FC0F501022E1D
:104C400001C0EE0F0A94EAF7FE2FF095D101CC9047
:104C5000FC21D401CC90EC21EF2BD101EC932F5F00
:104C60003F4F26303105A9F66A5F7F4F01968430A9
:104C7000910531F650927F0370927C03E114F104A8
:104C8000B1F41FC180E05ECF4FEF50E0A9CF4618CE
:104C9000440CC428C0825D2CE2CF7D2CE0CFD11023
:104CA00006C00E942F1C90937E0380937D03809109
:104CB000CF039091D003C0907F0321ED222E23E0FB
:104CC000322EF8014C0128E1820E911C01E010E027
:104CD000D1017D901D012081722630E020E05D0130
:104CE000B1E0AB1AB108AC01420F531FB801022E5C
:104CF00001C0660F0A94EAF7DA01DC906D2CE894A3
:104D000060F8572C5622B9F061101CC0D501CC9028
:104D1000C622DD24D394C11001C0D12CBD2DBA60B0
:104D2000DB2EDA01DC92D0FE03C040816427608371
:104D3000CC24C39407C0662029F0D0FC03C06D2D9D
:104D400061706C932F5F3F4F2630310561F60696F8
:104D500031968816990609F0BBCFC0927F0381E097
:104D600090E0E114F10409F4B0C02C96E2E10C9457
:104D7000293119861A861B861C860E2F10E00F5DBE
:104D80001B4F8091CA038A3008F060C048E059E1A7
:104D9000BE01675F7F4FC8010E947612882309F425
:104DA00065C049E55AE1BE01675F7F4FC8010E94B7
:104DB0007612882309F45AC04DEB58E1BE01675FB3
:104DC0007F4FC8010E947612882309F44FC045ED39
:104DD00059E1BE01675F7F4FC8010E9476128823A8
:104DE00009F444C040E45AE1BE01675F7F4FC80147
:104DF0000E9476128823D1F14AE558E1BE01675F2F
:104E00007F4FC8010E947612882381F14EE15AE15A
:104E1000BE01675F7F4FC8010E947612882331F17F
:104E20001092CA038091D90390E044E050E0BE01A3
:104E3000675F7F4F8F5D9B4F0E94D23221E02093AE
:104E40008603892B61F5F12C8F2D8FCF8091800304
:104E5000909181030E94201C843F914008F096CFDE
:104E600080918603811112C080E07FCF8091CA03B8
:104E70008F3F29F08F5F8093CA038A3098F20E9497
:104E80002F1C9093810380938003EACFFE01399613
:104E900084E0DF011D928A95E9F710928603E09184
:104EA000D903F0E0EF5DFB4F89859A85AB85BC8522
:104EB00080839183A283B383C7CFE114F10409F007
:104EC000F0CE80917C038111EACE0E94A912F82EC7
:104ED000E091DA0381114DCF0091D90310E00F5D0D
:104EE0001B4FF0E0EF5DFB4F84E0A9E8B3E00190D9
:104EF0000D928A95E1F789E893E00E944F0680932E
:104F0000880384E0EDE8F3E0D80101900D928A95E2
:104F1000E1F7C0909103D0909203E0909303F0905A
:104F200094038091820390918303A0918403B091B4
:104F30008503C816D906EA06FB06D1F0C0928203A3
:104F4000D0928303E0928403F09285030E94A91219
:104F500081110EC00E940008C61AD70AE80AF90A91
:104F6000C092CB03D092CC03E092CD03F092CE035B
:104F70008091950380934705809196038093B603B3
:104F80008091970380930405809198038093BF03D9
:104F9000809199038093C00380919A030E94E60B4D
:104FA00086E0EBE9F3E0ACE7B7E001900D928A957B
:104FB000E1F78091A1030E94A61456CF1F921FB65D
:104FC0001F9211248F939F93AF93BF9380910B05F2
:104FD000811113C080910C0590910D05A0910E05D3
:104FE000B0910F054196A11DB11D80930C059093C2
:104FF0000D05A0930E05B0930F05BF91AF919F9142
:105000008F911F901FBE1F901895CDB7DEB7E19707
:105010000FB6F894DEBF0FBECDBF85B7806885BFE1
:1050200085B7806885BF84B7877F84BF0FB6F89443
:10503000A895809160008861809360001092600064
:105040000FBE80E890E00FB6F894809361009093D3
:1050500061000FBE87E09AE09093ED028093EC022E
:105060000E9466060E9431078091E200846080936E
:10507000E200789480913A058823A1F01091E9002C
:105080001F709091EC00892F817090FD80E8182BA3
:105090001092E9008091E80083FD0E94060E1F70C7
:1050A0001093E90082E084BD93E095BD9AEF97BD2F
:1050B00080936E001092CB031092CC031092CD031C
:1050C0001092CE030E947B16811102C00E94B61579
:1050D0000E94A91280934E010E94A91281110E9480
:1050E000972F80914E0180914E0194E0811190E0C4
:1050F0009093DA0384E0891B8093D90384E90E94AA
:10510000090A86E60E94090A87E90E94090A86ECD4
:105110000E94090A00EF11E0D8018D918D018F3FA7
:1051200011F00E94090AB1E0063F1B07A9F788E0C9
:10513000E1E2F4E0DF01282F1D922A95E9F7E1ED85
:10514000F3E0DF011D928A95E9F788E190E00E9483
:10515000A731BC019093D0038093CF0330E020E0CF
:10516000FB01E20FF31F96E04081417041939150A3
:10517000D9F72A5F3F4F2831310591F70E94681A0D
:10518000811102C00E94741A82E090E00E9497355B
:105190008093DB030E949416909311058093100571
:1051A0000E945625EFE3FCE93197F1F700C00000BB
:1051B0000E9456250E94A912E4E08111E0E0F0E08F
:1051C000EF5DFB4F808181FF08C06FEF7FEF90E0C4
:1051D00080E00E94D3350E94EF0783E090E00E94B8
:1051E00097350E94EB0D109253078FEF9FEF90932E
:1051F0006D0780936C0790936F0780936E07909371
:105200007107809370079093730780937207909350
:105210007507809374079093770780937607909330
:1052200079078093780790937B0780937A07109291
:1052300029049093430480934204909345048093FF
:1052400044049093470480934604909349048093C8
:10525000480490934B0480934A0490934D048093A8
:105260004C0490934F0480934E0490935104809388
:1052700050040E94681A811104C00E94741A0E948E
:10528000FE1746E050E06CE170E08CE797E00E948A
:10529000873510925B0480917C078C7F11F40E940B
:1052A000FE170E94A91281118EC182E080931C0416
:1052B00080E8809348050E944E2E6DE070E08EE3FA
:1052C00092E00E946E11892BE9F580911C0463E045
:1052D00070E081FD7AC18BE392E00E946E11892B10
:1052E00089F56DE070E08BE292E00E946E11892BEF
:1052F00049F50E940008605A75418F4F9F4F609397
:10530000FE047093FF048093000590930105EBE485
:10531000F5E080E092E0DF019C011D9221503040D9
:10532000E1F7F0935207E09351078FEF9FEF9093CF
:105330004A058093490581E0809303058093020527
:1053400010921D040E94A912811102C00E949A2F7E
:105350008FE491E0909308058093070580913A05CA
:1053600000E112E1853009F475C10E945625D82E5E
:1053700081110E940008E1E2F4E0FEA7EDA73CEDF8
:10538000E32E33E0F32E49E1842E42E0942EF8AB75
:10539000EFA7612C512CAFA5B8A92D90B8ABAFA742
:1053A000F7018081821509F48DC0822589AB9CA606
:1053B0008BA6412C7724739489A9872109F478C09E
:1053C0000E94A912C22CC720882399F049A25AA290
:1053D00081E0C11001C080E08BA30E942F1C81607E
:1053E000782F9DA38CA349A15AA16BA18DA10E94E6
:1053F000D124D7018C9187258C93CC2049F0EBA543
:10540000FCA58081C12C8F3F19F0382ECC24C39489
:105410000C2D10E080912904800F912F911D099788
:105420006CF188E0A82EB12CA01AB10AB801665D13
:105430007B4FA5018AE294E00E94DF32B8016E5CE6
:105440007B4FA50182E394E00E94DF32A501440F67
:10545000551FB801660F771F6E5B7B4F82E494E0A7
:105460000E94DF32B801665C7B4FA5018AE394E0BD
:105470000E94DF3288E08C198093290480912904EE
:1054800090E0A32DB0E09D01220F331F275B3D4F1D
:10549000AA0FBB1FBD01665B7D4F41E0480F9C1505
:1054A00008F4E8C0809329046394BBE0B61530F19A
:1054B0004394770CEBA5FCA53196FCA7EBA7F6E08F
:1054C0004F127ACF53942FEFE21AF20A36E0830E8E
:1054D000911C88E058125FCF611010C08FEF8EA32F
:1054E0008FA318A60E942F1C8160782F9AA789A7E6
:1054F0004EA15FA168A58AA50E94D1240E94A9128D
:105500000E94AD1680910305882351F180911E04FD
:1055100090911F040E94201CC29708F0C0C02091E7
:10552000490530914A052115310509F02FC18091B7
:1055300002058823A9F00E9400080091FE04109142
:10554000FF042091000530910105601B710B820B57
:10555000930B6F3F7F4F8F4F9F4710F40E9498111E
:10556000D1100E94B3110E94581390912004891306
:105570008093200480913A05843009F0EFCE83E0D7
:105580008093E9008091E80082FFE8CE8091E800F6
:1055900090E085FF06C00E948506882309F4C6C1F5
:1055A00091E08091E8008B778093E800992309F4DB
:1055B000D5CEE981E150E33108F02AC2F0E0EF50A6
:1055C000FA4C0C946F3180E071CE88E392E085CE86
:1055D00080913A05843009F42EC081E00E94A6141F
:1055E0000E94AD1681E00E94A6140E9498111092AC
:1055F0000B0588E190E0A0E40FB6F894A89580939D
:1056000060000FBEA093600083B7817F846083BF7A
:1056100083B7816083BF7894889583B78E7F83BF7B
:105620000FB6F894A895809160008861809360001F
:10563000109260000FBE80913905882359F00E94B6
:105640005625E1E2F4E08191811109C3B4E0E93229
:10565000FB07C9F780913A05853009F4B9CF0E945C
:10566000F00D0E94581380E00E94A61480E00E9472
:10567000A6147BCE90E0FC01E75DFB4FD9015C9165
:105680005183DB015C915187318A880F991FFC019E
:10569000E75DFB4F128E118E91E0842FFECE0E94AB
:1056A0002F1C90931F0480931E04ABE4B5E0B093CD
:1056B0005207A09351070E94A912882309F461C0E0
:1056C00082EA92E00E94FD0C809147050E946C0CDA
:1056D000873008F04DC0E82FF0E0EC5FF94C0C94F7
:1056E0006F318DE992E00E943D0D0E945813182FF2
:1056F0008FE592E010FF02C084E692E00E94FD0C6C
:1057000085E592E011FF02C08AE592E00E94FD0C5F
:105710008BE492E012FF02C080E592E00E943D0D12
:1057200004EE13E0F80101900020E9F78F01015029
:10573000110954EEE52E53E0F52EE016F106D8F0EF
:1057400080910305882309F4F2CEE9CE85E992E041
:10575000CACF8BE892E0C7CF85E892E0C4CF8EE74E
:1057600092E0C1CF89E792E0BECF83E792E0BBCF62
:1057700089E692E0B8CFD7018D917D010E947D0C22
:10578000DCCF8AEA92E00E94FD0CDACF80911D0402
:1057900061E070E08111CBCE082F10E07B01082E74
:1057A00002C0EE0CFF1C0A94E2F7A9014E215F2112
:1057B000452B09F447C090911C0490FD45C082958B
:1057C000880F807680935D019801369527953695F0
:1057D000279520936001815E80935E0110926101A4
:1057E00024E630E047E050E06BE571E088E70E9496
:1057F000F12E892B09F09BCEA80195E0440F551F8F
:105800009A95E1F780911C0480FD2CC0455B5A4FAE
:1058100004E610E020E230E060E488E70E94122F06
:10582000892B09F084CE0E94B311E094F09480910A
:10583000490590914A05E822F922F0924A05E09242
:10584000490575CE8F5FA8CF880F880F880F80938A
:105850005D0110926001895F80935E0183E0809317
:105860006101BECFECEFF3E080E2DF011D928A958B
:10587000E9F7EAEFF1E0FCA7EBA706EF11E087E01C
:10588000982E88248394ABA5BCA52D91BCA7ABA76B
:10589000F80141908F01440E552E511CC201855BC9
:1058A0009A4F2C01E22FF0E0E450FC4F30E020E072
:1058B000692C621AC82C022E01C0CC0C0A94EAF79B
:1058C000520190E0D5018D915D018C21662D691BFF
:1058D0006770762E062E000C770BB82F01C0BB0F19
:1058E0007A94EAF77B2E7195619571096770772735
:1058F00001C086956A95EAF7782A8081782A7082B5
:105900009F5F9830F9F62F5F3F4F31962830310571
:1059100079F6EBA5FCA5EE5FF14009F0B4CF04E603
:1059200010E020E230E04CEF53E076CF00E210E0F0
:10593000CE0101967C018091E80085FD0AC080912E
:10594000E8008B778093E8000E948506882399F30E
:1059500027CE8091F100D7018D937D01015011096F
:1059600051F71ECE1A8289E08B8311C08A81823062
:1059700009F48BC1833091F1813009F049C00E9454
:1059800000080E9475316B837C838D839E83809198
:105990003A05843009F0E2CC1091E9001F70909133
:1059A000EC00892F817090FD80E8182B82E08093B5
:1059B000E9008091E80080FF0DC050E040E060E227
:1059C00070E0CE0101960E94B6068091E8008E77C5
:1059D0008093E8001F701093E900C0CCFE0133965D
:1059E000ADA5BEA58D91BEA7ADA78193A952B44028
:1059F000B9F7CDCF8A81823059F46B817C818D815A
:105A00009E810E94753186E290E00E94B535BFCF3D
:105A10008FEF8983BCCF4C816B818A810E94E21514
:105A20009827892798279E838D83B1CF2D813E812A
:105A30003227232732274C816B818A810E943F15B0
:105A4000A6CF0E946515A3CF8A818138C9F068F47A
:105A5000803809F09CCF80917D0720E04B816091D8
:105A60007E0790E00E94B90892CF823819F18338FE
:105A700009F08DCF8B8120E040917F076C81F1CFC1
:105A800060E08B810E941A099B8180917C079111B3
:105A900009C0982F937011F0109264018C7F80934D
:105AA0007C0775CF982F937011F4109264018C7F4E
:105AB0008160F5CFEB818FE7E43020F4F0E0E25035
:105AC000FE4F80818093800762CF8A81813899F070
:105AD00030F4803809F05BCF80917F0745CF823862
