:100000000C9412030C944A030C944A030C944A0374
:100010000C944A030C944A030C944A030C944A032C
:100020000C944A030C944A030C94F01D0C94AC1DE0
:100030000C94ED1E0C944A030C944A030C944A034E
:100040000C944A030C944A030C944A030C944A03FC
:100050000C944A030C94C91E0C944A030C944A0352
:100060000C944A030C944A030C944A030C944A03DC
:100070000C944A030C944A030C944A030C944A03CC
:100080000C944A030C944A030C944A030C944A03BC
:100090000C944A030C944A030C944A030C944A03AC
:1000A0000C944A030C944A030C944A0305010980FA
:1000B000A101850319012AB700150126B700950192
:1000C00075108100C0050C0901A101850419012AE0
:1000D000A002150126A002950175108100C005013E
:1000E0000906A1018506050719E029E71500250184
:1000F0009508750181020507190029EF15002501F2
:1001000095F075018102050819012905950575010C
:100110009102950175039101C00660FF0961A1017B
:100120000962150026FF00952075088102096315F4
:100130000026FF00952075089102C005010906A15F
:1001400001050719E029E7150025019508750181CA
:10015000029501750881010507190029FF15002680
:10016000FF00950675088100050819012905950508
:1001700075019102950175039101C0000000000016
:10018000000000000000000000000000000000006F
:100190000000000000000000000000000000007EE1
:1001A0000F00D4FFFFFFC700000078000000000030
:1001B0000000002A2B2800000000000000000000C2
:1001C00000000000000029000000002C1E34202147
:1001D0002224342627252E362D3738271E1F20218E
:1001E00022232425263333362E37381F04050607ED
:1001F00008090A0B0C0D0E0F101112131415161707
:1002000018191A1B1C1D2F3130232D350405060724
:1002100008090A0B0C0D0E0F1011121314151617E6
:1002200018191A1B1C1D2F3130354C00047F3F1F3D
:10023000643214643214783C1E1E140A0500010155
:100240000101010101010102020202020202020295
:100250000303030303030303040404040404040565
:100260000505050506060606060707070707080829
:100270000808090909090A0A0A0B0B0B0C0C0C0DDA
:100280000D0D0E0E0E0F0F0F101011111112121373
:10029000131414151516161717181819191A1A1BEE
:1002A0001B1C1D1D1E1E1F2020212222232424254D
:1002B0002626272829292A2B2C2D2D2E2F30313286
:1002C00032333435363738393A3B3C3D3E3F404196
:1002D00042434445464748494A4C4D4E4F5051537E
:1002E00054555658595A5B5D5E5F61626465666835
:1002F000696B6C6D6F7072737577787A7B7D7E80B9
:1003000082838587888A8C8E8F91939596989A9C04
:100310009EA0A2A3A5A7A9ABADAFB1B3B5B7BABC18
:10032000BEC0C2C4C6C9CBCDCFD1D4D6D8DBDDDFE9
:10033000E2E4E7E9EBEEF0F3F5F8FAFDFFFFAA7F60
:1003400055402223252628292A2C2D2F30323335BB
:1003500036383A3B3D3E4042434547494A4C4E5071
:1003600051535557595A5C5E6062646668696B6D9B
:100370006F71737577797B7D7F81838587898A8C9F
:100380008E90929496989A9C9E9FA1A3A5A7A8AAA6
:10039000ACAEAFB1B3B4B6B8B9BBBCBEBFC1C2C3DB
:1003A000C5C6C7C9CACBCCCDCED0D1D2D2D3D4D575
:1003B000D6D7D7D8D9D9DADADBDBDBDCDCDCDCDC9E
:1003C000DDDDDDDDDCDCDCDCDCDBDBDBDADAD9D976
:1003D000D8D7D7D6D5D4D3D2D2D1D0CECDCCCBCA04
:1003E000C9C7C6C5C3C2C1BFBEBCBBB9B8B6B4B32A
:1003F000B1AFAEACAAA8A7A5A3A19F9E9C9A9896C0
:100400009492908E8C8A89878583817F7D7B797792
:100410007573716F6D6B6968666462605E5C5A5972
:1004200057555351504E4C4A4947454342403E3D33
:100430003B3A3836353332302F2D2C2A29282625C1
:100440002322000029001E001F002000210022009E
:10045000230000002B0014001A00080015001700EC
:1004600024006800E00004001600070009000A00EC
:1004700025006900E1001D001B00060019000500B1
:1004800026006A0028000254E20000002C00000050
:1004900027410000010001000100010001000100EE
:1004A00001000000010001005200010001000100F4
:1004B000010001000100500051004F000100010047
:1004C0000100010001000100010001000100010024
:1004D00001000100010003510100000001000000C3
:1004E0000100000001003A003B003C003D003E00DE
:1004F0003F0000000100130012000C0018001C0057
:10050000400001002A0033000F000E000D000B0018
:10051000410001000100E30010001100450044000B
:100520004200010001000100010000000100000084
:100530004300000001000100010001000100010072
:1005400001000000010001000100010001000100A4
:100550000100010001000100010001000100010093
:100560000100010001000100010001000100010083
:100570000100005C0100010001000000010000001A
:10058000010009025B00030100A0FA090400000158
:10059000030101000921110100012240000705812A
:1005A00003080001090401000203000000092111F1
:1005B0000100012222000705820320000107050334
:1005C00003200001090402000103000000092111B9
:1005D000010001226D0007058403200001120100C3
:1005E0000200000008091200DB0100010200011EE8
:1005F0000365007400650072006E0061006C005FAE
:10060000006B006500790070006100640000000E5E
:10061000036400750063006B007900620000000451
:100620000309040011241FBECFEFDAE0DEBFCDBF07
:1006300004B603FE18C080919D0290919E02A09185
:100640009F02B091A0028730904BA740B04B59F465
:1006500010929D0210929E0210929F021092A00290
:10066000E0E0F8E3099511E0A0E0B1E0EAE6F9E4A2
:1006700002C005900D92AC38B107D9F722E0ACE882
:10068000B1E001C01D92AD39B207E1F70E94141F1D
:100690000C948A240C940000E8EDF0E080818E7FB9
:1006A00080831092E2001092DA001092E100A0EE36
:1006B000B0E08C9181608C9380818F77808319BCAE
:1006C000A7EDB0E08C918E7F8C9380818F7E8083AC
:1006D0001092660208952091E4003091E50095E6BD
:1006E000A9012091EC00822F817020FF06C080912B
:1006F000E80080FF06C080E008952091E80022FD18
:100700001AC080918B02882389F0853089F080910E
:10071000EB0085FD0FC02091E4003091E500421709
:100720005307F9F29150E1F684E0089582E00895CC
:1007300083E0089581E00895EF92FF920F931F9355
:10074000CF937C018B010E946B03C82F811117C0CE
:100750008091E80085FD0BC08091E8008E77809342
:10076000E8000E946B03882399F3C82F08C0F701A3
:1007700081917F018093F1000150110949F78C2F7D
:10078000CF911F910F91FF90EF90089580918D026E
:1007900087FF13C08091E80082FF06C08091E800C7
:1007A0008B778093E80004C080918B028111F2CF97
:1007B000089580918B028823D9F38091E80080FF0F
:1007C000F8CF8091E8008E77ECCF982F9093E900D6
:1007D000242F762F50E0891731F07091EC00209192
:1007E000ED005091F00021FD07C09F5F973071F739
:1007F0008093E90081E008953091EB003E7F3093D3
:10080000EB003091ED003D7F3093ED003091EB0037
:1008100031603093EB007093EC002093ED00509327
:10082000F0002091EE0027FDE0CF80E00895B0E0D9
:10083000A0E0EDE1F4E00C94FB23C8EDD0E088816A
:100840008F7E8883E7EDF0E080818160808384E0A3
:1008500082BF81E08093660288818E7F888302EE6A
:1008600010E0F80110821092DA0081EEC82ED12C2F
:10087000F601108288818F778883888180688883D9
:1008800088818F7D888319BC10928B0210928C0214
:1008900010928A021092890290EEE92EF12CF70153
:1008A00080818B7F808388818160888342E060E0E3
:1008B00080E00E94E503F60180818E7F8083F8014D
:1008C000808181608083808188608083F70180815E
:1008D0008E7F8083888180618883CDB7DEB7E8E032
:1008E0000C941724FC018091930290919402861736
:1008F0009707A0F06115710529F49091E8009E77A3
:100900009093E80090E06115710551F4911108C0D1
:100910008091E80082FF34C080E00895BC01F2CFEE
:1009200080918B028823C1F18530C1F18091E8006C
:1009300083FD30C08091E80082FDEACF8091E8001D
:1009400080FFE1CF8091F3002091F200382F6115F4
:10095000710519F02830310558F091E02830310543
:1009600009F090E02091E8002E772093E800CBCFAB
:1009700081918093F100615071092F5F3F4FE7CF64
:1009800080918B02882341F0853041F08091E8000E
:1009900083FFBECF81E0089582E0089583E008954B
:1009A0000895089508958091680208952FB7F894E6
:1009B0008091950290919602A0919702B091980231
:1009C0002FBF089520915E0230915F0228173907EA
:1009D00081F090935F0280935E02E0915C02F0915F
:1009E0005D02309731F00680F781E02DBC0184E094
:1009F0000995089520915A0230915B022817390712
:100A000081F090935B0280935A02E0915C02F09136
:100A10005D02309731F00680F781E02DBC0183E064
:100A200009950895E0915C02F0915D02309729F0FC
:100A30000190F081E02D0995089580E00895FA0174
:100A4000811101C0FB010995089580915502982FED
:100A50009E7F29F4817082608093550208958A34C4
:100A6000E8F381708864F8CFAF92BF92DF92EF9283
:100A7000FF920F931F93CF93DF93082F162FE90157
:100A8000E42FF0E0E35CFD4F611110C0E4915E2FB4
:100A90004E2F4983E8835A83DF91CF911F910F91A5
:100AA000FF90EF90DF90BF90AF900895E62EF12C6D
:100AB0004491D42EE42FF0E026E0829FC00111245F
:100AC0002FEF30E0B9010E946923802F90E0880F5A
:100AD000991F55E5569FD001579FB00D11248A1BD1
:100AE0009B0B982F990F890F5901AE18BF08AE9E26
:100AF000D001AF9EB00DBE9EB00D11245B2F189F8C
:100B000080011124012F11275901A01AB10AAE9EAC
:100B10008001AF9E100DBE9E100D11245901A81A20
:100B2000B108AE9CC001AF9C900DBE9C900D1124ED
:100B3000892F9927281B390B2E9FC0012F9F900DBD
:100B40003E9F900D1124E92F62307105A1F050F401
:100B50006115710509F49DCF6130710581F0EB2FAE
:100B6000512F97CF6430710569F080F066307105C0
:100B700009F48FCFF4CFE42F4B2F592F8ACFE42FD6
:100B8000412F87CFEB2F542F492F83CF4B2F5D2D34
:100B9000E12F7FCF80E00895F894E82FE295EF7081
:100BA000F0E031A1282F2F7081E090E001C0880F84
:100BB0002A95EAF7982F9095932391A392A1892BD8
:100BC00082A3789408959091610292FF06C0282F25
:100BD00028712830F9F4877F846093FF06C0282F9E
:100BE00028712831F1F4877E84612091620220FF10
:100BF00006C0382F38713830D9F4877F816021FFE3
:100C000006C0282F28712831D1F4877E816194FD98
:100C1000877E0895282F24712430F9F68B7F886011
:100C2000DCCF282F2471243101F78B7E8861DDCF42
:100C3000382F3171313019F78E7F8860E0CF282F3F
:100C40002171213121F78E7E8861E1CFCF93DF932F
:100C5000EC0182389105B1F108F040C08133910573
:100C600009F49DC048F58932910509F48DC08A9731
:100C700009F49CC0C11522E5D20708F0BDC0C1151A
:100C800031E5D30708F024C1C83ED10508F0A3C060
:100C9000C13ED10588F5C83AD10508F08EC0C53AE5
:100CA000D10508F0F6C0C130D10531F1209721F10E
:100CB000C430D10508F545C08533910509F45FC0FE
:100CC000C997C1F680916102837009F036C18091A5
:100CD000620283FF11C0C9E2D0E00EC0833E9105DD
:100CE00099F170F4803E910501F1823E910511F673
:100CF0008091610282FD21C0CE01DF91CF910895E4
:100D0000863E910561F1873E910571F1843E910522
:100D100009F0B0CF8091620281FFEECF8091610235
:100D2000C7EED0E084FD0DC0E7CF8091610280FD69
:100D300033C09091620290FFDFCFC3EED0E084FF1A
:100D4000DBCFD0E0C0E0D8CF8091610282FDF2C05D
:100D50009091620290FDF1C084FFCECFF2CF8091DE
:100D6000610283FDDDCFC8CF8091610283FDE8C0C1
:100D70009091620291FFF0CFC4EED0E0BDCF8091A0
:100D8000610285FFB9CFA7CF8091610285FDDBC0ED
:100D90008091620283FFB0CFC9E3D0E0ADCF8091F4
:100DA000610286FFA9CFCAE2D0E0A6CF809161029E
:100DB00086FFA2CFC1E3D0E09FCFCF3BD10508F69D
:100DC000C85AD0E0CC0FDD1FC45EDE4F0990D88139
:100DD000C02DD46491CFC11540E5D40708F064C09C
:100DE000C11580E4D80708F05CC0CE019A95811542
:100DF0009F4108F481CFA5CFC11536E5D30718F57B
:100E0000C11545E5D40708F07CC0C11584E5D807B5
:100E100008F072C09E01237033279C2F96959695FB
:100E2000C115D34508F459C0C1E0D0E002C0CC0FD1
:100E3000DD1F2A95E2F730E2939FC0011124C82BF1
:100E4000D92BDA6859CFC1158AE5D80778F4C115CE
:100E500029E5D20708F060C0C11538E5D30708F4CA
:100E600070CFDC2FCC27C06FD06A46CFCE01905612
:100E70008115904208F065CF8D2F8F710E94E30598
:100E800090E0982F882788279F719C012C2BE901DF
:100E900041C0C55AD0E0C75EDE4FC881D0E0D06403
:100EA0002BCFDF70D06A28CFCE018370992721E045
:100EB00030E002C0220F331F8A95E2F7C695C6952F
:100EC00080E2C89FE0011124C22BD32BDD6814CF30
:100ED000DC2FCC27C16FD06A0FCFC1E0D0E002C0B9
:100EE000CC0FDD1F2A95E2F720E2929FC00111246A
:100EF000C82BD92BDC6800CFDC2FCC27C46FD06A7D
:100F0000FBCE8C2F0E94E305C82FD0E0DC2FCC272E
:100F1000CC27DF71D062F0CE8C2F8F700E94E3055A
:100F200034E0D695C7953A95E1F7CF709C2FEC0148
:100F3000D069E2CEC2EED0E0DFCEC0EED0E0DCCEB3
:100F4000C6EED0E0D9CEC5E3D0E0D6CE809119026E
:100F5000811110921902089580959091180298239A
:100F6000909318020895909118019923D1F09091CF
:100F7000610297FF16C0E82FE695E695E695EE31FB
:100F8000E0F4F0E0E257FE4F282F277081E090E078
:100F900001C0880F2A95EAF7809592818923828380
:100FA0000895E0E9F1E09191891303C0DF01119701
:100FB0001C9291E0E639F907B1F708959091180174
:100FC0009923C1F09091610297FF14C0E82FE69534
:100FD000E695E695EE31F8F4F0E0E257FE4F8770C3
:100FE00021E030E001C0220F8A95EAF78281822B4E
:100FF00082830895A0E9B1E0EFEF90E02D91821790
:1010000051F0EF3F19F4211101C0E92F9F5F963095
:10101000A9F7EF3F09F408950E2E000CFF0BE257DD
:10102000FE4FE6CF8091F5019091C401981301C065
:1010300008958F5F8770FACF953080F5883070F50E
:1010400048E0949F90011124820F932F911D682FE7
:10105000677023E0969587952A95E1F7FC01EE0FDE
:10106000FF1FE80FF91FE155FE4F50E040E080E020
:10107000219130E0062E02C0369527950A94E2F7BA
:1010800021703327042E01C0220F0A94EAF7822B25
:101090004F5F5F4F4330510559F7089580E0089541
:1010A000953098F5883088F548E0949F9001112498
:1010B000820F932F911D282F277041E001C0440F0C
:1010C0002A95EAF723E0969587952A95E1F7FC01A2
:1010D000EE0FFF1FE80FF91FE155FE4F90E080E093
:1010E00070E05191DF0111979B01082E02C03695E7
:1010F00027950A94E2F72170219525272423252797
:101100002C9301968330910561F7089580936302D3
:10111000709365026093640280918B028430F9F4CD
:101120008093E9008FEF9091E800815095FD06C013
:1011300095ED9A95F1F700008111F5CF8091E800C7
:1011400085FF0DC050E040E063E070E083E692E090
:101150000E949C038091E8008E778093E8000895B8
:10116000CF93DF93EC01809118018823B1F1809136
:10117000610287FF32C060E284E08093E9008FEF74
:101180009091E800815095FD06C095ED9A95F1F794
:1011900000008111F5CF8091E80085FF1BC0809190
:1011A000180170E050E040E0811104C050E040E0E0
:1011B00068E070E0CE010E949C038091E8008E7789
:1011C0008093E80080E2FE01A9E6B2E001900D9272
:1011D0008A95E1F7DF91CF91089568E081E0CDCF66
:1011E00081E08093E00080E28093D8001092C900F3
:1011F0008FE19EE40197F1F700C0000087E090EBDB
:10120000DC0180939D0290939E02A0939F02B09375
:10121000A00288E19CE00FB6F894A8958093600046
:101220000FBE90936000FFCF8091550280FD0AC0F1
:10123000EDE3F2E0118210821282339652E0E5353E
:10124000F507C1F7539A3BB1377F2BB128604FB7F1
:10125000F8948DE392E0FC015191CF0168E02BB945
:10126000000000C057FF3BB9550F000000C000C090
:1012700000C03BB900C06A9591F7F2E085359F0741
:1012800051F74FBF8FE594E00197F1F700C00000E0
:101290000895EF92FF920F931F93CF93DF938C01EA
:1012A000CDE3D2E0F12CE12CF8019481609157025A
:1012B00080915602F4E0EF16F104ECF49923E9F082
:1012C0009E01409158020E9434052FEFE21AF20A63
:1012D000239688E0E816F10439F70E941409F80112
:1012E000848190E00196817099278483CDB7DEB721
:1012F000E6E00C941924992319F39E0140E0E3CF12
:10130000B0E0A0E0E6E8F9E00C94F723EC014C81B2
:10131000042F10E09801D8010E94C8239B01AC0162
:101320000E94DE234B015C01E0E2F0E0E01BF10BE8
:10133000A5E5B0E0AC019B010E94DE236B017C01BE
:101340009F01DF010E94C0239B01AC010E94E923A1
:101350009B01AC01280D391D4A1D5B1DC701B6015B
:101360000E949123F22E822F90E039E23F1598F1EE
:1013700043E0249F9001112435952795122F109555
:101380009DE3C92E92E0D92E00E085E5E82EEF1806
:101390008E2D01FD8F2D9601412F609157020E94E5
:1013A00034050F5F53E0C50ED11C083089F70E9449
:1013B00014099C8181E0992319F0903219F48FEF80
:1013C0008093170180911701890F8C83CDB7DEB709
:1013D000ECE00C94132425E530E0A901481B590BDF
:1013E000CA019A01220F331F280F391F37FFC4CFBC
:1013F0002F5F3F4FC1CF0F931F93CF93DF93CDE369
:10140000D2E0FE01118210821282339682E0E5352D
:10141000F807C1F710E000E080913B02082E000CB5
:10142000990B081719078CF180911601082E000CF2
:10143000990B801791074CF19E01409158026091E1
:101440005702809156020E9434050F5F1F4F23966A
:101450000830110509F70E94140980911501909137
:101460003B02980F90933B0220911601280F209386
:101470001601121614F497301CF081958093150113
:10148000DF91CF911F910F910895198218821A82CE
:10149000DCCFB0E0A0E0EFE4FAE00C94FB23FC0129
:1014A0008281DD24DA9480FD02C0DD24D394CDE373
:1014B000D2E010E000E0198218821A8294E0E92E4E
:1014C000F12CC12C80913A028C0D8930ACF18770DF
:1014D000082E000C990B8017910791F48091580207
:1014E0008E9DA0018F9D500D1124559547955595C2
:1014F00047959E0160915702809156020E943405E3
:10150000CD0CF1E0EF1AF108E9F60F5F1F4F2396BB
:101510000830110581F60E94140980913A0291E089
:10152000D91210C081110CC087E080933A02CDB768
:10153000DEB7E8E00C94172487FFCACF885FC8CFD6
:101540008150F3CF90E0019687709927EECFEF920C
:10155000FF921F93CF93DF93EC018DE3E82E82E09F
:10156000F82E10E08C81970140915802609157024B
:10157000810F0E943405115E83E0E80EF11C183FD4
:1015800089F70E9414099A818C8190FF08C08F5FAF
:101590008C83DF91CF911F91FF90EF900895815040
:1015A000F7CF9091550290FF0CC0EDE3F2E08183FC
:1015B00060834283339692E0E535F907C1F70E94D4
:1015C00014090895A3E0B0E0E8EEFAE00C94FF23DC
:1015D0008C0180913C0281110AC09E012F5F3F4F18
:1015E0004FEF6FEF0E9434058A8180933C02F8012F
:1015F0006481613069F080913C0240E0662361F0D3
:1016000040E0623011F440913C0280E060E004C0B0
:1016100060913C0240E080E00E94D10AF8018481A0
:1016200090E0019663E070E00E947D23848323961E
:10163000E4E00C941B24A3E0B0E0E1E2FBE00C94B6
:1016400001249091550290FF0AC09E012F5F3F4FE9
:101650000E9434054B8169818A810E94D10A2396B8
:10166000E2E00C941D24CF93DF93EC01E5E5F2E07A
:10167000438162818C810E941B0B8C818F5F8C83E4
:10168000DF91CF910895CF93DF93EC01EC81F0E0EF
:10169000EE5BFC4F4491E5E5F2E0628181810E94BE
:1016A0001B0B8C818F5F8C83DF91CF910895CF933B
:1016B000DF93C7E6D1E060E0CE010E943C24219692
:1016C000C11584E0D807B9F7DF91CF9108951F9332
:1016D000CF93DF93122F8430E0F46530D0F448309C
:1016E000C0F490E1699FE001112450E0440F551FC0
:1016F000C40FD51F90E5899FC00DD11D1124632F04
:10170000CE0187960E943C24612FCE0188960E94CC
:101710003C24DF91CF911F910895AF92BF92CF9259
:10172000DF92EF92FF921F93CF93DF9382E4C82E54
:1017300084E0D82ED0E07601C0E014C0F5012591F8
:101740003491412F6C2F8D2F0E94670B82E0A80EE1
:10175000B11C1F5F183091F780E1E80EF11CCF5FDC
:10176000C53019F0570110E0E9CFDF5F80E5C80E02
:10177000D11CD43001F7DF91CF911F91FF90EF90F2
:10178000DF90CF90BF90AF900895CF93C82F6FEFA9
:10179000811162E283E290E00E943C246FEFC1116C
:1017A00069E084E290E00E943C246FEFC11169E19E
:1017B00085E290E00E943C24CF91089580E00E9451
:1017C000C50B60E086E290E00E943C240E948D0BF5
:1017D0000E94570B81E00E94C50B08950F931F9341
:1017E000CF93DF93843030F5653020F5483010F525
:1017F00020E1629F8001112450E0440F551F040F27
:10180000151F30E5839F000D111D1124C801879617
:101810000E942824C82FD0E0DC2FCC27C80188964E
:101820000E9428249E01282BC901DF91CF911F918E
:101830000F91089590E080E0F8CF462F843040F477
:10184000753030F4683020F4672F0E94EE0B089555
:1018500090E080E00895CF92DF92FF920F931F9364
:10186000CF93DF936C0100919C0280911A02082BA8
:10187000C7E0D0E010E0FC2EC8010C2E02C0959508
:1018800087950A94E2F780FD0CC02197A0F7F12C10
:101890008F2DDF91CF911F910F91FF90DF90CF900F
:1018A0000895B6018C2F0E941D0C0E9426060197F8
:1018B00061F3EECFCF93DF93EC010E942B0CBE01BE
:1018C0000E941D0C0E942606DF91CF910895FC0115
:1018D00083819481892B29F08081918189238F3F95
:1018E00051F480E00895843FE1F717C0883EA8F0E6
:1018F000813FB9F712C0808191810E945A0C929564
:101900009F70963099F358F4925F9F70923048F729
:10191000803F19F040F7883E20F781E008959A5FF4
:10192000F4CF83E290E00E942824823289F484E29A
:1019300090E00E942824893059F485E290E00E94CA
:10194000282491E0893109F090E0892F8170089571
:1019500080E0FCCFCF9384E090E00E942824C82F41
:1019600082E290E00E942824982F8C2FCF91089536
:10197000CF92DF92EF92FF926B017C010E942505CE
:10198000B701A60188E090E00E944E24FF90EF90FE
:10199000DF90CF900895A3E0B0E0E1EDFCE00C947F
:1019A000F623F82EB62EE42EA22E9091550290FF2B
:1019B00029C0E92FE695AE2FB0E0A95ABE4F8C9111
:1019C000809338029E7F923009F59E012F5F3F4F32
:1019D0008F2D0E9434054B8169818A810E94D10A32
:1019E000F0925602B0925702E0925802AA2051F0AB
:1019F0006091550270915602809157029091580261
:101A00000E94B80C2396EDE00C941224823019F455
:101A1000E0905802E5CF863019F4F0905602E0CFFE
:101A20008930D9F38931E1F6E9512E2F2170722ED8
:101A3000E695F0E0E35CFC4FE4910E2F10E03DE30F
:101A4000C32E32E0D32E912C812CC40123E0969535
:101A500087952A95E1F7711013C08F0D96014E2DD1
:101A60006B2D0E943405800E911E83E0C80ED11CA0
:101A700025E5C21622E0D20641F70E941409B0CF34
:101A80002F2D281B822FEACFE5E5F2E0438121E1EB
:101A9000421B08F440E021E0628181810E94CB0C6E
:101AA0000895E5E5F2E0438121E1420F08F44FEFAC
:101AB00021E0628181810E94CB0C0895E5E5F2E08E
:101AC000628121E1621B08F460E021E043818181B1
:101AD0000E94CB0C0895E5E5F2E0628121E1620FFE
:101AE00008F46FEF21E0438181810E94CB0C0895BF
:101AF000E5E5F2E0818121E04381628188500E9426
:101B0000CB0C0895E5E5F2E0818121E0438162811B
:101B1000885F0E94CB0C089580915902882319F0A8
:101B200081508093590260915502709156028091C4
:101B30005702909158020E94B80C08958091590262
:101B4000833018F48F5F8093590260915502709131
:101B5000560280915702909158020E94B80C089545
:101B60009091550290FF2CC0917081112AC0926013
:101B700090935502662351F0609155027091560280
:101B800080915702909158020E94B80C60915502C2
:101B9000669570E04BE050E08AE091E00E9470248E
:101BA000892BB1F01092390281E08093350220E058
:101BB0004091580260915702809156020E94CB0CCE
:101BC0000895853210F09864D3CF880F982BD0CF2A
:101BD00081E0809339020E94D6049093330280936F
:101BE0003202E2CF809155028695815009F484E259
:101BF00061E00E94B00D08958091550286958F5F37
:101C0000853208F081E061E00E94B00D0895909166
:101C1000550290FF08C09695981728F0961718F46B
:101C20000E94FC0D089561E00E94B00D0895E5E565
:101C3000F2E083E0808311828FEF828383831482BA
:101C400060817181828193810E94B80C089568EE51
:101C50007EEF90E080E00E945A2460E082E090E015
:101C60000E943C2460E083E090E00E943C241092BB
:101C70001A0260E084E090E00E943C2464E082E28A
:101C800090E00E943C2460E085E090E00E943C24CB
:101C900060E086E090E00E943C246FEF87E090E0F7
:101CA0000E943C2440E050E0BA0188E090E00E94AD
:101CB0004E2460E08DE090E00E943C2440E050E043
:101CC000BA0188E190E00E944E2460E087E190E054
:101CD0000E943C2440E050E0BA018CE190E00E9478
:101CE0004E2470E060E080E290E00E945A2440E0E0
:101CF00050E0BA0188E190E00E944E2480E00E940A
:101D0000C50B0E94DE0B40E050E0BA018FE090E08E
:101D10000E944E2440E050E0BA0183E190E00E942E
:101D20004E2408958091180290911702892B809378
:101D30008E01909119029923A1F0892B80938E0135
:101D4000809118018823E1F18091610287FF38C0FA
:101D50008EE1E0E9F1E090E08150A0F591110E9460
:101D6000A60740E250E067EF71E08EE891E00E9444
:101D70007D24892B21F180E2EEE8F1E0A7EFB1E0CC
:101D800001900D928A95E1F7E0915C02F0915D027D
:101D90003097A9F080911801882359F08091610251
:101DA00087FF07C080918E0180938F0186E080932A
:101DB0008E010280F381E02D8EE891E0099508956F
:101DC00086E0C7CF2191222339F29F5FC5CF90E0F3
:101DD00080E00E94FA0490E080E00E94E204109209
:101DE00017020E94920E089580939C020E94E70EB3
:101DF000089580919C02982F9670963021F4886007
:101E00000E94F40E0895877FFBCF21E030E001C0EF
:101E1000220F8A95EAF7209580919C0282230E94E6
:101E2000F40E08959091F601809589238093F60130
:101E3000282F277091F4282F082E000C330B9217AF
:101E4000130659F09091620292FF07C0859585951F
:101E500085950E94050F1092F6010895CF93C091C9
:101E60006202C2FB992790F9981791F080FBC2F9A2
:101E7000C09362026091610284E090E00E943C2481
:101E80006C2F82E290E00E943C2482E00E94120FBC
:101E9000CF91089521E030E001C0220F8A95EAF742
:101EA00080919C02822B0E94F40E089580931A0266
:101EB0000E94E70E08951092180280911801E0E93F
:101EC000F1E0882361F08091610287FF08C08EE114
:101ED000DF011D928A95E9F70E94E70E089586E0DA
:101EE000F7CFAAE2B0E0E7E7FFE00C9400248DE82A
:101EF00092E02091F100DC012D93CD01B2E0853913
:101F00009B07B9F780918E02833009F472C0B8F450
:101F1000813009F449C0823009F4B3C08091E800EF
:101F200083FF8BC280918D0290918E029A3008F0CF
:101F300084C2E92FF0E0E457FB4D0C94B3238A30C0
:101F400009F48EC08B3009F471C0893039F7809163
:101F50008D02813219F7809191029091920200973F
:101F600011F00297D9F68091E800877F8093E8000E
:101F70008091E80082FF38C09091F3008091F200D8
:101F8000029731F48091F100813011F0863021F414
:101F90008091F100809368028091E8008B778093B4
:101FA000E8000E94C603BACF80918D02813A09F001
:101FB000B5CF8091E800877F8093E80080919102FF
:101FC00090919202892B61F460E289E692E070E0E0
:101FD0000E9472048091E8008B778093E8009ECF86
:101FE00060E090E080E0F3CF80918B028111C0CF60
:101FF00095CF80918D02813A09F090CF8091910226
:1020000090919202892B09F089CF8091E800877F17
:102010008093E8008091E80080FFFCCF8091180158
:102020008093F1008091E8008E77B9CF80918D0286
:10203000813209F073CF8091910290919202892BA5
:1020400009F06CCF8091E800877F8093E8000E94C0
:10205000C60380918F02809318010E945B0F5ECFB0
:1020600080918D02813209F059CF8091E800877FFD
:102070008093E8000E94C6038091900280936702DB
:102080004DCF80918D02813A09F048CF8091E800D0
:10209000877F8093E8008091E80080FFFCCF8091EB
:1020A0006702BECF803899F0823809F0C6C18091AE
:1020B00091028F70873008F0C0C18093E900809151
:1020C000EB0085FB882780F91092E90006C080911B
:1020D000890290918A02911182609091E800977F25
:1020E0009093E8008093F1001092F1008091E80055
:1020F0008E779FC1882309F48DC1823009F09DC17C
:1021000080918F02811190C1809191028F702FEF89
:10211000280F263008F091C18093E9002091EB0050
:1021200020FF82C1933031F48091EB008062809374
:10213000EB007AC19091EB0090619093EB0021E06D
:1021400030E001C0220F8A95EAF72093EA0010924E
:10215000EA008091EB008860EACF81116EC1109196
:102160008F021F778091E3008078812B8093E300BA
:102170008091E800877F8093E8000E94C6038091E9
:10218000E80080FFFCCF8091E30080688093E3004B
:1021900082E0111183E080938B024FC1805882301E
:1021A00008F04BC120918F02309190022C3DE3E06A
:1021B0003E07A1F583E08A838AE289834FB7F894CA
:1021C000DE01139620E03EE051E2E32FF0E0509371
:1021D0005700E49120FF03C0E295EF703F5FEF707E
:1021E0008E2F90E0EA30C0F0C7968D939D932F5FBD
:1021F000243159F74FBF8091E800877F8093E80032
:102200006AE270E0CE0101960E9472048091E800BB
:102210008B778093E80011C1C096E7CF809191023F
:1022200090919202432F55274330510509F44AC03B
:1022300078F54130510509F47AC08BE590E0E2E889
:10224000F5E04230510509F0F8C02091E800277F01
:102250002093E80020919302309194028217930713
:1022600008F49C0140E02115310509F065C04111D9
:1022700063C08091E80082FDC9CF80918B028823E2
:1022800029F2853019F28091E80083FFF2CFBECFAA
:102290004132510509F43CC04232510509F0CDC02C
:1022A0008330910508F0C9C0FC01EE0FFF1FE15813
:1022B000FE4F0190F081E02D84589E4FDC018C91FF
:1022C00090E01AC0332721303105D1F021153105B6
:1022D00061F02230310509F0B0C0EFEEF5E0E49195
:1022E0008E2F90E0EFEEF5E007C0EFE1F6E0E4912D
:1022F0008E2F90E0EFE1F6E0009709F49EC0A5CFA5
:10230000EFE0F6E0E4918E2F90E0EFE0F6E0F4CF1E
:102310008330910508F091C0880F991FFC01EB579D
:10232000FE4F0190F081E02D89E090E08ECF82E1B8
:1023300090E0EDEDF5E089CF80918B02882309F4E0
:1023400065CF853009F462CF8091E80083FD5ECFD0
:102350008091E80082FD8DCF8091E80080FF83CFDF
:102360009091F3008091F2002115310519F0883029
:10237000910550F041E0089709F040E08091E800B5
:102380008E778093E8006FCF44914093F1003196AF
:10239000215031090196E8CF803809F04EC0809174
:1023A000E800877F8093E80080918C028093F100A1
:1023B0009DCE811142C010918F021230F0F58091B4
:1023C000E800877F8093E80010938C020E94C60388
:1023D000112311F084E005C08091E30087FDFACF5E
:1023E00081E080938B0242E061EC81E00E94E50392
:1023F00042E261EC84E00E94E50342E261EC82E0AB
:102400000E94E50342E260EC83E00E94E5038091D4
:102410008B0213C080918F02813079F481E0933078
:1024200009F080E080938A021092E9008091E80030
:10243000877F8093E8000E94C6038091E80083FFB5
:102440000AC08091E800877F8093E8008091EB00CC
:1024500080628093EB00AA96E3E00C941C240E9417
:102460005B0F2FEF84E39CE0215080409040E1F728
:1024700000C0000088E19CE00FB6F894A895809316
:1024800060000FBE90936000FFCF882321F00E9470
:10249000AC070E94920E0895882339F0909118029B
:1024A000982B909318020E94920E0895882309F4A5
:1024B0004DC0823879F40E94120581FF47C089E33C
:1024C0000E94DE070E94920E89E30E94B3070E94D9
:1024D000920E0895833859F40E94120580FF36C089
:1024E00083E50E94DE070E94920E83E5EECF8438DA
:1024F00059F40E94120582FF29C087E40E94DE077A
:102500000E94920E87E4E1CF9CEF980F913AE8F297
:1025100090E2980F983050F4877091E001C0990FC5
:102520008A95EAF7892F0E94AC07D1CF9BE5980FD7
:10253000933028F490E080E00E94FA040895885ACD
:10254000873120F490E080E00E94E2040895CF9368
:10255000C82F8823C9F08238C9F40E94120581FD72
:1025600013C089E30E94DE070E94920E2FEF87EED0
:1025700093E0215080409040E1F700C0000089E3E3
:102580000E94B3070E94920ECF9108958338A1F460
:102590000E94120580FDF8CF83E50E94DE070E94AD
:1025A000920E2FEF81EE94E0215080409040E1F7B1
:1025B00000C0000083E5E4CF8438A1F40E94120536
:1025C00082FDE2CF87E40E94DE070E94920E2FEF89
:1025D00081EE94E0215080409040E1F700C000007F
:1025E00087E4CECF8CEF8C0F813A88F5809118016B
:1025F000882301F18091610287FF1CC0EC2FE695D2
:10260000E695E695F0E0E257FE4F828190E04C2F90
:10261000477021E030E002C0220F331F4A95E2F7F5
:1026200082239323892B79F08C2F0E94B3070E9479
:10263000920E09C0E0E9F1E08191C817A9F321E009
:10264000E639F207C9F78C2F0E94DE079BCF80E2A4
:102650008C0F883068F4C77021E030E001C0220F91
:10266000CA95EAF780911802822B809318028ACFCC
:10267000EBE5EC0FE33040F4F0E0E75EFE4F8081E5
:1026800090E00E94FA0480CFC85AC73108F07CCF8E
:10269000EC2FF0E0EE0FFF1FE45EFE4F8081918192
:1026A0000E94E20471CF1F93CF93DF93182FD0E0E5
:1026B000C0E0893311F4C0E5D0E0812F0E94A71259
:1026C000209739F4812F0E945612DF91CF911F91EC
:1026D00008958FE99FE00197F1F700C0000021976E
:1026E000EFCF0F931F93CF93DF93C62FD42F022FDB
:1026F000FC0182818823A9F060939B020E94D6048A
:1027000090939A0280939902C77081E001C0880F6C
:10271000CA95EAF70E944C12DF91CF911F910F9159
:10272000089580919B0268133DC0209199023091D9
:102730009A024FB7F8948091950290919602A091D9
:102740009702B09198024FBF821B930B883C910572
:1027500048F510E21D0F6D17B9F080E2860F883042
:1027600040F4C77081E001C0880FCA95EAF70E9463
:102770004512183048F481E09D2F977001C0880FF2
:102780009A95EAF70E944C12802F0E94531318303A
:1027900018F6D77081E001C0880FDA95EAF70E9439
:1027A0004512BACFC77081E001C0880FCA95EAF719
:1027B000F6CFA5E0B0E0EFEDF3E10C94F2238C014D
:1027C000FC0183819481892B31F08081918189235F
:1027D0008F3F09F0C3C52596E1E10C940E240E94B9
:1027E0002B0CF82E682F89819A810E9450086981EC
:1027F0007A818F2D0E941D0C7C01F8018281882333
:1028000009F49FC5970122513F452031310508F059
:102810006BC58FEF93E00E942824811128C0FEEE43
:10282000EF0E57E6852E99249394E11032C01C8256
:102830001B82442443944AE0342E74018FEFE81A3B
:10284000F80AC4010E94282489831A82882379F017
:102850009FEF980F933058F58A83498292E0890E52
:10286000911CC7010E9428248B83811121C0809173
:10287000F601877009F4AFCFF8018281882309F44B
:10288000AACF8091620282FFA6CF82E00E94120F3F
:10289000A2CF811424E0920651F3C4010E9428249F
:1028A000811101C0EA943FEF831A930ABECF47011A
:1028B000FE0131967F01F7012081222309F4BDCF6B
:1028C000213009F047C091818281913031F4F2E0EA
:1028D000EF0EF11C0E94531307C0923049F422E01E
:1028E000E20EF11C0E94A7123FEFE31AF30AE3CFB6
:1028F000933031F432E0E30EF11C0E945612F4CF13
:10290000943021F08FEFE81AF80AEECF92E0E90E4A
:10291000F11C30E020E0B7016F5F7F4FF70141818C
:102920008053990B8A30910550F021503109E0F223
:102930008FE99FE00197F1F700C00000F6CF329ECB
:10294000F001339EF00D11249C012E0F3F1F842FA8
:102950007B01E1CFE22FF0E0E555FE4F5490822F4E
:1029600086958695869590E0FC01E556FE4F64902D
:102970002770712C022E02C0759467940A94E2F7B6
:10298000E1E06E227724FC01E557FE4FA490B12CC4
:10299000022E02C0B594A7940A94E2F7F1E0AF22A8
:1029A000BB24FC01E558FE4FC490D12C02C0D59445
:1029B000C7942A95E2F721E0C222DD246114710454
:1029C00019F081EE0E94A712A114B10419F086EE4D
:1029D0000E94A712852D0E945313A114B10419F06F
:1029E00086EE0E9456126114710419F081EE0E9465
:1029F0005612C114D10409F477CF8CE26BCF81E079
:102A00000E944A0F0E94F90E32CF81E00E94050F0A
:102A1000F9CF82E0F5CF95EFE9169CE5F90609F4C8
:102A20006CC008F466C027E245EE66EEF6EFEF16DE
:102A3000FCE5FF0609F481C4882309F4A0C41092C0
:102A40009B0223E0E2162DE5F20608F05DC03AEFA6
:102A5000E3163CE5F30630F4C70182509C454497E9
:102A600008F05FC00E94AA0C9093620280936102FA
:102A7000F2E1EF16FCE5FF0609F476C108F0B4C0F8
:102A800039E0E3163CE5F30609F44CC108F077C0E1
:102A900095E0E9169CE5F90609F434C108F05DC03B
:102AA000F3E0EF16FCE5FF0609F424C108F026C1A7
:102AB00080916102816032E0E3163CE5F30609F49F
:102AC00090C060916102F090620284E090E00E9408
:102AD0003C246F2D82E290E00E943C240E945B0F18
:102AE000C6CE27E245EE65EE28C426E241EE60EE52
:102AF00024C427E245EE64EE20C426E241EE62EEF5
:102B00001CC428E241E0EFCF85EAE8168DE5F8061F
:102B100009F4A8CFE0F4E1E6EE16EDE5FE0609F4CF
:102B2000A1CF96E1E9169CE5F90609F035C480913C
:102B300018028A7A91E009F490E09093AE01811135
:102B40003DC189E20E94DE070E94920E90CEC7012D
:102B50008D5A9D45039728F785CF87E0E8168CE5C9
:102B6000F80609F4DBC080916102806198E0E91603
:102B70009CE5F906B0F180916102806432C0EDE01D
:102B8000EE16ECE5FE0609F4D7C0A0F480916102D0
:102B90008E7F2BE0E2162CE5F20619F1809161029E
:102BA0008C603CE0E3163CE5F306D8F080916102CE
:102BB0008D7F17C08FE0E8168CE5F80609F4CCC0CD
:102BC00008F4BEC0E0E1EE16ECE5FE0609F4C8C06C
:102BD000809161028F7BF1E1EF16FCE5FF0609F0C1
:102BE00070CF809361026DCF2FEFE2162CE5F206D5
:102BF00009F4C4C0D8F58AEFE8168CE5F80609F4A4
:102C000085C0D0F4E4E1EE16ECE5FE0609F4C4C09C
:102C100008F4B0C025E1E2162CE5F20609F051CF28
:102C20008091610282FB992790F921E0922790FB25
:102C300082F990FB83F9D5CF3CEFE3163CE5F30630
:102C400009F482C008F466C09DEFE9169CE5F90618
:102C500009F47EC0809162028360EEEFEE16ECE52F
:102C6000FE0609F02ECF809362022BCFF1E6EF161D
:102C7000FDE5FF0609F49BC0A0F431E0E3163DE555
:102C8000F30609F492C008F47DC060E092E0E91612
:102C90009DE5F90609F015CF8EE090E00E943C24F6
:102CA00010CFEDEAEE16EDE5FE0601F168F4909125
:102CB0006102892F8E7F90FF816025EAE2162DE563
:102CC000F20609F48ECFFDCE3EEAE3163DE5F306AB
:102CD00079F18FEAE8168DE5F80609F0F2CE9091C9
:102CE0006202892F877F93FF8860BDCF8091620247
:102CF0008860B9CF80916102826073CF8091610258
:102D000084606FCF8091610288606BCF8091620296
:102D10008160A9CF809162028260A5CF809161021B
:102D200080625FCF0E945B0F80916102806859CF03
:102D300080916202877F97CF809161028B7F51CF14
:102D400080916102877F4DCF809162028E7F8BCF11
:102D5000809162028D7F87CF809161028F7E41CF0B
:102D6000809161028F7D3DCF0E945B0F8091610257
:102D70008F7737CF80916102837F33CF809162025A
:102D80008C7F71CF80916202982F909591708E7F89
:102D9000892B90FB81F967CF0E945B0F90916102B4
:102DA000892F97FB87F980581CCF61E075CF9091F0
:102DB0006102892F8F7E94FF806113CF85E3C2CE9D
:102DC00085E3E7C281608093550261E086950E94A9
:102DD000B00D4DCD42EF5DE06CEF7DE00E941F0530
:102DE00046CD4CEF5DE062EF7DE0F8CF42E85DE07C
:102DF00068E77DE0F3CF4EE55DE06BE67DE0EECF8A
:102E000044E45DE061E57DE0E9CF41E55DE064E457
:102E10007DE0E4CF4EE95DE06CE87DE0DFCF61E08E
:102E200081E0D5CF65E082E00E94070E20CD68E00A
:102E300086E0FACF64E18FE0F7CF67E185E1F4CF78
:102E400062E289E1F1CF61E083E2C1CF0E945B0FD2
:102E50003FEF84E39CE0315080409040E1F700C0B8
:102E600000000E94F0088091620282FB882780F9AE
:102E700091E089270E942E0FF8018281E080F18085
:102E8000882309F445C0C7010E942B0CD82E682F57
:102E9000C7010E945008B7018D2D0E941D0C0E9491
:102EA00026067C01882EF801D280B580B2943FE0DE
:102EB000B3228091F6018770C1F0AD2CDD20B1F016
:102EC0008F2D807F803421F080E28E0D883068F075
:102ED0008091620282FF09C082E00E94120F8091FD
:102EE000F6018770AA24A3948111A12C9F2C92949F
:102EF0002FE09222FBE0F91508F479C0E92DF0E00B
:102F0000EA56FB4D0C94B32381E0B4CF80E0B2CFFE
:102F1000C7010E941C08D82EBECF2F2D2F70C22EA5
:102F20008F2D807F19F0C29490EFC922DD20B9F077
:102F3000CC2069F080E28E0D883010F0811009C03D
:102F400080911802C82AC09218020E94920E8E2DFB
:102F50004CC080911702C82AC0921702F6CF8E2D5E
:102F60000E945612CC2009F442C080E28E0D8830B7
:102F700010F0811004C08C2D0E94AC0706C0C094D4
:102F800080911702C822C09217020E94920E2FC091
:102F90003F2D3F70C32E8F2D807F803219F0C29459
:102FA00080EFC822882089F081E0881609F468C083
:102FB000DD2009F472C0BB2009F468C0F8018581E6
:102FC00080FFC5CF8F70858361C02091620222FD92
:102FD00035C0DD2069F1CC2039F080911802C82A73
:102FE000C09218020E94920E80E00E94A712292D22
:102FF0002850330B2430310510F40E941205AA200A
:1030000009F4E9CB8091F60180FDE5CBF80112824D
:103010008595859585950E944A0FC8010E94D91310
:103020008091F6018595859585950E94050FD3CBF6
:1030300080E00E945612CC20D1F29DCFDD2099F085
:10304000909119028C2D892BB11003C00E944C1253
:10305000CECFE1E0BE12FACF22FFC9CF981739F2E6
:1030600080931902C4CFB11006C00E94A6078C2D10
:103070000E944512BCCFF1E0BF1609F4B8CFF5CFDE
:10308000DD2031F025E02B1508F4B1CF8C2DDECFFB
:1030900034E03B1508F4ABCFEACFBB2041F3F9E3B2
:1030A0008F1209C02FEF37EE83E02150304080406F
:1030B000E1F700C000008E2D0E94561298CF8F2D90
:1030C00086958695837061F0813009F090CFC701B5
:1030D0009370D11002C090E080E00E94E20487CF9C
:1030E000C7019370D11002C090E080E00E94FA0402
:1030F0007ECF8F2D837091F5D11079CF4E2D4295D3
:1031000046954770440F440F8E2D8F70042E01C0DA
:10311000880F0A94EAF72E2D2071E4FE07C02FE0F5
:1031200030E001C0220F4A95EAF720953F2D3695F1
:1031300036953370323069F050F440911A023130D4
:1031400029F0822B84230E94560F51CF842B822B8F
:10315000FACF282B80911A028227F5CF8695DD20A1
:1031600011F08F2D8170882309F441CF4E2D4295A7
:1031700046954770440F440F8E2D8F70042E01C06A
:10318000880F0A94EAF72E2D2071E4FE07C02FE085
:1031900030E001C0220F4A95EAF720953F2D369581
:1031A00036953370323069F050F440919C023130E2
:1031B00029F0822B84230E94F40E19CF842B822BBA
:1031C000FACF282B80919C028227F5CF9F2D9F70EC
:1031D000F92EDD2029F0892F0E944A0F8E2D36CF3F
:1031E0008E2D0E9445128F2D0E94050F00CF8E2D2F
:1031F000E2EF8E16B1F1E81570F0F0EF8F16D1F016
:1032000021EF821691F0DD2009F45EC0B1109FCE4F
:103210008F2D8F712AC033EF831651F194EF8912ED
:10322000F2CF8091620282FD2FC08F2D8F71DD2041
:10323000D9F21BC0DD2081F0E4E0EB1508F4D7CE15
:103240002F2D2F7181E090E001C0880F2A95EAF7B9
:1032500090919C028927AFCFF5E0FB1508F4C7CE0B
:10326000EFCF8F2D8F71D110BFCF0E944A0FBFCEED
:1032700080E0DD2009F49FCF9F2D9F7181E001C088
:10328000880F9A95EAF797CFDD2099F02F2D2F71AF
:10329000F22E822F0E944A0F8091620282FF07C0A5
:1032A00038E0F39EC001112483608093F6018F2DD6
:1032B000DCCF81E00E94120F81E08B1508F097CEE1
:1032C00082E00E94120F93CEBB2059F0893309F09F
:1032D000F2CE9FEFE7EEF3E09150E040F040E1F7EF
:1032E000E8CE8F2D8F7180CFF0E1EF16FFE5FF065E
:1032F00009F485CB21E1E2162FE5F20609F489CB2A
:1033000093EFE9169CE5F90609F4EFCB08F083CBBF
:10331000F8EDEF16FCE5FF0609F4E3CB29EDE21624
:103320002CE5F20609F4EDCB37EDE3163CE5F306A8
:1033300009F082CB26E241EE61EEC8010E947113D2
:1033400096CA30E1E3163FE5F30609F45ECB91E15E
:10335000E9169FE5F906A1F682E058CB85E0DE018B
:10336000119601900D928A95E1F7F80122818981E9
:103370009A81211134CA0E941C08F82E38CAF6E13D
:10338000EF16FCE5FF0681F58091AE01811118CDA5
:1033900089E20E94B307D8CB2AE5E2162DE5F206B2
:1033A00009F4B2CD98F4E1148CE5F80609F44ECD99
:1033B0009EEDE9169CE5F90609F05ECD6FEF7FEF13
:1033C00090E080E00E945A240E942F12ECE5EE1655
:1033D000EDE5FE0609F447CD08F498CD27EAE2169C
:1033E0002DE5F20689F348CD8091180282723CECFB
:1033F000E3163CE5F30609F40DCD08F06DC0E6ECEC
:10340000EE16ECE5FE0609F4F1CCE8F523ECE21645
:103410002CE5F20609F4DECC28F582ECE8168CE502
:10342000F80609F029CD8091550280FFCBCC8E7F24
:103430008093550260915502709156028091570217
:10344000909158020E94B80C10923902EFEFF0E709
:1034500022E0E150F0402040E1F700C000000E946F
:10346000140905CA94ECE9169CE5F90609F4B9CCEF
:1034700048E75DE062E87DE0E5ECEE16ECE5FE068F
:1034800009F4ACCCF9CCF9ECEF16FCE5FF0609F435
:10349000B7CC88F437ECE3163CE5F30609F4ABCC83
:1034A0004BE65DE06EE57DE098ECE9169CE5F906FB
:1034B00009F494CCE1CCEAECEE16ECE5FE0609F456
:1034C000A4CC4CE85DE06EE97DE0FBECEF16FCE59A
:1034D000FF0609F483CCD0CC21EDE2162CE5F206F0
:1034E00009F4A8CCB8F48EECE8168CE5F80609F4DB
:1034F00099CC08F494CCEFECEE16ECE5FE0609F45A
:1035000096CC6EE089E0F0EDEF16FCE5FF0609F4DD
:103510008BCCB2CC24EDE2162CE5F20609F490CC6B
:1035200078F482EDE8168CE5F80609F486CC61E0C3
:1035300088E193EDE9169CE5F90609F448CC9CCCAA
:10354000E5EDEE16ECE5FE0609F47DCCFDE5EF16A3
:10355000FF0609F48CC990CC1F93CF93DF93809121
:10356000C301807F09F049C08091C001882309F41C
:1035700044C08091F501D091C4016091BE01709169
:10358000BF01A091C101B091C201C62FC72316E0AF
:10359000D81799F190E0109711F0CF3F19F40196E8
:1035A0008770F6CF189F9001199F300D1124F901F3
:1035B000EB53FE4F41814713F2CF40814613EFCFCB
:1035C00042814111ECCF438154814A1B5B0B483C43
:1035D000510528F78091C3018F7080618093C301EA
:1035E000F901E653FE4F80818F70806180838EEBFE
:1035F00091E00E94D9130E941208DF91CF911F9190
:103600000895A1E1B0E0E7E0FBE10C94F9238C011F
:1036100085E0F801DE011D9601900D928A95E1F793
:10362000F801E2808EEBA82E81E0B82E6091C101F6
:103630007091C2016115710509F426C19091BE0116
:103640004091BF01892F84238F3F09F41DC1208140
:103650003181C380D480F090C001F601E61BF70BE6
:10366000FF2009F4DCC08091C301582F507FE83C53
:10367000F10508F09FC051116BC0FE2C431314C01C
:10368000921312C0E11010C08F7080618093C3014B
:10369000C5010E94D9138091C301F80185838F2D44
:1036A0006196EAE00C941524C114D10429F0822F0C
:1036B00083238F3F09F003C180E0F82FF170DF2EE4
:1036C00080FF3CC08091F5014091C40156E0841315
:1036D00015C02D873E878D859E850E945A0C292F07
:1036E00022952F702230F0F0243018F59F70F1F001
:1036F000F8019581907FD1F4D12C1EC090E0589FA5
:10370000F001599FF00D1124EB53FE4F61813613E8
:1037100006C06081261303C06281E6120FC00196C5
:103720008770D5CF9F7011F0882331F3805E883089
:1037300018F3C8010E94D913FD2CB1CFEE2009F473
:10374000AECF8091C30181608093C301F12CA7CFDC
:10375000431306C0921304C0F801EE2009F479C0A7
:10376000C8010E94670C882309F1EE20F9F08091CE
:10377000C301803270F02091BE013091BF013887C3
:103780002F831986DB86CA868C87CE0107960E9416
:10379000D91386E0F801AEEBB1E001900D928A9565
:1037A000E1F70E94AC1AFF24F39479CFC8010E947C
:1037B000D913F9CF51110AC08EEB91E00E94D913B1
:1037C00086E0F50111928A95E9F7C0CF43130FC047
:1037D00092130DC0E1100BC0F8018583C8010E944F
:1037E000D91386E0F50111928A95E9F758CFC801FF
:1037F0000E94670C8823D1F2EE20C1F28091C301B0
:10380000803238F22091BE013091BF013A83298382
:103810001B82DD82CC828E83CE010196B8CFE83C3C
:10382000F105F8F6FE2CEE2009F243131FC09213A7
:103830001DC08091C30180FD10C0982F907F69F05A
:10384000F8018583903F31F0982F907F905F8F70C3
:10385000892B8583C8010E94D91386E0F801AEEB5D
:10386000B1E001900D928A95E1F719CFC8010E944D
:10387000670C81118ECF8091C30181608093C30159
:10388000C8010E94D9130BCFEE2009F48FCFC801D5
:103890000E94670CF82E882309F488CF86E0F8018F
:1038A000AEEBB1E001900D928A95E1F78091BE01F7
:1038B0009091BF010E945A0C0E94AC1AF0CE81E098
:1038C0008E25FBCEA7E1B0E0E8E6FCE10C940024F5
:1038D0004B8B5C8B6D8B7E8B8F8B611110921702E3
:1038E0001A8A198A85E0FE017396DE011D96019001
:1038F0000D928A95E1F786E0FE013D96DE0117966E
:1039000001900D928A95E1F7CE0107960E94011B66
:10391000882359F016E08091F5019091C401891334
:1039200043C06796E3E00C941C2486E0FE013796C2
:10393000DE01119601900D928A95E1F78A859B85AB
:10394000892B41F38F81988589238F3F19F320912B
:10395000C40130E0C9010196877099274091F501B3
:103960004817190671F40E945B0F1092C40110925F
:10397000F50186E0EEEBF1E0DF011D928A95E9F7B3
:10398000C9CF96E0929FD001939FB00D1124AB5305
:10399000BE4FFE01319601900D929A95E1F780930A
:1039A000C4010E941208B6CF819FC00111248B531D
:1039B0009E4F0E94011B882309F4B3CF8091F5012B
:1039C00090E00196877099278093F501A4CFA5E038
:1039D000B0E0EDEEFCE10C94F8238E010F5F1F4F79
:1039E00085E0F80111928A95E9F78AE4C82E81E012
:1039F000D82EF12CE12CAA24A394B12CF6018191AC
:103A00006F018F3F09F443C0F894E82FE295EF70FF
:103A1000F0E021A18F70A50102C0440F551F8A95C7
:103A2000E2F7CA01922F982B91A392A18095892346
:103A300082A3789400C0EFE4F1E0912C31E0219171
:103A40002F3F09F470C0A22FA295AF70B0E09096FE
:103A50008C9190E02F7002C0959587952A95E2F79A
:103A600080FD61C0832F982A330F51E0E735F507B9
:103A700031F7F601319780818F3F11F00E94CC051C
:103A800080EA8A95F1F7F801EE0DFF1D9082EFEFC5
:103A9000EE1AFE0AF5E0EF16F10409F0AFCF45E0AB
:103AA00050E0B8018EE192E00E947D24892BE9F17B
:103AB00085E0F801AEE1B2E001900D928A95E1F760
:103AC00081E080931D020E94D60490931C02809393
:103AD0001B0220911B0230911C024FB7F894809179
:103AE000950290919602A0919702B09198024FBFD3
:103AF000821B930B0597E8F045E050E06EE172E021
:103B00008DE292E00E947D24892BC1F085E0EEE1F8
:103B1000F2E0ADE2B2E001900D928A95E1F781E02A
:103B200010921D0207C080E09ECF80911D0281117E
:103B3000D0CF80E02596EBE00C94142480E0F0CF09
:103B400090E080E00E943624883E9E4F19F40E9447
:103B5000910C089580E008951F920F920FB60F9276
:103B600011242F933F934F935F936F937F938F9382
:103B70009F93AF93BF93CF93DF93EF93FF93D09136
:103B8000E900DF708091EC00C82FC17080FDC0E8B3
:103B90001092E9008091F000877F8093F000789484
:103BA0000E94710F1092E9008091F000886080936C
:103BB000F000CD2BCF70C093E900FF91EF91DF9122
:103BC000CF91BF91AF919F918F917F916F915F91B5
:103BD0004F913F912F910F900FBE0F901F9018950E
:103BE0001F920F920FB60F9211242F933F934F9372
:103BF0005F936F937F938F939F93AF93BF93EF9355
:103C0000FF938091E10082FF09C08091E20082FF72
:103C100005C08091E1008B7F8093E1008091DA0004
:103C200080FF24C08091D80080FF20C08091DA00FE
:103C30008E7F8093DA008091D90080FF9DC080E163
:103C400089BD82E189BD09B400FEFDCF81E080938A
:103C50008B0280916602811109C00E944C030E9470
:103C600017048091E20084608093E2008091E1007B
:103C700080FF17C08091E20080FF13C08091E200B6
:103C80008E7F8093E2008091E20080618093E20069
:103C90008091D80080628093D80019BC85E0809321
:103CA0008B028091E10084FF2BC08091E20084FFB1
:103CB00027C080E189BD82E189BD89B5982F9170C7
:103CC00080FFFBCF8091D8008F7D8093D8008091BA
:103CD000E1008F7E8093E1008091E2008F7E8093EF
:103CE000E2008091E20081608093E20080918C028A
:103CF000882309F447C084E080938B0280918B0273
:103D00008091E10083FF27C08091E20083FF23C000
:103D10008091E100877F8093E10082E080938B02B5
:103D200010928C028091E1008E7F8093E10080915F
:103D3000E2008E7F8093E2008091E20080618093B8
:103D4000E20042E060E080E00E94E5038091F00044
:103D500088608093F000FF91EF91BF91AF919F91A8
:103D60008F917F916F915F914F913F912F910F9024
:103D70000FBE0F901F90189519BC10928B021092D5
:103D8000660274CF8091E30087FD93E090938B02ED
:103D9000B5CF78941F921FB61F9211248F939F93D3
:103DA000AF93BF938091950290919602A091970254
:103DB000B09198020196A11DB11D80939502909338
:103DC0009602A0939702B0939802BF91AF919F91F2
:103DD0008F911F901FBE1F9018951F921FB61F92A4
:103DE00011248F939F93AF93BF93809160028111B1
:103DF00013C08091950290919602A0919702B09184
:103E000098024196A11DB11D809395029093960250
:103E1000A0939702B0939802BF91AF919F918F9119
:103E20001F901FBE1F901895CDB7DEB7AA970FB68B
:103E3000F894DEBF0FBECDBF85B7806885BF85B75C
:103E4000806885BF84B7877F84BF0FB6F894A89534
:103E500080916000886180936000109260000FBEC6
:103E600080E890E00FB6F894809361009093610031
:103E70000FBE8AEC95E090938D0180938C010E9497
:103E80004C030E9417048091E20084608093E2005A
:103E9000789480918B028823A1F01091E9001F7023
:103EA0009091EC00892F817090FD80E8182B109282
:103EB000E9008091E80083FD0E94710F1F7010934C
:103EC000E90082E084BD93E095BD9AEF97BD8093B1
:103ED0006E000E94910C811102C00E94DE0B0AE468
:103EE00011E0D8018D918D018F3F11F00E94CC051A
:103EF000B1E00F341B07A9F70FE411E087E5E82EC6
:103F000081E0F82EF80181918F018F3F11F00E941E
:103F1000CC05E016F106B1F785E0EDE2F2E0DF0155
:103F2000282F1D922A95E9F7EEE1F2E0DF011D92BC
:103F30008A95E9F70E94A01D811102C00E94270EF8
:103F400082E090E00E942824809326020E94AA0C1E
:103F500090936202809361020E94E71CEFE3FCE908
:103F60003197F1F700C000000E94E71C80912D02FC
:103F700081FF08C06FEF7FEF90E080E00E945A243D
:103F80000E94F00883E090E00E9428240E94560FCF
:103F900080912302811133C00E94A01D811104C0B1
:103FA0000E94270E0E94170E88E090E00E943024A5
:103FB0006093550270935602809357029093580273
:103FC0006E7F71F40E94170E88E090E00E9430240A
:103FD0006093550270935602809357029093580253
:103FE0000E942505109239028091550280FF04C07D
:103FF00060E086950E94B00D81E08093230280E00E
:1040000091E090935D0280935C0218E1E12EF12C27
:104010008DE292E005E0D02ED80E80918B02B0E4C4
:10402000BB2E00E112E1853009F483C00E94E71C39
:10403000F7E26F2EF2E07F2EADE28A2EA2E09A2EFA
:10404000D401F30191918D9122E0EC32F20709F451
:104050007AC09817B9F310E0D4010D914D01F30126
:1040600081913F01801721F1C82EC026B12CAA24CE
:10407000A3948C2D8A21A1F0BEA21FA391E0802FD2
:104080008A2109F490E098A70E94D6048160782FD5
:104090009AA789A74EA15FA168A58AA50E94621C64
:1040A000B394AA0CF8E0BF12E4CFF3013197008378
:1040B0001F5F153089F68FB7F894409195025091A3
:1040C000960260919702709198028FBF5CC08091B8
:1040D0008B02843009F1109260020FB6F894A89513
:1040E000E09260000FBEB092600083B7817F846071
:1040F00083BF83B7816083BF7894889583B78E7FB1
:1041000083BF0FB6F894A895809160008861809372
:104110006000109260000FBE80918A02882349F0EF
:104120000E94E71CEDE2F2E081918111B3C2DE1240
:10413000FBCF80918B02853009F4C9CF0E945B0FC1
:104140000E94120573CF981386CF0E94D6048C016B
:10415000809124029091250208171907A1F08FEF92
:1041600089A38AA31BA20E94D6048160782F9DA3F5
:104170008CA349A15AA16BA18DA10E94621C10932E
:10418000250200932402809139028823D1F1809185
:104190003802E0915502E695E81BE0933402823044
:1041A00009F06BC0F0E0E75CFD4FE4910E2F10E0EA
:1041B000E3E4AE2EEBE0BE2E80913502882361F061
:1041C000109235020E94D6049093330280933202FB
:1041D00010923702109236020E94D604E091320209
:1041E000F09133028E1B9F0B8F3F9F4750F4E00FDF
:1041F000F11FF0933302E093320282E392E0F50183
:1042000009950E94120590912C02891769F08093FC
:104210002C028FB7F89440919502509196026091CC
:104220009702709198028FBF80918B02843009F0C1
:10423000F4CE83E08093E9008091E80082FFEDCE28
:104240008091E80090E085FF06C00E946B03882300
:1042500009F46DC091E08091E8008B778093E800CD
:10426000992309F4DACEE981E150E33108F0DEC0A8
:10427000F0E0EE55FB4D0C94B323863059F4F0E09A
:10428000EA5CFD4FE4910E2F10E073E3A72E7BE074
:10429000B72E92CF893061F4E695F0E0ED5CFD4FEA
:1042A000E4910E2F10E067EAA62E6AE0B62E84CFC6
:1042B0008F3061F4E695F0E0E05DFD4FE4910E2F64
:1042C00010E059E4A52E5AE0B52E76CF853159F489
:1042D000F0E0E35DFD4FE4910E2F10E04BEFA42ED4
:1042E00049E0B42E69CF08E210E090E8A92E99E0E9
:1042F000B92E883109F460CF833249F4EBE2F2E061
:104300000591149132EEA32E3AE0B32E55CF04EF6F
:1043100011E029E4A22E29E0B22E843209F44CCF18
:1043200000ED17E081EDA82E84E0B82E45CF00E225
:1043300010E0CE0101965C018091E80085FD0AC085
:104340008091E8008B778093E8000E946B038823BC
:1043500099F380CF8091F100D5018D935D010150DB
:10436000110951F777CF1A828AE08B832AC08A819C
:10437000823009F4A5C18330A9F0813009F056C01C
:104380002FB7F894609195027091960280919702F0
:10439000909198022FBF0E94B9236B837C838D83F9
:1043A0009E830FC080912D028B8380912E028C837F
:1043B00080912F028D83809130028E838091310213
:1043C0008F8380918B02843009F027CE1091E90011
:1043D0001F709091EC00892F817090FD80E8182B60
:1043E00082E08093E9008091E80080FF0DC050E0FA
:1043F00040E060E270E0CE0101960E949C03809153
:10440000E8008E778093E8001F701093E90005CED6
:104410008A81823059F46B817C818D819E810E94DA
:10442000B92386E290E00E943C24CBCF8FEF8983B2
:10443000C8CF4C816B818A810E94EE0B9827892717
:1044400098279E838D83BDCF2D813E8132272327E0
:1044500032274C816B818A810E94670BB2CF0E9408
:104460008D0BAFCF8A81813809F1A8F4803809F02B
:10447000A8CF8B81BFEF8B9FC00111246FEF70E03D
:104480000E946923462F20E06091570280915602D6
:104490000E94CB0C96CF823859F1833809F091CF26
:1044A00020E0409158026C818B81F2CF60E08B81DB
:1044B0000E94B00D9B8180915502911111C08E7F99
:1044C0008093550210923902EFEFF0E722E0E150BD
:1044D000F0402040E1F700C000000E94140971CFB5
:1044E00081608093550260E086950E94B00D69CF8F
:1044F0008B818093590265CF8A818138E1F078F40D
:10450000803809F05ECF80915802AFEF8A9FC001DA
:1045100011246FEF70E00E9469236B8352CF8238C1
:1045200091F0833809F04DCF809156028B838091B2
:1045300057028C8346CF8091550280FF02C086953A
:1045400014CF80E012CF809159020FCF60915502B5
:104550007091560280915702909158020E94B80CB7
:1045600030CF80E18A832DCF82E08A8389E9FDCE36
:10457000AA80BB80BA24AB24BA248E010F5F1F4FE0
:104580008C80800E912E911CC50189599E4F081573
:10459000190509F416CFB9E9AB16B2E0BB0650F421
:1045A0000E942824F8018483BFEFAB1ABB0A0F5F77
:1045B0001F4FEACFD80114961C92F6CF0A811B81B7
:1045C000102701271027FE0131964F01AC80A00E65
:1045D000B12EB11CC80189599E4F0A151B0509F45B
:1045E000F0CE0939F2E01F0728F4D40114966C913B
:1045F0000E943C24BFEF8B1A9B0A0F5F1F4FEACF2C
:104600000E94570BDECE84E0ADCFAA80BB80BA24D7
:10461000AB24BA248E010F5F1F4F8C80800E912E29
:10462000911CC50187960815190509F4CACEE0E466
:10463000AE16E1E0BE0658F40E942824D801149674
:104640008C93FFEFAF1ABF0A0F5F1F4FEACFF8013D
:104650001482F7CF0A811B81102701271027CE0172
:1046600001964C01AC80A00EB12EB11CC8018796FA
:10467000A016B10609F4A5CE0034A1E01A0720F473
:10468000F40164810E943C24FFEF8F1A9F0A0F5FA0
:104690001F4FECCF09BD19BD09B400FEFDCF8091BD
:1046A000D8008F7D8093D8008091E0008260809355
:1046B000E0008091E00081FDFCCF0E945B0F39CDCE
:1046C00086E290E00E9428241B821C821D828E8339
:1046D00078CEAA1BBB1B51E107C0AA1FBB1FA617A0
:1046E000B70710F0A61BB70B881F991F5A95A9F79B
:1046F00080959095BC01CD01089597FB072E16F487
:10470000009407D077FD09D00E94692307FC05D0EB
:104710003EF4909581959F4F0895709561957F4FD8
:104720000895A1E21A2EAA1BBB1BFD010DC0AA1FF2
:10473000BB1FEE1FFF1FA217B307E407F50720F00A
:10474000A21BB30BE40BF50B661F771F881F991F85
:104750001A9469F760957095809590959B01AC01CE
:10476000BD01CF010895EE0FFF1F0590F491E02DDC
:104770000994692796276927782787277827089536
:104780000E94C823332312F48A1B9B0B0C94D92359
:10479000A29FB001B39FC001A39F700D811D112482
:1047A000911DB29F700D811D1124911D08950E94CD
:1047B000C823B7FF0895821B930B08950E94C82356
:1047C000A59F900DB49F900DA49F800D911D112465
:1047D0000895B7FF0C94DE230E94DE23821B930B07
:1047E00008952F923F924F925F926F927F928F9295
:1047F0009F92AF92BF92CF92DF92EF92FF920F9370
:104800001F93CF93DF93CDB7DEB7CA1BDB0B0FB679
:10481000F894DEBF0FBECDBF09942A883988488836
:104820005F846E847D848C849B84AA84B984C884CC
:10483000DF80EE80FD800C811B81AA81B981CE0FC3
:10484000D11D0FB6F894DEBF0FBECDBFED010895A8
:10485000F999FECF92BD81BDF89A992780B5089548
:10486000A6E1B0E044E050E00C946224A8E1B0E09E
:1048700042E050E00C946224262FF999FECF92BDBD
:1048800081BDF89A019700B4021639F01FBA20BD15
:104890000FB6F894FA9AF99A0FBE08950396272F47
:1048A0000E943D240E943C24252F0E943D24242F59
:1048B0000C943D240196272F0E943D240C943C2407
:1048C000DC01CB01FC01F999FECF06C0F2BDE1BDD0
:1048D000F89A319600B40D9241505040B8F70895BF
:1048E000FC014150504030F001900616D1F731974D
:1048F000CF010895882799270895FB01DC0104C0A2
:104900008D910190801921F441505040C8F7881BC7
:10491000990B0895F894FFCF52107A101D127A1057
:104920001D12AD10CE101D12CC11D9118D178D177F
:10493000C817C8175F18F717F717F7177918E61889
:10494000F718F718B321B7210822192224222F22A1
:1049500032227C22A62216221622B122B422B822AA
:0A496000DE220023032305232A238F
:10496A00D304B008D2048608D00401191A1B1C1DEE
:10497A001E1F20212201020101818283E200E90037
:10498A00EA00B500B600B700CD008301CC008A0169
:10499A0092019401210223022402250226022702FF
:1049AA002A02B300B4006F0070003534C697663629
:1049BA00323331F7F6F5F400010202020206060666
:1049CA000909090909090F0F0F0F0F0F15151518F6
:1049DA0019191919191919191919232440226D3B82
:0C49EA00011901AC009405AD05CD0500DD
:00000001FF
