:100000000C94F3030C942B040C942B040C942B04ED
:100010000C942B040C942B040C942B040C942B04A4
:100020000C942B040C942B040C9446210C94022168
:100030000C9443220C942B040C942B040C942B044E
:100040000C942B040C942B040C942B040C942B0474
:100050000C942B040C941F220C942B040C942B0452
:100060000C942B040C942B040C942B040C942B0454
:100070000C942B040C942B040C942B040C942B0444
:100080000C942B040C942B040C942B040C942B0434
:100090000C942B040C942B040C942B040C942B0424
:1000A0000C942B040C942B040C942B040A010000D8
:1000B000FFFF000000000A0100FFFFFF000000003A
:1000C0000A0115FFFFFF000000000A01AAFFFFFF61
:1000D000000000000A012BFFFFFF000000000A01E2
:1000E00055FFFFFF000000000A01BFFFFFFF0000F7
:1000F00000000A0180FFFFFF000000000A0100FF6E
:10010000FFFF0000000005010980A101850319011E
:100110002AB700150126B700950175108100C005AA
:100120000C0901A101850419012AA002150126A0CC
:1001300002950175108100C005010906A10185061F
:10014000050719E029E715002501950875018102C9
:100150000507190029EF1500250195F075018102A9
:100160000508190129059505750191029501750389
:100170009101C00660FF0961A1010962150026FF17
:10018000009520750881020963150026FF0095205F
:1001900075089102C005010906A101050719E029AA
:1001A000E715002501950875018102950175088103
:1001B000010507190029FF150026FF00950675089F
:1001C0008100050819012905950575019102950120
:1001D00075039101C0000000000000000000000055
:1001E000000000000000000000000000000000000F
:1001F0000000000000000000007E0F00D4FFFFFFA1
:10020000C70000007800000000000000002A2B2832
:1002100000000000000000000000000000000000DE
:1002200029000000002C1E342021222434262725FA
:100230002E362D3738271E1F202122232425263332
:1002400033362E37381F0405060708090A0B0C0D34
:100250000E0F101112131415161718191A1B1C1D46
:100260002F3130232D350405060708090A0B0C0D24
:100270000E0F101112131415161718191A1B1C1D26
:100280002F3130354CFC00F200E800DE00D400CA0B
:1002900000C000B600AC00000000047F3F1F6432C5
:1002A00014643214783C1E1E140A05000101010179
:1002B0000101010101020202020202020202030321
:1002C00003030303030304040404040404050505F1
:1002D00005050606060606070707070708080808B3
:1002E000090909090A0A0A0B0B0B0C0C0C0D0D0D60
:1002F0000E0E0E0F0F0F10101111111212131314F6
:1003000014151516161717181819191A1A1B1B1C6D
:100310001D1D1E1E1F2020212222232424252626C7
:10032000272829292A2B2C2D2D2E2F3031323233FC
:100330003435363738393A3B3C3D3E3F4041424305
:100340004445464748494A4C4D4E4F5051535455E9
:100350005658595A5B5D5E5F616264656668696B99
:100360006C6D6F7072737577787A7B7D7E80828317
:100370008587888A8C8E8F91939596989A9C9EA05B
:10038000A2A3A5A7A9ABADAFB1B3B5B7BABCBEC068
:10039000C2C4C6C9CBCDCFD1D4D6D8DBDDDFE2E431
:1003A000E7E9EBEEF0F3F5F8FAFDFFFFAA7F554021
:1003B0002223252628292A2C2D2F30323335363872
:1003C0003A3B3D3E4042434547494A4C4E505153CB
:1003D0005557595A5C5E6062646668696B6D6F71EF
:1003E000737577797B7D7F81838587898A8C8E90F1
:1003F000929496989A9C9E9FA1A3A5A7A8AAACAEFA
:10040000AFB1B3B4B6B8B9BBBCBEBFC1C2C3C5C639
:10041000C7C9CACBCCCDCED0D1D2D2D3D4D5D6D7E2
:10042000D7D8D9D9DADADBDBDBDCDCDCDCDCDDDD20
:10043000DDDDDCDCDCDCDCDBDBDBDADAD9D9D8D710
:10044000D7D6D5D4D3D2D2D1D0CECDCCCBCAC9C7B2
:10045000C6C5C3C2C1BFBEBCBBB9B8B6B4B3B1AFE9
:10046000AEACAAA8A7A5A3A19F9E9C9A9896949289
:10047000908E8C8A89878583817F7D7B7977757360
:10048000716F6D6B6968666462605E5C5A5957553E
:100490005351504E4C4A4947454342403E3D3B3AFA
:1004A0003836353332302F2D2C2A29282625232281
:1004B000165C14001A000800150017002B620400D7
:1004C0001600070009000A0000571D001B00060067
:1004D000190005001C0018000C0012001300310068
:1004E0000B000D000E000F003300347211001000DD
:1004F0003600370038000157E7434C422C462A4467
:10050000284500002B00170014001A0008001500F1
:10051000E1000A000400160007000900E0001D00C9
:100520001B000600190005001C0018000C0012003A
:1005300013002A000B000D000E000F0033003400E2
:1005400011001000360037003800E4002900075180
:100550002C002800E600000035000000000000002C
:100560000000015001000401160100000901000013
:100570002F021D011B010601190100001C011901B8
:1005800006011B011D0116013900500051005200E7
:100590004F00000049004A004E004B004D00300261
:1005A000E300010028004C000000000000000000F3
:1005B000000008081508000001000000160A0000ED
:1005C000000000000000000000000000000000002B
:1005D000C25CC35CC55CC75CC95C00000000AC00C9
:1005E000AA00A900AB00000000000000000000000D
:1005F0000000000001000000AE00AD00A8000000F7
:1006000000002F00240025002600300000003300E9
:100610002100220023002E002F0035001E001F00A5
:100620002000310000000000000000000000000079
:100630000000E500E400E600E3000000005C0000CC
:100640000000000000003000370027002D000100EE
:100650000000000000002F022402250226023002C2
:10066000000033022102220223022E020000350282
:100670001E021F02200231020000000000000000E4
:10068000000000000000E500E400E600E3000000D8
:100690000000000000000000000000002602270209
:1006A0002D02000001000000000045004000410054
:1006B00042004600000044003D003E003F0047006D
:1006C000000043003A003B003C00480000000000EE
:1006D000000000000000005C0000E500E400E6000F
:1006E000E300000000000000000000000000DE5CED
:1006F00076002B0001000000000000000000000058
:1007000000000000000000000000000000000100E8
:1007100000000000000000000100010001000000D6
:100720000000000000000000000000500000000079
:100730000000000000000000005C0000000000005D
:100740000000000000000100280000000000000080
:1007500009025B00030100A0FA0904000001030183
:100760000100092111010001224000070581030851
:100770000001090401000203000000092111010029
:100780000122220007058203200001070503032040
:100790000001090402000103000000092111010009
:1007A00001226D00070584032000011201000200F0
:1007B0000000080778CBDC0100010200011403727D
:1007C0000065007600690075006E00670034003136
:1007D0000000000C036700740069007000730000E3
:1007E00000040309040011241FBECFEFDAE0DEBFCE
:1007F000CDBF04B603FE18C08091E8029091E902D3
:10080000A091EA02B091EB028730904BA740B04B29
:1008100059F41092E8021092E9021092EA02109242
:10082000EB02E0E0F8E3099511E0A0E0B1E0E2EDD1
:10083000F3E502C005900D92AE3AB107D9F722E078
:10084000AEEAB1E001C01D92A83EB207E1F70E94F6
:100850006A220C94BE290C940000E8EDF0E080813F
:100860008E7F80831092E2001092DA001092E100F5
:10087000A0EEB0E08C9181608C9380818F77808333
:1008800019BCA7EDB0E08C918E7F8C9380818F7E18
:1008900080831092B30208952091E4003091E50026
:1008A00095E6A9012091EC00822F817020FF06C0FF
:1008B0008091E80080FF06C080E008952091E80064
:1008C00022FD1AC08091D802882389F0853089F0F2
:1008D0008091EB0085FD0FC02091E4003091E50090
:1008E00042175307F9F29150E1F684E0089582E04F
:1008F000089583E0089581E00895EF92FF920F93A9
:100900001F93CF937C018B010E944C04C82F81114F
:1009100017C08091E80085FD0BC08091E8008E77BC
:100920008093E8000E944C04882399F3C82F08C0E4
:10093000F70181917F018093F1000150110949F77E
:100940008C2FCF911F910F91FF90EF900895809180
:10095000DA0287FF13C08091E80082FF06C0809111
:10096000E8008B778093E80004C08091D802811161
:10097000F2CF08958091D8028823D9F38091E800BE
:1009800080FFF8CF8091E8008E77ECCF982F90937E
:10099000E900242F762F50E0891731F07091EC0098
:1009A0002091ED005091F00021FD07C09F5F97302E
:1009B00071F78093E90081E008953091EB003E7F6C
:1009C0003093EB003091ED003D7F3093ED0030919E
:1009D000EB0031603093EB007093EC002093ED005E
:1009E0005093F0002091EE0027FDE0CF80E00895C5
:1009F000B0E0A0E0EEEFF4E00C94EF27C8EDD0E01B
:100A000088818F7E8883E7EDF0E08081816080833C
:100A100084E082BF81E08093B30288818E7F8883E7
:100A200002EE10E0F80110821092DA0081EEC82E7A
:100A3000D12CF601108288818F7788838881806825
:100A4000888388818F7D888319BC1092D802109288
:100A5000D9021092D7021092D60290EEE92EF12C14
:100A6000F70180818B7F808388818160888342E069
:100A700060E080E00E94C604F60180818E7F808362
:100A8000F801808181608083808188608083F701A4
:100A900080818E7F8083888180618883CDB7DEB737
:100AA000E8E00C940B28FC018091E0029091E102B7
:100AB00086179707A0F06115710529F49091E80059
:100AC0009E779093E80090E06115710551F49111C3
:100AD00008C08091E80082FF34C080E00895BC0126
:100AE000F2CF8091D8028823C1F18530C1F1809185
:100AF000E80083FD30C08091E80082FDEACF80915C
:100B0000E80080FFE1CF8091F3002091F200382FC0
:100B10006115710519F02830310558F091E0283041
:100B2000310509F090E02091E8002E772093E8004D
:100B3000CBCF81918093F100615071092F5F3F4FBE
:100B4000E7CF8091D802882341F0853041F0809131
:100B5000E80083FFBECF81E0089582E0089583E03E
:100B600008950895089508958091B50208952FB7C6
:100B7000F8948091AA029091AB02A091AC02B0913E
:100B8000AD022FBF08952091A7023091A802281727
:100B9000390781F09093A8028093A702E091A50203
:100BA000F091A602309731F00680F781E02DBC016C
:100BB00084E0099508952091A3023091A40228179A
:100BC000390781F09093A4028093A302E091A502DB
:100BD000F091A602309731F00680F781E02DBC013C
:100BE00083E009950895E091A502F091A60230975F
:100BF00029F00190F081E02D0995089580E0089595
:100C0000FA01811101C0FB010995089580919A02B2
:100C1000982F9E7F29F48170826080939A020895B4
:100C20008A34E8F381708864F8CFAF92BF92DF9284
:100C3000EF92FF920F931F93CF93DF93082F162FFE
:100C4000E901E42FF0E0E555FD4F611110C0E4919A
:100C50005E2F4E2F4983E8835A83DF91CF911F91F6
:100C60000F91FF90EF90DF90BF90AF900895E62E28
:100C7000F12C4491D42EE42FF0E026E0829FC001B5
:100C800011242FEF30E0B9010E945D27802F90E002
:100C9000880F991F55E5569FD001579FB00D11241D
:100CA0008A1B9B0B982F990F890F5901AE18BF080B
:100CB000AE9ED001AF9EB00DBE9EB00D11245B2F35
:100CC000189F80011124012F11275901A01AB10A80
:100CD000AE9E8001AF9E100DBE9E100D11245901D5
:100CE000A81AB108AE9CC001AF9C900DBE9C900D9F
:100CF0001124892F9927281B390B2E9FC0012F9F64
:100D0000900D3E9F900D1124E92F62307105A1F0E6
:100D100050F46115710509F49DCF6130710581F0C2
:100D2000EB2F512F97CF6430710569F080F066305A
:100D3000710509F48FCFF4CFE42F4B2F592F8ACFB1
:100D4000E42F412F87CFEB2F542F492F83CF4B2FE9
:100D50005D2DE12F7FCF80E00895F894E82FE29594
:100D6000EF70F0E031A1282F2F7081E090E001C0FA
:100D7000880F2A95EAF7982F9095932391A392A133
:100D8000892B82A3789408959091AE0292FF06C0B9
:100D9000282F28712830F9F4877F846093FF06C0DC
:100DA000282F28712831F1F4877E84612091AF02C9
:100DB00020FF06C0382F38713830D9F4877F816022
:100DC00021FF06C0282F28712831D1F4877E816148
:100DD00094FD877E0895282F24712430F9F68B7FA7
:100DE0008860DCCF282F2471243101F78B7E886145
:100DF000DDCF382F3171313019F78E7F8860E0CF29
:100E0000282F2171213121F78E7E8861E1CFCF9388
:100E1000DF93EC0182389105B1F108F040C08133D5
:100E2000910509F49DC048F58932910509F48DC0FA
:100E30008A9709F49CC0C11522E5D20708F0BDC00D
:100E4000C11531E5D30708F024C1C83ED10508F02B
:100E5000A3C0C13ED10588F5C83AD10508F08EC0BF
:100E6000C53AD10508F0F6C0C130D10531F120975F
:100E700021F1C430D10508F545C08533910509F449
:100E80005FC0C997C1F68091AE02837009F036C188
:100E90008091AF0283FF11C0C9E2D0E00EC0833E53
:100EA000910599F170F4803E910501F1823E910522
:100EB00011F68091AE0282FD21C0CE01DF91CF916B
:100EC0000895863E910561F1873E910571F1843E5A
:100ED000910509F0B0CF8091AF0281FFEECF8091F4
:100EE000AE02C7EED0E084FD0DC0E7CF8091AE0228
:100EF00080FD33C09091AF0290FFDFCFC3EED0E012
:100F000084FFDBCFD0E0C0E0D8CF8091AE0282FD7D
:100F1000F2C09091AF0290FDF1C084FFCECFF2CF2E
:100F20008091AE0283FDDDCFC8CF8091AE0283FDFC
:100F3000E8C09091AF0291FFF0CFC4EED0E0BDCFFA
:100F40008091AE0285FFB9CFA7CF8091AE0285FD1B
:100F5000DBC08091AF0283FFB0CFC9E3D0E0ADCF5B
:100F60008091AE0286FFA9CFCAE2D0E0A6CF8091E1
:100F7000AE0286FFA2CFC1E3D0E09FCFCF3BD10529
:100F800008F6C85AD0E0CC0FDD1FC25CDE4F0990D6
:100F9000D881C02DD46491CFC11540E5D40708F0A5
:100FA00064C0C11580E4D80708F05CC0CE019A95F2
:100FB00081159F4108F481CFA5CFC11536E5D30730
:100FC00018F5C11545E5D40708F07CC0C11584E5C6
:100FD000D80708F072C09E01237033279C2F969586
:100FE0009695C115D34508F459C0C1E0D0E002C0C0
:100FF000CC0FDD1F2A95E2F730E2939FC001112448
:10100000C82BD92BDA6859CFC1158AE5D80778F4EF
:10101000C11529E5D20708F060C0C11538E5D3072E
:1010200008F470CFDC2FCC27C06FD06A46CFCE013A
:1010300090568115904208F065CF8D2F8F710E94D8
:10104000C40690E0982F882788279F719C012C2B3D
:10105000E90141C0C55AD0E0C55CDE4FC881D0E08F
:10106000D0642BCFDF70D06A28CFCE018370992750
:1010700021E030E002C0220F331F8A95E2F7C695C7
:10108000C69580E2C89FE0011124C22BD32BDD68F6
:1010900014CFDC2FCC27C16FD06A0FCFC1E0D0E0D6
:1010A00002C0CC0FDD1F2A95E2F720E2929FC0011B
:1010B0001124C82BD92BDC6800CFDC2FCC27C46FC0
:1010C000D06AFBCE8C2F0E94C406C82FD0E0DC2F44
:1010D000CC27CC27DF71D062F0CE8C2F8F700E948E
:1010E000C40634E0D695C7953A95E1F7CF709C2FAA
:1010F000EC01D069E2CEC2EED0E0DFCEC0EED0E0AF
:10110000DCCEC6EED0E0D9CEC5E3D0E0D6CE80911D
:1011100043028111109243020895809590919F029D
:10112000982390939F02089580959091A002982310
:101130009093A002089590913A019923D1F0909153
:10114000AE0297FF16C0E82FE695E695E695EE31DC
:10115000E0F4F0E0E055FE4F282F277081E090E0AA
:1011600001C0880F2A95EAF78095928189238283AE
:101170000895E2EBF1E09191891303C0DF0111972B
:101180001C9291E0E83BF907B1F7089590913A017C
:101190009923C1F09091AE0297FF14C0E82FE69515
:1011A000E695E695EE31F8F4F0E0E055FE4F8770F5
:1011B00021E030E001C0220F8A95EAF78281822B7C
:1011C00082830895A2EBB1E0EFEF90E02D918217BA
:1011D00051F0EF3F19F4211101C0E92F9F5F9630C4
:1011E000A9F7EF3F09F408950E2E000CFF0BE05510
:1011F000FE4FE6CF809121029091F001981301C03B
:1012000008958F5F8770FACF973078F5863068F54C
:10121000E82FF0E086E0989FE00DF11D11249E2F4D
:10122000977083E0F695E7958A95E1F7EE0FFF1F3B
:10123000EE0FFF1FEE52FE4F50E040E080E02191A4
:1012400030E0092E02C0369527950A94E2F7217006
:101250003327042E01C0220F0A94EAF7822B4F5F36
:101260005F4F4430510559F7089580E00895973055
:1012700098F5863088F5E82FF0E086E0989FE00D3D
:10128000F11D11248E2F877041E001C0440F8A9513
:10129000EAF783E0F695E7958A95E1F7EE0FFF1FF1
:1012A000EE0FFF1FEE52FE4F30E020E070E0519154
:1012B000DF011197CB01022E02C0969587950A9403
:1012C000E2F7817081958527842385278C932F5F92
:1012D0003F4F2430310559F7089582E00895FC010D
:1012E0009281913039F4858182FD08C080FF06C06B
:1012F00083E00895923021F081E0089582E008951E
:1013000084E008958093B0027093B2026093B102BA
:101310008091D8028430F9F48093E9008FEF9091A6
:10132000E800815095FD06C095ED9A95F1F7000013
:101330008111F5CF8091E80085FF0DC050E040E0BD
:1013400063E070E080EB92E00E947D048091E80011
:101350008E778093E8000895CF93DF93EC0180911E
:101360003A018823B1F18091AE0287FF32C060E27A
:1013700084E08093E9008FEF9091E800815095FD23
:1013800006C095ED9A95F1F700008111F5CF809197
:10139000E80085FF1BC080913A0170E050E040E01A
:1013A000811104C050E040E068E070E0CE010E948E
:1013B0007D048091E8008E778093E80080E2FE0152
:1013C000A6EBB2E001900D928A95E1F7DF91CF9103
:1013D000089568E081E0CDCF81E08093E00080E275
:1013E0008093D8001092C9008FE19EE40197F1F735
:1013F00000C0000087E090EBDC018093E80290934E
:10140000E902A093EA02B093EB0288E19CE00FB6F8
:10141000F894A895809360000FBE90936000FFCF72
:10142000CF93DF93CBE1D3E060E0CE010E948A2925
:101430002196C11584E0D807B9F7DF91CF910895BF
:101440001F93CF93DF93122F8930E0F46730D0F4ED
:101450004630C0F4C42FD0E0CC0FDD1F9CE0699F64
:10146000C00DD11D112494E5899FC00DD11D1124FB
:10147000632FCE0187960E948A29612FCE0188961C
:101480000E948A29DF91CF911F910895B0E0A0E0DA
:10149000ECE4FAE00C94EE2790EBC92E94E0D92E00
:1014A00010E000E07601B12C1AC008301105D1F02F
:1014B000FE01EE0FFF1FEE0DFF1D259134914C2F05
:1014C0006B2D802F0E94200A2196C630D10569F726
:1014D0008CE0E80EF11CB39487E0B81649F0D0E038
:1014E000C0E0E3CF21E030E04C2F6B2D88E0EACF65
:1014F0000F5F1F4F84E5C80ED11C0930110591F60E
:10150000CDB7DEB7E9E00C940A28CF93C82F6FEF70
:10151000811162E283E290E00E948A296FEFC1119B
:1015200069E084E290E00E948A296FEFC11168E1CE
:1015300085E290E00E948A29CF91089580E00E9480
:10154000850A60E086E290E00E948A290E94460AAD
:101550000E94100A81E00E94850A08950F931F934C
:10156000CF93DF93893030F5673020F5463010F5A2
:10157000C42FD0E0CC0FDD1F2CE0629FC00DD11D29
:10158000112434E5839FC00DD11D1124CE0187960F
:101590000E947629082F10E0102F0027CE01889690
:1015A0000E9476299801282BC901DF91CF911F91C4
:1015B0000F91089590E080E0F8CF462F893040F4F5
:1015C000773030F4663020F4672F0E94AE0A089519
:1015D00090E080E00895B0E0A0E0E1EFFAE00C9444
:1015E000EE277C010091E2021091E3028091440217
:1015F00090914502082B192BCFE0D0E0CC24C39466
:10160000D12CBC2EC6010C2E02C0880F991F0A9443
:10161000E2F780239123892B49F4219790F7B12C8D
:101620008B2DCDB7DEB7E9E00C940A28B7018C2FDB
:101630000E94DD0A0E940707019779F3F1CFCF934B
:10164000DF93EC010E94EB0ABE010E94DD0A0E94BA
:101650000707DF91CF910895FC0183819481892B45
:1016600029F08081918189238F3F51F480E0089592
:10167000843FE1F717C0883EA8F0813FB9F712C058
:10168000808191810E941F0B92959F70963099F3F3
:1016900058F4925F9F70923048F7803F19F040F7FE
:1016A000883E20F781E008959A5FF4CF83E290E0CE
:1016B0000E947629823289F484E290E00E947629A1
:1016C000893059F485E290E00E94762991E08831D2
:1016D00009F090E0892F8170089580E0FCCFCF93CE
:1016E00084E090E00E947629C82F82E290E00E9478
:1016F0007629982F8C2FCF91089560919A02669544
:1017000070E04BE050E08CE291E00E945C29892B74
:1017100019F481E0809374020E94B70590936E02E1
:1017200080936D020895A5E0B0E0E9E9FBE00C9438
:10173000E82780919A0280FD0AC0E9E7F2E0118271
:1017400010821282339622E0EA39F207C1F78090C4
:101750006B0290906C028114910409F459C080913D
:101760006A02811155C0D12CC12C66246394712C5E
:1017700053E0552E8091750293010C2C01C0220F6D
:101780000A94EAF7822309F43BC0F601EE0FFF1F2B
:10179000E80DF91DE590F490E114F104C9F145E07C
:1017A00050E0B701CE0101960E94282809810F3F21
:1017B00039F18A81800F9927991F8C30910514F097
:1017C0008BE090E05C01AA0CBB1C8A0D9B1DFC0108
:1017D000E758FD4F5F01059D8001112407581D4FFB
:1017E0000A151B0520F0F5E0EF0EF11CD8CF98018B
:1017F0004D816C818B810E9415060D5F1F4FF0CFCC
:101800002FEFC21AD20A38E0C316D10409F0B2CFC2
:10181000539A3BB1377F2BB128604FB7F89489E7D3
:1018200092E0FC015191CF0168E02BB9000000C0AB
:1018300057FF3BB9550F000000C000C000C03BB9C6
:1018400000C06A9591F7F2E08A399F0751F74FBFC0
:101850008FE594E00197F1F700C000002596EFE0D6
:101860000C940428EF92FF920F931F93CF93DF9372
:101870008C01C9E7D2E0F12CE12CF8019481609150
:101880009C0280919B02F5E0EF16F104ECF49923A1
:10189000E9F09E0140919D020E9415062FEFE21A89
:1018A000F20A23968BE0E816F10439F70E94930BB5
:1018B000F801848190E00196817099278483CDB7E7
:1018C000DEB7E6E00C940D28992319F39E0140E061
:1018D000E3CFB0E0A0E0EFE6FCE00C94EB27EC01F6
:1018E0004C81042F10E09801D8010E94BC279B0175
:1018F000AC010E94D2274B015C01E0E2F0E0E01B6A
:10190000F10BA5E5B0E0AC019B010E94D2276B0171
:101910007C019F01DF010E94B4279B01AC010E9462
:10192000DD279B01AC01280D391D4A1D5B1DC70138
:10193000B6010E948527F22E822F90E039E23F15F2
:1019400098F143E0249F9001112435952795122F9B
:10195000109599E7C92E92E0D92E00E085E5E82E92
:10196000EF188E2D01FD8F2D9601412F60919C0265
:101970000E9415060F5F53E0C50ED11C0B3089F78E
:101980000E94930B9C8181E0992319F0903219F405
:101990008FEF8093390180913901890F8C83CDB706
:1019A000DEB7ECE00C94072825E530E0A901481BE0
:1019B000590BCA019A01220F331F280F391F37FF15
:1019C000C4CF2F5F3F4FC1CF0F931F93CF93DF93B0
:1019D000C9E7D2E0FE01118210821282339682E0C2
:1019E000EA39F807C1F710E000E080917702082E8D
:1019F000000C990B081719078CF180913801082EFB
:101A0000000C990B801791074CF19E0140919D02AB
:101A100060919C0280919B020E9415060F5F1F4FF0
:101A200023960B30110509F70E94930B8091370123
:101A300090917702980F9093770220913801280FA8
:101A400020933801121614F49A301CF0819580937B
:101A50003701DF91CF911F910F910895198218825C
:101A60001A82DCCFB0E0A0E0E8E3FDE00C94EE27C2
:101A7000FC018281DD24DA9480FD02C0DD24D39450
:101A800009E712E0D0E0C0E02BE0B22EF8011182AD
:101A90001082128294E0E92EF12CC12C8091760202
:101AA0008C0D8C30C4F16B2D0E944F27892F082E8E
:101AB000000C990B8C179D0791F480919D028E9DCF
:101AC000A0018F9D500D112455954795559547952B
:101AD000980160919C0280919B020E941506CD0C9A
:101AE000F1E0EF1AF108D1F621960D5F1F4FCB30D0
:101AF000D10561F60E94930B8091760291E0D91294
:101B000010C081110CC08AE080937602CDB7DEB799
:101B1000E9E00C940A2887FFCACF855FC8CF8150BF
:101B2000F3CF90E00196BE010E947127EDCFEF92B6
:101B3000FF921F93CF93DF93EC0189E7E82E82E0B9
:101B4000F82E10E08C81970140919D0260919C02DB
:101B5000810F0E941506195E83E0E80EF11C1D3FFF
:101B600089F70E94930B9A818C8190FF08C08F5F48
:101B70008C83DF91CF911F91FF90EF90089581505A
:101B8000F7CF90919A0290FF0CC0E9E7F2E08183D1
:101B900060834283339692E0EA39F907C1F70E94E5
:101BA000930B0895A3E0B0E0E8EDFDE00C94F3277B
:101BB0008C018091780281110AC09E012F5F3F4FF6
:101BC0004FEF6FEF0E9415068A8180937802F8012B
:101BD0006481613069F08091780240E0662361F0B1
:101BE00040E0623011F44091780280E060E004C08F
:101BF0006091780240E080E00E94C10DF80184818C
:101C000090E0019663E070E00E9471278483239640
:101C1000E4E00C940F28A3E0B0E0E1E1FEE00C94D6
:101C2000F52790919A0290FF0AC09E012F5F3F4FC7
:101C30000E9415064B8169818A810E94C10D2396FD
:101C4000E2E00C941128CF93DF93EC01EAE9F2E093
:101C5000438162818C810E940B0E8C818F5F8C830B
:101C6000DF91CF910895CF93DF93EC01EC81F0E009
:101C7000E055FC4F4491EAE9F2E0628181810E94E3
:101C80000B0E8C818F5F8C83DF91CF910895CF9263
:101C9000DF92EF92FF926B017C010E940606B70172
:101CA000A60188E090E00E949C29FF90EF90DF90D1
:101CB000CF900895A3E0B0E0E0E6FEE00C94E827C2
:101CC000F82E762EE42E622E90919A0290FF29C073
:101CD000E92FE695AE2FB0E0A758BE4F8C918093C8
:101CE00073029E7F923009F59E012F5F3F4F8F2D2B
:101CF0000E9415064B8169818A810E94C10DF09274
:101D00009B0270929C02E0929D02662051F06091CD
:101D10009A0270919B0280919C0290919D020E9478
:101D2000470E2396EFE00C940428823019F4E090DB
:101D30009D02E5CF863019F4F0909B02E0CF893008
:101D4000D9F38931E1F6E9518E2F8170582EE6954D
:101D5000F0E0E555FC4FE4910E2F10E089E7C82E26
:101D600082E0D82EB12CA12C9BE0892E912CC501AC
:101D7000B4010E945D278F2D511013C0860F96016C
:101D80004E2D672D0E941506A00EB11E83E0C80ED1
:101D9000D11C8AE9C81682E0D80649F70E94930B45
:101DA000AECF861BECCFEAE9F2E0438120E1421B93
:101DB00008F440E021E0628181810E945A0E08957A
:101DC000EAE9F2E0438120E1420F08F44FEF21E01D
:101DD000628181810E945A0E0895EAE9F2E06281EF
:101DE00020E1621B08F460E021E0438181810E94D0
:101DF0005A0E0895EAE9F2E0628120E1620F08F4E8
:101E00006FEF21E0438181810E945A0E0895EAE933
:101E1000F2E0818121E04381628180510E945A0E6B
:101E20000895EAE9F2E0818121E043816281805FE7
:101E30000E945A0E089580919E02882319F08150C5
:101E400080939E0260919A0270919B0280919C0205
:101E500090919D020E94470E089580919E028330CA
:101E600018F48F5F80939E0260919A0270919B029A
:101E700080919C0290919D020E94470E089590913E
:101E80009A0290FF2CC0917081112AC092609093A9
:101E90009A02662351F060919A0270919B028091A0
:101EA0009C0290919D020E94470E60919A02669555
:101EB00070E04BE050E08CE291E00E945C29892BBD
:101EC000B1F01092740281E08093700220E04091A2
:101ED0009D0260919C0280919B020E945A0E08957F
:101EE000853210F09864D3CF880F982BD0CF0E9402
:101EF0007D0BE9CF21E030E0A90102C0440F551F5E
:101F00008A95E2F7CA0120917502662399F0822B27
:101F10008093750280917402811106C080919A02AB
:101F200060E086950E943F0F80919A0280FF0E9498
:101F3000930B089580958223EBCF81FB662760F990
:101F400080E00E947A0F0895CF93DF93EC0160E068
:101F5000009721F0BC0176956795617082E00E9440
:101F60007A0F60E0209731F0BE01769567957695FF
:101F70006795617083E00E947A0F60E0209739F0E6
:101F8000BE0133E0769567953A95E1F7617084E09C
:101F90000E947A0F60E0209739F0BE0124E0769528
:101FA00067952A95E1F7617085E00E947A0F60E0FD
:101FB000209739F0BE0195E0769567959A95E1F7FF
:101FC000617086E00E947A0F60E0209739F0BE01D0
:101FD00086E0769567958A95E1F7617087E00E94C3
:101FE0007A0FCE01DF91CF91089580919A02869564
:101FF000815009F484E261E00E943F0F08958091CE
:102000009A0286958F5F853208F081E061E00E9438
:102010003F0F089590919A0290FF08C096959817E7
:1020200028F0961718F40E94FF0F089561E00E94AF
:102030003F0F0895EAE9F2E083E0808311828FEF99
:1020400082838383148260817181828193810E9463
:10205000470E089568EE7EEF90E080E00E94A82988
:1020600060E082E090E00E948A2960E083E090E0F6
:102070000E948A29109245021092440260E084E096
:1020800090E00E948A2964E082E290E00E948A291E
:1020900060E085E090E00E948A2960E086E090E0C0
:1020A0000E948A296FEF87E090E00E948A2940E031
:1020B00050E0BA0188E090E00E949C2960E08DE049
:1020C00090E00E948A2940E050E0BA0188E190E067
:1020D0000E949C2960E087E190E00E948A2940E00C
:1020E00050E0BA018CE190E00E949C2970E060E031
:1020F00080E290E00E94A82940E050E0BA0188E127
:1021000090E00E949C2980E00E94850A0E949E0A1D
:1021100040E050E0BA018FE090E00E949C2940E04E
:1021200050E0BA0183E190E00E949C290895A7E065
:10213000B0E0EDE9F0E10C94E5278E010F5F1F4F51
:1021400087E0D8011D928A95E9F7ECE6CE2EE1E012
:10215000DE2EF12CE12CAA24A394B12CF60181915E
:102160006F018F3F09F443C0F894E82FE295EF70B8
:10217000F0E021A18F70A50102C0440F551F8A9580
:10218000E2F7CA01922F982B91A392A180958923FF
:1021900082A3789400C0E3E7F1E0912C31E0219133
:1021A0002F3F09F4BFC0A22FA295AF70B0E0909668
:1021B0008C9190E02F7002C0959587952A95E2F753
:1021C00080FDB0C0832F982A330F51E0E937F5071F
:1021D00031F7F601319780818F3F11F00E94AD06F3
:1021E00080EA8A95F1F7F801EE0DFF1D9082AFEFBE
:1021F000EA1AFA0AB7E0EB16F10409F0AFCF47E0AC
:1022000050E0B8018DE492E00E9469297C01892B9D
:1022100041F087E0F801ADE4B2E001900D928A95BB
:10222000E1F710924A0210914902112309F4A2C069
:102230000E94B7052091470230914802FC01E21B41
:10224000F30B9F019093480280934702EF3FF10503
:1022500011F008F069C0EF2B09F460C0622E4091C4
:102260004B0250914C021092490210924602E3E652
:10227000F2E06DE4262E62E0362E6A018AE2C80E94
:10228000D11C00E0512C712CAA24A394B12C90E015
:1022900080E0BA01680F791FDB019C90892CE894DB
:1022A00080F8882039F1892C8694B92DB1709B2E45
:1022B0008216130609F0DCF5DB019C9291103EC0FA
:1022C0009080B501082E01C0660F0A94EAF7762FB8
:1022D00070957921D1018C906821672B792D762713
:1022E000852C912C872A552453948114910409F448
:1022F000512C608301968630910559F64A5F5F4FF5
:102300003196BFEF2B1A3B0AC416D50609F0BFCF92
:102310007092490250924A0200934602E114F1047D
:10232000C1F52BC080E04FCF2FEF30E097CF86185C
:10233000880C9828DB019C92712EDCCF012FDACF1C
:10234000772021F040FD02C041704C932F5F3F4F3A
:1023500026303105E9F5069631960817190769F513
:102360005093490280924A0280914A022796E2E104
:102370000C940128E114F10431F480914602882381
:1023800099F3111106C00E94B705909348028093FB
:10239000470280914B0290914C02509149028090EB
:1023A0004A022DE4422E22E0522EE3E6F2E08C01B6
:1023B000065D1F4FEE24E394F12CD2019D902D0178
:1023C0002081922630E020E06D01B1E0CB1AD108E7
:1023D000BC01620F731F5701022E02C0AA0CBB1C66
:1023E0000A94E2F7DB014C91742EE89470F8692CA2
:1023F0006A2009F4A5CF7110A9CFD6015C915A21AA
:1024000041E009F440E04A60DB014C9340FF05C025
:102410004081A426A0828824839451E097CF8091A4
:10242000A00290919F02892B8093B001909143026A
:102430009923A1F0892B8093B00180913A018823E0
:10244000E1F18091AE0287FF38C08EE1E2EBF1E06E
:1024500090E08150A0F591110E94870840E250E081
:1024600063E272E080EB91E00E946929892B21F1FF
:1024700080E2E0EBF1E0A3E2B2E001900D928A95F8
:10248000E1F7E091A502F091A6023097A9F08091C2
:102490003A01882359F08091AE0287FF07C08091EE
:1024A000B0018093B10186E08093B0010280F38196
:1024B000E02D80EB91E00995089586E0C7CF21914A
:1024C000222339F29F5FC5CFCF93DF93EC01EA85DA
:1024D000FB85309719F06C857D8509958B810E946D
:1024E0008D088C810E9494080E940F1286E0FE01E4
:1024F00011928A95E9F7DF91CF910895CF93DF93F9
:10250000EC018D8181FD18C082608D8380919F02D6
:102510009B81892B80939F028091A0029C81892BB3
:102520008093A0020E940F12E885F985309721F070
:102530006C857D85CE0109951092A2021092A102B0
:102540008D8180FD03C0CE010E946412DF91CF9186
:10255000089590E080E00E94DB0590E080E00E941A
:10256000C30510929F020E940F1208950E94A40FAB
:102570009093E3028093E2020E94A9120895809151
:10258000E2029091E3029C01267033272630310548
:1025900021F488600E94B6120895877FFBCF21E066
:1025A00030E002C0220F331F8A95E2F72095309564
:1025B0008091E2029091E302822393230E94B6125B
:1025C0000895909122028095892380932202282FDA
:1025D000277091F4282F082E000C330B9217130646
:1025E00059F09091AF0292FF07C08595859585952A
:1025F0000E94CF12109222020895CF93C091AF0291
:10260000C2FB992790F9981791F080FBC2F9C0930B
:10261000AF026091AE0284E090E00E948A296C2FA4
:1026200082E290E00E948A2982E00E94E112CF912A
:10263000089521E030E002C0220F331F8A95E2F7AF
:102640008091E2029091E302822B932B0E94B612BA
:102650000895CF93DF93EC0161E0009709F0682FB4
:10266000617081E00E947A0FD0934502C0934402CA
:102670000E94A912DF91CF9108951092A00280913B
:102680003A01E2EBF1E0882361F08091AE0287FF2E
:1026900008C08EE1DF011D928A95E9F70E94A91218
:1026A000089586E0F7CFAAE2B0E0E9E5F3E10C9403
:1026B000F4278AED92E02091F100DC012D93CD0109
:1026C000B2E0823E9B07B9F78091DB02833009F4C8
:1026D00072C0B8F4813009F449C0823009F4B3C043
:1026E0008091E80083FF8BC28091DA029091DB0237
:1026F0009A3008F084C2E92FF0E0E054F64D0C94D3
:10270000A7278A3009F48EC08B3009F471C0893054
:1027100039F78091DA02813219F78091DE029091C7
:10272000DF02009711F00297D9F68091E800877FC9
:102730008093E8008091E80082FF38C09091F30018
:102740008091F200029731F48091F100813011F014
:10275000863021F48091F1008093B5028091E800E9
:102760008B778093E8000E94A704BACF8091DA02A9
:10277000813A09F0B5CF8091E800877F8093E80027
:102780008091DE029091DF02892B61F460E286EB9A
:1027900092E070E00E9453058091E8008B7780936F
:1027A000E8009ECF60E090E080E0F3CF8091D80217
:1027B0008111C0CF95CF8091DA02813A09F090CF94
:1027C0008091DE029091DF02892B09F089CF809100
:1027D000E800877F8093E8008091E80080FFFCCFCD
:1027E00080913A018093F1008091E8008E77B9CF13
:1027F0008091DA02813209F073CF8091DE029091EC
:10280000DF02892B09F06CCF8091E800877F8093ED
:10281000E8000E94A7048091DC0280933A010E94A4
:102820003D135ECF8091DA02813209F059CF809159
:10283000E800877F8093E8000E94A7048091DD0272
:102840008093B4024DCF8091DA02813A09F048CFEB
:102850008091E800877F8093E8008091E80080FF06
:10286000FCCF8091B402BECF803899F0823809F055
:10287000C6C18091DE028F70873008F0C0C180939E
:10288000E9008091EB0085FB882780F91092E90030
:1028900006C08091D6029091D702911182609091EA
:1028A000E800977F9093E8008093F1001092F10088
:1028B0008091E8008E779FC1882309F48DC1823012
:1028C00009F09DC18091DC02811190C18091DE02EE
:1028D0008F702FEF280F263008F091C18093E90008
:1028E0002091EB0020FF82C1933031F48091EB0006
:1028F00080628093EB007AC19091EB00906190939D
:10290000EB0021E030E001C0220F8A95EAF7209326
:10291000EA001092EA008091EB008860EACF811112
:102920006EC11091DC021F778091E3008078812BCB
:102930008093E3008091E800877F8093E8000E9405
:10294000A7048091E80080FFFCCF8091E3008068BD
:102950008093E30082E0111183E08093D8024FC19D
:102960008058823008F04BC12091DC023091DD02AA
:102970002C3DE3E03E07A1F583E08A838AE2898368
:102980004FB7F894DE01139620E03EE051E2E32FCA
:10299000F0E050935700E49120FF03C0E295EF7000
:1029A0003F5FEF708E2F90E0EA30C0F0C7968D93B6
:1029B0009D932F5F243159F74FBF8091E800877FA7
:1029C0008093E8006AE270E0CE0101960E94530510
:1029D0008091E8008B778093E80011C1C096E7CF23
:1029E0008091DE029091DF02432F5527433051053D
:1029F00009F44AC078F54130510509F47AC08BE5F5
:102A000090E0E0E5F7E04230510509F0F8C0209190
:102A1000E800277F2093E8002091E0023091E10256
:102A20008217930708F49C0140E02115310509F055
:102A300065C0411163C08091E80082FDC9CF8091DB
:102A4000D802882329F2853019F28091E80083FFAB
:102A5000F2CFBECF4132510509F43CC0423251059C
:102A600009F0CDC08330910508F0C9C0FC01EE0F1C
:102A7000FF1FEF55FE4F0190F081E02D82569E4FD3
:102A8000DC018C9190E01AC0332721303105D1F060
:102A90002115310561F02230310509F0B0C0EDEBB0
:102AA000F7E0E4918E2F90E0EDEBF7E007C0E1EE68
:102AB000F7E0E4918E2F90E0E1EEF7E0009709F463
:102AC0009EC0A5CFE3EDF7E0E4918E2F90E0E3ED1B
:102AD000F7E0F4CF8330910508F091C0880F991F7B
:102AE000FC01E955FE4F0190F081E02D89E090E076
:102AF0008ECF82E190E0EBEAF7E089CF8091D802B7
:102B0000882309F465CF853009F462CF8091E8000D
:102B100083FD5ECF8091E80082FD8DCF8091E8003B
:102B200080FF83CF9091F3008091F2002115310551
:102B300019F08830910550F041E0089709F040E025
:102B40008091E8008E778093E8006FCF44914093A6
:102B5000F1003196215031090196E8CF803809F013
:102B60004EC08091E800877F8093E8008091D90271
:102B70008093F1009DCE811142C01091DC02123091
:102B8000F0F58091E800877F8093E8001093D902E8
:102B90000E94A704112311F084E005C08091E30096
:102BA00087FDFACF81E08093D80242E061EC81E0BA
:102BB0000E94C60442E261EC84E00E94C60442E244
:102BC00061EC82E00E94C60442E260EC83E00E9475
:102BD000C6048091D80213C08091DC02813079F460
:102BE00081E0933009F080E08093D7021092E900F1
:102BF0008091E800877F8093E8000E94A70480917D
:102C0000E80083FF0AC08091E800877F8093E80096
:102C10008091EB0080628093EB00AA96E3E00C9435
:102C200010280E943D132FEF84E39CE02150804048
:102C30009040E1F700C0000088E19CE00FB6F894F6
:102C4000A895809360000FBE90936000FFCF88230B
:102C500021F00E948D080E940F120895882339F0F8
:102C600090919F02982B90939F020E940F120895BB
:102C7000882321F00E9494080E940F12089588234F
:102C800039F09091A002982B9093A0020E940F120D
:102C90000895882309F44DC0823879F40E94F30521
:102CA00081FF47C089E30E94C6080E940F1289E392
:102CB0000E949B080E940F120895833859F40E94C5
:102CC000F30580FF36C083E50E94C6080E940F12FC
:102CD00083E5EECF843859F40E94F30582FF29C0C2
:102CE00087E40E94C6080E940F1287E4E1CF9CEFA0
:102CF000980F913AE8F290E2980F983050F487706C
:102D000091E001C0990F8A95EAF7892F0E949408F3
:102D1000D1CF9BE5980F933028F490E080E00E949B
:102D2000DB050895885A873120F490E080E00E9406
:102D3000C3050895CF93DF93EC010E944916CE019D
:102D40000E946D090E942716DF91CF91089580910E
:102D5000D001833049F0843011F0823041F487E2B1
:102D600092E00E949A16089580E40E943816089511
:102D70008091D001833049F0843011F0823041F4E9
:102D800086E292E00E949A16089581E00E94381629
:102D90000895CF93C82F8823C9F08238C9F40E94C0
:102DA000F30581FD13C089E30E94C6080E940F123B
:102DB0002FEF87EE93E0215080409040E1F700C074
:102DC000000089E30E949B080E940F12CF91089592
:102DD0008338A1F40E94F30580FDF8CF83E50E94BB
:102DE000C6080E940F122FEF81EE94E02150804020
:102DF0009040E1F700C0000083E5E4CF8438A1F4FF
:102E00000E94F30582FDE2CF87E40E94C6080E947B
:102E10000F122FEF81EE94E0215080409040E1F7B7
:102E200000C0000087E4CECF8CEF8C0F813A88F58C
:102E300080913A01882301F18091AE0287FF1CC086
:102E4000EC2FE695E695E695F0E0E055FE4F8281A1
:102E500090E04C2F477021E030E002C0220F331F7A
:102E60004A95E2F782239323892B79F08C2F0E94D5
:102E70009B080E940F1209C0E2EBF1E08191C81794
:102E8000A9F321E0E83BF207C9F78C2F0E94C6089E
:102E90009BCF80E28C0F883068F4C77021E030E06F
:102EA00001C0220FCA95EAF78091A002822B80937D
:102EB000A0028ACFEBE5EC0FE33040F4F0E0E55CF4
:102EC000FE4F808190E00E94DB0580CFC85AC73159
:102ED00008F07CCFEC2FF0E0EE0FFF1FE25CFE4F1E
:102EE000808191810E94C30571CF1F93CF93DF939F
:102EF000182FEB010E94C916209739F4812F0E94E8
:102F00004916DF91CF911F9108958FE99FE00197B6
:102F1000F1F700C000002197EFCFCF93C82F0E9498
:102F20006D090E942E168C2F0E94C916CF9108950C
:102F30000E946F098093D001833049F0843059F0AA
:102F4000823021F487E292E00E948D17089580E498
:102F50000E943F16089587E292E00E948D1787E253
:102F600092E00E949A16EECF0E946F098093D001E2
:102F7000833049F0843059F0823021F486E292E0C7
:102F80000E948D17089581E00E943F16089586E201
:102F900092E00E948D1786E292E00E949A16EECF90
:102FA000A5E0B0E0E6EDF7E10C94E6277C01DC015A
:102FB00013968D919C911497892B39F08C911196D1
:102FC0009C9189238F3F09F057C62596E1E10C9427
:102FD00002280E94EB0A182F682F89819A810E948B
:102FE000370969817A81812F0E94DD0A8C01F701FE
:102FF00082818823E1F08091A1029091A202009742
:10300000B1F08017910799F0FEE08F9FC001112465
:10301000FC01EB5EFE4F208124602083805F9E4F89
:10302000DC010D931C930E947E1210929F02F70107
:103030008281882309F414C6980122513F4520312A
:10304000310508F06EC58FEF93E00E94762981115B
:1030500026C002515BE1852E53E0952E011131C04F
:103060001C821B82442443944AE0342E84010F5F67
:103070001F4FC4010E94762989831A82882379F020
:103080009FEF980F933058F58A83498232E0830E80
:10309000911CC8010E9476298B83811121C08091E7
:1030A0002202877009F491CFF7018281882309F405
:1030B0008CCF8091AF0282FF88CF82E00E94E11224
:1030C00084CF8114F4E09F0651F3C4010E94762955
:1030D000811101C001502FEF821A920ABFCF48011F
:1030E0008E010F5F1F4FD8012C91222309F4BECF10
:1030F000213009F04AC011969C91119712968C913B
:10310000913059F40E5F1F4F70E060E0893311F485
:1031100060E570E00E94751706C0923039F40E5FCA
:103120001F4F0E94C9160F5F1F4FDDCF933029F448
:103130000E5F1F4F0E944916F6CF943019F00F5FB3
:103140001F4FF1CF0E5F1F4F30E020E0B8016F5FDF
:103150007F4FF80141818053990B8A30910550F0DF
:103160002150310900F38FE99FE00197F1F700C08A
:103170000000F6CF329EF001339EF00D11249C0129
:103180002E0F3F1F842F8B01E1CFE22FF0E0EB5F8A
:10319000FD4F5490822F86958695869590E0FC0190
:1031A000EB50FE4F64902770712C022E02C0759474
:1031B00067940A94E2F7A1E06A227724FC01EB51BC
:1031C000FE4FA490B12C022E02C0B594A7940A948D
:1031D000E2F7B1E0AB22BB24FC01EB52FE4FC490FE
:1031E000D12C02C0D594C7942A95E2F7E1E0CE2213
:1031F000DD246114710419F081EE0E94C916A11436
:10320000B10419F086EE0E94C916F9E370E060E09F
:103210005F1202C060E570E0852D0E947517A11451
:10322000B10419F086EE0E9449166114710419F078
:1032300081EE0E944916C114D10409F474CF70E0E4
:1032400060E08CE267CF81E00E9419130E94BF12F8
:1032500026CF81E00E94CF12F9CF82E0F5CF902FE8
:10326000812FAEC4FD01858181FFAEC4CD010E94D6
:103270006412AAC4053AFDE51F0709F4BAC4D0F4E4
:1032800001363DE5130709F4B4C406318CE518078F
:1032900009F00AC28091A0028A7A91E009F490E0D4
:1032A0009093D101811129C189E20E94C6080E9430
:1032B0000F12F5CEC8018D5A9D45039730F799C47A
:1032C0008091AE02806207309CE51907B9F18091C8
:1032D000AE0280610830ACE51A0780F18091AE0241
:1032E00080642CC00D30BCE51B0709F4C4C090F409
:1032F0008091AE028E7F0B30FCE51F07F9F08091C4
:10330000AE028C600C302CE51207C0F08091AE024A
:103310008D7F14C00F303CE5130709F4BCC008F4DE
:10332000AEC000319CE5190709F4B9C08091AE0226
:103330008F7B0131ACE51A0709F082C48093AE029D
:103340007FC40F3FBCE51B0709F4B7C0A8F50A3FCF
:10335000FCE51F0709F47DC0C0F404313CE5130708
:1033600009F4B9C008F4A5C005319CE5190709F0B6
:1033700067C48091AE0282FB992790F921E09227E1
:1033800090FB82F990FB83F9D9CF0C3FACE51A078B
:1033900009F479C008F461C00D3FECE51E0709F49B
:1033A00076C08091AF0283600E3FFCE51F0709F0F5
:1033B00047C48093AF0244C401362DE5120709F4D7
:1033C00095C090F401308DE5180709F48DC008F41C
:1033D00078C060E00230ADE51A0709F031C48EE034
:1033E00090E00E948A292CC40D3ABDE51B0709F123
:1033F00060F49091AE02892F8E7F90FF8160053A34
:10340000FDE51F0709F49ACF1BC40E3A2DE51207FC
:1034100071F10F3A3DE5130709F012C49091AF0224
:10342000892F877F93FF8860C4CF8091AE0281602F
:1034300085CF8091AF028860BCCF8091AE02826060
:103440007DCF8091AE02846079CF8091AE0288609A
:1034500075CF8091AF028160ACCF8091AF02826066
:10346000A8CF0E943D138091AE02806867CF809103
:10347000AF02877F9ECF8091AE028B7F5FCF80911E
:10348000AE02877F5BCF8091AF028E7F92CF80911B
:10349000AF028D7F8ECF8091AE028F7E4FCF809115
:1034A000AE028F7D4BCF0E943D138091AE028F778D
:1034B00045CF8091AE02837F41CF8091AF028C7F58
:1034C00078CF8091AF02982F909591708E7F892B45
:1034D00090FB81F96ECF0E943D139091AE02892F2F
:1034E00097FB87F980582ACF61E079CF9091AE029F
:1034F000892F8F7E94FF806121CF85E3D6CE809186
:10350000D101811104C089E20E949B08D0CE85E3DD
:10351000FBCF043C9CE5190709F493C047E05FE04A
:1035200061E17FE0053CACE51A0709F0DAC30E94CF
:103530000006B5CD093CBCE51B0709F491C070F449
:10354000073CFCE51F0709F486C04AEF5EE06DEE1C
:103550007EE0083C2CE5120751F3C3C30A3C3CE56E
:10356000130709F482C04BE15FE06DE27FE00B3CA2
:103570009CE51907E1F2B5C3013DACE51A0709F472
:1035800087C0B0F40E3CECE51E0709F47BC008F4DC
:1035900076C00F3C2CE5120709F477C06EE089E095
:1035A000003D3CE5130709F09CC30E940A1077CD4B
:1035B000043D8CE5180709F471C078F4023DACE5D0
:1035C0001A0709F468C061E088E1033DBCE51B0708
:1035D00009F087C30E943F0F62CD053DECE51E0751
:1035E00009F45FC00D35100709F459CD7AC38091F5
:1035F0009A0280FF1BC08E7F80939A0260919A028C
:1036000070919B0280919C0290919D020E94470EB6
:10361000109274022FEF30E782E02150304080405A
:10362000E1F700C000000E94930B39CD81608093C8
:103630009A0261E08695CECF45EF5FE06FEF7FE0C5
:1036400076CF4FEF5FE065EF7FE071CF41E15FE064
:1036500067E07FE06CCF4DEE5EE06AEF7EE067CF23
:1036600043ED5EE060EE7EE062CF40EE5EE063ED53
:103670007EE05DCF4DE25FE06BE17FE058CF61E03F
:1036800081E0A8CF65E082E090CF68E086E08DCF52
:1036900064E18FE08ACF67E185E187CF62E289E16B
:1036A00084CF61E083E296CF0A359DE5190791F159
:1036B00078F40115BCE51B07B1F00E3D1C4509F07F
:1036C00010C36FEF7FEF90E080E00E94A82909C04F
:1036D0000C35FDE51F07A1F0F8F0073A1D4509F08C
:1036E00000C30E9411160E943D138FEF94E3ACE0DB
:1036F00081509040A040E1F700C000000E94EC091A
:103700008091AF0282FB882780F991E089270E948F
:10371000FD12E7C281E0FBCF80E0F9CFC8010E9433
:103720000409D82EEFC2212F2F70C22E107F19F05E
:10373000C29490EFC922DD20B9F0CC2069F080E27C
:10374000800F883010F0811009C08091A002C82A33
:10375000C092A0020E940F12802F49C080919F0248
:10376000C82AC0929F02F6CF802F0E944916CC2013
:1037700009F43FC0005E8C2D083010F0811003C0AA
:103780000E94940802C00E948D080E940F1231C04E
:10379000312F3F70C32E107F103219F0C29480EF8A
:1037A000C8228820A1F081E0881609F46EC0DD20CF
:1037B00009F478C0BB2009F46EC0D70115968C912E
:1037C000159780FFC9CF8F7015968C9364C0209198
:1037D000AF0222FD38C0DD2079F1CC2039F0809194
:1037E000A002C82AC092A0020E940F1280E00E948C
:1037F000C916E92DE850FF0B349720F40E94F30519
:103800000E949D0FAA2009F4E0CB8091220280FD46
:10381000DCCBD70112961C928595859585950E94E3
:103820001913C7010E94D0178091220285958595B2
:1038300085950E94CF12C9CB80E00E944916CC200A
:10384000C1F28C2D9DCFDD2099F0909143028C2DFB
:10385000892BB11003C00E943F16CBCFA1E0BA1252
:10386000FACF22FFC6CF981721F280934302C1CF2F
:10387000B11006C00E9487088C2D0E943816B9CF5F
:10388000B1E0BB1609F4B5CFF5CFDD2031F0E5E0AE
:10389000EB1508F4AECF8C2DDECFF4E0FB1508F469
:1038A000A8CFEACFBB2041F3B9E38B1209C0EFEFF9
:1038B000F7EE23E0E150F0402040E1F700C00000C7
:1038C000802F0E94491695CF812F8695869583700B
:1038D00061F0813009F08DCFC8019370D11002C022
:1038E00090E080E00E94C30584CFC8019370D1109E
:1038F00002C090E080E00E94DB057BCF812F8370C7
:1039000009F03FC0D11075CF402F429546954770C2
:10391000440F440F802F8F7090E0042E02C0880F58
:10392000991F0A94E2F730E020E004FF09C02FE07D
:1039300030E002C0220F331F4A95E2F72095309500
:10394000169516951370123099F078F44091440250
:1039500050914502113039F0822B932B842395230B
:103960000E94291346CF842B952B822B932BF8CFC3
:10397000822B932B2091440230914502822793277A
:10398000EFCF8695DD2011F0812F8170882309F417
:1039900030CF402F429546954770440F440F802FFB
:1039A0008F7090E0042E02C0880F991F0A94E2F7EE
:1039B00030E020E004FF09C02FE030E002C0220F19
:1039C000331F4A95E2F7209530951695169513709A
:1039D000123099F078F44091E2025091E3021130F4
:1039E00039F0822B932B842395230E94B61201CFAA
:1039F000842B952B822B932BF8CF822B932B20910A
:103A0000E2023091E30282279327EFCF1F70DD207F
:103A100029F0812F0E941913802F1DCF802F0E9423
:103A20003816812F0E94CF12E4CE802F32EF8316FA
:103A3000A1F1381570F090EF8916D1F0A1EF8A1638
:103A400091F0DD2009F45DC0B11086CE812F8F7119
:103A500028C0B3EF8B1641F1E4EF8E12F2CF8091C4
:103A6000AF0282FD30C0812F8F71DD20D9F219C0E5
:103A7000DD2071F0F4E0FB1508F4BBCE1F7181E08E
:103A800090E0012E02C0880F991F0A94E2F7B7CF89
:103A900025E02B1508F4ADCEF1CF812F8F71D11019
:103AA000C1CF0E941913A5CE90E080E0DD2009F47B
:103AB0009CCF1F7181E090E0012E02C0880F991FFA
:103AC0000A94E2F792CFDD2089F01F71812F0E94C6
:103AD00019138091AF0282FF07C038E0139FC00125
:103AE0001124836080932202812FDBCF81E00E942A
:103AF000E11281E08B1508F07CCE82E00E94E11299
:103B000078CEBB2059F0893309F0DACE9FEFA7EECB
:103B1000B3E09150A040B040E1F7D0CE812F8F713B
:103B200081CF0031BFE51B0709F48DCB0131EFE5F3
:103B30001E0709F492CB980137552F3F310511F03C
:103B400008F042C05801BB242EE0029FF00111246E
:103B5000DF01A05FBE4F6D01EB5EFE4F908180FBE9
:103B600090F99083882309F47DCB0E94B705909348
:103B7000610280936002F60182818F5F828380916F
:103B80009F029091A002892B8383809143028483BA
:103B90000680F781E02D309731F0D6011C966D91AB
:103BA0007C91C60109958EE08A9DF0018B9DF00DF8
:103BB0001124E05FFE4F858181FF51CB90E080E0D2
:103BC0009093A1028093A202D70112968C91882330
:103BD00009F465C00330BDE51B0708F04BCB0A3F75
:103BE000ECE51E0730F4C80182509C45449708F06C
:103BF0004CCB0E946F0B9093AF028093AE020231C8
:103C00008CE5180709F44FCC08F09BCB0930ACE5E4
:103C10001A0709F426CC08F065CB0530ECE51E0741
:103C200009F413CC08F04CCB03302CE5120709F44F
:103C300004CC08F006CC02308CE5180709F4F5CB6B
:103C40006091AE021091AF0284E090E00E948A2958
:103C5000612F82E290E00E948A290E943D131FCAD0
:103C60000031FFE51F0709F4F4CA01312FE51207FF
:103C700009F061CF82E0EECA85E0F701DE0111961E
:103C800001900D928A95E1F7D70112962C918981C6
:103C90009A8121119EC90E940409182FA2C90631D8
:103CA000BCE51B0709F42BCC8091A00282720C3C6E
:103CB0009CE5190709F4DECC08F05ECC063CBCE5B7
:103CC0001B0709F4C3CC08F035CC033CFCE51F0707
:103CD00009F4B2CC08F01DCC023C3CE5130709F412
:103CE00086CCD70112968C9112970D911C91882346
:103CF00009F414CDC8010E94EB0AD82E682FC80120
:103D00000E943709B8018D2D0E94DD0A0E94070725
:103D10008C01882EF701D280B580B2943FE0B322A7
:103D2000809122028770C1F0AD2CDD20B1F0812F8F
:103D3000807F803421F080E2800F883068F08091AD
:103D4000AF0282FF09C082E00E94E112809122024C
:103D50008770AA24A3948111A12C912E92942FE014
:103D60009222FBE0F91508F444CDE92DF0E0E6538A
:103D7000F64D0C94A7271F93CF93DF938091EF010B
:103D8000807F09F049C08091EC01882309F444C088
:103D900080912102D091F0016091EA017091EB01D4
:103DA000A091ED01B091EE01C62FC72316E0D81700
:103DB00099F190E0109711F0CF3F19F401968770B8
:103DC000F6CF189F9001199F300D1124F901EF5083
:103DD000FE4F41814713F2CF40814613EFCF42811E
:103DE0004111ECCF438154814A1B5B0B483C510588
:103DF00028F78091EF018F7080618093EF01F901C6
:103E0000EA50FE4F80818F70806180838AEE91E05E
:103E10000E94D0170E94FA08DF91CF911F91089558
:103E2000A1E1B0E0E6E1FFE10C94ED278C0185E033
:103E3000F801DE011D9601900D928A95E1F7F801D7
:103E4000E2808AEEA82E81E0B82E6091ED0170919B
:103E5000EE016115710509F426C19091EA014091C6
:103E6000EB01892F84238F3F09F41DC1208131810B
:103E7000C380D480F090EC01F601E61BF70BFF2025
:103E800009F4DCC08091EF01582F507FE83CF10528
:103E900008F09FC051116BC0FE2C431314C0921345
:103EA00012C0E11010C08F7080618093EF01C501D6
:103EB0000E94D0178091EF01F80185838F2D6196C4
:103EC000EAE00C940928C114D10429F0822F83233D
:103ED0008F3F09F003C180E0F82FF170DF2E80FFE3
:103EE0003CC0809121024091F00156E0841315C03E
:103EF0002D873E878D859E850E941F0B292F229539
:103F00002F702230F0F0243018F59F70F1F0F80196
:103F10009581907FD1F4D12C1EC090E0589FF00184
:103F2000599FF00D1124EF50FE4F6181361306C0EA
:103F30006081261303C06281E6120FC0019687706C
:103F4000D5CF9F7011F0882331F3805E883018F34D
:103F5000C8010E94D017FD2CB1CFEE2009F4AECFDE
:103F60008091EF0181608093EF01F12CA7CF431383
:103F700006C0921304C0F801EE2009F479C0C8010C
:103F80000E942C0B882309F1EE20F9F08091EF01BB
:103F9000803270F02091EA013091EB0138872F8355
:103FA0001986DB86CA868C87CE0107960E94D017B9
:103FB00086E0F801AAEEB1E001900D928A95E1F752
:103FC0000E94BB1EFF24F39479CFC8010E94D01732
:103FD000F9CF51110AC08AEE91E00E94D01786E015
:103FE000F50111928A95E9F7C0CF43130FC09213E0
:103FF0000DC0E1100BC0F8018583C8010E94D017E5
:1040000086E0F50111928A95E9F758CFC8010E9420
:104010002C0B8823D1F2EE20C1F28091EF01803287
:1040200038F22091EA013091EB013A8329831B8217
:10403000DD82CC828E83CE010196B8CFE83CF105BB
:10404000F8F6FE2CEE2009F243131FC092131DC098
:104050008091EF0180FD10C0982F907F69F0F801EA
:104060008583903F31F0982F907F905F8F70892BE0
:104070008583C8010E94D01786E0F801AAEEB1E05E
:1040800001900D928A95E1F719CFC8010E942C0B7F
:1040900081118ECF8091EF0181608093EF01C80183
:1040A0000E94D0170BCFEE2009F48FCFC8010E94D9
:1040B0002C0BF82E882309F488CF86E0F801AAEEAD
:1040C000B1E001900D928A95E1F78091EA0190911B
:1040D000EB010E941F0B0E94BB1EF0CE81E08E25DB
:1040E000FBCEA7E1B0E0E7E7F0E20C94F4274B8BBE
:1040F0005C8B6D8B7E8B8F8B611110929F021A8A65
:10410000198A85E0FE017396DE011D9601900D92DD
:104110008A95E1F786E0FE013D96DE011796019053
:104120000D928A95E1F7CE0107960E94101F882311
:1041300059F016E0809121029091F001891343C05B
:104140006796E3E00C94102886E0FE013796DE01C6
:10415000119601900D928A95E1F78A859B85892BAE
:1041600041F38F81988589238F3F19F32091F001C6
:1041700030E0C901019687709927409121024817C4
:10418000190671F40E943D131092F0011092210261
:1041900086E0EAEEF1E0DF011D928A95E9F7C9CFEA
:1041A00096E0929FD001939FB00D1124AF50BE4F67
:1041B000FE01319601900D929A95E1F78093F001FE
:1041C0000E94FA08B6CF819FC00111248F509E4FE4
:1041D0000E94101F882309F4B3CF8091210290E040
:1041E00001968770992780932102A4CF90E080E008
:1041F0000E948429883E9E4F19F40E94560B089510
:1042000080E008951F920F920FB60F9211242F9302
:104210003F934F935F936F937F938F939F93AF934E
:10422000BF93CF93DF93EF93FF93D091E900DF70BB
:104230008091EC00C82FC17080FDC0E81092E900A9
:104240008091F000877F8093F00078940E94531350
:104250001092E9008091F00088608093F000CD2BEF
:10426000CF70C093E900FF91EF91DF91CF91BF91A3
:10427000AF919F918F917F916F915F914F913F91FE
:104280002F910F900FBE0F901F9018951F920F92B5
:104290000FB60F9211242F933F934F935F936F9319
:1042A0007F938F939F93AF93BF93EF93FF938091EF
:1042B000E10082FF09C08091E20082FF05C0809189
:1042C000E1008B7F8093E1008091DA0080FF24C0C1
:1042D0008091D80080FF20C08091DA008E7F80938B
:1042E000DA008091D90080FF9DC080E189BD82E124
:1042F00089BD09B400FEFDCF81E08093D802809192
:10430000B302811109C00E942D040E94F80480911B
:10431000E20084608093E2008091E10080FF17C09A
:104320008091E20080FF13C08091E2008E7F809335
:10433000E2008091E20080618093E2008091D800E9
:1043400080628093D80019BC85E08093D802809168
:10435000E10084FF2BC08091E20084FF27C080E150
:1043600089BD82E189BD89B5982F917080FFFBCF0F
:104370008091D8008F7D8093D8008091E1008F7E5E
:104380008093E1008091E2008F7E8093E200809133
:10439000E20081608093E2008091D902882309F4D1
:1043A00047C084E08093D8028091D8028091E100D8
:1043B00083FF27C08091E20083FF23C08091E1004A
:1043C000877F8093E10082E08093D8021092D90227
:1043D0008091E1008E7F8093E1008091E2008E7FEA
:1043E0008093E2008091E20080618093E20042E0ED
:1043F00060E080E00E94C6048091F00088608093B5
:10440000F000FF91EF91BF91AF919F918F917F91BC
:104410006F915F914F913F912F910F900FBE0F9031
:104420001F90189519BC1092D8021092B30274CF45
:104430008091E30087FD93E09093D802B5CF789404
:104440001F921FB61F9211248F939F93AF93BF9318
:104450008091AA029091AB02A091AC02B091AD0202
:104460000196A11DB11D8093AA029093AB02A09367
:10447000AC02B093AD02BF91AF919F918F911F900D
:104480001FBE1F9018951F921FB61F9211248F9365
:104490009F93AF93BF938091A902811113C0809124
:1044A000AA029091AB02A091AC02B091AD024196EC
:1044B000A11DB11D8093AA029093AB02A093AC0200
:1044C000B093AD02BF91AF919F918F911F901FBE8E
:1044D0001F901895CDB7DEB7AA970FB6F894DEBF38
:1044E0000FBECDBF85B7806885BF85B7806885BFA3
:1044F00084B7877F84BF0FB6F894A8958091600039
:10450000886180936000109260000FBE80E890E0A8
:104510000FB6F89480936100909361000FBE8BEA10
:1045200096E09093AF018093AE010E942D040E940B
:10453000F8048091E20084608093E2007894809196
:10454000D8028823A1F01091E9001F709091EC002F
:10455000892F817090FD80E8182B1092E9008091DE
:10456000E80083FD0E9453131F701093E90082E05E
:1045700084BD93E095BD9AEF97BD80936E000E9435
:10458000560B811102C00E949E0A0CE611E0D80170
:104590008D918D018F3F11F00E94AD06B1E0033780
:1045A0001B07A9F703E711E089E7E82E81E0F82E61
:1045B000F80181918F018F3F11F00E94AD06E01646
:1045C000F106B1F787E0E3E6F2E0DF01282F1D9264
:1045D0002A95E9F7EDE4F2E0DF011D928A95E9F70B
:1045E0008AE290E00E943128BC0190934C028093B3
:1045F0004B0230E020E0FB01E20FF31F96E0408128
:10460000417041939150D9F72A5F3F4F2A323105CB
:1046100091F70E94F620811102C00E942A1082E0C8
:1046200090E00E947629809358020E946F0B90932D
:10463000AF028093AE020E949710EFE3FCE931973E
:10464000F1F700C000000E9497108091630281FF83
:1046500008C06FEF7FEF90E080E00E94A8290E94E1
:10466000EC0983E090E00E94762990E00E942913F3
:104670008091E2029091E3020E94A40F8091540283
:10468000811133C00E94F620811104C00E942A10BB
:104690000E941A1088E090E00E947E2960939A029E
:1046A00070939B0280939C0290939D026E7F71F4A5
:1046B0000E941A1088E090E00E947E2960939A027E
:1046C00070939B0280939C0290939D020E94060629
:1046D0001092740280919A0280FF04C060E0869577
:1046E0000E943F0F81E08093540285E892E090930E
:1046F0006C0280936B0286E091E09093A602809317
:10470000A502B8E1EB2EF12C10E4B12E0AE6C02E82
:1047100002E0D02E8091D802AA24A39400E112E1F5
:10472000853009F4A3C00E949710F9E58F2EF2E0BE
:104730009F2EA3E66A2EA2E07A2ED301F401919176
:104740008D9122E0E036F20709F4B4C09817B9F36E
:1047500010E0D3010D913D01F40141904F0140164D
:1047600019F14026A12C55245394842D8521A1F0C4
:10477000AEA21FA391E0802F852109F490E098A7B5
:104780000E94B7058160782F9AA789A74EA15FA1E3
:1047900068A58AA50E947120A394550CF6E0AF127B
:1047A000E4CFF401319700831F5F173091F68FB784
:1047B000F8944091AA025091AB026091AC027091C2
:1047C000AD028FBF97C08091D802843009F440C0F9
:1047D00080E00E949D0F1092740280916A02811104
:1047E00016C0A0926A0280919A02982F91709093BD
:1047F00055028E7F80939A02FFEF20E782E0F1500E
:1048000020408040E1F700C000000E94930B10920E
:10481000A9020FB6F894A895E09260000FBEB0927E
:10482000600083B7817F846083BF83B7816083BF6B
:104830007894889583B78E7F83BF0FB6F894A89538
:1048400080916000886180936000109260000FBECC
:104850008091D702882351F00E949710E3E6F2E09E
:1048600081918111FDC2CE16DF06D1F78091D80269
:10487000853009F4A8CF0E943D130E94F3050E94E1
:104880009D0F10926A0280915502882361F08091F9
:104890009A02816080939A0260E086950E943F0FA1
:1048A0000E947D0B40CF809175028823C9F30E943E
:1048B000930BF6CF98134CCF0E94B7058C018091D3
:1048C00056029091570208171907A1F08FEF89A39C
:1048D0008AA31BA20E94B7058160782F9DA38CA399
:1048E00049A15AA16BA18DA10E947120109357027A
:1048F000009356028091A1029091A202892B21F18E
:1049000020916002309161024FB7F8948091AA0221
:104910009091AB02A091AC02B091AD024FBF821B4F
:10492000930B893C910580F08091A1022EE0829F3B
:10493000C0011124FC01EB5EFE4F208122FD04C06A
:10494000805F9E4F0E947E12809174028823D1F175
:1049500080917302E0919A02E695E81BE0936F0262
:10496000823009F06DC0F0E0E955FD4FE4910E2F63
:1049700010E0E3E38E2EEEE09E2E809170028823FD
:1049800061F0109270020E94B70590936E028093BE
:104990006D0210927202109271020E94B705E091AE
:1049A0006D02F0916E028E1B9F0B8F3F9F4750F45C
:1049B000E00FF11FF0936E02E0936D028DE692E03E
:1049C000F40109950E94F30590916202891779F02C
:1049D000809362029FB7F8944091AA025091AB0273
:1049E0006091AC027091AD029FBF0E949D0F8091BB
:1049F000D802843009F08ECE83E08093E900809164
:104A0000E80082FF87CE8091E80090E085FF06C035
:104A10000E944C04882309F46DC091E08091E80065
:104A20008B778093E800992309F474CEE981E150F3
:104A3000E33108F0E4C0F0E0EA52F64D0C94A72709
:104A4000863059F4F0E0EC55FD4FE4910E2F10E064
:104A500073E2872E7EE0972E90CF893061F4E69541
:104A6000F0E0EF55FD4FE4910E2F10E067E9862E40
:104A70006DE0962E82CF8F3061F4E695F0E0E2563D
:104A8000FD4FE4910E2F10E052E3852E5DE0952E50
:104A900074CF853159F4F0E0E556FD4FE4910E2FC7
:104AA00010E044EE842E4CE0942E67CF08E210E034
:104AB00099E6892E9CE0992E883109F45ECF8332E5
:104AC00049F4E9E9F2E00591149132ED832E3DE0DD
:104AD000932E53CF04EF11E022E3822E2CE0922E8E
:104AE000843209F44ACF00ED17E082EB882E85E08E
:104AF000982E43CF00E210E0CE0101964C01809148
:104B0000E80085FD0AC08091E8008B778093E8007B
:104B10000E944C04882399F380CF8091F100D40146
:104B20008D934D010150110951F777CF1A828AE018
:104B30008B831AC08A81823009F4A8C18330D9F1ED
:104B4000813009F05CC02FB7F8946091AA0270918F
:104B5000AB028091AC029091AD022FBF0E94AD27B5
:104B60006B837C838D839E838091D802843009F08F
:104B7000D1CD1091E9001F709091EC00892F8170C8
:104B800090FD80E8182B82E08093E9008091E80096
:104B900080FF0DC050E040E060E270E0CE01019681
:104BA0000E947D048091E8008E778093E8001F705A
:104BB0001093E900AFCD809163028B8380916402F2
:104BC0008C83809165028D83809166028E838091B3
:104BD00067028F8380916802888780916902898744
:104BE000C3CF8A81823059F46B817C818D819E8113
:104BF0000E94AD2786E290E00E948A29B5CF8FEF10
:104C00008983B2CF4C816B818A810E94AE0A98273A
:104C1000892798279E838D83A7CF2D813E813227B8
:104C2000232732274C816B818A810E94200A9CCFE6
:104C30000E94460A99CF8A81813809F1A8F4803808
:104C400009F092CF8B81BFEF8B9FC00111246FEFD2
:104C500070E00E945D27462F20E060919C028091C9
:104C60009B020E945A0E80CF823859F1833809F096
:104C70007BCF20E040919D026C818B81F2CF60E080
:104C80008B810E943F0F9B8180919A02911111C0EC
:104C90008E7F80939A0210927402EFEFF0E722E089
:104CA000E150F0402040E1F700C000000E94930B6B
:104CB0005BCF816080939A0260E086950E943F0FEF
:104CC00053CF8B8180939E024FCF8A818138E1F050
:104CD00078F4803809F048CF80919D02AFEF8A9F29
:104CE000C00111246FEF70E00E945D276B833CCF01
:104CF000823891F0833809F037CF80919B028B8303
:104D000080919C028C8330CF80919A0280FF02C0F8
:104D100086950ECF80E00CCF80919E0209CF6091E6
:104D20009A0270919B0280919C0290919D020E9438
:104D3000470E1ACF80E18A8317CF1A8285EEF8CE0C
:104D40006A807B807624672476248E010F5F1F4F54
:104D50008C80800E912E911CC301855E9C4F08159E
:104D6000190509F401CFB5EE6B16710450F40E94D9
:104D70007629F8018483BFEF6B1A7B0A0F5F1F4F00
:104D8000EBCFD80114961C92F6CF0A811B81102715
:104D900001271027FE0131963F018C80800E912E55
:104DA000911CC801855E9C4F0815190509F4DCCEDD
:104DB000053E110528F4D30114966C910E948A29AE
:104DC000BFEF6B1A7B0A0F5F1F4FEBCF0E94100AD9
:104DD000CBCE89E0B0CF6A807B80762467247624AE
:104DE0008E010F5F1F4F8C80800E912E911CC3018E
:104DF00087968016910609F4B7CEE4EF6E16E2E0CE
:104E00007E0658F40E947629D80114968C93FFEF01
:104E10006F1A7F0A0F5F1F4FEACFF8011482F7CF96
:104E20000A811B81102701271027CE0101963C0122
:104E30008C80800E912E911CC8018796081519054B
:104E400009F492CE043FA2E01A0720F4F301648132
:104E50000E948A29FFEF6F1A7F0A0F5F1F4FECCF66
:104E600009BD19BD09B400FEFDCF8091D8008F7D2A
:104E70008093D8008091E00082608093E000809170
:104E8000E00081FDFCCF0E943D13F0CC86E290E073
:104E90000E9476291B821C821D828E8365CE87FB31
:104EA000082E062687FD819567FD61950E941C28C6
:104EB0000EF4919507FC81950895AA1BBB1B51E147
:104EC00007C0AA1FBB1FA617B70710F0A61BB70B7A
:104ED000881F991F5A95A9F780959095BC01CD011F
:104EE000089597FB072E16F4009407D077FD09D09C
:104EF0000E945D2707FC05D03EF4909581959F4F59
:104F00000895709561957F4F0895A1E21A2EAA1B0E
:104F1000BB1BFD010DC0AA1FBB1FEE1FFF1FA21769
:104F2000B307E407F50720F0A21BB30BE40BF50B66
:104F3000661F771F881F991F1A9469F760957095EF
:104F4000809590959B01AC01BD01CF010895EE0FB6
:104F5000FF1F0590F491E02D099469279627692792
:104F600078278727782708950E94BC27332312F4D7
:104F70008A1B9B0B0C94CD27A29FB001B39FC0014D
:104F8000A39F700D811D1124911DB29F700D811D75
:104F90001124911D08950E94BC27B7FF0895821B1C
:104FA000930B08950E94BC27A59F900DB49F900D70
:104FB000A49F800D911D11240895B7FF0C94D22752
:104FC0000E94D227821B930B08952F923F924F92FB
:104FD0005F926F927F928F929F92AF92BF92CF9289
:104FE000DF92EF92FF920F931F93CF93DF93CDB792
:104FF000DEB7CA1BDB0B0FB6F894DEBF0FBECDBF0A
:1050000009942A88398848885F846E847D848C84DA
:105010009B84AA84B984C884DF80EE80FD800C81E3
:105020001B81AA81B981CE0FD11D0FB6F894DEBFC6
:105030000FBECDBFED010895991B79E004C0991F03
:10504000961708F0961B881F7A95C9F780950895E2
:10505000FB01DC0102C005900D9241505040D8F791
:1050600008950F931F93CF93DF938230910510F42F
:1050700082E090E0E091E602F091E70230E020E08B
:10508000B0E0A0E0309799F42115310509F447C04C
:10509000281B390B24303105C0F58A819B816115AD
:1050A000710571F1FB0193838283FE0111C0408180
:1050B00051810281138148175907F8F048175907A1
:1050C00099F4109761F012960C93129713961C9313
:1050D0003296CF01DF91CF911F910F9108950093E8
:1050E000E6021093E702F4CF2115310519F04217BB
:1050F000530718F49A01BD01EF01DF01F801C2CF97
:105100009093E7028093E602D0CFFE01E20FF31FF7
:10511000819391932250310939832883DACF2091EA
:10512000E4023091E502232B41F4209102013091F9
:1051300003013093E5022093E402209100013091B5
:1051400001012115310541F42DB73EB7409104010D
:1051500050910501241B350B4091E4025091E5026A
:105160004217530708F0B5CF241B350B2817390712
:1051700008F4AFCFBC016E5F7F4F2617370708F4E6
:10518000A8CF640F751F7093E5026093E402FA01E3
:10519000819391939ECFCF93DF930097E9F0FC0129
:1051A000329713821282C091E602D091E702DE01AB
:1051B00030E020E02097A1F420813181820F931FFD
:1051C0002091E4023091E5022817390709F067C001
:1051D000F093E502E093E402DF91CF910895DA01C4
:1051E000AE17BF0708F040C012964D915C9113971F
:1051F0009D014115510599F7D9011396FC93EE9342
:1052000012974D915D91A40FB51FEA17FB0779F432
:10521000808191810296840F951FD90111969C93EC
:105220008E938281938113969C938E931297B0E014
:10523000A0E08A819B810097B9F5FE01819191914F
:10524000E80FF91F8091E4029091E5028E179F0705
:1052500019F6109761F51092E7021092E602D093CA
:10526000E502C093E402B8CFB383A28340815181A9
:10527000840F951FA817B90771F44E5F5F4F8D918A
:105280009C911197480F591F5183408312968D911D
:105290009C91938382832115310509F0ADCFF09362
:1052A000E702E093E60298CFDE01EC01C2CF13964D
:1052B0001C921E921297D3CFFC014150504030F007
:1052C00001900616D1F73197CF01089588279927C5
:1052D0000895FB01DC0104C08D910190801921F437
:1052E00041505040C8F7881B990B0895F999FECF9B
:1052F00092BD81BDF89A992780B50895A6E1B0E0E6
:1053000044E050E00C94B029A8E1B0E042E050E065
:105310000C94B029262FF999FECF92BD81BDF89A41
:10532000019700B4021639F01FBA20BD0FB6F894E9
:10533000FA9AF99A0FBE08950396272F0E948B2997
:105340000E948A29252F0E948B29242F0C948B29B7
:105350000196272F0E948B290C948A29DC01CB010E
:10536000FC01F999FECF06C0F2BDE1BDF89A319675
:1053700000B40D9241505040B8F70895F894FFCF13
:1053800034145C14FF155C14FF158F14B014FF1552
:10539000AE15BB15931B931BC81BC81B641CF91BC4
:1053A000F91BF91B7E1C061D151D151D96259A253A
:1053B000F12502260D2618261B2665268F26FF2599
:1053C000FF259A269D26A026C526E626E926EB2659
:0253D0001027A4
:1053D2000000EC022000B405AC09B3058209B10556
:1053E2000000000000000000B417B8160000000022
:1053F2000000000000009817A716000001191A1BF0
:105402001C1D1E1F20212201020101818283E20054
:10541200E900EA00B500B600B700CD008301CC0078
:105422008A0192019401210223022402250226020A
:1054320027022A02B300B4006F007000F4F5F6F7F9
:10544200313332946697C6343500010202020206F5
:1054520006060909090909090F0F0F0F0F0F151584
:10546200151819191919191919191919232440226A
:0E5472006D95017301060162077B079B070021
:00000001FF
