:100000000C94E0030C9418040C9418040C94180439
:100010000C9418040C9418040C9418040C941804F0
:100020000C9418040C9418040C9460200C941C205C
:100030000C945D210C9418040C9418040C9418046E
:100040000C9418040C9418040C9418040C941804C0
:100050000C9418040C9439210C9418040C94180472
:100060000C9418040C9418040C9418040C941804A0
:100070000C9418040C9418040C9418040C94180490
:100080000C9418040C9418040C9418040C94180480
:100090000C9418040C9418040C9418040C94180470
:1000A0000C9418040C9418040C941804050109020B
:1000B000A10185020901A1000509190129081500FE
:1000C0002501950875018102050109300931158165
:1000D000257F95027508810609381581257F9501D0
:1000E00075088106050C0A38021581257F95017572
:1000F000088106C0C005010980A101850319012AF4
:10010000B700150126B700950175108100C0050CD8
:100110000901A101850419012AA002150126A002E6
:10012000950175108100C005010906A1018506052C
:100130000719E029E71500250195087501810205D9
:1001400007190029EF1500250195F07501810205B9
:10015000081901290595057501910295017503910D
:1001600001C00660FF0961A1010962150026FF00B8
:100170009520750881020963150026FF00952075FA
:10018000089102C005010906A101050719E029E748
:1001900015002501950875018102950175088101F9
:1001A0000507190029FF150026FF0095067508812F
:1001B000000508190129059505750191029501753C
:1001C000039101C0000000000000000000000000DA
:1001D000000000000000000000000000000000001F
:1001E00000000000000000007E0F00D4FFFFFFC7EA
:1001F0000000007800000000000000002A2B28000A
:1002000000000000000000000000000000000029C5
:10021000000000002C1E3420212224342627252E05
:10022000362D3738271E1F2021222324252633333D
:10023000362E37381F0405060708090A0B0C0D0E69
:100240000F101112131415161718191A1B1C1D2F35
:100250003130232D350405060708090A0B0C0D0E55
:100260000F101112131415161718191A1B1C1D2F15
:100270003130354C00047F3F1F64321464321478EF
:100280003C1E1E140A0500010101010101010101CA
:100290000202020202020202020303030303030337
:1002A0000304040404040404050505050506060604
:1002B0000606070707070708080808090909090AC1
:1002C0000A0A0B0B0B0C0C0C0D0D0D0E0E0E0F0F66
:1002D0000F101011111112121313141415151616F4
:1002E0001717181819191A1A1B1B1C1D1D1E1E1F63
:1002F0002020212222232424252626272829292AB2
:100300002B2C2D2D2E2F30313232333435363738D9
:10031000393A3B3C3D3E3F404142434445464748D5
:10032000494A4C4D4E4F50515354555658595A5BAB
:100330005D5E5F616264656668696B6C6D6F70724B
:10034000737577787A7B7D7E8082838587888A8CB7
:100350008E8F91939596989A9C9EA0A2A3A5A7A9EB
:10036000ABADAFB1B3B5B7BABCBEC0C2C4C6C9CBE2
:10037000CDCFD1D4D6D8DBDDDFE2E4E7E9EBEEF098
:10038000F3F5F8FAFDFFFFAA7F5540222325262822
:10039000292A2C2D2F3032333536383A3B3D3E401A
:1003A00042434547494A4C4E5051535557595A5C60
:1003B0005E6062646668696B6D6F71737577797B77
:1003C0007D7F81838587898A8C8E90929496989A76
:1003D0009C9E9FA1A3A5A7A8AAACAEAFB1B3B4B68B
:1003E000B8B9BBBCBEBFC1C2C3C5C6C7C9CACBCCE6
:1003F000CDCED0D1D2D2D3D4D5D6D7D7D8D9D9DAB9
:10040000DADBDBDBDCDCDCDCDCDDDDDDDDDCDCDC2D
:10041000DCDCDBDBDBDADAD9D9D8D7D7D6D5D4D355
:10042000D2D2D1D0CECDCCCBCAC9C7C6C5C3C2C12A
:10043000BFBEBCBBB9B8B6B4B3B1AFAEACAAA8A787
:10044000A5A3A19F9E9C9A98969492908E8C8A893F
:10045000878583817F7D7B79777573716F6D6B691C
:1004600068666462605E5C5A5957555351504E4CF1
:100470004A4947454342403E3D3B3A3836353332A0
:10048000302F2D2C2A292826252322350014001A46
:1004900000080015001700E100040016000700091D
:1004A000000A00E0001D001B000600190005001CEA
:1004B0000018000C001200130031000B000D000E9C
:1004C000000F00330034721100100036003700387E
:1004D00000287429432B422C462A444C4500002B0B
:1004E00000170014001A0008001500E1000A0004BB
:1004F00000160007000900E0001D001B000600199F
:100500000005001C0018000C00120013002A000B4C
:10051000000D000E000F00330034001100100036F3
:100520000037003800E400290007512C002800E6BD
:1005300000000001000000000000000000000001B9
:10054000000401160100000901000001001D011B4B
:10055000010601190100001C01190106011B011D02
:1005600001160139005000510052004F00000049AF
:10057000004A004E004B004D000000E30001002C3B
:10058000002A004C000000000000000000000000F5
:100590000000000100E300E200E000E100000000D4
:1005A0000000000000000000000000C25CC35CC549
:1005B0005CC75CC95C00000000AC00AA00A900ABED
:1005C000000000000000000000000000000000012A
:1005D000000000AE00AD00A800000000002F0024C5
:1005E00000250026003000000033002100220023F7
:1005F000002E00000035001E001F0020003100000A
:1006000000000000000000000000000000E500E421
:1006100000E600E3000000005C00000000000000B5
:10062000000000370027002D00010000000000003E
:10063000002F02240225022602300200003302218C
:1006400002220223022E02000035021E021F022097
:100650000231020000000000000000000000000065
:1006600000E500E400E600E30000000000000000F8
:1006700000000000000000260227022D02000001F9
:10068000000000000045004000410042004600001C
:100690000044003D003E003F004700000043003A98
:1006A000003B003C0048000000000000000000008B
:1006B00000005C0000E500E400E600E3000000004C
:1006C000000000000000000000DE5C76002B00014E
:1006D000000000000000000000000000000000001A
:1006E0000000000000000000000100000000000009
:1006F00000000001000100010000000000000000F7
:100700000000000000005000000000000000000099
:10071000000000005C00000000000000000000007D
:10072000000100280000000000000009025B000337
:100730000100A0FA090400000103010100092111D0
:10074000010001224000070581030800010904019E
:10075000000203000000092111010001222200070C
:10076000058203200001070503032000010904029C
:1007700000010300000009211101000122B6000759
:100780000584032000011201000200000008077820
:10079000CBDC010001020001140372006500760049
:1007A000690075006E0067003400310000000C0322
:1007B00067007400690070007300000004030904FE
:1007C00011241FBECFEFDAE0DEBFCDBF04B603FEBB
:1007D00018C08091D1029091D202A091D302B09121
:1007E000D4028730904BA740B04B59F41092D102FD
:1007F0001092D2021092D3021092D402E0E0F8E3F9
:10080000099511E0A0E0B1E0E0E7F3E502C0059052
:100810000D92A239B107D9F722E0A2E9B1E001C0F7
:100820001D92A13DB207E1F70E9484210C948D290D
:100830000C940000E8EDF0E080818E7F80831092C0
:10084000E2001092DA001092E100A0EEB0E08C918C
:1008500081608C9380818F77808319BCA7EDB0E095
:100860008C918E7F8C9380818F7E808310929C02EE
:1008700008952091E4003091E50095E6A9012091CA
:10088000EC00822F817020FF06C08091E80080FF7D
:1008900006C080E008952091E80022FD1AC08091F2
:1008A000C102882389F0853089F08091EB0085FDB5
:1008B0000FC02091E4003091E50042175307F9F290
:1008C0009150E1F684E0089582E0089583E0089570
:1008D00081E00895EF92FF920F931F93CF937C01D5
:1008E0008B010E943904C82F811117C08091E80044
:1008F00085FD0BC08091E8008E778093E8000E9410
:100900003904882399F3C82F08C0F70181917F012A
:100910008093F1000150110949F78C2FCF911F915D
:100920000F91FF90EF9008958091C30287FF13C04D
:100930008091E80082FF06C08091E8008B77809369
:10094000E80004C08091C1028111F2CF0895809126
:10095000C1028823D9F38091E80080FFF8CF80910D
:10096000E8008E77ECCF982F9093E900242F762F14
:1009700050E0891731F07091EC002091ED0050911A
:10098000F00021FD07C09F5F973071F78093E90069
:1009900081E008953091EB003E7F3093EB00309181
:1009A000ED003D7F3093ED003091EB0031603093EE
:1009B000EB007093EC002093ED005093F000209139
:1009C000EE0027FDE0CF80E00895B0E0A0E0EBEE80
:1009D000F4E00C94C727C8EDD0E088818F7E88832F
:1009E000E7EDF0E080818160808384E082BF81E078
:1009F00080939C0288818E7F888302EE10E0F8014C
:100A000010821092DA0081EEC82ED12CF6011082ED
:100A100088818F77888388818068888388818F7DAB
:100A2000888319BC1092C1021092C2021092C002B7
:100A30001092BF0290EEE92EF12CF70180818B7F9E
:100A4000808388818160888342E060E080E00E944A
:100A5000B304F60180818E7F8083F80180818160FC
:100A60008083808188608083F70180818E7F80838E
:100A7000888180618883CDB7DEB7E8E00C94E327F6
:100A8000FC018091C9029091CA0286179707A0F0D5
:100A90006115710529F49091E8009E779093E80024
:100AA00090E06115710551F4911108C08091E80042
:100AB00082FF34C080E00895BC01F2CF8091C10272
:100AC0008823C1F18530C1F18091E80083FD30C0F9
:100AD0008091E80082FDEACF8091E80080FFE1CFBD
:100AE0008091F3002091F200382F6115710519F003
:100AF0002830310558F091E02830310509F090E0B8
:100B00002091E8002E772093E800CBCF819180934D
:100B1000F100615071092F5F3F4FE7CF8091C10213
:100B2000882341F0853041F08091E80083FFBECFFB
:100B300081E0089582E0089583E00895089580910A
:100B40009E0208952FB7F894809193029091940299
:100B5000A0919502B09196022FBF08952091900226
:100B6000309191022817390781F090939102809378
:100B70009002E0918E02F0918F02309731F0068062
:100B8000F781E02DBC0184E00995089520918C0245
:100B900030918D022817390781F090938D02809350
:100BA0008C02E0918E02F0918F02309731F0068036
:100BB000F781E02DBC0183E009950895E0918E0254
:100BC000F0918F02309729F00190F081E02D099586
:100BD000089580E00895FA01811101C0FB01099593
:100BE0000895089580918702982F9E7F29F481703F
:100BF00082608093870208958A34E8F38170886464
:100C0000F8CFAF92BF92DF92EF92FF920F931F93B4
:100C1000CF93DF93082F162FE901E42FF0E0EA5776
:100C2000FD4F611110C0E4915E2F4E2F4983E88380
:100C30005A83DF91CF911F910F91FF90EF90DF903A
:100C4000BF90AF900895E62EF12C4491D42EE42F5E
:100C5000F0E026E0829FC00111242FEF30E0B901BF
:100C60000E943527802F90E0880F991F55E5569FE9
:100C7000D001579FB00D11248A1B9B0B982F990F01
:100C8000890F5901AE18BF08AE9ED001AF9EB00DBE
:100C9000BE9EB00D11245B2F189F80011124012FDF
:100CA00011275901A01AB10AAE9E8001AF9E100D06
:100CB000BE9E100D11245901A81AB108AE9CC001A6
:100CC000AF9C900DBE9C900D1124892F9927281B55
:100CD000390B2E9FC0012F9F900D3E9F900D112428
:100CE000E92F62307105A1F050F46115710509F426
:100CF0009DCF6130710581F0EB2F512F97CF64307C
:100D0000710569F080F06630710509F48FCFF4CF7A
:100D1000E42F4B2F592F8ACFE42F412F87CFEB2F72
:100D2000542F492F83CF4B2F5D2DE12F7FCF0E9472
:100D3000A2059C019091570280915802982B21F0B6
:100D400030935402209353029091590280915A0299
:100D5000982B21F03093520220935102E0918E02A1
:100D6000F0918F02309749F082E080935502048021
:100D7000F581E02D85E592E00995089540915702AF
:100D8000803F59F48091580287FF0DC0109258029D
:100D900041110BC010924F0208C0813F81F4809135
:100DA000580218169CF3442381F0809159029091C7
:100DB0005A02892B09F05AC010924E020895823FC0
:100DC00049F447FFF0CF10925702809158028111E9
:100DD000ECCFE0CF833F19F41416ACF3E4CF90913D
:100DE0005902893F29F41916F4F610925902DBCF03
:100DF0008A3F19F497FFD7CFF8CF90915A028B3FD3
:100E000029F497FFD0CF10925A02CDCF8C3F19F41E
:100E10001916CCF3C8CF9CE0980F953090F4845FFE
:100E2000990B21E030E0B90102C0660F771F8A9567
:100E3000E2F7CB0180959091560289238093560268
:100E4000B2CF8D3F31F4809150028E7F809350025B
:100E5000AACF8E3F21F4809150028D7FF7CF8F3F34
:100E600009F0A1CF809150028B7FF0CF089580913F
:100E7000500280FD16C081FD16C082FD16C0809113
:100E80004E028823A1F0883280F428E0829FC001BE
:100E9000112468E270E00E944927862F672B39F001
:100EA000089582E0089584E0089588E0089581E03F
:100EB00008958091500280FD14C081FD14C082FD10
:100EC00016C080914F02882381F08E3180F420E596
:100ED000829FC00111246EE170E00E944927862F95
:100EE000089584E1089588E2089588E0089580E5F2
:100EF0000895803F31F40E945907819580935802EC
:100F00000895813F19F40E945907F8CF823F31F4C8
:100F10000E9459078195809357020895833F19F4E1
:100F20000E945907F8CF893F29F40E943707809320
:100F3000590208958A3F21F40E9437078195F7CF1F
:100F40008B3F31F40E943707819580935A020895B0
:100F50008C3F19F40E943707F8CF9CE0980F95302A
:100F600070F4845F990B21E030E001C0220F8A9574
:100F7000EAF780915602822B8093560208958D3FA6
:100F800031F48091500281608093500208958E3F29
:100F900021F4809150028260F7CF8F3FB9F78091A2
:100FA00050028460F1CF80E00895F894E82FE29534
:100FB000EF70F0E031A1282F2F7081E090E001C0A8
:100FC000880F2A95EAF7982F9095932391A392A1E1
:100FD000892B82A3789408959091970292FF06C07E
:100FE000282F28712830F9F4877F846093FF06C08A
:100FF000282F28712831F1F4877E8461209198028E
:1010000020FF06C0382F38713830D9F4877F8160CF
:1010100021FF06C0282F28712831D1F4877E8161F5
:1010200094FD877E0895282F24712430F9F68B7F54
:101030008860DCCF282F2471243101F78B7E8861F2
:10104000DDCF382F3171313019F78E7F8860E0CFD6
:10105000282F2171213121F78E7E8861E1CFCF9336
:10106000DF93EC0182389105B1F108F040C0813383
:10107000910509F49DC048F58932910509F48DC0A8
:101080008A9709F49CC0C11521E5D20708F0C3C0B6
:10109000C11530E5D30708F01EC1C83ED10508F0E0
:1010A000A3C0C13ED10588F5C83AD10508F08EC06D
:1010B000C53AD10508F007C1C130D10531F12097FB
:1010C00021F1C430D10508F545C08533910509F4F7
:1010D0005FC0C997C1F680919702837009F043C140
:1010E0008091980283FF11C0C9E2D0E00EC0833E18
:1010F000910599F170F4803E910501F1823E9105D0
:1011000011F68091970282FD21C0CE01DF91CF912F
:101110000895863E910561F1873E910571F1843E07
:10112000910509F0B0CF8091980281FFEECF8091B8
:101130009702C7EED0E084FD0DC0E7CF8091970203
:1011400080FD33C09091980290FFDFCFC3EED0E0D6
:1011500084FFDBCFD0E0C0E0D8CF8091970282FD42
:10116000FFC09091980290FDFEC084FFCECFF2CFD9
:101170008091970283FDDDCFC8CF8091970283FDD8
:10118000F5C09091980291FFF0CFC4EED0E0BDCFB2
:101190008091970285FFB9CFA7CF8091970285FDF7
:1011A000E8C08091980283FFB0CFC9E3D0E0ADCF13
:1011B0008091970286FFA9CFCAE2D0E0A6CF8091A6
:1011C000970286FFA2CFC1E3D0E09FCFCF3BD105EE
:1011D00008F6C85AD0E0CC0FDD1FCE5DDE4F099077
:1011E000D881C02DD46491CFC11540E2D40758F402
:1011F000C11581E0D80708F088CFC03FD10508F4B9
:10120000A9CFD06582CFC11520E4D20708F4A2CFC0
:10121000DF70D06A7ACFC11535E5D30718F5C1154F
:1012200044E5D40708F084C0C11583E5D80708F069
:101230006BC0C11522E5D20708F461C0CE018370EE
:10124000992721E030E002C0220F331F8A95E2F790
:10125000C695C69580E2C89FE0011124C22BD32B0E
:10126000DC6853CFC11539E5D307A8F4C11548E5AB
:10127000D40708F062C0C11586E5D80708F06ACF28
:101280008C2F0E94EC07C82FD0E0DC2FCC27CC2776
:10129000DF71D0623ACFC1152AE5D20708F452C0F7
:1012A000CE0190568115904208F054CF8D2F8F714A
:1012B0000E94EC0790E0982F882788279F719C0157
:1012C0002C2BE901E6CFC55AD0E0C15EDE4FC881C4
:1012D000D0E0D0641ACFCE018370992721E030E0AE
:1012E00002C0220F331F8A95E2F7C695C69540E2E9
:1012F000C49FE0011124C22BD32BDD6806CFDC2F65
:10130000CC27C16FD06A01CFCE018370992721E02D
:1013100030E002C0220F331F8A95E2F7C695C695CA
:1013200040E2C49FE0011124C22BD32BDA68EDCE3A
:10133000DC2FCC27C46FD06AE8CEDC2FCC27C06F5F
:10134000D06AE3CE8C2F8F700E94EC0734E0D695E4
:10135000C7953A95E1F7CF709C2FEC01D069D5CEB7
:10136000C2EED0E0D2CEC0EED0E0CFCEC6EED0E01E
:10137000CCCEC5E3D0E0C9CE809128028111109275
:101380002802089580959091270298239093270230
:10139000089590911E019923D1F09091970297FFA3
:1013A00016C0E82FE695E695E695EE31E0F4F0E01C
:1013B000EC56FE4F282F277081E090E001C0880F87
:1013C0002A95EAF780959281892382830895E6E938
:1013D000F1E09191891303C0DF0111971C9291E014
:1013E000EC39F907B1F7089590911E019923C1F0E6
:1013F0009091970297FF14C0E82FE695E695E69541
:10140000EE31F8F4F0E0EC56FE4F877021E030E06A
:1014100001C0220F8A95EAF78281822B8283089588
:10142000A6E9B1E0EFEF90E02D91821751F0EF3F88
:1014300019F4211101C0E92F9F5F9630A9F7EF3F02
:1014400009F408950E2E000CFF0BEC56FE4FE6CF6C
:10145000809104029091D301981301C008958F5F89
:101460008770FACF973078F5863068F5E82FF0E08E
:1014700086E0989FE00DF11D11249E2F977083E068
:10148000F695E7958A95E1F7EE0FFF1FEE0FFF1F28
:10149000EB54FE4F50E040E080E0219130E0092E17
:1014A00002C0369527950A94E2F721703327042E5F
:1014B00001C0220F0A94EAF7822B4F5F5F4F44303E
:1014C000510559F7089580E00895973098F58630D2
:1014D00088F5E82FF0E086E0989FE00DF11D1124DB
:1014E0008E2F877041E001C0440F8A95EAF783E0B0
:1014F000F695E7958A95E1F7EE0FFF1FEE0FFF1FB8
:10150000EB54FE4F30E020E070E05191DF01119785
:10151000CB01022E02C0969587950A94E2F781705E
:1015200081958527842385278C932F5F3F4F243017
:10153000310559F708958093990270939B02609347
:101540009A028091C1028430F9F48093E9008FEF10
:101550009091E800815095FD06C095ED9A95F1F7C0
:1015600000008111F5CF8091E80085FF0DC050E0AB
:1015700040E063E070E089E992E00E946A048091B3
:10158000E8008E778093E80008959C0184E08093C2
:10159000E9009FEF8091E800915085FD06C085ED40
:1015A0008A95F1F700009111F5CF8091E80085FF51
:1015B0000CC050E040E066E070E0C9010E946A049F
:1015C0008091E8008E778093E8000895CF93DF93B1
:1015D000EC0180911E018823B1F18091970287FF71
:1015E00032C060E284E08093E9008FEF9091E800E0
:1015F000815095FD06C095ED9A95F1F70000811197
:10160000F5CF8091E80085FF1BC080911E0170E03E
:1016100050E040E0811104C050E040E068E070E03C
:10162000CE010E946A048091E8008E778093E800E2
:1016300080E2FE01AFE9B2E001900D928A95E1F7F8
:10164000DF91CF91089568E081E0CDCF81E0809374
:10165000E00080E28093D8001092C9008FE19EE400
:101660000197F1F700C0000087E090EBDC01809368
:10167000D1029093D202A093D302B093D40288E116
:101680009CE00FB6F894A895809360000FBE9093ED
:101690006000FFCF8091870280FD0AC0E6E6F2E09D
:1016A000118210821282339652E0E738F507C1F7B3
:1016B000539A3BB1377F2BB128604FB7F89486E639
:1016C00092E0FC015191CF0168E02BB9000000C00D
:1016D00057FF3BB9550F000000C000C000C03BB928
:1016E00000C06A9591F7F2E087389F0751F74FBF26
:1016F0008FE594E00197F1F700C000000895EF92A4
:10170000FF920F931F93CF93DF938C01C6E6D2E035
:10171000F12CE12CF801948160918902809188027A
:10172000F5E0EF16F104ECF49923E9F09E01409105
:101730008A020E9401062FEFE21AF20A23968BE03A
:10174000E816F10439F70E944A0BF801848190E011
:101750000196817099278483CDB7DEB7E6E00C94BB
:10176000E527992319F39E0140E0E3CFB0E0A0E024
:10177000ECEBFBE00C94C327EC014C81042F10E050
:101780009801D8010E9494279B01AC010E94AA27CE
:101790004B015C01E0E2F0E0E01BF10BA5E5B0E0FD
:1017A000AC019B010E94AA276B017C019F01DF0114
:1017B0000E948C279B01AC010E94B5279B01AC01C4
:1017C000280D391D4A1D5B1DC701B6010E945D270A
:1017D000F22E822F90E039E23F1598F143E0249FEA
:1017E0009001112435952795122F109596E6C92E54
:1017F00092E0D92E00E085E5E82EEF188E2D01FD50
:101800008F2D9601412F609189020E9401060F5F82
:1018100053E0C50ED11C0B3089F70E944A0B9C8106
:1018200081E0992319F0903219F48FEF80931D0114
:1018300080911D01890F8C83CDB7DEB7ECE00C944D
:10184000DF2725E530E0A901481B590BCA019A01A1
:10185000220F331F280F391F37FFC4CF2F5F3F4F91
:10186000C1CF0F931F93CF93DF93C6E6D2E0FE0163
:10187000118210821282339682E0E738F807C1F7AE
:1018800010E000E080916402082E000C990B08170C
:1018900019078CF180911C01082E000C990B801700
:1018A00091074CF19E0140918A02609189028091DA
:1018B00088020E9401060F5F1F4F23960B3011050F
:1018C00009F70E944A0B80911B0190916402980FC6
:1018D0009093640220911C01280F20931C01121682
:1018E00014F49A301CF0819580931B01DF91CF9105
:1018F0001F910F910895198218821A82DCCFB0E0EF
:10190000A0E0E5E8FCE00C94C627FC018281DD2420
:10191000DA9480FD02C0DD24D39406E612E0D0E024
:10192000C0E02BE0B22EF80111821082128294E006
:10193000E92EF12CC12C809163028C0D8C30C4F106
:101940006B2D0E942727892F082E000C990B8C17CE
:101950009D0791F480918A028E9DA0018F9D500D6C
:1019600011245595479555954795980160918902A1
:10197000809188020E940106CD0CF1E0EF1AF10877
:10198000D1F621960D5F1F4FCB30D10561F60E9435
:101990004A0B8091630291E0D91210C081110CC0F2
:1019A0008AE080936302CDB7DEB7E9E00C94E227CA
:1019B00087FFCACF855FC8CF8150F3CF90E00196F3
:1019C000BE010E944927EDCFEF92FF921F93CF9364
:1019D000DF93EC0186E6E82E82E0F82E10E08C81A1
:1019E000970140918A0260918902810F0E9401064D
:1019F000195E83E0E80EF11C1D3F89F70E944A0B37
:101A00009A818C8190FF08C08F5F8C83DF91CF918A
:101A10001F91FF90EF9008958150F7CF909187022A
:101A200090FF0CC0E6E6F2E0818360834283339648
:101A300092E0E738F907C1F70E944A0B0895A3E046
:101A4000B0E0E5E2FDE00C94CB278C0180916502CB
:101A500081110AC09E012F5F3F4F4FEF6FEF0E9431
:101A600001068A8180936502F8016481613069F022
:101A70008091650240E0662361F040E0623011F43D
:101A80004091650280E060E004C06091650240E042
:101A900080E00E940E0DF801848190E0019663E0E1
:101AA00070E00E94492784832396E4E00C94E727A2
:101AB000A3E0B0E0EEE5FDE00C94CD279091870225
:101AC00090FF0AC09E012F5F3F4F0E9401064B818D
:101AD00069818A810E940E0D2396E2E00C94E92729
:101AE000CF93DF93EC01E7E8F2E0438162818C81E0
:101AF0000E94580D8C818F5F8C83DF91CF91089568
:101B0000CF93DF93EC01EC81F0E0E557FC4F44917B
:101B1000E7E8F2E0628181810E94580D8C818F5F3D
:101B20008C83DF91CF910895CF93DF93CBE1D3E006
:101B300060E0CE010E9414282196C11584E0D807E8
:101B4000B9F7DF91CF9108951F93CF93DF93122FB1
:101B50008930E0F46730D0F44630C0F4C42FD0E0D0
:101B6000CC0FDD1F9CE0699FC00DD11D112494E5B1
:101B7000899FC00DD11D1124632FCE0187960E942D
:101B80001428612FCE0188960E941428DF91CF91EE
:101B90001F910895B0E0A0E0E0EDFDE00C94C627B1
:101BA0009BE8C92E94E0D92E10E000E07601B12C1C
:101BB0001AC008301105D1F0FE01EE0FFF1FEE0D27
:101BC000FF1D259134914C2F6B2D802F0E94A40D69
:101BD0002196C630D10569F78CE0E80EF11CB3946C
:101BE00087E0B81649F0D0E0C0E0E3CF21E030E074
:101BF0004C2F6B2D88E0EACF0F5F1F4F84E5C80E96
:101C0000D11C0930110591F6CDB7DEB7E9E00C948F
:101C1000E227CF93C82F6FEF811162E283E290E059
:101C20000E9414286FEFC11169E084E290E00E94E5
:101C300014286FEFC11166E185E290E00E9414283C
:101C4000CF91089580E00E94090E60E086E290E066
:101C50000E9414280E94CA0D0E94940D81E00E94E7
:101C6000090E08950F931F93CF93DF93893030F5BA
:101C7000673020F5463010F5C42FD0E0CC0FDD1FC3
:101C80002CE0629FC00DD11D112434E5839FC00D4F
:101C9000D11D1124CE0187960E940028082F10E044
:101CA000102F0027CE0188960E9400289801282B2B
:101CB000C901DF91CF911F910F91089590E080E0CD
:101CC000F8CF462F893040F4773030F4663020F476
:101CD000672F0E94320E089590E080E00895B0E0F2
:101CE000A0E0E5E7FEE00C94C6277C010091CB0262
:101CF0001091CC028091290290912A02082B192B75
:101D0000CFE0D0E0CC24C394D12CBC2EC6010C2E45
:101D100002C0880F991F0A94E2F780239123892B30
:101D200049F4219790F7B12C8B2DCDB7DEB7E9E0C0
:101D30000C94E227B7018C2F0E94610E0E942F089D
:101D4000019779F3F1CFCF93DF93EC010E946F0EEF
:101D5000BE010E94610E0E942F08DF91CF9108956D
:101D6000FC0183819481892B29F0808191818923D1
:101D70008F3F51F480E00895843FE1F717C0883E1B
:101D8000A8F0813FB9F712C0808191810E94A30E13
:101D900092959F70963099F358F4925F9F709230AD
:101DA00048F7803F19F040F7883E20F781E008951A
:101DB0009A5FF4CF83E290E00E940028823289F497
:101DC00084E290E00E940028893059F485E290E096
:101DD0000E94002891E0863109F090E0892F8170FF
:101DE000089580E0FCCFCF9384E090E00E9400282B
:101DF000C82F82E290E00E940028982F8C2FCF916C
:101E0000089560918702669570E04BE050E080E1B4
:101E100091E00E947329892B19F481E0809362027A
:101E20000E94A20590935C0280935B020895CF927A
:101E3000DF92EF92FF926B017C010E94F205B701E5
:101E4000A60188E090E00E942628FF90EF90DF90A6
:101E5000CF900895A3E0B0E0E0E3FFE00C94C0274A
:101E6000F82E762EE42E622E9091870290FF29C0E4
:101E7000E92FE695AE2FB0E0A35ABE4F8C91809328
:101E800061029E7F923009F59E012F5F3F4F8F2D9B
:101E90000E9401064B8169818A810E940E0DF09299
:101EA000880270928902E0928A02662051F0609165
:101EB0008702709188028091890290918A020E9423
:101EC000170F2396EFE00C94DC27823019F4E09092
:101ED0008A02E5CF863019F4F0908802E0CF89308D
:101EE000D9F38931E1F6E9518E2F8170582EE695AC
:101EF000F0E0EA57FC4FE4910E2F10E086E6C82E82
:101F000082E0D82EB12CA12C9BE0892E912CC5010A
:101F1000B4010E9435278F2D511013C0860F9601F2
:101F20004E2D672D0E940106A00EB11E83E0C80E43
:101F3000D11C87E8C81682E0D80649F70E944A0BF0
:101F4000AECF861BECCFE7E8F2E0438120E1421BF5
:101F500008F440E021E0628181810E942A0F089507
:101F6000E7E8F2E0438120E1420F08F44FEF21E07F
:101F7000628181810E942A0F0895E7E8F2E0628180
:101F800020E1621B08F460E021E0438181810E942E
:101F90002A0F0895E7E8F2E0628120E1620F08F479
:101FA0006FEF21E0438181810E942A0F0895E7E8C5
:101FB000F2E0818121E04381628180510E942A0FF9
:101FC0000895E7E8F2E0818121E043816281805F4A
:101FD0000E942A0F089580918B02882319F0815066
:101FE00080938B02609187027091880280918902B0
:101FF00090918A020E94170F089580918B0283307E
:1020000018F48F5F80938B02609187027091880231
:102010008091890290918A020E94170F08959091F1
:10202000870290FF2CC0917081112AC0926090931A
:102030008702662351F06091870270918802809137
:10204000890290918A020E94170F6091870266951B
:1020500070E04BE050E080E191E00E947329892B11
:10206000B1F01092620281E080935E0220E0409124
:102070008A0260918902809188020E942A0F089545
:10208000853210F09864D3CF880F982BD0CF0E9460
:10209000010FE9CF809187028695815009F484E28F
:1020A00061E00E940F1008958091870286958F5FEE
:1020B000853208F081E061E00E940F100895909150
:1020C000870290FF08C09695981728F0961718F485
:1020D0000E945410089561E00E940F100895E7E8EF
:1020E000F2E083E0808311828FEF82838383148206
:1020F00060817181828193810E94170F0895A7E00A
:10210000B0E0E5E8F0E10C94BD278E010F5F1F4FB2
:1021100087E0D8011D928A95E9F7E0E5CE2EE1E04F
:10212000DE2EF12CE12CAA24A394B12CF60181918E
:102130006F018F3F09F443C0F894E82FE295EF70E8
:10214000F0E021A18F70A50102C0440F551F8A95B0
:10215000E2F7CA01922F982B91A392A1809589232F
:1021600082A3789400C0E7E5F1E0912C31E0219161
:102170002F3F09F4BFC0A22FA295AF70B0E0909698
:102180008C9190E02F7002C0959587952A95E2F783
:1021900080FDB0C0832F982A330F51E0ED35F5074D
:1021A00031F7F601319780818F3F11F00E94D507FA
:1021B00080EA8A95F1F7F801EE0DFF1D9082AFEFEE
:1021C000EA1AFA0AB7E0EB16F10409F0AFCF47E0DC
:1021D00050E0B80182E392E00E9480297C01892BC3
:1021E00041F087E0F801A2E3B2E001900D928A95F8
:1021F000E1F710922F0210912E02112309F4A2C0D0
:102200000E94A20520912C0230912D02FC01E21BBC
:10221000F30B9F0190932D0280932C02EF3FF10569
:1022200011F008F069C0EF2B09F460C0622E4091F4
:1022300030025091310210922E0210922B02E7E4EC
:10224000F2E062E3262E62E0362E6A018AE2C80ED0
:10225000D11C00E0512C712CAA24A394B12C90E045
:1022600080E0BA01680F791FDB019C90892CE8940B
:1022700080F8882039F1892C8694B92DB1709B2E75
:102280008216130609F0DCF5DB019C9291103EC02A
:102290009080B501082E01C0660F0A94EAF7762FE8
:1022A00070957921D1018C906821672B792D762743
:1022B000852C912C872A552453948114910409F478
:1022C000512C608301968630910559F64A5F5F4F25
:1022D0003196BFEF2B1A3B0AC416D50609F0BFCFC3
:1022E00070922E0250922F0200932B02E114F104FF
:1022F000C1F52BC080E04FCF2FEF30E097CF86188D
:10230000880C9828DB019C92712EDCCF012FDACF4C
:10231000772021F040FD02C041704C932F5F3F4F6A
:1023200026303105E9F5069631960817190769F543
:1023300050932E0280922F0280912F022796E2E185
:102340000C94D927E114F10431F480912B028823F5
:1023500099F3111106C00E94A20590932D0280935B
:102360002C02809130029091310250912E02809087
:102370002F0222E3422E22E0522EE7E4F2E08C010B
:10238000065D1F4FEE24E394F12CD2019D902D01A8
:102390002081922630E020E06D01B1E0CB1AD10817
:1023A000BC01620F731F5701022E02C0AA0CBB1C96
:1023B0000A94E2F7DB014C91742EE89470F8692CD2
:1023C0006A2009F4A5CF7110A9CFD6015C915A21DA
:1023D00041E009F440E04A60DB014C9340FF05C056
:1023E0004081A426A0828824839451E097CF8091D5
:1023F000270290912602892B8093940190912802C4
:102400009923A1F0892B8093940180911E01882348
:10241000E1F18091970287FF38C08EE1E6E9F1E0B3
:1024200090E08150A0F591110E94BC0940E250E07B
:1024300066E072E084E991E00E948029892B21F115
:1024400080E2E4E9F1E0A6E0B2E001900D928A9525
:10245000E1F7E0918E02F0918F023097A9F0809120
:102460001E01882359F08091970287FF07C0809151
:1024700094018093950186E0809394010280F3811A
:10248000E02D84E991E00995089586E0C7CF219178
:10249000222339F29F5FC5CF90E080E00E94C605FD
:1024A00090E080E00E94AE05109226020E94F71193
:1024B00086E0E5E5F2E0DF011D928A95E9F71092EA
:1024C0004F0210924E02109250020E9497060895F9
:1024D0009093CC028093CB020E944C12089580917D
:1024E000CB029091CC029C01267033272630310517
:1024F00021F488600E9468120895877FFBCF21E055
:1025000030E002C0220F331F8A95E2F72095309504
:102510008091CB029091CC02822393230E94681277
:102520000895909105028095892380930502282FB4
:10253000277091F4282F082E000C330B92171306E6
:1025400059F09091980292FF07C0859585958595E1
:102550000E947F12109205020895CF93C0919802B5
:10256000C2FB992790F9981791F080FBC2F9C093AC
:1025700098026091970284E090E00E9414286C2FEA
:1025800082E290E00E94142882E00E949112CF9192
:10259000089521E030E002C0220F331F8A95E2F750
:1025A0008091CB029091CC02822B932B0E946812D7
:1025B000089590932A02809329020E944C12089554
:1025C000882321F00E94C2090E94F71108958823F0
:1025D00039F090912702982B909327020E94F711CF
:1025E0000895882309F455C0823879F40E94DE05E5
:1025F00081FF4FC089E30E94F4090E94F71189E32B
:102600000E94C9090E94F7110895833859F40E9465
:10261000DE0580FF3EC083E50E94F4090E94F711A9
:1026200083E5EECF843859F40E94DE0582FF31C085
:1026300087E40E94F4090E94F71187E4E1CF9CEF40
:10264000980F913AE8F290E2980F983050F4877022
:1026500091E001C0990F8A95EAF7892F0E94C2097B
:10266000D1CF9BE5980F933028F490E080E00E9452
:10267000C605089598E5980F973128F490E080E01A
:102680000E94AE050895803F20F00E94BE060E9481
:1026900097060895CF93C82F8823C9F08238C9F4CC
:1026A0000E94DE0581FD13C089E30E94F4090E94A7
:1026B000F7112FEF87EE93E0215080409040E1F733
:1026C00000C0000089E30E94C9090E94F711CF9160
:1026D00008958338A1F40E94DE0580FDF8CF83E5DC
:1026E0000E94F4090E94F7112FEF81EE94E021502F
:1026F00080409040E1F700C0000083E5E4CF8438DB
:10270000A1F40E94DE0582FDE2CF87E40E94F40975
:102710000E94F7112FEF81EE94E02150804090400D
:10272000E1F700C0000087E4CECF8CEF8C0F813A38
:1027300088F580911E01882301F18091970287FF1F
:102740001CC0EC2FE695E695E695F0E0EC56FE4FC2
:10275000828190E04C2F477021E030E002C0220FD0
:10276000331F4A95E2F782239323892B79F08C2F2C
:102770000E94C9090E94F71109C0E6E9F1E08191C0
:10278000C817A9F321E0EC39F207C9F78C2F0E9492
:10279000F4099BCF80E28C0F883068F4C77021E089
:1027A00030E001C0220FCA95EAF780912702822B00
:1027B000809327028ACFEBE5EC0FE33040F4F0E0A2
:1027C000E15EFE4F808190E00E94C60580CFE8E583
:1027D000EC0FE73150F4F0E0EE0FFF1FEE5DFE4F1F
:1027E000808191810E94AE0572CFC03F08F46FCF07
:1027F0008C2F0E9479070E94970669CF1F93CF9371
:10280000DF93182FEB010E944A13209739F4812F90
:102810000E94F112DF91CF911F9108958FE99FE0FF
:102820000197F1F700C000002197EFCF68EE7EEF2F
:1028300090E080E00E94322860E082E090E00E9418
:10284000142860E083E090E00E94142810922A028D
:102850001092290260E084E090E00E94142864E075
:1028600082E290E00E94142860E085E090E00E94FF
:10287000142860E086E090E00E9414286FEF87E063
:1028800090E00E94142840E050E0BA0188E090E017
:102890000E94262860E08DE090E00E94142840E02D
:1028A00050E0BA0188E190E00E94262860E087E1CC
:1028B00090E00E94142840E050E0BA018CE190E0E2
:1028C0000E94262870E060E080E290E00E943228BA
:1028D00040E050E0BA0188E190E00E94262880E0C4
:1028E0000E94090E0E94220E40E050E0BA018FE0E3
:1028F00090E00E94262840E050E0BA0183E190E099
:102900000E94262808951092270280911E01E6E970
:10291000F1E0882361F08091970287FF08C08EE183
:10292000DF011D928A95E9F70E944C12089586E016
:10293000F7CFAAE2B0E0EFE9F4E10C94CC2783EC06
:1029400092E02091F100DC012D93CD01B2E08B3CAF
:102950009B07B9F78091C402833009F472C0B8F4C0
:10296000813009F449C0823009F4B3C08091E80095
:1029700083FF8BC28091C3029091C4029A3008F009
:1029800084C2E92FF0E0E157F64D0C947F278A309E
:1029900009F48EC08B3009F471C0893039F7809109
:1029A000C302813219F78091C7029091C802009743
:1029B00011F00297D9F68091E800877F8093E800B4
:1029C0008091E80082FF38C09091F3008091F2007E
:1029D000029731F48091F100813011F0863021F4BA
:1029E0008091F10080939E028091E8008B77809324
:1029F000E8000E949404BACF8091C302813A09F0A2
:102A0000B5CF8091E800877F8093E8008091C7026E
:102A10009091C802892B61F460E28FE992E070E046
:102A20000E9440058091E8008B778093E8009ECF5C
:102A300060E090E080E0F3CF8091C1028111C0CFCF
:102A400095CF8091C302813A09F090CF8091C7025F
:102A50009091C802892B09F089CF8091E800877F87
:102A60008093E8008091E80080FFFCCF80911E01F8
:102A70008093F1008091E8008E77B9CF8091C302F6
:102A8000813209F073CF8091C7029091C802892BDF
:102A900009F06CCF8091E800877F8093E8000E9466
:102AA00094048091C50280931E010E9483145ECF1E
:102AB0008091C302813209F059CF8091E800877F6D
:102AC0008093E8000E9494048091C60280939D0246
:102AD0004DCF8091C302813A09F048CF8091E80040
:102AE000877F8093E8008091E80080FFFCCF809191
:102AF0009D02BECF803899F0823809F0C6C180911E
:102B0000C7028F70873008F0C0C18093E9008091C0
:102B1000EB0085FB882780F91092E90006C08091C0
:102B2000BF029091C002911182609091E800977F5E
:102B30009093E8008093F1001092F1008091E800FA
:102B40008E779FC1882309F48DC1823009F09DC121
:102B50008091C502811190C18091C7028F702FEFC3
:102B6000280F263008F091C18093E9002091EB00F6
:102B700020FF82C1933031F48091EB00806280931A
:102B8000EB007AC19091EB0090619093EB0021E013
:102B900030E001C0220F8A95EAF72093EA001092F4
:102BA000EA008091EB008860EACF81116EC110913C
:102BB000C5021F778091E3008078812B8093E3002A
:102BC0008091E800877F8093E8000E9494048091C0
:102BD000E80080FFFCCF8091E30080688093E300F1
:102BE00082E0111183E08093C1024FC1805882308E
:102BF00008F04BC12091C5023091C6022C3DE3E0A4
:102C00003E07A1F583E08A838AE289834FB7F8946F
:102C1000DE01139620E03EE051E2E32FF0E0509316
:102C20005700E49120FF03C0E295EF703F5FEF7023
:102C30008E2F90E0EA30C0F0C7968D939D932F5F62
:102C4000243159F74FBF8091E800877F8093E800D7
:102C50006AE270E0CE0101960E9440058091E80092
:102C60008B778093E80011C1C096E7CF8091C702AF
:102C70009091C802432F55274330510509F44AC0AB
:102C800078F54130510509F47AC08BE590E0EBE22C
:102C9000F7E04230510509F0F8C02091E800277FA5
:102CA0002093E8002091C9023091CA02821793074D
:102CB00008F49C0140E02115310509F065C041117F
:102CC00063C08091E80082FDC9CF8091C102882352
:102CD00029F2853019F28091E80083FFF2CFBECF50
:102CE0004132510509F43CC04232510509F0CDC0D2
:102CF0008330910508F0C9C0FC01EE0FFF1FEB57B0
:102D0000FE4F0190F081E02D8E579E4FDC018C919B
:102D100090E01AC0332721303105D1F0211531055B
:102D200061F02230310509F0B0C0E8E9F7E0E49144
:102D30008E2F90E0E8E9F7E007C0ECEBF7E0E491D4
:102D40008E2F90E0ECEBF7E0009709F49EC0A5CF42
:102D5000EEEAF7E0E4918E2F90E0EEEAF7E0F4CFB0
:102D60008330910508F091C0880F991FFC01E55749
:102D7000FE4F0190F081E02D89E090E08ECF82E15E
:102D800090E0E6E8F7E089CF8091C102882309F45A
:102D900065CF853009F462CF8091E80083FD5ECF76
:102DA0008091E80082FD8DCF8091E80080FF83CF85
:102DB0009091F3008091F2002115310519F08830CF
:102DC000910550F041E0089709F040E08091E8005B
:102DD0008E778093E8006FCF44914093F100319655
:102DE000215031090196E8CF803809F04EC080911A
:102DF000E800877F8093E8008091C2028093F10011
:102E00009DCE811142C01091C5021230F0F5809123
:102E1000E800877F8093E8001093C2020E94940428
:102E2000112311F084E005C08091E30087FDFACF03
:102E300081E08093C10242E061EC81E00E94B30432
:102E400042E261EC84E00E94B30442E261EC82E081
:102E50000E94B30442E260EC83E00E94B3048091DC
:102E6000C10213C08091C502813079F481E09330B2
:102E700009F080E08093C0021092E9008091E800A0
:102E8000877F8093E8000E9494048091E80083FF8C
:102E90000AC08091E800877F8093E8008091EB0072
:102EA00080628093EB00AA96E3E00C94E8270E94EE
:102EB00083142FEF84E39CE0215080409040E1F7A1
:102EC00000C0000088E19CE00FB6F894A8958093BC
:102ED00060000FBE90936000FFCFA5E0B0E0E3E795
:102EE000F7E10C94BE277C01FC0183819481892B3E
:102EF00031F08081918189238F3F09F045C6259665
:102F0000E1E10C94DA270E946F0E182F682F898157
:102F10009A810E94650A69817A81812F0E94610EDF
:102F20008C01F7018281882309F4BAC5C801825156
:102F30009F45409708F061C58FEF93E00E940028FD
:102F4000811126C002515BE1852E53E0952E0111BF
:102F500031C01C821B82442443944AE0342E8401F5
:102F60000F5F1F4FC4010E94002889831A828823A3
:102F700079F09FEF980F933058F58A83498232E0B9
:102F8000830E911CC8010E9400288B83811121C0EF
:102F900080910502877009F4B2CFF70182818823FE
:102FA00009F4ADCF8091980282FFA9CF82E00E9400
:102FB0009112A5CF8114F4E09F0651F3C4010E9441
:102FC0000028811101C001502FEF821A920ABFCF51
:102FD00048018E010F5F1F4FF8012081222309F461
:102FE000BECF213009F047C091818281913059F4E0
:102FF0000E5F1F4F70E060E0893311F460E570E010
:103000000E94FE1306C0923039F40E5F1F4F0E94DB
:103010004A130F5F1F4FE0CF933029F40E5F1F4F0D
:103020000E94F112F6CF943019F00F5F1F4FF1CFCD
:103030000E5F1F4F30E020E0B8016F5F7F4FF80157
:1030400041818053990B8A30910550F0215031090C
:1030500000F38FE99FE00197F1F700C00000F6CF81
:10306000329EF001339EF00D11249C012E0F3F1F64
:10307000842F8B01E1CFE22FF0E0EC50FE4F549013
:10308000822F86958695869590E0FC01EC51FE4F47
:1030900064902770712C022E02C0759467940A9474
:1030A000E2F7E1E06E227724FC01EC52FE4FA4909F
:1030B000B12C022E02C0B594A7940A94E2F7F1E075
:1030C000AF22BB24FC01EC53FE4FC490D12C02C0B4
:1030D000D594C7942A95E2F721E0C222DD24611439
:1030E000710419F081EE0E944A13A114B10419F081
:1030F00086EE0E944A1339E370E060E0531202C08A
:1031000060E570E0852D0E94FE13A114B10419F052
:1031100086EE0E94F1126114710419F081EE0E9492
:10312000F112C114D10409F474CF70E060E08CE2B4
:1031300067CF81E00E94C9120E946F1229CF81E0FF
:103140000E947F12F9CF82E0F5CF82E0F9CF053AF5
:10315000EDE51E0709F46AC4D0F401362DE5120727
:1031600009F464C40631FCE51F0709F008C2809128
:1031700027028A7A91E009F490E09093B4018111DA
:1031800027C189E20E94F4090E94F71101CFC8010A
:103190008D5A9D45039730F749C48091970280620C
:1031A0000730ECE51E07A9F1809197028061083095
:1031B000FCE51F0770F18091970280642AC00D30F2
:1031C0002CE5120709F4C2C080F40B308CE5180717
:1031D00009F4B4C0809197028C600C309CE519070B
:1031E000C0F0809197028D7F14C00F30ECE51E0770
:1031F00009F4BCC008F4AEC000312CE5120709F494
:10320000B9C0809197028F7B01313CE5130709F02B
:1032100037C48093970234C40F3F8CE5180709F434
:10322000B7C0A8F50A3FECE51E0709F479C0C0F461
:1032300004312CE5120709F4B9C008F4A5C0053122
:103240008CE5180709F01CC48091970282FB99272E
:1032500090F921E0922790FB82F990FB83F9D9CF76
:103260000C3F9CE5190709F479C008F45DC00D3FD7
:10327000FCE51F0709F476C08091980283600E3F39
:103280002CE5120709F0FCC380939802F9C30136BC
:103290003DE5130709F495C090F401309DE5190749
:1032A00009F48DC008F478C060E00230FDE51F0726
:1032B00009F0E6C38EE090E00E941428E1C30D3AC5
:1032C0002DE51207E9F060F4053A8DE5180709F0DD
:1032D000D7C390919702892F8E7F90FF816099CFFD
:1032E0000E3A9DE5190771F10F3AEDE51E0709F059
:1032F000C7C390919802892F877F93FF8860C4CFBE
:10330000809198028860C0CF80919702826081CFBF
:103310008091970284607DCF80919702886079CFF9
:10332000809198028160B0CF809198028260ACCF8A
:103330000E9483148091970280686BCF80919702DE
:103340008E7F67CF80919802877F9ECF8091970272
:103350008B7F5FCF80919702877F5BCF80919802B0
:103360008E7F92CF809198028D7F8ECF8091970231
:103370008F7E4FCF809197028F7D4BCF0E94831419
:10338000809197028F7745CF80919702837F41CFBD
:10339000809198028C7F78CF80919802982F909599
:1033A00091708E7F892B90FB81F96ECF0E948314E0
:1033B00090919702892F97FB87F980582ACF61E077
:1033C00079CF90919702892F8F7E94FF806121CFD2
:1033D00085E3D8CE8091B401811104C089E20E94B6
:1033E000C909D2CE85E3FBCF043C9CE5190709F45B
:1033F00093C047ED5FE061EE7FE0053CECE51E0722
:1034000009F07AC30E94EB05C3CD093CFCE51F0718
:1034100009F491C070F4073C3CE5130709F486C039
:103420004AEC5FE06DEB7FE0083C9CE5190751F347
:1034300063C30A3CECE51E0709F482C04BEE5FE073
:103440006DEF7FE00B3CFCE51F07E1F255C3013D4A
:103450002CE5120709F487C0B0F40E3C8CE5180780
:1034600009F47BC008F476C00F3CECE51E0709F4B4
:1034700077C06EE089E0003DFCE51F0709F03CC322
:103480000E945F1085CD043D2CE5120709F471C040
:1034900078F4023D8CE5180709F468C061E088E122
:1034A000033D9CE5190709F027C30E940F1070CD5A
:1034B000053DECE51E0709F45FC00D35100709F462
:1034C00067CD1AC38091870280FF1BC08E7F8093D7
:1034D00087026091870270918802809189029091A1
:1034E0008A020E94170F109262022FEF30E782E0EB
:1034F000215030408040E1F700C000000E944A0B9C
:1035000047CD81608093870261E08695CECF4AE403
:1035100050E164E570E176CF44E550E16AE470E1A2
:1035200071CF41EE5FE067ED7FE06CCF4DEB5FE088
:103530006AEC7FE067CF43EA5FE060EB7FE062CF59
:1035400040EB5FE063EA7FE05DCF4DEF5FE06BEE65
:103550007FE058CF61E081E0A8CF65E082E090CFC6
:1035600068E086E08DCF64E18FE08ACF67E185E196
:1035700087CF62E289E184CF61E083E296CF0A35AA
:103580009DE5190791F178F40115FCE51F07B1F0ED
:103590000E3D1C4509F0B0C26FEF7FEF90E080E078
:1035A0000E94322809C00C353DE51307A1F0F8F060
:1035B000073A1D4509F0A0C20E9457170E948314C4
:1035C000EFEFF4E32CE0E150F0402040E1F700C0E1
:1035D00000000E94260B8091980282FB882780F9C8
:1035E00091E089270E94AD1287C281E0FBCF80E085
:1035F000F9CFC8010E94320AD82E8DC2212F2F7018
:10360000C22E107F19F0C29490EFC922DD20B9F0CC
:10361000CC2069F080E2800F883010F0811009C062
:1036200080912702C82AC09227020E94F711802F9A
:103630004AC080912602C82AC0922602F6CF802F67
:103640000E94F112CC2009F440C0005E083010F056
:10365000811004C08C2D0E94C20906C0C0948091C4
:103660002602C822C09226020E94F7112EC0312FD6
:103670003F70C32E107F103219F0C29480EFC82221
:10368000882089F081E0881609F467C0DD2009F4FC
:1036900071C0BB2009F467C0F701858180FFC7CFE7
:1036A0008F70858360C02091980222FD34C0DD2098
:1036B00061F1CC2039F080912702C82AC0922702FC
:1036C0000E94F71180E00E944A13E92DE850FF0B99
:1036D000349710F40E94DE05AA2009F410CC8091E2
:1036E000050280FD0CCCF7011282859585958595A4
:1036F0000E94C912C7010E946D178091050285952D
:10370000859585950E947F12FACB80E00E94F11288
:10371000CC20D9F29FCFDD2099F0909128028C2DFA
:10372000892BB11003C00E94E712CFCFE1E0BE1297
:10373000FACF22FFCACF981741F280932802C5CF53
:10374000B11006C00E94BC098C2D0E94E012BDCFB2
:10375000F1E0BF1609F4B9CFF5CFDD2031F025E057
:103760002B1508F4B2CF8C2DDECF34E03B1508F4D6
:10377000ACCFEACFBB2041F3F9E38F1237C12FEF73
:1037800037EE83E0215030408040E1F700C0000078
:103790002DC1812F86958695837061F0813009F067
:1037A00094CFC8019370D11002C090E080E00E94D5
:1037B000AE058BCFC8019370D11002C090E080E0BD
:1037C0000E94C60582CF802FDD2029F00E94790754
:1037D0000E9497067ACF0E94BE06FACF812F83708F
:1037E00009F03FC0D11071CF402F429546954770E8
:1037F000440F440F802F8F7090E0042E02C0880F7A
:10380000991F0A94E2F730E020E004FF09C02FE09E
:1038100030E002C0220F331F4A95E2F72095309521
:10382000169516951370123099F078F4409129028C
:1038300050912A02113039F0822B932B8423952347
:103840000E94D91242CF842B952B822B932BF8CF39
:10385000822B932B2091290230912A0282279327D1
:10386000EFCF8695DD2011F0812F8170882309F438
:103870002CCF402F429546954770440F440F802F20
:103880008F7090E0042E02C0880F991F0A94E2F70F
:1038900030E020E004FF09C02FE030E002C0220F3A
:1038A000331F4A95E2F720953095169516951370BB
:1038B000123099F078F44091CB025091CC02113043
:1038C00039F0822B932B842395230E946812FDCE1E
:1038D000842B952B822B932BF8CF822B932B20912B
:1038E000CB023091CC0282279327EFCF1F70DD20CF
:1038F00029F0812F0E94C912802F15CF802F0E949E
:10390000E012812F0E947F12E0CE802F92EF891665
:10391000A1F1981570F0E0EF8E16D1F0F1EF8F164F
:1039200091F0DD2009F45DC0B11081CE812F8F713F
:1039300028C023EF821641F134EF8312F2CF809139
:10394000980282FD30C0812F8F71DD20D9F219C01D
:10395000DD2071F084E08B1508F4B7CE1F7181E093
:1039600090E0012E02C0880F991F0A94E2F7B7CFAA
:1039700095E09B1508F4A9CEF1CF812F8F71D1105E
:10398000C1CF0E94C912A1CE90E080E0DD2009F4F1
:103990009CCF1F7181E090E0012E02C0880F991F1B
:1039A0000A94E2F792CFDD2089F01F71812F0E94E7
:1039B000C9128091980282FF07C0E8E01E9FC001F3
:1039C0001124836080930502812FDBCF81E00E9468
:1039D0009112F1E0FB1508F078CE82E00E9491127E
:1039E00074CEBB2039F0893309F4C9CE802F0E94F0
:1039F000F1126BCE812F8F7185CF0031FFE51F074C
:103A000009F497CB01312FE5120709F49CCB033061
:103A10008DE5180708F09BCB0A3F9CE5190730F4A9
:103A2000C80182509C45449708F09CCB0E94F30E3D
:103A3000909398028093970202313CE5130709F4B2
:103A40009DCC08F0E9CB09309CE5190709F470CC4E
:103A500008F0B5CB0530FCE51F0709F45DCC08F094
:103A60009CCB03303CE5130709F44ECC08F050CC56
:103A700080919702816002309CE5190709F4C9CB57
:103A8000609197021091980284E090E00E941428BF
:103A9000612F82E290E00E9414280E94831478CA69
:103AA00000313FE5130709F44ACB01318FE51807D0
:103AB00009F44BCB0631FCE51F0709F48BCC809150
:103AC000270282720C3C2CE5120709F43ECD08F067
:103AD000BECC063C9CE5190709F423CD08F095CC33
:103AE000033CFCE51F0709F412CD08F07DCC023C35
:103AF0003CE5130709F4E6CCF701828100811181CE
:103B0000882309F476CDC8010E946F0ED82E682F45
:103B1000C8010E94650AB8018D2D0E94610E0E94A5
:103B20002F088C01882EF701D280B580B2943FE037
:103B3000B322809105028770C1F0AD2CDD20B1F079
:103B4000812F807F803421F080E2800F883068F000
:103B50008091980282FF09C082E00E9491128091B8
:103B600005028770AA24A3948111A12C912E92940E
:103B70002FE09222FBE0F91508F4A7CDE92DF0E043
:103B8000E756F64D0C947F2785E0DE0111960190F3
:103B90000D928A95E1F7F701228189819A8121119D
:103BA000B2C90E94320A182FB6C91F93CF93DF9370
:103BB0008091D201807F09F049C08091CF01882394
:103BC00009F444C080910402D091D3016091CD01E9
:103BD0007091CE01A091D001B091D101C62FC72321
:103BE00016E0D81799F190E0109711F0CF3F19F433
:103BF00001968770F6CF189F9001199F300D112400
:103C0000F901EC52FE4F41814713F2CF4081461338
:103C1000EFCF42814111ECCF438154814A1B5B0BB2
:103C2000483C510528F78091D2018F7080618093C4
:103C3000D201F901E752FE4F80818F70806180834D
:103C40008DEC91E00E946D170E94280ADF91CF91C0
:103C50001F910895A1E1B0E0E0E3FEE10C94C527D7
:103C60008C0185E0F801DE011D9601900D928A9588
:103C7000E1F7F801E2808DECA82E81E0B82E60918A
:103C8000D0017091D1016115710509F426C190919F
:103C9000CD014091CE01892F84238F3F09F41DC1AE
:103CA00020813181C380D480F090CF01F601E61BE2
:103CB000F70BFF2009F4DCC08091D201582F507F10
:103CC000E83CF10508F09FC051116BC0FE2C431376
:103CD00014C0921312C0E11010C08F7080618093E5
:103CE000D201C5010E946D178091D201F801858330
:103CF0008F2D6196EAE00C94E127C114D10429F0DC
:103D0000822F83238F3F09F003C180E0F82FF170E9
:103D1000DF2E80FF3CC0809104024091D30156E029
:103D2000841315C02D873E878D859E850E94A30E26
:103D3000292F22952F702230F0F0243018F59F7033
:103D4000F1F0F8019581907FD1F4D12C1EC090E064
:103D5000589FF001599FF00D1124EC52FE4F6181E4
:103D6000361306C06081261303C06281E6120FC0BD
:103D700001968770D5CF9F7011F0882331F3805E54
:103D8000883018F3C8010E946D17FD2CB1CFEE20CA
:103D900009F4AECF8091D20181608093D201F12CE1
:103DA000A7CF431306C0921304C0F801EE2009F414
:103DB00079C0C8010E94B00E882309F1EE20F9F005
:103DC0008091D201803270F02091CD013091CE01EE
:103DD00038872F831986DB86CA868C87CE010796A3
:103DE0000E946D1786E0F801ADECB1E001900D92F4
:103DF0008A95E1F70E94D51DFF24F39479CFC8017D
:103E00000E946D17F9CF51110AC08DEC91E00E940C
:103E10006D1786E0F50111928A95E9F7C0CF43133B
:103E20000FC092130DC0E1100BC0F8018583C801CB
:103E30000E946D1786E0F50111928A95E9F758CF37
:103E4000C8010E94B00E8823D1F2EE20C1F2809109
:103E5000D201803238F22091CD013091CE013A83E7
:103E600029831B82DD82CC828E83CE010196B8CF5E
:103E7000E83CF105F8F6FE2CEE2009F243131FC0D2
:103E800092131DC08091D20180FD10C0982F907FA9
:103E900069F0F8018583903F31F0982F907F905F13
:103EA0008F70892B8583C8010E946D1786E0F80109
:103EB000ADECB1E001900D928A95E1F719CFC80100
:103EC0000E94B00E81118ECF8091D20181608093CB
:103ED000D201C8010E946D170BCFEE2009F48FCFDD
:103EE000C8010E94B00EF82E882309F488CF86E01E
:103EF000F801ADECB1E001900D928A95E1F7809167
:103F0000CD019091CE010E94A30E0E94D51DF0CE4E
:103F100081E08E25FBCEA7E1B0E0E1E9FFE10C9462
:103F2000CC274B8B5C8B6D8B7E8B8F8B61111092B2
:103F300026021A8A198A85E0FE017396DE011D9613
:103F400001900D928A95E1F786E0FE013D96DE0133
:103F5000179601900D928A95E1F7CE0107960E947F
:103F60002A1E882359F016E0809104029091D30113
:103F7000891343C06796E3E00C94E82786E0FE01CE
:103F80003796DE01119601900D928A95E1F78A85A8
:103F90009B85892B41F38F81988589238F3F19F366
:103FA0002091D30130E0C901019687709927409193
:103FB00004024817190671F40E9483141092D30169
:103FC0001092040286E0EDECF1E0DF011D928A958B
:103FD000E9F7C9CF96E0929FD001939FB00D1124CD
:103FE000AC52BE4FFE01319601900D929A95E1F7C9
:103FF0008093D3010E94280AB6CF819FC00111246B
:104000008C529E4F0E942A1E882309F4B3CF8091C0
:10401000040290E001968770992780930402A4CF50
:1040200090E080E00E940E28883E9E4F19F40E9486
:10403000DA0E089580E008951F920F920FB60F9246
:1040400011242F933F934F935F936F937F938F939D
:104050009F93AF93BF93CF93DF93EF93FF93D09151
:10406000E900DF708091EC00C82FC17080FDC0E8CE
:104070001092E9008091F000877F8093F00078949F
:104080000E9499141092E9008091F000886080935A
:10409000F000CD2BCF70C093E900FF91EF91DF913D
:1040A000CF91BF91AF919F918F917F916F915F91D0
:1040B0004F913F912F910F900FBE0F901F90189529
:1040C0001F920F920FB60F9211242F933F934F938D
:1040D0005F936F937F938F939F93AF93BF93EF9370
:1040E000FF938091E10082FF09C08091E20082FF8E
:1040F00005C08091E1008B7F8093E1008091DA0020
:1041000080FF24C08091D80080FF20C08091DA0019
:104110008E7F8093DA008091D90080FF9DC080E17E
:1041200089BD82E189BD09B400FEFDCF81E08093A5
:10413000C10280919C02811109C00E941A040E9450
:10414000E5048091E20084608093E2008091E100C8
:1041500080FF17C08091E20080FF13C08091E200D1
:104160008E7F8093E2008091E20080618093E20084
:104170008091D80080628093D80019BC85E080933C
:10418000C1028091E10084FF2BC08091E20084FF96
:1041900027C080E189BD82E189BD89B5982F9170E2
:1041A00080FFFBCF8091D8008F7D8093D8008091D5
:1041B000E1008F7E8093E1008091E2008F7E80930A
:1041C000E2008091E20081608093E2008091C2026F
:1041D000882309F447C084E08093C1028091C10222
:1041E0008091E10083FF27C08091E20083FF23C01C
:1041F0008091E100877F8093E10082E08093C1029B
:104200001092C2028091E1008E7F8093E100809144
:10421000E2008E7F8093E2008091E20080618093D3
:10422000E20042E060E080E00E94B3048091F00090
:1042300088608093F000FF91EF91BF91AF919F91C3
:104240008F917F916F915F914F913F912F910F903F
:104250000FBE0F901F90189519BC1092C1021092BA
:104260009C0274CF8091E30087FD93E09093C1029C
:10427000B5CF78941F921FB61F9211248F939F93EE
:10428000AF93BF938091930290919402A091950275
:10429000B09196020196A11DB11D80939302909357
:1042A0009402A0939502B0939602BF91AF919F9113
:1042B0008F911F901FBE1F9018951F921FB61F92BF
:1042C00011248F939F93AF93BF938091920281119A
:1042D00013C08091930290919402A0919502B091A5
:1042E00096024196A11DB11D809393029093940272
:1042F000A0939502B0939602BF91AF919F918F9139
:104300001F901FBE1F901895CDB7DEB7AA970FB6A6
:10431000F894DEBF0FBECDBF85B7806885BF85B777
:10432000806885BF84B7877F84BF0FB6F894A8954F
:1043300080916000886180936000109260000FBEE1
:1043400080E890E00FB6F89480936100909361004C
:104350000FBE83ED97E090939301809392010E94AA
:104360001A040E94E5048091E20084608093E200D8
:1043700078948091C1028823A1F01091E9001F7008
:104380009091EC00892F817090FD80E8182B10929D
:10439000E9008091E80083FD0E9499141F7010933A
:1043A000E90082E084BD93E095BD9AEF97BD8093CC
:1043B0006E000E94DA0E811102C00E94220E00E5FA
:1043C00011E087E5E82E81E0F82ED8018D918D016E
:1043D0008F3F11F00E94D507E016F106B1F707E50F
:1043E00011E0F80181918F018F3F11F00E94D507F4
:1043F000F1E00D351F07A9F787E0E7E4F2E0DF0100
:10440000282F1D922A95E9F7E2E3F2E0DF011D92E1
:104410008A95E9F78AE290E00E944828BC019093CF
:1044200031028093300230E020E0FB01E20FF31F05
:1044300096E04081417041939150D9F72A5F3F4FF8
:104440002A32310591F70E941020811102C00E948A
:10445000161482E090E00E94002880933E020E94A1
:10446000F30E90939802809397020E947F10EFE3DF
:10447000FCE93197F1F700C000000E947F108091A5
:10448000470281FF08C06FEF7FEF90E080E00E945D
:1044900032280E94260B83E090E00E94002890E0E2
:1044A0000E94D91280913902811133C00E941020DC
:1044B000811104C00E9416140E946F1088E090E0E1
:1044C0000E94082860938702709388028093890273
:1044D00090938A026E7F71F40E946F1088E090E0E2
:1044E0000E94082860938702709388028093890253
:1044F00090938A020E94F2051092620280918702D4
:1045000080FF04C060E086950E940F1081E08093D8
:10451000390286E091E090938F0280938E02B8E199
:10452000EB2EF12C10E4B12E0EE4C02E02E0D02EC2
:104530008091C102AA24A39400E112E1853009F41C
:10454000A0C00E947F10FFE38F2EF2E09F2EA7E411
:104550006A2EA2E07A2ED301F40191918D9152E05E
:10456000E634F50709F4A8C09817B9F310E0D301B1
:104570000D913D01F40141904F01401619F1402683
:10458000A12C55245394842D8521A1F0AEA21FA304
:1045900091E0802F852109F490E098A70E94A20560
:1045A0008160782F9AA789A74EA15FA168A58AA5E7
:1045B0000E948B1FA394550CF6E0AF12E4CFF401D8
:1045C000319700831F5F173091F68FB7F8944091B1
:1045D00093025091940260919502709196028FBF60
:1045E0008BC08091C102843009F43DC010926202F8
:1045F00080913B02811116C0A0923B0280918702FC
:10460000982F917090933A028E7F80938702FFEFEC
:1046100020E742E0F15020404040E1F700C00000B8
:104620000E944A0B109292020FB6F894A895E0925D
:1046300060000FBEB092600083B7817F846083BF4B
:1046400083B7816083BF7894889583B78E7F83BF5B
:104650000FB6F894A89580916000886180936000FF
:10466000109260000FBE8091C002882351F00E941A
:104670007F10E7E4F2E081918111C1C3CE16DF061D
:10468000D1F78091C102853009F4ABCF0E94831429
:104690000E94DE0510923B0280913A02882349F085
:1046A0008091870281608093870260E086950E94F6
:1046B0000F100E94010F45CF981358CF0E94A205FA
:1046C0008C0180913C0290913D0208171907A1F0DE
:1046D0008FEF89A38AA31BA20E94A2058160782F75
:1046E0009DA38CA349A15AA16BA18DA10E948B1FF0
:1046F00010933D0200933C02809162028823D1F125
:1047000080916102E0918702E695E81BE0935D02EB
:10471000823009F052C1F0E0EE57FD4FE4910E2FC8
:1047200010E0E0E88E2EEDE09E2E80915E02882360
:1047300061F010925E020E94A20590935C02809349
:104740005B021092600210925F020E94A205E0914B
:104750005B02F0915C028E1B9F0B8F3F9F4750F4D2
:10476000E00FF11FF0935C02E0935B028BE592E0B7
:10477000F401099586E0E5E5F2E0DE01119601908D
:104780000D928A95E1F710925702109258021092FA
:10479000590210925A028B819C81892B09F455C0D1
:1047A00020915302309154024FB7F89480919302B4
:1047B00090919402A0919502B09196024FBFAC01E6
:1047C000421B530B80914F02882309F43BC34531B0
:1047D0005105D8F18F3F19F08F5F80934F021B81F5
:1047E000112359F00E9459079FEF11160CF491E024
:1047F000899F802D1124809357021C81112359F029
:104800000E9459079FEF11160CF491E0899F802DAB
:10481000112480935802309157023323B1F0209134
:104820005802222391F055EB3503C001112499233E
:1048300009F41DC19093570245EB24039001112404
:10484000332309F418C1309358028D819E81892B3E
:1048500009F455C020915102309152024FB7F8949B
:104860008091930290919402A0919502B09196024A
:104870004FBFFC01E21BF30B80914E02882309F429
:10488000DDC2E135F105D8F18F3F19F08F5F8093DC
:104890004E021D81112359F00E9437079FEF111618
:1048A0000CF491E0899F802D1124809359021E8180
:1048B000112359F00E9437079FEF11160CF491E075
:1048C000899F802D112480935A02309159023323FD
:1048D000B1F020915A02222391F045EB3403C0013C
:1048E0001124992309F4CBC09093590255EB250369
:1048F00090011124332309F4C6C030935A0246E0D4
:1049000050E0BE016F5F7F4F85E592E00E948029F5
:10491000892B61F48091570290915802892B9091D4
:104920005902892B90915A02892B11F00E94970607
:1049300086E0FE013196A5E5B2E001900D928A95E0
:10494000E1F70E94DE0590914602891769F0809395
:1049500046028FB7F894409193025091940260916F
:104960009502709196028FBF8091C102843009F048
:10497000DFCD83E08093E9008091E80082FFD8CD0D
:104980008091E80090E085FF06C00E9439048823EA
:1049900009F47DC091E08091E8008B778093E80076
:1049A000992309F4C5CDE981E150E33108F0F4C061
:1049B000F0E0EB55F64D0C947F27863059F4F0E08B
:1049C000E158FD4FE4910E2F10E070E7872E7DE057
:1049D000972EABCE893061F4E695F0E0E458FD4FB8
:1049E000E4910E2F10E064EE862E6CE0962E9DCEA4
:1049F0008F3061F4E695F0E0E758FD4FE4910E2F1B
:104A000010E05FE7852E5CE0952E8FCE853159F45E
:104A1000F0E0EA58FD4FE4910E2F10E041E3842EC0
:104A20004CE0942E82CE08E210E096EB892E9BE0BB
:104A3000992E883109F479CE833249F4E4E7F2E023
:104A4000059114913FE1832E3DE0932E6ECE04EF4D
:104A500011E02FE7822E2BE0922E843209F465CEEE
:104A600000ED17E081EF882E85E0982E5ECE81E084
:104A700080935702E1CE81E080935802E6CE81E038
:104A80008093590233CF81E080935A0238CF00E2FD
:104A900010E0CE0101964C018091E80085FD0AC02E
:104AA0008091E8008B778093E8000E943904882386
:104AB00099F370CF8091F100D4018D934D01015095
:104AC000110951F767CF1A828AE08B831AC08A8155
:104AD000823009F4AAC18330D9F1813009F05CC079
:104AE0002FB7F8946091930270919402809195028F
:104AF000909196022FBF0E9485276B837C838D83C4
:104B00009E838091C102843009F012CD1091E9009A
:104B10001F709091EC00892F817090FD80E8182B18
:104B200082E08093E9008091E80080FF0DC050E0B2
:104B300040E060E270E0CE0101960E946A0480913C
:104B4000E8008E778093E8001F701093E900F0CCA6
:104B5000809147028B83809148028C838091490227
:104B60008D8380914A028E8380914B028F83809146
:104B70004C02888780914D028987C3CF8A81823019
:104B800059F46B817C818D819E810E94852786E20C
:104B900090E00E941428B5CF8FEF8983B2CF4C816B
:104BA0006B818A810E94320E9827892798279E83DD
:104BB0008D83A7CF2D813E813227232732274C8139
:104BC0006B818A810E94A40D9CCF0E94CA0D99CF4F
:104BD0008A81813809F1A8F4803809F092CF8B815D
:104BE000BFEF8B9FC00111246FEF70E00E9435274B
:104BF000462F20E060918902809188020E942A0F4E
:104C000080CF823859F1833809F07BCF20E0409182
:104C10008A026C818B81F2CF60E08B810E940F1041
:104C20009B8180918702911111C08E7F80938702B2
:104C300010926202EFEFF0E722E0E150F0402040F6
:104C4000E1F700C000000E944A0B5BCF81608093B7
:104C5000870260E086950E940F1053CF8B8180936E
:104C60008B024FCF8A818138E1F078F4803809F0E7
:104C700048CF80918A024FEF849FC00111246FEFCB
:104C800070E00E9435276B833CCF823891F08338E7
:104C900009F037CF809188028B83809189028C83C1
:104CA00030CF8091870280FF02C086950ECF80E0D2
:104CB0000CCF80918B0209CF60918702709188029E
:104CC0008091890290918A020E94170F1ACF80E189
:104CD0008A8317CF1A8285EEF8CE0A811B811027AE
:104CE00001271027CE0101963C018C80DC01A80D24
:104CF000B11D4D01C801855E9C4F6814790409F40B
:104D000000CF053E110550F40E940028F301848372
:104D10000F5F1F4FBFEF6B1A7B0AECCFD3011496C6
:104D20001C92F6CF0A811B81102701271027FE0154
:104D300031963F018C80800E912E911CC801855EBA
:104D40009C4F0815190509F4DCCE053E110528F421
:104D5000D30114966C910E941428BFEF6B1A7B0A42
:104D60000F5F1F4FEBCF0E94940DCBCE89E0B0CFE9
:104D70000A811B81102701271027FE0131963F0170
:104D80008C80AF01480D511D4A01C80187966814F7
:104D9000790409F4B6CE043F52E0150758F40E9496
:104DA0000028D30114968C930F5F1F4FFFEF6F1AEB
:104DB0007F0AEBCFF3011482F7CF0A811B81102702
:104DC00001271027AE014F5F5F4F3A018C80800EA4
:104DD000912E911CC80187960815190509F491CEEA
:104DE000043F52E0150728F4D30114966C910E94F9
:104DF0001428BFEF6B1A7B0A0F5F1F4FEBCF09BD63
:104E000019BD09B400FEFDCF8091D8008F7D80933D
:104E1000D8008091E00082608093E0008091E00003
:104E200081FDFCCF0E9483142CCC86E290E00E948E
:104E300000281B821C821D828E8363CE3B9708F064
:104E400025CD5DCD4B30510508F0C6CCFECC87FB9F
:104E5000082E062687FD819567FD61950E94F4273F
:104E60000EF4919507FC81950895AA1BBB1B51E197
:104E700007C0AA1FBB1FA617B70710F0A61BB70BCA
:104E8000881F991F5A95A9F780959095BC01CD016F
:104E9000089597FB072E16F4009407D077FD09D0EC
:104EA0000E94352707FC05D03EF4909581959F4FD1
:104EB0000895709561957F4F0895A1E21A2EAA1B5F
:104EC000BB1BFD010DC0AA1FBB1FEE1FFF1FA217BA
:104ED000B307E407F50720F0A21BB30BE40BF50BB7
:104EE000661F771F881F991F1A9469F76095709540
:104EF000809590959B01AC01BD01CF010895EE0F07
:104F0000FF1F0590F491E02D0994692796276927E2
:104F100078278727782708950E949427332312F44F
:104F20008A1B9B0B0C94A527A29FB001B39FC001C5
:104F3000A39F700D811D1124911DB29F700D811DC5
:104F40001124911D08950E949427B7FF0895821B94
:104F5000930B08950E949427A59F900DB49F900DE8
:104F6000A49F800D911D11240895B7FF0C94AA27CA
:104F70000E94AA27821B930B08952F923F924F9273
:104F80005F926F927F928F929F92AF92BF92CF92D9
:104F9000DF92EF92FF920F931F93CF93DF93CDB7E2
:104FA000DEB7CA1BDB0B0FB6F894DEBF0FBECDBF5A
:104FB00009942A88398848885F846E847D848C842B
:104FC0009B84AA84B984C884DF80EE80FD800C8134
:104FD0001B81AA81B981CE0FD11D0FB6F894DEBF17
:104FE0000FBECDBFED010895991B79E004C0991F54
:104FF000961708F0961B881F7A95C9F78095089533
:10500000F999FECF92BD81BDF89A992780B5089590
:10501000A6E1B0E044E050E00C943A28A8E1B0E00A
:1050200042E050E00C943A28262FF999FECF92BD29
:1050300081BDF89A019700B4021639F01FBA20BD5D
:105040000FB6F894FA9AF99A0FBE08950396272F8F
:105050000E9415280E941428252F0E941528242F0D
:105060000C9415280196272F0E9415280C941428BB
:10507000DC01CB01FC01F999FECF06C0F2BDE1BD18
:10508000F89A319600B40D9241505040B8F7089507
:105090000F931F93CF93DF938230910510F482E03A
:1050A00090E0E091CF02F091D00230E020E0B0E05B
:1050B000A0E0309799F42115310509F447C0281B69
:1050C000390B24303105C0F58A819B81611571054A
:1050D00071F1FB0193838283FE0111C040815181F4
:1050E0000281138148175907F8F04817590799F4B6
:1050F000109761F012960C93129713961C933296A8
:10510000CF01DF91CF911F910F9108950093CF02AE
:105110001093D002F4CF2115310519F0421753072F
:1051200018F49A01BD01EF01DF01F801C2CF90939D
:10513000D0028093CF02D0CFFE01E20FF31F819304
:1051400091932250310939832883DACF2091CD02FF
:105150003091CE02232B41F42091020130910301C2
:105160003093CE022093CD022091000130910101B5
:105170002115310541F42DB73EB7409104015091FE
:105180000501241B350B4091CD025091CE024217F0
:10519000530708F0B5CF241B350B2817390708F43F
:1051A000AFCFBC016E5F7F4F2617370708F4A8CF3B
:1051B000640F751F7093CE026093CD02FA01819344
:1051C00091939ECFCF93DF930097E9F0FC01329744
:1051D00013821282C091CF02D091D002DE0130E062
:1051E00020E02097A1F420813181820F931F20912C
:1051F000CD023091CE022817390709F067C0F0932D
:10520000CE02E093CD02DF91CF910895DA01AE177F
:10521000BF0708F040C012964D915C9113979D0115
:105220004115510599F7D9011396FC93EE93129706
:105230004D915D91A40FB51FEA17FB0779F48081AA
:1052400091810296840F951FD90111969C938E939C
:105250008281938113969C938E931297B0E0A0E085
:105260008A819B810097B9F5FE0181919191E80FA8
:10527000F91F8091CD029091CE028E179F0719F6EB
:10528000109761F51092D0021092CF02D093CE0207
:10529000C093CD02B8CFB383A28340815181840FE4
:1052A000951FA817B90771F44E5F5F4F8D919C91C0
:1052B0001197480F591F5183408312968D919C91ED
:1052C000938382832115310509F0ADCFF093D0028D
:1052D000E093CF0298CFDE01EC01C2CF13961C926F
:1052E0001E921297D3CFFC014150504030F00190F4
:1052F0000616D1F73197CF01089588279927089589
:10530000FB01DC0104C08D910190801921F4415012
:105310005040C8F7881B990B0895F894FFCF7A1571
:10532000A2154517A2154517D515F6154517F416FC
:105330000117FE1AFE1A371B371BC91BE31B651B1F
:10534000651BEE1B761C851C851C63256725BE2509
:10535000CF25DA25E525E82532265C26CC25CC2587
:1053600067266A266D269226B326B626B826DD263F
:105370000000D50220009F05E60AC50A9B0A9E058B
:1053800001191A1B1C1D1E1F20212201020101816F
:105390008283E200E900EA00B500B600B700CD0064
:1053A0008301CC008A01920194012102230224028C
:1053B0002502260227022A02B300B4006F00700003
:1053C000F4F5F6F7313332946697C63435000102AE
:1053D0000202020606060909090909090F0F0F0F43
:1053E0000F0F15151518191919191919191919194E
:1053F00023244022B684016201AC003D07560776A3
:025400000700A3
:00000001FF
