:100000000C94F4030C942C040C942C040C942C04E9
:100010000C942C040C942C040C942C040C942C04A0
:100020000C942C040C942C040C9445210C94012168
:100030000C9442220C942C040C942C040C942C044C
:100040000C942C040C942C040C942C040C942C0470
:100050000C942C040C941E220C942C040C942C0450
:100060000C942C040C942C040C942C040C942C0450
:100070000C942C040C942C040C942C040C942C0440
:100080000C942C040C942C040C942C040C942C0430
:100090000C942C040C942C040C942C040C942C0420
:1000A0000C942C040C942C040C942C040A0180FF56
:1000B000FFFF000000000A01BFFFFFFF000000007B
:1000C0000A0115FFFFFF000000000A01AAFFFFFF61
:1000D000000000000A01D5FFFFFF000000000A0138
:1000E00055FFFFFF000000000A0100FFFFFF0000B6
:1000F00000000A010000FFFF000000000A0100FFED
:10010000FFFF0000000005010980A101850319011E
:100110002AB700150126B700950175108100C005AA
:100120000C0901A101850419012AA002150126A0CC
:1001300002950175108100C005010906A10185061F
:10014000050719E029E715002501950875018102C9
:100150000507190029EF1500250195F075018102A9
:100160000508190129059505750191029501750389
:100170009101C00660FF0961A1010962150026FF17
:10018000009520750881020963150026FF0095205F
:1001900075089102C005010906A101050719E029AA
:1001A000E715002501950875018102950175088103
:1001B000010507190029FF150026FF00950675089F
:1001C0008100050819012905950575019102950120
:1001D00075039101C0000000000000000000000055
:1001E000000000000000000000000000000000000F
:1001F0000000000000000000007E0F00D4FFFFFFA1
:10020000C70000007800000000000000002A2B2832
:1002100000000000000000000000000000000000DE
:1002200029000000002C1E342021222434262725FA
:100230002E362D3738271E1F202122232425263332
:1002400033362E37381F0405060708090A0B0C0D34
:100250000E0F101112131415161718191A1B1C1D46
:100260002F3130232D350405060708090A0B0C0D24
:100270000E0F101112131415161718191A1B1C1D26
:100280002F3130354CFC00F200E800DE00D400CA0B
:1002900000C000B600AC0000001E0F0500047F3F48
:1002A0001F643214643214783C1E1E140A050001C7
:1002B0000101010101010101020202020202020226
:1002C00002030303030303030304040404040404F8
:1002D00005050505050606060606070707070708BC
:1002E000080808090909090A0A0A0B0B0B0C0C0C6F
:1002F0000D0D0D0E0E0E0F0F0F1010111111121209
:1003000013131414151516161717181819191A1A85
:100310001B1B1C1D1D1E1E1F2020212222232424E6
:10032000252626272829292A2B2C2D2D2E2F303122
:100330003232333435363738393A3B3C3D3E3F4034
:100340004142434445464748494A4C4D4E4F50511F
:100350005354555658595A5B5D5E5F6162646566D9
:1003600068696B6C6D6F7072737577787A7B7D7E60
:100370008082838587888A8C8E8F91939596989AB0
:100380009C9EA0A2A3A5A7A9ABADAFB1B3B5B7BAC8
:10039000BCBEC0C2C4C6C9CBCDCFD1D4D6D8DBDD9C
:1003A000DFE2E4E7E9EBEEF0F3F5F8FAFDFFFFAA90
:1003B0007F55402223252628292A2C2D2F30323301
:1003C0003536383A3B3D3E4042434547494A4C4E1C
:1003D0005051535557595A5C5E6062646668696B48
:1003E0006D6F71737577797B7D7F81838587898A4E
:1003F0008C8E90929496989A9C9E9FA1A3A5A7A854
:10040000AAACAEAFB1B3B4B6B8B9BBBCBEBFC1C283
:10041000C3C5C6C7C9CACBCCCDCED0D1D2D2D3D416
:10042000D5D6D7D7D8D9D9DADADBDBDBDCDCDCDC34
:10043000DCDDDDDDDDDCDCDCDCDCDBDBDBDADAD902
:10044000D9D8D7D7D6D5D4D3D2D2D1D0CECDCCCB84
:10045000CAC9C7C6C5C3C2C1BFBEBCBBB9B8B6B4A2
:10046000B3B1AFAEACAAA8A7A5A3A19F9E9C9A9832
:10047000969492908E8C8A89878583817F7D7B7903
:10048000777573716F6D6B6968666462605E5C5AE4
:100490005957555351504E4C4A4947454342403EA7
:1004A0003D3B3A3836353332302F2D2C2A29282639
:1004B000252322167C14001A000800150017002BB3
:1004C0002204001600070009000A0000571D001B47
:1004D000000600190005001C0018000C0012001393
:1004E0000031000B000D000E000F003300343211FC
:1004F0000010003600370038000157E7434C422C0B
:10050000462A44284500002B00170014001A000852
:10051000001500E1000A000400160007000900E0D1
:10052000001D001B000600190005001C0018000C2F
:1005300000120013002A000B000D000E000F003304
:1005400000340011001000360037003800E40029A4
:100550000027522C002800E60000003500000000B3
:100560000000000000015201000401160100000912
:100570000100002F021D011B010601190100001CD2
:1005800001190106011B011D01160139005000511E
:100590000052004F00000049004A004E004B004D41
:1005A000003002E300010028004C000000000000C1
:1005B00000000000000808150800000100000016F7
:1005C0000A00000000000000000000000000000021
:1005D0000000002078217823782578277800000013
:1005E00000AC00AA00A900AB000000000000000061
:1005F0000000000000000001000000AE00AD00A8F7
:1006000000000000002F002400250026003000001C
:100610000033002100220023002E002F0035001E91
:10062000001F00200031000000000000000000005A
:100630000000005300E500E400E600E300000000D5
:100640007C00000000000000003000370027002D73
:100650000001000000000000002F022402250226F5
:10066000023002000033022102220223022E020085
:100670000035021E021F02200231020000000000AD
:10068000000000000000000000E500E400E600E3D8
:100690000000000000000000000000000000002634
:1006A0000227022D0200000100000000004500406A
:1006B00000410042004600000044003D003E003F73
:1006C000004700000043003A003B003C00480000A7
:1006D000000000000000000000007C0000E500E4D5
:1006E00000E600E300000000000000000000000041
:1006F00000037C76002B00010000000000000000D9
:1007000000000000000000000000000000000000E9
:1007100000010000000000000000000100010001D5
:100720000000000000000000000000000000520077
:100730000000000000000000000000007C0000003D
:100740000000000000000000000100280000000080
:1007500000000009025B00030100A0FA0904000088
:1007600001030101000921110100012240000705D8
:1007700081030800010904010002030000000921AF
:100780001101000122220007058203200001070554
:1007900003032000010904020001030000000921F5
:1007A00011010001226D00070584032000011201E0
:1007B0000002000000080778CBDC01000102000104
:1007C0001403720065007600690075006E00670012
:1007D0003400310000000C036700740069007000F1
:1007E000730000000403090411241FBECFEFDAE0F8
:1007F000DEBFCDBF04B603FE18C0809129039091DF
:100800002A03A0912B03B0912C038730904BA74073
:10081000B04B59F41092290310922A0310922B0323
:1008200010922C03E0E0F8E3099523E0AAEBB1E095
:1008300001C01D92A932B207E1F711E0A0E0B1E0DA
:10084000E8E4F5E502C005900D92AA3BB107D9F79F
:100850000E9469220C94422A0C940000E8EDF0E01A
:1008600080818E7F80831092E2001092DA001092D5
:10087000E100A0EEB0E08C9181608C9380818F7755
:10088000808319BCA7EDB0E08C918E7F8C93808122
:100890008F7E80831092F40208952091E4003091BD
:1008A000E50095E6A9012091EC00822F817020FFE0
:1008B00006C08091E80080FF06C080E00895209186
:1008C000E80022FD1AC080911903882389F0853041
:1008D00089F08091EB0085FD0FC02091E4003091FC
:1008E000E50042175307F9F29150E1F684E00895CC
:1008F00082E0089583E0089581E0089580911B03CC
:1009000087FF13C08091E80082FF06C08091E80055
:100910008B778093E80004C0809119038111F2CF96
:100920000895809119038823D9F38091E80080FF0E
:10093000F8CF8091E8008E77ECCF982F9093E90064
:10094000242F762F50E0891731F07091EC00209120
:10095000ED005091F00021FD07C09F5F973071F7C7
:100960008093E90081E008953091EB003E7F309361
:10097000EB003091ED003D7F3093ED003091EB00C6
:1009800031603093EB007093EC002093ED005093B6
:10099000F0002091EE0027FDE0CF80E00895B0E068
:1009A000A0E0E5EDF4E00C94C027C8EDD0E088812C
:1009B0008F7E8883E7EDF0E080818160808384E032
:1009C00082BF81E08093F40288818E7F888302EE6B
:1009D00010E0F80110821092DA0081EEC82ED12CBE
:1009E000F601108288818F77888388818068888368
:1009F00088818F7D888319BC1092190310921A0385
:100A0000109218031092170390EEE92EF12CF701C3
:100A100080818B7F808388818160888342E060E071
:100A200080E00E949D04F60180818E7F8083F80122
:100A3000808181608083808188608083F7018081EC
:100A40008E7F8083888180618883CDB7DEB7E8E0C0
:100A50000C94DC27FC0180912103909122038617DE
:100A60009707A0F06115710529F49091E8009E7731
:100A70009093E80090E06115710551F4911108C060
:100A80008091E80082FF34C080E00895BC01F2CF7D
:100A9000809119038823C1F18530C1F18091E8006C
:100AA00083FD30C08091E80082FDEACF8091E800AC
:100AB00080FFE1CF8091F3002091F200382F611583
:100AC000710519F02830310558F091E028303105D2
:100AD00009F090E02091E8002E772093E800CBCF3A
:100AE00081918093F100615071092F5F3F4FE7CFF3
:100AF00080911903882341F0853041F08091E8000E
:100B000083FFBECF81E0089582E0089583E00895D9
:100B1000089508958091F60208952FB7F894809172
:100B2000EE029091EF02A091F002B091F1022FBF7E
:100B30000895A3E0B0E0EFE9F5E00C94C62720911A
:100B4000EB023091EC0228173907A1F09093EC02E8
:100B50008093EB02E091E902F091EA02309751F0C4
:100B600024E029839B838A830680F781E02DCE01D0
:100B7000019609952396E2E00C94E227A3E0B0E009
:100B8000E4ECF5E00C94C6272091E7023091E802EE
:100B900028173907A1F09093E8028093E702E091CB
:100BA000E902F091EA02309751F023E029839B8318
:100BB0008A830680F781E02DCE0101960995239660
:100BC000E2E00C94E227E091E902F091EA0230972A
:100BD00029F00190F081E02D0995089580E00895B5
:100BE000FA01811101C0FB010995089521E030E06F
:100BF000A90102C0440F551F8A95E2F7CA0120914E
:100C00008202662339F0822B8093820281E08093F6
:100C10007602089580958223F7CF8091DE02982F87
:100C20009E7F29F4817082608093DE02089586356C
:100C3000E8F381708465F8CFAF92BF92DF92EF92B4
:100C4000FF920F931F93CF93DF93082F162FE90185
:100C5000E42FF0E0E255FD4F611110C0E4915E2FEA
:100C60004E2F4983E8835A83DF91CF911F910F91D3
:100C7000FF90EF90DF90BF90AF900895E62EF12C9B
:100C80004491D42EE42FF0E026E0829FC00111248D
:100C90002FEF30E0B9010E947227802F90E0880F7B
:100CA000991F55E5569FD001579FB00D11248A1BFF
:100CB0009B0B982F990F890F5901AE18BF08AE9E54
:100CC000D001AF9EB00DBE9EB00D11245B2F189FBA
:100CD00080011124012F11275901A01AB10AAE9EDB
:100CE0008001AF9E100DBE9E100D11245901A81A4F
:100CF000B108AE9CC001AF9C900DBE9C900D11241C
:100D0000892F9927281B390B2E9FC0012F9F900DEB
:100D10003E9F900D1124E92F62307105A1F050F42F
:100D20006115710509F49DCF6130710581F0EB2FDC
:100D3000512F97CF6430710569F080F066307105EE
:100D400009F48FCFF4CFE42F4B2F592F8ACFE42F04
:100D5000412F87CFEB2F542F492F83CF4B2F5D2D62
:100D6000E12F7FCF80E00895F894E82FE295EF70AF
:100D7000F0E031A1282F2F7081E090E001C0880FB2
:100D80002A95EAF7982F9095932391A392A1892B06
:100D900082A3789408959091F20292FF06C0282FC2
:100DA00028712830F9F4877F846093FF06C0282FCC
:100DB00028712831F1F4877E84612091F30220FFAD
:100DC00006C0382F38713830D9F4877F816021FF11
:100DD00006C0282F28712831D1F4877E816194FDC7
:100DE000877E0895282F24712430F9F68B7F886040
:100DF000DCCF282F2471243101F78B7E8861DDCF71
:100E0000382F3171313019F78E7F8860E0CF282F6D
:100E10002171213121F78E7E8861E1CFCF93DF935D
:100E2000EC0182389105B9F108F041C08133910598
:100E300009F49FC050F58932910509F48FC08A9753
:100E400009F49EC0C11520E5D20708F0BDC0C11548
:100E500030E4D30708F00AC1C03ED10508F0A5C0B0
:100E6000CD3CD10508F000C1C83AD10508F08FC0CB
:100E7000C53AD10508F0F0C0C130D10539F120974D
:100E800029F1C430D10510F546C08533910509F428
:100E900060C0C997B9F68091F202837009F044C12D
:100EA0008091F30283FF12C0C9E2D0E00FC0833EFD
:100EB0009105A1F178F4803E910509F1823E9105FA
:100EC00009F0C0CF8091F20282FD21C0CE01DF91F6
:100ED000CF910895863E910561F1873E910571F1AC
:100EE000843E910509F0AECF8091F30281FFEECFF1
:100EF0008091F202C7EED0E084FD0DC0E7CF809173
:100F0000F20280FD33C09091F30290FFDFCFC3EE79
:100F1000D0E084FFDBCFD0E0C0E0D8CF8091F202F8
:100F200082FDFFC09091F30290FDFEC084FFCECF02
:100F3000F2CF8091F20283FDDDCFC8CF8091F20223
:100F400083FDF5C09091F30291FFF0CFC4EED0E0A5
:100F5000BDCF8091F20285FFB9CFA6CF8091F2027A
:100F600085FDE8C08091F30283FFB0CFC9E3D0E0F4
:100F7000ADCF8091F20286FFA9CFCAE2D0E0A6CF22
:100F80008091F20286FFA2CFC1E3D0E09FCFC13CA7
:100F9000D10508F6C85AD0E0CC0FDD1FC05CDE4F8B
:100FA0000990D881C02DD46491CFC11540E2D407F7
:100FB00008F0AAC0C11581E0D80708F087CFC83E65
:100FC000D10508F483CFA7CFC03622E5D20718F5A4
:100FD000C03432E5D30708F053C0C03242E5D4072D
:100FE00008F047C0C11582E5D80708F47FC02C2F50
:100FF0002695269540E2249F900111248C2F837022
:10100000C1E0D0E002C0CC0FDD1F8A95E2F7C22B11
:10101000D32BDD685BCFC03A22E5D20760F4C0383D
:1010200032E5D30708F441C0CF71D0E0DC2FCC27E4
:10103000C46FD06A4BCFC03C42E5D40708F44AC025
:10104000C03E82E5D80708F066CFDC2FCC27CC273E
:10105000DF71C06FD06A3ACFC55AD0E0C35CDE4FB3
:10106000C881D0E0D06432CFD06530CFDF70D06A95
:101070002DCFCF71D0E0DC2FCC27C16FD06A26CF27
:101080002C2F26952695277080E2289F9001112409
:101090008C2F8370C1E0D0E002C0CC0FDD1F8A9599
:1010A000E2F7C22BD32BDC6811CF2C2F2695269587
:1010B000277040E2249F900111248C2F8370C1E09F
:1010C000D0E002C0CC0FDD1F8A95E2F7C22BD32BF4
:1010D000DA68FCCE8C2F8F710E94CB06C82FD0E02F
:1010E000DC2FCC27CC27DF71D062F0CE8C2F8F7114
:1010F0000E94CB0635E0D695C7953A95E1F7CF70BB
:101100009C2FEC01D069E2CE8D2F8F710E94CB060F
:1011100090E0982F882788279F719C012C2BE9014C
:10112000E3CFC2EED0E0D2CEC0EED0E0CFCEC6EE5E
:10113000D0E0CCCEC5E3D0E0C9CE80914F02811182
:1011400010924F02089580959091E3029823909316
:10115000E302089580959091E40298239093E4022D
:10116000089590913C019923D1F09091F20297FF5C
:1011700016C0E82FE695E695E695EE31E0F4F0E04E
:10118000E454FE4F282F277081E090E001C0880FC3
:101190002A95EAF780959281892382830895EEEB60
:1011A000F1E09191891303C0DF0111971C9291E046
:1011B000E43CF907B1F7089590913C019923C1F0FF
:1011C0009091F20297FF14C0E82FE695E695E69518
:1011D000EE31F8F4F0E0E454FE4F877021E030E0A7
:1011E00001C0220F8A95EAF78281822B82830895BB
:1011F000AEEBB1E0EFEF90E02D91821751F0EF3FB1
:1012000019F4211101C0E92F9F5F9630A9F7EF3F34
:1012100009F408950E2E000CFF0BE454FE4FE6CFA8
:1012200080912D029091FC01981301C008958F5F69
:101230008770FACF973078F5863068F5E82FF0E0C0
:1012400086E0989FE00DF11D11249E2F977083E09A
:10125000F695E7958A95E1F7EE0FFF1FEE0FFF1F5A
:10126000E252FE4F50E040E080E0219130E0092E54
:1012700002C0369527950A94E2F721703327042E91
:1012800001C0220F0A94EAF7822B4F5F5F4F443070
:10129000510559F7089580E00895973098F5863004
:1012A00088F5E82FF0E086E0989FE00DF11D11240D
:1012B0008E2F877041E001C0440F8A95EAF783E0E2
:1012C000F695E7958A95E1F7EE0FFF1FEE0FFF1FEA
:1012D000E252FE4F30E020E070E05191DF011197C3
:1012E000CB01022E02C0969587950A94E2F7817091
:1012F00081958527842385278C932F5F3F4F24304A
:10130000310559F70895CF93DF93EC0161E0009721
:1013100009F0682F617081E00E94F605D0935102B8
:10132000C0935002DF91CF91089581FB662760F949
:1013300080E00E94F605089582E00895CF93DF9340
:10134000EC0160E0009721F0BC0176956795617033
:1013500082E00E94F60560E0209731F0BE017695AC
:10136000679576956795617083E00E94F60560E069
:10137000209739F0BE0133E0769567953A95E1F70D
:10138000617084E00E94F60560E0209739F0BE01AC
:1013900024E0769567952A95E1F7617085E00E94D3
:1013A000F60560E0209739F0BE0195E076956795E7
:1013B0009A95E1F7617086E00E94F60560E020975B
:1013C00039F0BE0186E0769567958A95E1F7617000
:1013D00087E00E94F605CE01DF91CF9108950E942B
:1013E0009E099093240380932303089580912303FF
:1013F000909124039C01267033272630310521F477
:1014000088600E94EF090895877FFBCF21E030E0DC
:1014100002C0220F331F8A95E2F720953095809104
:10142000230390912403822393230E94EF090895BC
:1014300090912E028095892380932E02282F277069
:1014400091F4282F082E000C330B9217130659F035
:101450009091F30292FF07C08595859585950E942E
:10146000060A10922E02089521E030E002C0220FF9
:10147000331F8A95E2F78091230390912403822BF6
:10148000932B0E94EF090895FC019281913039F469
:10149000858182FD08C080FF06C083E008959230F8
:1014A00021F081E0089582E0089584E008950F938B
:1014B0001F93CF93DF938B01EA019091190394302E
:1014C00061F58093E9008FEF9091E800815095FDE0
:1014D00006C095ED9A95F1F700008111F5CF809146
:1014E000E80085FF1AC00E944D04811111C080914F
:1014F000E80085FD06C08091E8008E778093E800C3
:10150000F2CFF80181918F018093F100219779F753
:101510008091E8008E778093E800DF91CF911F9152
:101520000F91089543E050E0BC0184E00E94570A07
:101530000895CF93DF93EC0180913C01811111C09C
:1015400048E050E0BE0181E00E94570A80E2FE01BF
:10155000A7EFB2E001900D928A95E1F7DF91CF916C
:1015600008958091F20287FF05C040E284E050E0D8
:10157000BE01EACF48E081E0FACF81E08093E0004D
:1015800080E28093D8001092C9008FE19EE4019719
:10159000F1F700C0000087E090EBDC0180932903A5
:1015A00090932A03A0932B03B0932C0388E19CE033
:1015B0000FB6F894A895809360000FBE90936000DA
:1015C000FFCFCF93DF93CAE1D3E060E0CE010E946A
:1015D000AB292196C11584E0D807B9F7DF91CF91E7
:1015E00008951F93CF93DF93122F8930E0F4673073
:1015F000D0F44630C0F4C42FD0E0CC0FDD1F9CE007
:10160000699FC00DD11D112494E5899FC00DD11D86
:101610001124632FCE0186960E94AB29612FCE0143
:1016200087960E94AB29DF91CF911F910895B0E07A
:10163000A0E0EDE1FBE00C94BF2793EBC92E94E012
:10164000D92E10E000E07601B12C1AC00830110547
:10165000D1F0FE01EE0FFF1FEE0DFF1D259134911D
:101660004C2F6B2D802F0E94F10A2196C630D10598
:1016700069F78CE0E80EF11CB39487E0B81649F0E6
:10168000D0E0C0E0E3CF21E030E04C2F6B2D88E0CC
:10169000EACF0F5F1F4F84E5C80ED11C093011053A
:1016A00091F6CDB7DEB7E9E00C94DB27CF93C82FD6
:1016B0006FEF811162E282E290E00E94AB296FEF4E
:1016C000C11161E183E290E00E94AB296FEFC1118B
:1016D00062E184E290E00E94AB29CF91089580E01E
:1016E0000E94560B60E085E290E00E94AB290E94C8
:1016F000170B0E94E10A81E00E94560B08950F9398
:101700001F93CF93DF93893030F5673020F5463053
:1017100010F5C42FD0E0CC0FDD1F2CE0629FC00D70
:10172000D11D112434E5839FC00DD11D1124CE019C
:1017300086960E949729082F10E0102F0027CE01CF
:1017400087960E9497299801282BC901DF91CF9194
:101750001F910F91089590E080E0F8CF462F7730E9
:1017600040F4663030F4893020F4672F0E947F0BFC
:10177000089590E080E00895B0E0A0E0E2ECFBE0A6
:101780000C94BF277C0100912303109124038091C6
:10179000500290915102082B192BCFE0D0E0CC24BD
:1017A000C394D12CBC2EC6010C2E02C0880F991FE9
:1017B0000A94E2F780239123892B49F4219790F72B
:1017C000B12C8B2DCDB7DEB7E9E00C94DB27B70148
:1017D0008C2F0E94AE0B0E940E07019779F3F1CF78
:1017E000CF93DF93EC010E94BC0BBE010E94AE0BB5
:1017F0000E940E07DF91CF910895FC0183819481AF
:10180000892B29F08081918189238F3F51F480E0D9
:101810000895843FE1F717C0883EA8F0813FB9F7EB
:1018200012C0808191810E94F00B92959F7096303A
:1018300099F358F4925F9F70923048F7803F19F007
:1018400040F7883E20F781E008959A5FF4CFA5E045
:10185000B0E0EDE2FCE00C94C52749835A8389810E
:101860009A81662399F0222389F00E94BC0B182FDD
:10187000682F89819A810E944D0969817A81812F1F
:101880000E94AE0B2596E3E00C94E1270E941A0912
:10189000182FF3CF82E290E00E949729823289F4D8
:1018A00083E290E00E949729813159F484E290E02C
:1018B0000E94972991E0823109F090E0892F817090
:1018C000089580E0FCCF6091DE02669570E04BE009
:1018D00050E08EE291E00E947D29892B19F481E08D
:1018E000809381020E948D0590937B0280937A02FF
:1018F0000895A5E0B0E0EFE7FCE00C94B9278091F3
:10190000DE0280FD0AC0E6E8F2E011821082128257
:10191000339622E0E73AF207C1F780907802909080
:1019200079028114910409F459C0809177028111E0
:1019300055C0D12CC12C66246394712C53E0552ED4
:101940008091820293010C2C01C0220F0A94EAF7C5
:10195000822309F43BC0F601EE0FFF1FE80DF91DCD
:10196000E590F490E114F104C9F145E050E0B701CD
:10197000CE0101960E94492809810F3F39F18A81E1
:10198000800F9927991F8C30910514F08BE090E01F
:101990005C01AA0CBB1C8A0D9B1DFC01EA57FD4F84
:1019A0005F01059D800111240A571D4F0A151B0573
:1019B00020F0F5E0EF0EF11CD8CF98014D816C813D
:1019C0008B810E941C060D5F1F4FF0CF2FEFC21AB4
:1019D000D20A38E0C316D10409F0B2CF539A3BB112
:1019E000377F2BB128604FB7F89486E892E0FC016E
:1019F0005191CF0168E02BB9000000C057FF3BB9FF
:101A0000550F000000C000C000C03BB900C06A957F
:101A100091F7F2E0873A9F0751F74FBF8FE594E0C7
:101A20000197F1F700C000002596EFE00C94D52750
:101A3000B0E0A0E0EEE1FDE00C94B827FC0162808C
:101A4000448081E08483E3EBF3E07490E2E3F4E02C
:101A5000E491C7EAD2E036E8E32E32E0F32E4EED11
:101A6000C42E42E0D42E52E0A52EBB24B394882489
:101A70008A94912C55245A94E7190E2F10E082E095
:101A8000861530F08091DF0288838091E00289839F
:101A9000411016C01B821A8297014A816981888190
:101AA0000E941C06259683E0E80EF11CCC16DD068C
:101AB00031F70E94790CCDB7DEB7E0E10C94D42762
:101AC0008B818823E9F081508B83859DC00111248F
:101AD0006C8170E00E947227FB01FF27ED54FC4FE0
:101AE0008491E82FE719E59DC0011124B8010E94F7
:101AF00072278091E102689FB00111247A83CCCFD4
:101B00000E9439282091E102269521582A9DA001A2
:101B10002B9D500D1124452F5527841795070CF048
:101B2000BBCF82E0861588F40E943928B4010E9458
:101B3000862788830E9439282091E0022695622F0B
:101B400070E00E948627280F29831A828091E10283
:101B5000893C20F088EC8C838B839ECF8431D8F72E
:101B600084E1F9CFEF92FF920F931F93CF93DF930E
:101B70008C01C6E8D2E0F12CE12CF801948160914F
:101B8000E0028091DF02F5E0EF16F104ECF4992316
:101B9000E9F09E014091E1020E941C062FEFE21A3B
:101BA000F20A23968BE0E816F10439F70E94790CCB
:101BB000F801848190E00196817099278483CDB7E4
:101BC000DEB7E6E00C94DE27992319F39E0140E08E
:101BD000E3CFB0E0A0E0EFEEFDE00C94BC27EC0119
:101BE0004C81042F10E09801D8010E94332A9B01F8
:101BF000AC010E94FE294B015C01E0E2F0E0E01B39
:101C0000F10BA5E5B0E0AC019B010E94FE296B0140
:101C10007C019F01DF010E94A7279B01AC010E946C
:101C2000092A9B01AC01280D391D4A1D5B1DC70106
:101C3000B6010E94112AF22E822F90E039E23F1560
:101C400098F143E0249F9001112435952795122F98
:101C5000109596E8C92E92E0D92E00E085E5E82E91
:101C6000EF188E2D01FD8F2D9601412F6091E0021E
:101C70000E941C060F5F53E0C50ED11C0B3089F784
:101C80000E94790C9C8181E0992319F0903219F41B
:101C90008FEF80933B0180913B01890F8C83CDB7FF
:101CA000DEB7ECE00C94D82725E530E0A901481B0D
:101CB000590BCA019A01220F331F280F391F37FF12
:101CC000C4CF2F5F3F4FC1CF0F931F93CF93DF93AD
:101CD000C6E8D2E0FE01118210821282339682E0C1
:101CE000E73AF807C1F710E000E080918402082E7F
:101CF000000C990B081719078CF180913A01082EF6
:101D0000000C990B801791074CF19E014091E10264
:101D10006091E0028091DF020E941C060F5F1F4F5E
:101D200023960B30110509F70E94790C8091390137
:101D300090918402980F9093840220913A01280F89
:101D400020933A01121614F49A301CF08195809376
:101D50003901DF91CF911F910F9108951982188257
:101D60001A82DCCFB0E0A0E0E8EBFEE00C94BF27E5
:101D7000FC018281DD24DA9480FD02C0DD24D3944D
:101D800006E812E0D0E0C0E02BE0B22EF8011182AC
:101D90001082128294E0E92EF12CC12C80918302F2
:101DA0008C0D8C30C4F16B2D0E946427892F082E76
:101DB000000C990B8C179D0791F48091E1028E9D88
:101DC000A0018F9D500D1124559547955595479528
:101DD00098016091E0028091DF020E941C06CD0C08
:101DE000F1E0EF1AF108D1F621960D5F1F4FCB30CD
:101DF000D10561F60E94790C8091830291E0D9129D
:101E000010C081110CC08AE080938302CDB7DEB789
:101E1000E9E00C94DB2787FFCACF855FC8CF8150EC
:101E2000F3CF90E00196BE010E948627EDCFEF929E
:101E3000FF921F93CF93DF93EC0186E8E82E82E0B8
:101E4000F82E10E08C8197014091E1026091E00250
:101E5000810F0E941C06195E83E0E80EF11C1D3FF5
:101E600089F70E94790C9A818C8190FF08C08F5F5E
:101E70008C83DF91CF911F91FF90EF900895815057
:101E8000F7CF9091DE0290FF0CC0E6E8F2E081838C
:101E900060834283339692E0E73AF907C1F70E94E4
:101EA000790C0895A3E0B0E0E8E5FFE00C94C427C6
:101EB0008C018091850281110AC09E012F5F3F4FE6
:101EC0004FEF6FEF0E941C068A8180938502F80114
:101ED0006481613069F08091850240E0662361F0A1
:101EE00040E0623011F44091850280E060E004C07F
:101EF0006091850240E080E00E94410FF8018481FA
:101F000090E0019663E070E00E9486278483239628
:101F1000E4E00C94E027A3E0B0E0E1E9FFE00C94FA
:101F2000C6279091DE0290FF0AC09E012F5F3F4FAF
:101F30000E941C064B8169818A810E94410F239671
:101F4000E2E00C94E227CF93DF93EC01EEEDF2E0B8
:101F5000438162818C810E948B0F8C818F5F8C8387
:101F6000DF91CF910895CF93DF93EC01EC81F0E006
:101F7000ED54FC4F4491EEEDF2E0628181810E94CC
:101F80008B0F8C818F5F8C83DF91CF910895CF92DF
:101F9000DF92EF92FF926B017C010E940D06B70168
:101FA000A60188E090E00E94BD29FF90EF90DF90AD
:101FB000CF900895A3E0B0E0E0EEFFE00C94B927E5
:101FC000F82E762EE42E622E9091DE0290FF29C02C
:101FD000E92FE695AE2FB0E0A158BE4F8C918093CB
:101FE00080029E7F923009F59E012F5F3F4F8F2D1B
:101FF0000E941C064B8169818A810E94410FF092E8
:10200000DF027092E002E092E102662051F06091FE
:10201000DE027091DF028091E0029091E1020E9465
:10202000C70F2396EFE00C94D527823019F4E09087
:10203000E102E5CF863019F4F090DF02E0CF89307D
:10204000D9F38931E1F6E9518E2F8170582EE6954A
:10205000F0E0E255FC4FE4910E2F10E086E8C82E28
:1020600082E0D82EB12CA12C9BE0892E912CC501A9
:10207000B4010E9472278F2D511013C0860F960154
:102080004E2D672D0E941C06A00EB11E83E0C80EC7
:10209000D11C87EAC81682E0D80649F70E94790C5D
:1020A000AECF861BECCFEEEDF2E0438120E1421B88
:1020B00008F440E021E0628181810E94DA0F0895F6
:1020C000EEEDF2E0438120E1420F08F44FEF21E012
:1020D000628181810E94DA0F0895EEEDF2E0628163
:1020E00020E1621B08F460E021E0438181810E94CD
:1020F000DA0F0895EEEDF2E0628120E1620F08F45C
:102100006FEF21E0438181810E94DA0F0895EEEDA7
:10211000F2E0818121E04381628180510E94DA0FE7
:102120000895EEEDF2E0818121E043816281805FDC
:102130000E94DA0F08958091E202882319F08150FD
:102140008093E2026091DE027091DF028091E002F2
:102150009091E1020E94C70F08958091E2028330BE
:1021600018F48F5F8093E2026091DE027091DF02CB
:102170008091E0029091E1020E94C70F0895909132
:10218000DE0290FF2CC0917081112AC09260909362
:10219000DE02662351F06091DE027091DF028091D1
:1021A000E0029091E1020E94C70F6091DE02669505
:1021B00070E04BE050E08EE291E00E947D29892B97
:1021C000B1F01092810281E080937D0220E0409185
:1021D000E1026091E0028091DF020E94DA0F08952F
:1021E0008B3210F09465D3CF880F982BD0CF0E94FC
:1021F000630CE9CFEEEDF2E080818160808360E0E6
:1022000086950E94BF1008958091DE0286958150C8
:1022100009F48AE261E00E94BF1008958091DE0215
:1022200086958F5F8B3208F081E061E00E94BF10DD
:1022300008959091DE0290FF08C09695981728F0B7
:10224000961718F40E940E11089561E00E94BF10C5
:102250000895EEEDF2E083E0808311828FEF8283B8
:102260008383148260817181828193810E94C70F70
:10227000089567EE7EEF90E080E00E94C92960E05B
:1022800082E090E00E94AB2960E083E090E00E9451
:10229000AB29109251021092500260E074E184E088
:1022A00090E00E94C92960E086E090E00E94AB299E
:1022B0006FEF87E090E00E94AB2940E050E0BA0168
:1022C00088E090E00E94BD2960E08DE090E00E94EF
:1022D000AB2940E050E0BA0188E190E00E94BD29BE
:1022E00060E087E190E00E94AB2940E050E0BA0155
:1022F0008CE190E00E94BD2970E060E080E290E017
:102300000E94C92940E050E0BA0188E190E00E94B3
:10231000BD2980E00E94560B0E946F0B40E050E008
:10232000BA018FE090E00E94BD2940E050E0BA0180
:1023300083E190E00E94BD2908959091F30292FB01
:10234000222720F9281779F080FB92F99093F30265
:102350006091F2027091F30284E090E00E94C9293A
:1023600082E00E94180A089590E080E00E94A5296A
:10237000873E9E4F19F40E944A0C089580E008950C
:10238000A7E0B0E0E6ECF1E10C94B6278E010F5F18
:102390001F4F87E0D8011D928A95E9F7E2E7CE2E1C
:1023A000E1E0DE2EF12CE12CAA24A394B12CF6015D
:1023B00081916F018F3F09F443C0F894E82FE295B3
:1023C000EF70F0E021A18F70A50102C0440F551FEE
:1023D0008A95E2F7CA01922F982B91A392A180953A
:1023E000892382A3789400C0E9E7F1E0912C31E0E1
:1023F00021912F3F09F4BFC0A22FA295AF70B0E08A
:1024000090968C9190E02F7002C0959587952A95B3
:10241000E2F780FDB0C0832F982A330F51E0EF37E9
:10242000F50731F7F601319780818F3F11F00E9457
:10243000B40680EA8A95F1F7F801EE0DFF1D90824F
:10244000AFEFEA1AFA0AB7E0EB16F10409F0AFCFE2
:1024500047E050E0B80189E592E00E948A297C01BA
:10246000892B41F087E0F801A9E5B2E001900D92D7
:102470008A95E1F71092560210915502112309F442
:10248000A2C00E948D052091530230915402FC019C
:10249000E21BF30B9F019093540280935302EF3F92
:1024A000F10511F008F069C0EF2B09F460C0622E4D
:1024B00040915702509158021092550210925202C8
:1024C000EFE6F2E069E5262E62E0362E6A018AE246
:1024D000C80ED11C00E0512C712CAA24A394B12C5D
:1024E00090E080E0BA01680F791FDB019C90892C95
:1024F000E89480F8882039F1892C8694B92DB17040
:102500009B2E8216130609F0DCF5DB019C929110DC
:102510003EC09080B501082E01C0660F0A94EAF70C
:10252000762F70957921D1018C906821672B792DB8
:102530007627852C912C872A552453948114910455
:1025400009F4512C608301968630910559F64A5F53
:102550005F4F3196BFEF2B1A3B0AC416D50609F020
:10256000BFCF709255025092560200935202E1146E
:10257000F104C1F52BC080E04FCF2FEF30E097CFB3
:102580008618880C9828DB019C92712EDCCF012FD5
:10259000DACF772021F040FD02C041704C932F5FCD
:1025A0003F4F26303105E9F5069631960817190791
:1025B00069F55093550280925602809156022796F3
:1025C000E2E10C94D227E114F10431F4809152023B
:1025D000882399F3111106C00E948D05909354022F
:1025E0008093530280915702909158025091550266
:1025F0008090560229E5422E22E0522EEFE6F2E0CC
:102600008C01065D1F4FEE24E394F12CD2019D90C6
:102610002D012081922630E020E06D01B1E0CB1A3F
:10262000D108BC01620F731F5701022E02C0AA0C11
:10263000BB1C0A94E2F7DB014C91742EE89470F80D
:10264000692C6A2009F4A5CF7110A9CFD6015C913D
:102650005A2141E009F440E04A60DB014C9340FF1D
:1026600005C04081A426A0828824839451E097CF9E
:102670008091E4029091E302892B8093BC019091B8
:102680004F029923A1F0892B8093BC0180913C01DA
:102690008823E1F18091F20287FF38C08EE1EEEBF2
:1026A000F1E090E08150A0F591110E949D0840E278
:1026B00050E06FE272E08CEB91E00E948A29892B56
:1026C00021F180E2ECEBF1E0AFE2B2E001900D929B
:1026D0008A95E1F7E091E902F091EA023097A9F0DA
:1026E00080913C01882359F08091F20287FF07C056
:1026F0008091BC018093BD0186E08093BC01028083
:10270000F381E02D8CEB91E00995089586E0C7CF29
:102710002191222339F29F5FC5CFCF93DF93EC0144
:10272000EA85FB85309719F06C857D8509958B814D
:102730000E94A3088C810E94AA080E94381386E098
:10274000FE0111928A95E9F7DF91CF910895CF9319
:10275000DF93EC018D8181FD18C082608D838091B3
:10276000E3029B81892B8093E3028091E4029C81A8
:10277000892B8093E4020E943813E885F98530970D
:1027800021F06C857D85CE0109951092E6021092AC
:10279000E5028D8180FD03C0CE010E948D13DF9183
:1027A000CF9108951092E40280913C01EEEBF1E0AC
:1027B0008823B1F08091F20287FF12C08EE1DF0121
:1027C0001D928A95E9F790E080E00E94BE0590E0B6
:1027D00080E00E9499051092E3020E943813089548
:1027E00086E0EDCFAAE2B0E0E8EFF3E10C94C52774
:1027F0008BE193E02091F100DC012D93CD01B3E05A
:1028000083329B07B9F780911C03833009F472C0AF
:10281000B8F4813009F449C0823009F4B3C0809122
:10282000E80083FF8BC280911B0390911C039A30B8
:1028300008F084C2E92FF0E0EC5BF54D0C949A2788
:102840008A3009F48EC08B3009F471C0893039F7B1
:1028500080911B03813219F780911F03909120030F
:10286000009711F00297D9F68091E800877F809356
:10287000E8008091E80082FF38C09091F3008091D9
:10288000F200029731F48091F100813011F086302E
:1028900021F48091F1008093F6028091E8008B771B
:1028A0008093E8000E947E04BACF80911B03813A96
:1028B00009F0B5CF8091E800877F8093E800809190
:1028C0001F0390912003892B61F460E287EF92E06F
:1028D00070E00E942A058091E8008B778093E800E1
:1028E0009ECF60E090E080E0F3CF809119038111EA
:1028F000C0CF95CF80911B03813A09F090CF809192
:102900001F0390912003892B09F089CF8091E80063
:10291000877F8093E8008091E80080FFFCCF809162
:102920003C018093F1008091E8008E77B9CF8091CF
:102930001B03813209F073CF80911F039091200314
:10294000892B09F06CCF8091E800877F8093E800A5
:102950000E947E0480911D0380933C010E94D2134B
:102960005ECF80911B03813209F059CF8091E8003E
:10297000877F8093E8000E947E0480911E038093ED
:10298000F5024DCF80911B03813A09F048CF809129
:10299000E800877F8093E8008091E80080FFFCCF0B
:1029A0008091F502BECF803899F0823809F0C6C117
:1029B00080911F038F70873008F0C0C18093E900B9
:1029C0008091EB0085FB882780F91092E90006C012
:1029D0008091170390911803911182609091E80003
:1029E000977F9093E8008093F1001092F10080911E
:1029F000E8008E779FC1882309F48DC1823009F0E9
:102A00009DC180911D03811190C180911F038F7022
:102A10002FEF280F263008F091C18093E900209114
:102A2000EB0020FF82C1933031F48091EB00806293
:102A30008093EB007AC19091EB0090619093EB0052
:102A400021E030E001C0220F8A95EAF72093EA00E6
:102A50001092EA008091EB008860EACF81116EC18C
:102A600010911D031F778091E3008078812B809364
:102A7000E3008091E800877F8093E8000E947E0455
:102A80008091E80080FFFCCF8091E3008068809314
:102A9000E30082E0111183E0809319034FC1805855
:102AA000823008F04BC120911D0330911E032C3D54
:102AB000E3E03E07A1F583E08A838AE289834FB78A
:102AC000F894DE01139620E03EE051E2E32FF0E0BF
:102AD00050935700E49120FF03C0E295EF703F5FF1
:102AE000EF708E2F90E0EA30C0F0C7968D939D93E3
:102AF0002F5F243159F74FBF8091E800877F809383
:102B0000E8006AE270E0CE0101960E942A058091F9
:102B1000E8008B778093E80011C1C096E7CF8091E1
:102B20001F0390912003432F55274330510509F48B
:102B30004AC078F54130510509F47AC08BE590E040
:102B4000E3E5F7E04230510509F0F8C02091E800D4
:102B5000277F2093E80020912103309122038217E0
:102B6000930708F49C0140E02115310509F065C088
:102B7000411163C08091E80082FDC9CF80911903A3
:102B8000882329F2853019F28091E80083FFF2CF83
:102B9000BECF4132510509F43CC04232510509F023
:102BA000CDC08330910508F0C9C0FC01EE0FFF1FB6
:102BB000E355FE4F0190F081E02D86559E4FDC01DC
:102BC0008C9190E01AC0332721303105D1F02115C6
:102BD000310561F02230310509F0B0C0E0ECF7E0DA
:102BE000E4918E2F90E0E0ECF7E007C0E4EEF7E030
:102BF000E4918E2F90E0E4EEF7E0009709F49EC098
:102C0000A5CFE6EDF7E0E4918E2F90E0E6EDF7E05A
:102C1000F4CF8330910508F091C0880F991FFC0113
:102C2000ED54FE4F0190F081E02D89E090E08ECFD1
:102C300082E190E0EEEAF7E089CF809119038823E2
:102C400009F465CF853009F462CF8091E80083FDF7
:102C50005ECF8091E80082FD8DCF8091E80080FFFB
:102C600083CF9091F3008091F2002115310519F086
:102C70008830910550F041E0089709F040E08091DC
:102C8000E8008E778093E8006FCF44914093F10085
:102C90003196215031090196E8CF803809F04EC0B5
:102CA0008091E800877F8093E80080911A038093E9
:102CB000F1009DCE811142C010911D031230F0F53C
:102CC0008091E800877F8093E80010931A030E94A8
:102CD0007E04112311F084E005C08091E30087FD9C
:102CE000FACF81E08093190342E061EC81E00E9419
:102CF0009D0442E261EC84E00E949D0442E261ECAA
:102D000082E00E949D0442E260EC83E00E949D0408
:102D10008091190313C080911D03813079F481E003
:102D2000933009F080E0809318031092E9008091BD
:102D3000E800877F8093E8000E947E048091E8008D
:102D400083FF0AC08091E800877F8093E80080912C
:102D5000EB0080628093EB00AA96E3E00C94E127FD
:102D60000E94D2132FEF84E39CE0215080409040DA
:102D7000E1F700C0000088E19CE00FB6F894A89548
:102D8000809360000FBE90936000FFCF882321F0F6
:102D90000E94A3080E9438130895882339F0909167
:102DA000E302982B9093E3020E943813089588233E
:102DB00021F00E94AA080E9438130895882339F050
:102DC0009091E402982B9093E4020E9438130895A6
:102DD000882309F44DC0823879F40E94E30581FF0D
:102DE00047C089E30E94DC080E94381389E30E94EF
:102DF000B1080E9438130895833859F40E94E305FE
:102E000080FF36C083E50E94DC080E94381383E50A
:102E1000EECF843859F40E94E30582FF29C087E48D
:102E20000E94DC080E94381387E4E1CF9CEF980FE2
:102E3000913AE8F290E2980F983050F4877091E060
:102E400001C0990F8A95EAF7892F0E94AA08D1CF6D
:102E50009BE5980F933028F490E080E00E94BE0537
:102E60000895885A893120F490E080E00E94990505
:102E70000895CF93DF93EC010E94E816CE010E94E3
:102E80009C090E94C616DF91CF9108958091DC01C4
:102E9000833049F0843011F0823041F487E292E0CF
:102EA0000E943917089580E40E94D71608958091F2
:102EB000DC01833049F0843011F0823041F486E245
:102EC00092E00E943917089581E00E94D716089574
:102ED000CF93C82F8823C9F08238C9F40E94E30534
:102EE00081FD13C089E30E94DC080E9438132FEF94
:102EF00087EE93E0215080409040E1F700C0000051
:102F000089E30E94B1080E943813CF910895833855
:102F1000A1F40E94E30580FDF8CF83E50E94DC0860
:102F20000E9438132FEF81EE94E0215080409040B2
:102F3000E1F700C0000083E5E4CF8438A1F40E94EB
:102F4000E30582FDE2CF87E40E94DC080E9438138B
:102F50002FEF81EE94E0215080409040E1F700C0D7
:102F6000000087E4CECF8CEF8C0F813A88F58091FA
:102F70003C01882301F18091F20287FF1CC0EC2FF5
:102F8000E695E695E695F0E0E454FE4F828190E008
:102F90004C2F477021E030E002C0220F331F4A95CA
:102FA000E2F782239323892B79F08C2F0E94B108BA
:102FB0000E94381309C0EEEBF1E08191C817A9F324
:102FC00021E0E43CF207C9F78C2F0E94DC089BCF7C
:102FD00080E28C0F883068F4C77021E030E001C0D7
:102FE000220FCA95EAF78091E402822B8093E402D3
:102FF0008ACFEBE5EC0FE33040F4F0E0E35CFE4F0A
:10300000808190E00E94BE0580CFC85AC93108F087
:103010007CCFEC2FF0E0EE0FFF1FE05CFE4F8081D5
:1030200091810E94990571CF1F93CF93DF93182F41
:10303000EB010E946817209739F4812F0E94E8164F
:10304000DF91CF911F9108958FE99FE00197F1F7EC
:1030500000C000002197EFCFCF93C82F0E949C099A
:103060000E94CD168C2F0E946817CF9108950E9460
:10307000440A8093DC01833049F0843059F0823077
:1030800021F487E292E00E942C18089580E40E94C7
:10309000DE16089587E292E00E942C1887E292E003
:1030A0000E943917EECF0E94440A8093DC018330DE
:1030B00049F0843059F0823021F486E292E00E9497
:1030C0002C18089581E00E94DE16089586E292E0B1
:1030D0000E942C1886E292E00E943917EECFA8E0F9
:1030E000B0E0E5E7F8E10C94B8278C01DC01139619
:1030F0008D919C911497892B49F04C9111965C917C
:103100001197842F85238F3F09F06EC52896E0E143
:103110000C94D427A114F4E0BF0699F1C5010E94D4
:103120009729811101C0EA942FEFA21AB20AB1C502
:103130005601843009F0E2C542E0E42EF12C56013C
:103140002FEFA21AB20AC6010E949729E1E0F0E02F
:10315000EC0FFD1FEE0DFF1D8083882391F08C374F
:1031600041F4E2E0F0E0EC0FFD1FEE0DFF1D1082D8
:10317000C5C53FEFE31AF30A650147E0E416F10421
:10318000F1F680912E02877009F4C0CFF801828198
:10319000882309F4BBCF8091F30282FFB7CF82E08E
:1031A0000E94180AB3CF5701A9C5923049F4E2E052
:1031B000EE0EF11C0E9468179FEFE91AF90AA1C5EB
:1031C000933031F4F2E0EF0EF11C0E94E816F4CFD8
:1031D000943021F02FEFE21AF20AEECF32E0E30E44
:1031E000F11C30E020E0B7016F5F7F4FD7011196EF
:1031F0004C918053990B8A30910550F02150310940
:10320000D8F2EFE9FFE03197F1F700C00000F6CF08
:10321000429EF001439EF00D11249C012E0F3F1F92
:10322000842F7B01E0CFE22FF0E0EB5FFD4F549065
:10323000822F86958695869590E0FC01EB50FE4F97
:1032400064902770712C022E02C0759467940A94C2
:10325000E2F731E063227724FC01EB51FE4F8490CA
:10326000912C022E02C0959487940A94E2F741E0D3
:1032700084229924FC01EB52FE4FC490D12C02C051
:10328000D594C7942A95E2F751E0C522DD24611454
:10329000710419F081EE0E9468178114910419F0ED
:1032A00086EE0E94681789E370E060E0581202C061
:1032B00060E570E0852D0E9414188114910419F0C6
:1032C00086EE0E94E8166114710419F081EE0E94E6
:1032D000E816C114D10409F46FCF70E060E08CE20D
:1032E00028C581E00E94340A0E94F6094ACF81E095
:1032F0000E94060AF9CF82E0F5CF9E2D8F2D45C49E
:10330000F901858181FF45C4C9010E948D1341C423
:103310008091F20281608093F20295C08091F30265
:1033200088608093F3028FC08091F2028260F3CFB5
:103330008091F2028460EFCF8091F2028860EBCF3F
:103340008091F3028160EDCF8091F3028260E9CF3A
:103350008091F2028061DFCF8091F2028062DBCF48
:103360008091F2028064D7CF0E94D2138091F20242
:103370008068D1CF8091F2028C60CDCF8091F30232
:103380008360CFCF8091F2028E7FC5CF8091F30210
:10339000877FC7CF8091F2028D7FBDCF8091F202EF
:1033A0008B7FB9CF8091F202877FB5CF8091F302F6
:1033B0008E7FB7CF8091F3028D7FB3CF8091F202E1
:1033C0008F7EA9CF8091F2028F7DA5CF8091F202EE
:1033D0008F7BA1CF0E94D2138091F2028F779BCF77
:1033E0008091F202837F97CF8091F3028C7F99CFF7
:1033F0008091F20282FB992790F921E0922790FBBD
:1034000082F990FB83F987CF8091F302982F9095F2
:1034100091708E7F892B90FB81F983CF9091F2027E
:10342000892F8F7B96FF806476CF0E94D213909174
:10343000F202892F97FB87F980586DCF61E08EE00B
:1034400090E00E94AB296091F2027091F30284E057
:1034500090E00E94C9290E94D21393CE60E0EFCF82
:103460009091F202892F8F7E94FF806154CF9091CA
:10347000F202892F8E7F90FF81604DCF9091F302F1
:10348000892F877F93FF88604CCF85E366C4809146
:10349000DD01811104C089E20E94B10860C485E3A6
:1034A000FBCF8091DE0280FF12C08E7F8093DE0210
:1034B0006091DE027091DF028091E0029091E10262
:1034C0000E94C70F109281020E94790C5ACE81602F
:1034D0008093DE0261E086950E94BF1052CE44E0E8
:1034E00051E16EE071E10E94F0054BCE4EE051E1FA
:1034F00064E071E1F8CF47E850E161E970E1F3CFB2
:1035000041E950E167E870E1EECF4DE650E16AE74E
:1035100070E1E9CF4AE750E16DE670E1E4CF43E5C1
:1035200050E160E670E1DFCF40E650E163E570E135
:10353000DACF4BE950E16DEA70E1D5CF4DEA50E1C9
:103540006BE970E1D0CF61E081E0C6CF65E082E059
:103550000E94191116CE68E086E0FACF6EE089E08D
:10356000F7CF64E18FE0F4CF67E185E1F1CF61E06F
:1035700088E1B2CF62E289E1EBCF61E083E2ACCFD8
:103580006AE285E2E5CFB3E0EB16BCE7FB0609F49F
:1035900076C008F055C0E114FCE7FF0609F462C0EC
:1035A00021E0E2162CE7F20609F46FC0D80112966A
:1035B0008C911297ED90FC90882309F474C0C70198
:1035C0000E94BC0BD82E682FC7010E944D09B7017D
:1035D0008D2D0E94AE0B0E940E077C01882EF801F3
:1035E000D280B580B2943FE0B32280912E028770E2
:1035F000C1F0AD2CDD20B1F08F2D807F803421F023
:1036000080E28E0D883068F08091F30282FF09C05D
:1036100082E00E94180A80912E028770AA24A39447
:103620008111A12C9F2C92942FE09222FBE0F9159E
:1036300008F4A5C0E92DF0E0E25BF54D0C949A2763
:103640003BE5E3163CE7F30661F14CE5E4164CE795
:10365000F406E9F05AE5E5165CE7F50609F0A6CFB1
:1036600081E01CC00E94D2138FEF94E3ACE0815044
:103670009040A040E1F700C000000E94BD0A6FEF3B
:103680007FEF90E080E00E94C9290E94B0168091EF
:10369000F30282FB882780F991E089270E949D111F
:1036A00085CF80E0FBCFC7010E941A09D82E8FCFAB
:1036B0002F2D2F70C22E8F2D807F19F0C29490EF86
:1036C000C922DD20B9F0CC2069F080E28E0D88306F
:1036D00010F0811009C08091E402C82AC092E4026F
:1036E0000E9438138E2D49C08091E302C82AC092EF
:1036F000E302F6CF8E2D0E94E816CC2009F43FC0DD
:1037000080E28E0D883010F0811004C08C2D0E9454
:10371000AA0803C08C2D0E94A3080E9438132FC052
:103720003F2D3F70C32E8F2D807F803219F0C294C1
:1037300080EFC822882089F041E0841609F479C01E
:10374000DD2009F483C0BB2009F479C0F80185812C
:1037500080FFC8CF8F70858372C02091F30222FD55
:1037600040C0DD20C1F1CC2039F08091E402C82AAC
:10377000C092E4020E94381380E00E946817492D2D
:103780004850550B4430510520F40E94E3050E9437
:103790009509AA20B1F080912E0280FD12C0D801B7
:1037A00012961C928595859585950E94340AC801CC
:1037B0000E946F1880912E028595859585950E94AF
:1037C000060A20E0F8014081518162817381848181
:1037D0000E94270C9BCC80E00E94E816CC2079F256
:1037E00095CFDD20A1F090914F028C2D892BB11047
:1037F00003C00E94DE16C3CF51E0B512FACF22FFFC
:10380000BECF891709F4BBCF80934F02B8CFB11058
:1038100006C00E949D088C2D0E94D716B0CF81E073
:10382000B81609F4ACCF8C2D0E94D7160E949D08C3
:10383000A6CFDD2031F095E09B1508F4A0CF8C2DAC
:10384000D8CFA4E0AB1508F49ACFE5CFBB2019F38D
:10385000F9E38F1209C02FEF37EE43E021503040DB
:103860004040E1F700C000008E2D0E94E81687CF8F
:103870008F2D86958695837061F0813009F07FCF1A
:10388000C7019370D11002C080E090E00E949905BA
:1038900076CFC7019370D11002C080E090E00E9403
:1038A000BE056DCF8F2D837009F040C0D11067CF5A
:1038B0004E2D429546954770440F440F8E2D8F70C4
:1038C00090E0042E02C0880F991F0A94E2F730E0BE
:1038D00020E0E4FE09C02FE030E002C0220F331FD9
:1038E0004A95E2F7209530954F2D469546954370C1
:1038F000423099F078F46091500270915102413059
:1039000039F0822B932B862397230E94830937CF8C
:10391000862B972B822B932BF8CF822B932B2091E6
:1039200050023091510282279327EFCF8695DD20F8
:1039300011F08F2D8170882309F421CF4E2D4295EF
:1039400046954770440F440F8E2D8F7090E0042EE3
:1039500002C0880F991F0A94E2F730E020E0E4FEED
:1039600009C02FE030E002C0220F331F4A95E2F772
:10397000209530954F2D469546954370423099F0ED
:1039800078F46091230370912403413039F0822B45
:10399000932B862397230E94EF09F1CE862B972B3A
:1039A000822B932BF8CF822B932B209123033091E2
:1039B000240382279327EFCF5F2D5F70F52EDD2044
:1039C00029F0852F0E94340A8E2D13CF8E2D0E9450
:1039D000D7168F2D0E94060AD2CE8E2D92EF891611
:1039E000A1F1981570F0A0EF8A16D1F0B1EF8B1607
:1039F00091F0DD2009F461C0B11074CE8F2D8F716C
:103A000028C0E3EF8E1641F1F4EF8F12F2CF8091D0
:103A1000F30282FD32C08F2D8F71DD20D9F219C0E3
:103A2000DD2071F024E02B1508F4A9CE2F2D2F7185
:103A300081E090E002C0880F991F2A95E2F7B5CF88
:103A400035E03B1508F49BCEF1CF8F2D8F71D1104F
:103A5000C1CF0E94340A93CE90E080E0DD2009F4CB
:103A60009ACF9F2D9F7121E030E0A90102C0440F41
:103A7000551F9A95E2F7CA018ECFDD2099F05F2D90
:103A80005F71F52E852F0E94340A8091F30282FF28
:103A900007C0A8E0FA9EC0011124836080932E0223
:103AA0008F2DD7CF81E00E94180AB1E0BB1508F036
:103AB00066CE82E00E94180A62CEBB2059F089339C
:103AC00009F0D2CEEFEFF7EE23E0E150F0402040D6
:103AD000E1F7C8CE8F2D8F717DCFE114F7E7FF0698
:103AE00009F4FFCB21E0E21627E7F20609F403CC44
:103AF000970137552F3F310511F008F04AC05701A3
:103B0000BB24AEE0EA9EF00111249F012E5E3E4FE1
:103B10006901E95EFE4F908180FB90F990838823D4
:103B200009F4EECB0E948D0590936D0280936C0298
:103B3000D60112968C9112978F5F12968C931297E2
:103B40008091E3029091E402892B13968C93139752
:103B500080914F0214968C9314971696ED91FC91D8
:103B60001797309729F01C966D917C91C6010995A5
:103B70008EE08A9DF0018B9DF00D1124EE5EFE4FCC
:103B8000858181FFBACB90E080E09093E50280933D
:103B9000E602D80112968C91882309F4E3C0C7018C
:103BA0009057839708F0C8C084E090E00E94A52950
:103BB0009093F3028093F202F701E150F047E23272
:103BC000F10508F0A5CBE65AF54D0C949A27E114BF
:103BD00037E7F30609F48BCB41E0E41647E7F40638
:103BE00009F086CF82E084CB21E012966C91129787
:103BF00013967C91139714968C910E94270C7C014C
:103C0000F8018281882369F18091E5029091E602B2
:103C1000009739F18E159F0521F1BEE08B9FC00101
:103C20001124FC01E95EFE4F2081246020838E5E1A
:103C30009E4FFC01F182E0820E94A7131092E302E2
:103C400021E0D8014C9111965C91119712966C91DC
:103C5000129713967C91139714968C910E94270CBF
:103C60007C01F8018281882309F4B1CF97012250A9
:103C700037472031310508F030CF8FEF93E00E94B5
:103C8000972981117ECAEA94EA946AE1A62E63E03C
:103C9000B62EE1103FCAFE01339686E0DF011D9289
:103CA0008A95E9F75AE0452E7501BFEFEB1AFB0A3A
:103CB000C5010E94972989831A82882309F461CA61
:103CC000813009F070CA6501E2E0CE0ED11CC70157
:103CD0000E9497298A83882309F453CA9FEF980F7B
:103CE000933008F025CAF3E0AF0EB11CC6010E9464
:103CF00097298B83882309F444CA1C82CE0101963C
:103D00007C01D7012C91222379F2213009F08BCA52
:103D100011969C91119712968C91913009F045CA99
:103D2000B2E0EB0EF11C70E060E0893311F460E565
:103D300070E00E94141840CAF6E1EF16FCE7FF0697
:103D400009F021CC8091E4028A7A91E009F490E0B4
:103D50009093DD01811199CB89E20E94DC080E94D9
:103D600038130FCA26E1E2162CE7F20609F48FCBCE
:103D70008091E4028272F701E052F847E531F105E3
:103D800008F014CCE458F54D0C949A271F93CF9368
:103D9000DF938091FB01807F09F049C08091F80199
:103DA000882309F444C080912D02D091FC016091D8
:103DB000F6017091F701A091F901B091FA01C62FB7
:103DC000C72316E0D81799F190E0109711F0CF3F74
:103DD00019F401968770F6CF189F9001199F300D46
:103DE0001124F901E350FE4F41814713F2CF408186
:103DF0004613EFCF42814111ECCF438154814A1BDE
:103E00005B0B483C510528F78091FB018F70806166
:103E10008093FB01F901EE5FFD4F80818F7080611F
:103E2000808386EF91E00E946F180E941009DF9155
:103E3000CF911F910895A1E1B0E0E1E2FFE10C9480
:103E4000BE278C0185E0F801DE011D9601900D92E0
:103E50008A95E1F7F801E28086EFA82E81E0B82E7E
:103E60006091F9017091FA016115710509F426C19B
:103E70009091F6014091F701892F84238F3F09F437
:103E80001DC120813181C380D480F090F801F601FA
:103E9000E61BF70BFF2009F4DCC08091FB01582FD3
:103EA000507FE83CF10508F09FC051116BC0FE2C1B
:103EB000431314C0921312C0E11010C08F708061C0
:103EC0008093FB01C5010E946F188091FB01F801EE
:103ED00085838F2D6196EAE00C94DA27C114D10412
:103EE00029F0822F83238F3F09F003C180E0F82F50
:103EF000F170DF2E80FF3CC080912D024091FC01CB
:103F000056E0841315C02D873E878D859E850E94BF
:103F1000F00B292F22952F702230F0F0243018F565
:103F20009F70F1F0F8019581907FD1F4D12C1EC0E3
:103F300090E0589FF001599FF00D1124E350FE4F7F
:103F40006181361306C06081261303C06281E612C8
:103F50000FC001968770D5CF9F7011F0882331F381
:103F6000805E883018F3C8010E946F18FD2CB1CF15
:103F7000EE2009F4AECF8091FB0181608093FB01BC
:103F8000F12CA7CF431306C0921304C0F801EE2012
:103F900009F479C0C8010E94FD0B882309F1EE20C5
:103FA000F9F08091FB01803270F02091F6013091A0
:103FB000F70138872F831986DB86CA868C87CE0166
:103FC00007960E946F1886E0F801A6EFB1E0019015
:103FD0000D928A95E1F70E94C61EFF24F39479CFD3
:103FE000C8010E946F18F9CF51110AC086EF91E005
:103FF0000E946F1886E0F50111928A95E9F7C0CF0B
:1040000043130FC092130DC0E1100BC0F80185835C
:10401000C8010E946F1886E0F50111928A95E9F7B0
:1040200058CFC8010E94FD0B8823D1F2EE20C1F2C7
:104030008091FB01803238F22091F6013091F70136
:104040003A8329831B82DD82CC828E83CE01019646
:10405000B8CFE83CF105F8F6FE2CEE2009F2431348
:104060001FC092131DC08091FB0180FD10C0982FCE
:10407000907F69F0F8018583903F31F0982F907F11
:10408000905F8F70892B8583C8010E946F1886E02E
:10409000F801A6EFB1E001900D928A95E1F719CFF2
:1040A000C8010E94FD0B81118ECF8091FB018160C0
:1040B0008093FB01C8010E946F180BCFEE2009F41A
:1040C0008FCFC8010E94FD0BF82E882309F488CFFA
:1040D00086E0F801A6EFB1E001900D928A95E1F734
:1040E0008091F6019091F7010E94F00B0E94C61E8C
:1040F000F0CE81E08E25FBCEA7E1B0E0E2E8F0E271
:104100000C94C5274B8B5C8B6D8B7E8B8F8B6111D9
:104110001092E3021A8A198A85E0FE017396DE0185
:104120001D9601900D928A95E1F786E0FE013D967D
:10413000DE01179601900D928A95E1F7CE01079660
:104140000E941B1F882359F016E080912D02909148
:10415000FC01891343C06796E3E00C94E12786E0F5
:10416000FE013796DE01119601900D928A95E1F7D6
:104170008A859B85892B41F38F81988589238F3F81
:1041800019F32091FC0130E0C9010196877099274D
:1041900040912D024817190671F40E94D213109213
:1041A000FC0110922D0286E0E6EFF1E0DF011D92A6
:1041B0008A95E9F7C9CF96E0929FD001939FB00D01
:1041C0001124A350BE4FFE01319601900D929A9595
:1041D000E1F78093FC010E941009B6CF819FC001D6
:1041E000112483509E4F0E941B1F882309F4B3CFD4
:1041F00080912D0290E001968770992780932D027F
:10420000A4CF1F920F920FB60F9211242F933F93BA
:104210004F935F936F937F938F939F93AF93BF93CE
:10422000CF93DF93EF93FF93D091E900DF708091FC
:10423000EC00C82FC17080FDC0E81092E9008091A9
:10424000F000877F8093F00078940E94F213109220
:10425000E9008091F00088608093F000CD2BCF7052
:10426000C093E900FF91EF91DF91CF91BF91AF91A2
:104270009F918F917F916F915F914F913F912F917E
:104280000F900FBE0F901F9018951F920F920FB6B0
:104290000F9211242F933F934F935F936F937F93CC
:1042A0008F939F93AF93BF93EF93FF938091E10020
:1042B00082FF09C08091E20082FF05C08091E10089
:1042C0008B7F8093E1008091DA0080FF24C0809191
:1042D000D80080FF20C08091DA008E7F8093DA00C2
:1042E0008091D90080FF9DC080E189BD82E189BDB8
:1042F00009B400FEFDCF81E0809319038091F402A0
:10430000811109C00E942E040E94CF048091E20016
:1043100084608093E2008091E10080FF17C080916B
:10432000E20080FF13C08091E2008E7F8093E20064
:104330008091E20080618093E2008091D8008062E9
:104340008093D80019BC85E0809319038091E10027
:1043500084FF2BC08091E20084FF27C080E189BDEB
:1043600082E189BD89B5982F917080FFFBCF809144
:10437000D8008F7D8093D8008091E1008F7E80935C
:10438000E1008091E2008F7E8093E2008091E20064
:1043900081608093E20080911A03882309F447C06A
:1043A00084E080931903809119038091E10083FFD9
:1043B00027C08091E20083FF23C08091E100877FC6
:1043C0008093E10082E08093190310921A03809198
:1043D000E1008E7F8093E1008091E2008E7F8093E8
:1043E000E2008091E20080618093E20042E060E0C0
:1043F00080E00E949D048091F00088608093F0002E
:10440000FF91EF91BF91AF919F918F917F916F91AC
:104410005F914F913F912F910F900FBE0F901F9082
:10442000189519BC109219031092F40274CF809160
:10443000E30087FD93E090931903B5CF78941F9222
:104440001FB61F9211248F939F93AF93BF938091B8
:10445000EE029091EF02A091F002B091F10201966C
:10446000A11DB11D8093EE029093EF02A093F00284
:10447000B093F102BF91AF919F918F911F901FBE9A
:104480001F9018951F921FB61F9211248F939F9310
:10449000AF93BF938091ED02811113C08091EE0222
:1044A0009091EF02A091F002B091F1024196A11D0E
:1044B000B11D8093EE029093EF02A093F002B093AF
:1044C000F102BF91AF919F918F911F901FBE1F90DE
:1044D0001895CDB7DEB7AA970FB6F894DEBF0FBE1A
:1044E000CDBF85B7806885BF85B7806885BF84B735
:1044F000877F84BF0FB6F894A8958091600088618B
:1045000080936000109260000FBE80E890E00FB6CC
:10451000F89480936100909361000FBE82EB96E067
:104520009093BB018093BA010E942E040E94CF0495
:104530008091E20084608093E20078948091190376
:104540008823A1F01091E9001F709091EC00892F51
:10455000817090FD80E8182B1092E9008091E800AE
:1045600083FD0E94F2131F701093E90082E084BD66
:1045700093E095BD9AEF97BD80936E000E944A0C20
:10458000811102C00E946F0B02E711E099E7E92E4A
:1045900091E0F92ED8018D918D018F3F11F00E948D
:1045A000B406E016F106B1F709E711E08FE7E82E4F
:1045B00081E0F82EF80181918F018F3F11F00E9468
:1045C000B406E016F106B1F787E0EFE6F2E0DF01AE
:1045D000282F1D922A95E9F7E9E5F2E0DF011D9207
:1045E0008A95E9F78AE290E00E945228BC019093F4
:1045F00058028093570230E020E0FB01E20FF31FE6
:1046000096E04081417041939150D9F72A5F3F4F26
:104610002A32310591F70E94B411811102C00E9423
:10462000391182E090E00E9497298093640284E02F
:1046300090E00E94A5299093F3028093F2020E94D9
:10464000C011EFE3FCE93197F1F700C000000E94D0
:10465000C01180916F0281FF08C06FEF7FEF90E083
:1046600080E00E94C9290E94BD0A83E090E00E9478
:10467000972990E00E94830980912303909124035D
:104680000E949E0980916002811133C00E94B41182
:10469000811104C00E9439110E94291188E090E024
:1046A0000E949F296093DE027093DF028093E002F4
:1046B0009093E1026E7F71F40E94291188E090E0EE
:1046C0000E949F296093DE027093DF028093E002D4
:1046D0009093E1020E940D06109281028091DE0209
:1046E00080FF04C060E086950E94BF1081E0809347
:1046F000600285E892E090937902809378028AE0E4
:1047000091E09093EA028093E90218E1E12EF12C06
:1047100000E4D02ECC24C3948091190300E112E16F
:10472000853009F49BC00E94C011A5E68A2EA2E044
:104730009A2EBFE6AB2EB2E0BB2ED501F4019191CB
:104740008D9122E0EC36F20709F4A5C09817B9F371
:1047500010E0D5010D915D01F40151904F0150160B
:1047600019F15026712C66246394862D8521A1F0C1
:104770007EA21FA391E0862D802309F490E098A7E4
:104780000E948D058160782F9AA789A74EA15FA10D
:1047900068A58AA50E947C207394660CF6E07F12BF
:1047A000E4CFF401319700831F5F173091F68FB784
:1047B000F8944091EE025091EF026091F0027091F6
:1047C000F1028FBF88C080911903843009F437C08B
:1047D00080E00E94950910928102809177028111F8
:1047E0000DC0C09277028091DE02982F9170909355
:1047F00061028E7F8093DE020E94790C1092ED029E
:104800000FB6F894A895E09260000FBED0926000B9
:1048100083B7817F846083BF83B7816083BF7894CF
:10482000889583B78E7F83BF0FB6F894A895809143
:104830006000886180936000109260000FBE8091DC
:104840001803882359F00E94C011EFE6F2E081912D
:1048500081110FC322E0E637F207C9F780911903EF
:10486000853009F4B0CF0E94D2130E94E3050E9464
:1048700095091092770280916102882329F00E94A5
:10488000FA100E94630C4FCF809182028823C9F3F3
:104890000E94790CF6CF98135BCF0E948D058C0196
:1048A000809162029091630208171907A1F08FEFBF
:1048B00089A38AA31BA20E948D058160782F9DA3E6
:1048C0008CA349A15AA16BA18DA10E947C201093B9
:1048D0006302009362028091E5029091E602892BC7
:1048E00021F120916C0230916D024FB7F8948091C4
:1048F000EE029091EF02A091F002B091F1024FBF51
:10490000821B930B893C910580F08091E5022EE09B
:10491000829FC0011124FC01E95EFE4F208122FD2F
:1049200004C08E5E9E4F0E94A7138091810288234F
:10493000D1F180918002E091DE02E695E81BE093E0
:104940007C02823009F083C0F0E0E655FD4FE4912F
:104950000E2F10E0F3EBAF2EFFE0BF2E80917D0213
:10496000882361F010927D020E948D0590937B0256
:1049700080937A0210927F0210927E020E948D052F
:10498000E0917A02F0917B028E1B9F0B8F3F9F4735
:1049900050F4E00FF11FF0937B02E0937A028AE774
:1049A00092E0F501099580917602882389F01092B2
:1049B000760280918102811106C08091DE0260E062
:1049C00086950E94BF108091DE0280FF0E94790CC4
:1049D0000E94E30590916E02891779F080936E0230
:1049E0009FB7F8944091EE025091EF026091F0026F
:1049F0007091F1029FBF0E94950980911903843044
:104A000009F08ACE83E08093E9008091E80082FF7C
:104A100083CE8091E80090E085FF06C00E944D049F
:104A2000882309F480C091E08091E8008B7780931F
:104A3000E800992309F470CE8981EFEFE80FE331A4
:104A400008F098C0F0E0EF56F54D0C949A278630A8
:104A500059F4F0E0E955FD4FE4910E2F10E0E3EA40
:104A6000AE2EEFE0BE2E7ACF893061F4E695F0E00D
:104A7000EC55FD4FE4910E2F10E077E1A72E7FE07B
:104A8000B72E6CCF8F3061F4E695F0E0EF55FD4F17
:104A9000E4910E2F10E062EBA62E6EE0B62E5ECFF4
:104AA000853159F4F0E0E256FD4FE4910E2F10E00D
:104AB00054E6A52E5EE0B52E51CF08E210E029EEB7
:104AC000A22E2DE0B22E883109F448CF833249F46A
:104AD000ECE9F2E00591149142E5A42E4FE0B42EEA
:104AE0003DCF04EF11E092EBA92E9DE0B92E843268
:104AF00009F434CF853281F48E2F63E00E94582769
:104B0000E92FF0E0E756FD4FE4910E2F10E038E179
:104B1000A32E3DE0B32E22CF00ED17E088E8A82EAB
:104B200085E0B82E1BCF00E210E0CE0101965C01BB
:104B30008091E80085FD0AC08091E8008B77809322
:104B4000E8000E944D04882399F36DCF8091F10015
:104B5000D5018D935D010150110951F764CF1A827F
:104B60008BE08B8328C08A81823009F498C128F4B5
:104B7000813051F18FEF89831EC0833039F084304A
:104B8000C9F71B821C821D821E8215C080916F0294
:104B90008B83809170028C83809171028D838091D0
:104BA00072028E83809173028F8380917402888752
:104BB00080917502898740E250E0BE016F5F7F4FB0
:104BC00082E00E94570AA8CD2FB7F8946091EE02B8
:104BD0007091EF028091F0029091F1022FBF0E943C
:104BE000A0276B837C838D839E83E5CF8A8182306F
:104BF00089F0853009F0BECF8091DE0280FF15C0BC
:104C00008091DE028E7F8093DE02109281020E94EC
:104C1000790CD1CF6B817C818D819E810E94A027F0
:104C200085E290E00E94AB29C6CF0E94FA10C3CF64
:104C30004C816B818A810E947F0B98278927982756
:104C40009E838D83B8CF2D813E8132272327322743
:104C50004C816B818A810E94F10AADCF0E94170BB3
:104C6000AACF9A81923009F085CF8830B1F189308E
:104C700009F45EC08B81823009F1A8F4813009F01B
:104C80009ACF8C81BFEF8B9FC00111246FEF70E032
:104C90000E947227462F20E06091E0028091DF029F
:104CA0000E94DA0F88CF8330A1F0843009F083CFDF
:104CB00020E04091E1026D818C81F2CF8C818823CC
:104CC00009F49ECF0E94FA1060E08C810E94BF1010
:104CD00072CF8C818093E2026ECF8B818230E1F0C3
:104CE00078F4813009F067CF8091E102EFEF8E9F79
:104CF000C00111246FEF70E00E9472276C835BCFBC
:104D0000833099F0843009F056CF8091DF028C8394
:104D10008091E0028D834FCF8091DE0280FF03C03F
:104D200086958C8348CF80E0FCCF8091E202F9CF5A
:104D30006091DE027091DF028091E0029091E102C9
:104D40000E94C70F38CF80E18A8335CF1A8286EE62
:104D500008CFAA80BB80BA24AB24BA248E010F5F8F
:104D60001F4F8C80800E912E911CC501865E9C4F3A
:104D70000815190509F41FCFF6EEAF16B10458F463
:104D80000E949729D80114968C93FFEFAF1ABF0A9F
:104D90000F5F1F4FEACFF8011482F7CF0A811B8102
:104DA000102701271027CE0101964C01AC80A00EE0
:104DB000B12EB11CC801865E9C4F0A151B0509F473
:104DC000FACE063E110528F4D40114966C910E9487
:104DD000AB29BFEF8B1A9B0A0F5F1F4FEBCF0E94CF
:104DE000E10AE9CE89E0B0CFAA80BB80BA24AB2427
:104DF000BA248E010F5F1F4F8C80800E912E911C64
:104E0000C50186968016910609F4D5CEE4EFAE165C
:104E1000E2E0BE0658F40E949729D80114968C93BC
:104E2000FFEFAF1ABF0A0F5F1F4FEACFF8011482DE
:104E3000F7CF0A811B81102701271027CE01019689
:104E40004C01AC80A00EB12EB11CC8018696A016F4
:104E5000B10609F4B0CE043FA2E01A0720F4F40131
:104E600064810E94AB29FFEF8F1A9F0A0F5F1F4FCB
:104E7000ECCF09BD19BD09B400FEFDCF8091D8006B
:104E80008F7D8093D8008091E00082608093E00065
:104E90008091E00081FDFCCF0E94D213DFCC85E23F
:104EA00090E00E9497291B821C821D828E8383CEF4
:104EB000991B79E004C0991F961708F0961B881F6C
:104EC0007A95C9F78095089587FB082E062687FDF9
:104ED000819567FD61950E9458270EF4919507FC16
:104EE00081950895AA1BBB1B51E107C0AA1FBB1FD8
:104EF000A617B70710F0A61BB70B881F991F5A9566
:104F0000A9F780959095BC01CD01089597FB072ED8
:104F100016F4009407D077FD09D00E94722707FC91
:104F200005D03EF4909581959F4F089570956195B9
:104F30007F4F0895EE0FFF1F0590F491E02D099427
:104F400069279627692778278727782708950E9459
:104F5000332A332312F48A1B9B0B0C94B1270E9433
:104F6000332AB7FF0895821B930B08952F923F9227
:104F70004F925F926F927F928F929F92AF92BF9269
:104F8000CF92DF92EF92FF920F931F93CF93DF9315
:104F9000CDB7DEB7CA1BDB0B0FB6F894DEBF0FBE72
:104FA000CDBF09942A88398848885F846E847D84BF
:104FB0008C849B84AA84B984C884DF80EE80FD80C1
:104FC0000C811B81AA81B981CE0FD11D0FB6F89437
:104FD000DEBF0FBECDBFED0108958F929F92AF92BD
:104FE000BF92CF92DF92EF92FF92CF93DF93EC01CB
:104FF000688179818A819B8161157105810591059F
:1050000021F464E279ED8BE597E02DE133EF41E0A7
:1050100050E00E94DF2949015A019B01AC01A7EA37
:10502000B1E40E94FE296B017C01ACEEB4EFA50156
:1050300094010E940C2ADC01CB018C0D9D1DAE1D3C
:10504000BF1DB7FF03C00197A109B04888839983AA
:10505000AA83BB839F77DF91CF91FF90EF90DF9082
:10506000CF90BF90AF909F908F9008950E94ED27B2
:10507000089580E091E00E94ED270895B0E0A0E05F
:105080008093000190930101A0930201B09303016A
:105090000895FB01DC0102C005900D924150504083
:1050A000D8F708950F931F93CF93DF938230910524
:1050B00010F482E090E0E0912703F091280330E0C3
:1050C00020E0B0E0A0E0309799F42115310509F413
:1050D00047C0281B390B24303105C0F58A819B81DC
:1050E0006115710571F1FB0193838283FE0111C08B
:1050F000408151810281138148175907F8F0481700
:10510000590799F4109761F012960C931297139621
:105110001C933296CF01DF91CF911F910F9108958B
:105120000093270310932803F4CF2115310519F0BC
:105130004217530718F49A01BD01EF01DF01F8018E
:10514000C2CF9093280380932703D0CFFE01E20FB4
:10515000F31F819391932250310939832883DACF49
:105160002091250330912603232B41F42091060141
:1051700030910701309326032093250320910401E9
:10518000309105012115310541F42DB73EB740910D
:10519000080150910901241B350B409125035091C2
:1051A00026034217530708F0B5CF241B350B2817E9
:1051B000390708F4AFCFBC016E5F7F4F2617370762
:1051C00008F4A8CF640F751F70932603609325031E
:1051D000FA01819391939ECFCF93DF930097E9F0EB
:1051E000FC01329713821282C0912703D0912803C9
:1051F000DE0130E020E02097A1F420813181820F90
:10520000931F20912503309126032817390709F0B1
:1052100067C0F0932603E0932503DF91CF910895B3
:10522000DA01AE17BF0708F040C012964D915C91AD
:1052300013979D014115510599F7D9011396FC93D8
:10524000EE9312974D915D91A40FB51FEA17FB07DE
:1052500079F4808191810296840F951FD90111966E
:105260009C938E938281938113969C938E93129735
:10527000B0E0A0E08A819B810097B9F5FE018191A1
:105280009191E80FF91F80912503909126038E17C5
:105290009F0719F6109761F51092280310922703C3
:1052A000D0932603C0932503B8CFB383A283408154
:1052B0005181840F951FA817B90771F44E5F5F4F96
:1052C0008D919C911197480F591F518340831296DD
:1052D0008D919C91938382832115310509F0ADCF87
:1052E000F0932803E093270398CFDE01EC01C2CFAF
:1052F00013961C921E921297D3CFFC01415050403E
:1053000030F001900616D1F73197CF010895882724
:1053100099270895FB01DC0104C08D91019080194B
:1053200021F441505040C8F7881B990B0895F99912
:10533000FECF92BD81BDF89A992780B50895A6E168
:10534000B0E044E050E00C94D129A8E1B0E042E0A4
:1053500050E00C94D129262FF999FECF92BD81BD42
:10536000F89A019700B4021639F01FBA20BD0FB6A3
:10537000F894FA9AF99A0FBE08950396272F0E947F
:10538000AC290E94AB29252F0E94AC29242F0C9414
:10539000AC290196272F0E94AC290C94AB29DC0183
:1053A000CB01FC01F999FECF06C0F2BDE1BDF89A30
:1053B000319600B40D9241505040B8F70895052E33
:1053C00097FB1EF400940E94F62957FD07D00E9417
:1053D000112A07FC03D04EF40C94F6295095409501
:1053E000309521953F4F4F4F5F4F08959095809591
:1053F000709561957F4F8F4F9F4F08950E94332A7C
:10540000A59F900DB49F900DA49F800D911D112418
:105410000895B7FF0C94FE290E94FE29821B930B6E
:105420000895A1E21A2EAA1BBB1BFD010DC0AA1FE5
:10543000BB1FEE1FFF1FA217B307E407F50720F0FD
:10544000A21BB30BE40BF50B661F771F881F991F78
:105450001A9469F760957095809590959B01AC01C1
:10546000BD01CF010895A29FB001B39FC001A39FCA
:10547000700D811D1124911DB29F700D811D11248D
:10548000911D0895F894FFCFD314FB149E16FB14BE
:105490009E162E154F159E164D165A16581B581B44
:1054A000901B901B381CBF1BBF1BBF1B521CDC1C5E
:1054B000ED1CED1CC219371ACA1994199819CE1986
:1054C0009C19D219DE19A819301AAC19E219B019B1
:1054D000E6190E1AB419EA19151ABA19F019F819B9
:1054E000A019D619A419DA19BE19F419041A1E1A2A
:1054F0002E1A8E19C6193E1A511A6F1A761A7B1A6D
:10550000801A851A8A1A8F1A941A991A9E1AA31A3F
:10551000A61AAB1AAE1AB11AB41AB71ABA1ABD1A29
:10552000C01AAF25B325F625182623262E263126A8
:1055300031263126BA25BA25A326A626A926CE26A7
:08554000EF26F226F4261927DC
:105548000100000000002D0320008A05990A890542
:10555800920A0000000000000000531857170000CE
:10556800000000000000000037184617000001196D
:105578001A1B1C1D1E1F202122010201018182838A
:10558800E200E900EA00B500B600B700CD008301EB
:10559800CC008A01920194012102230224022502EF
:1055A800260227022A02B300B4006F0070009F0190
:1055B800CB01F4F5F6F7313332946697C6343500EB
:1055C80001020202020606060909090909090F0F64
:1055D8000F0F0F0F15151518191919191919191968
:1055E8001919232425252525252540226D95017384
:0A55F80001060165077E079E07000B
:00000001FF
