:100000000C943D070C945A070C945A070C945A0709
:100010000C945A070C945A070C945A070C945A07DC
:100020000C945A070C945A070C94DC250C949825D0
:100030000C942F270C945A070C945A070C945A07C7
:100040000C945A070C945A070C945A070C945A07AC
:100050000C945A070C940B270C945A070C945A07CB
:100060000C945A070C945A070C945A070C945A078C
:100070000C945A070C945A070C945A070C945A077C
:100080000C945A070C945A070C945A070C945A076C
:100090000C945A070C945A070C945A070C945A075C
:1000A0000C945A070C945A070C945A070631FF090E
:1000B00074A1010975150026FF00952075088102BD
:1000C0000976150026FF00952075089102C00501EC
:1000D0000980A101850319012AB700150126B7007F
:1000E000950175108100C0050C0901A10185041955
:1000F000012AA002150126A002950175108100C0F9
:100100000660FF0961A1010962150026FF00952024
:10011000750881020963150026FF00952075089176
:1001200002C005010906A101050719E029E715002C
:100130002501950875018102950175088101050762
:10014000190029FF150026FF009506750881000596
:10015000081901290595057501910295017503910D
:1001600001C00000000000000000000000000000CE
:10017000000000000000000000000000000000007F
:100180000000000000007E0F00D4FFFFFFC700004A
:10019000007800000000000000002A2B280000006A
:1001A0000000000000000000000000000029000026
:1001B00000002C1E3420212224342627252E362D03
:1001C0003738271E1F202122232425263333362E9D
:1001D00037381F0405060708090A0B0C0D0E0F100F
:1001E0001112131415161718191A1B1C1D2F313054
:1001F000232D350405060708090A0B0C0D0E0F10F8
:100200001112131415161718191A1B1C1D2F313033
:10021000354C7267626C69676874206469736162E7
:100220006C65205B454550524F4D5D3A20726762C8
:100230006C696768745F636F6E6669672E656E616F
:10024000626C65203D2025750A007267626C6967E3
:10025000687420656E61626C65205B454550524F45
:100260004D5D3A207267626C696768745F636F6E98
:100270006669672E656E61626C65203D2025750A92
:10028000007267626C6967687420746F67676C6579
:10029000205B454550524F4D5D3A207267626C6954
:1002A0006768745F636F6E6669672E656E61626C06
:1002B00065203D2025750A0044454255473A206493
:1002C000697361626C65642E0A0044454255473A81
:1002D00020656E61626C65642E0A003F00433E201B
:1002E000004F6E6573686F743A2061637469766558
:1002F0003A2025640A000A002530325820006B6538
:1003000079626F6172645F7265706F72743A200017
:100310007267626C696768745F636F6E6669672E87
:100320007370656564203D2025640A007267626C05
:10033000696768745F636F6E6669672E76616C20AB
:100340003D2025640A007267626C696768745F63A8
:100350006F6E6669672E736174203D2025640A0004
:100360007267626C696768745F636F6E6669672E37
:10037000687565203D2025640A007267686C6967AE
:1003800068745F636F6E6669672E6D6F6465203D8C
:100390002025640A007267626C696768745F636F26
:1003A0006E6669672E656E61626C65203D2025640E
:1003B0000A007267626C696768745F636F6E666972
:1003C0006720454550524F4D3A0A007267626C698A
:1003D0006768745F696E6974207267626C696768C8
:1003E000745F636F6E6669672E6D6F6465203D2074
:1003F000302E2057726974652064656661756C746F
:100400002076616C75657320746F20454550524F9E
:100410004D2E0A007267626C696768745F696E6965
:1004200074206565636F6E666967206973206E6FFF
:100430007420656E61626C65642E0A007267626C7E
:10044000696768745F696E6974207374617274217E
:100450000A007267626C696768745F696E6974200C
:1004600063616C6C65642E0A005B735D000A002595
:10047000303862003A200025303258000A722F636B
:100480002030313233343536370A0000047F3F1FC5
:10049000643214643214783C1E1E140A050A0025C6
:1004A000303258006C65645F7461736B3A2000727F
:1004B00067626C6967687420736574207370656522
:1004C00064205B4E4F454550524F4D5D3A20257597
:1004D0000A00000101010101010101010202020201
:1004E00002020202020303030303030303040404DE
:1004F00004040404050505050506060606060707A7
:1005000007070708080808090909090A0A0A0B0B5E
:100510000B0C0C0C0D0D0D0E0E0E0F0F0F101011FD
:100520001111121213131414151516161717181883
:1005300019191A1A1B1B1C1D1D1E1E1F20202122EB
:1005400022232424252626272829292A2B2C2D2D31
:100550002E2F30313232333435363738393A3B3C4E
:100560003D3E3F404142434445464748494A4C4D41
:100570004E4F50515354555658595A5B5D5E5F610A
:100580006264656668696B6C6D6F7072737577789D
:100590007A7B7D7E8082838587888A8C8E8F9193FB
:1005A0009596989A9C9EA0A2A3A5A7A9ABADAFB122
:1005B000B3B5B7BABCBEC0C2C4C6C9CBCDCFD1D407
:1005C000D6D8DBDDDFE2E4E7E9EBEEF0F3F5F8FAAD
:1005D000FDFF7267626C69676874206D6F646520E7
:1005E0005B4E4F454550524F4D5D3A2025750A00F0
:1005F0007267626C69676874206D6F6465205B4523
:100600004550524F4D5D3A2025750A007267626C65
:100610006967687420656E61626C65205B4E4F454A
:100620004550524F4D5D3A207267626C696768743D
:100630005F636F6E6669672E656E61626C65203DF3
:100640002025750A007267626C69676874206469A6
:100650007361626C65205B4E4F454550524F4D5D56
:100660003A207267626C696768745F636F6E66696F
:10067000672E656E61626C65203D2025750A0072EB
:1006800067626C696768742073657420687376208C
:100690005B4E4F454550524F4D5D3A2025752C25F8
:1006A000752C25750A007267626C6967687420731F
:1006B000657420687376205B454550524F4D5D3A16
:1006C0002025752C25752C25750A007267626C69CA
:1006D000676874207261696E626F77207365742039
:1006E0006873763A2025642C25642C25642C2575A6
:1006F0000A00FFAA7F55407267626C6967687420C0
:1007000074696D657220656E61626C65642E0A00A5
:100710007267626C696768742074696D65722064C1
:10072000697361626C652E0A002223252628292A16
:100730002C2D2F3032333536383A3B3D3E40424344
:100740004547494A4C4E5051535557595A5C5E6083
:1007500062646668696B6D6F71737577797B7D7F95
:1007600081838587898A8C8E90929496989A9C9E94
:100770009FA1A3A5A7A8AAACAEAFB1B3B4B6B8B9B0
:10078000BBBCBEBFC1C2C3C5C6C7C9CACBCCCDCE18
:10079000D0D1D2D2D3D4D5D6D7D7D8D9D9DADADBFB
:1007A000DBDBDCDCDCDCDCDDDDDDDDDCDCDCDCDC87
:1007B000DBDBDBDADAD9D9D8D7D7D6D5D4D3D2D2C6
:1007C000D1D0CECDCCCBCAC9C7C6C5C3C2C1BFBEAE
:1007D000BCBBB9B8B6B4B3B1AFAEACAAA8A7A5A319
:1007E000A19F9E9C9A98969492908E8C8A898785D8
:1007F00083817F7D7B79777573716F6D6B696866B7
:100800006462605E5C5A5957555351504E4C4A4988
:1008100047454342403E3D3B3A3836353332302F30
:100820002D2C2A2928262523226B65796D61705F7E
:10083000636F6E6669672E7261773A202530325891
:100840000A2E737761705F636F6E74726F6C5F6393
:100850006170736C6F636B3A2025750A2E6361704B
:10086000736C6F636B5F746F5F636F6E74726F6CCA
:100870003A2025750A2E737761705F6C63746C5F24
:100880006C6775693A2025750A2E737761705F72FF
:1008900063746C5F726775693A2025750A2E7377E9
:1008A00061705F6C616C745F6C6775693A20257567
:1008B0000A2E737761705F72616C745F726775691D
:1008C0003A2025750A2E6E6F5F6775693A20257587
:1008D0000A2E737761705F67726176655F65736317
:1008E0003A2025750A2E737761705F6261636B73BE
:1008F0006C6173685F6261636B73706163653A20FA
:1009000025750A2E6E6B726F3A2025750A2E737745
:1009100061705F6573636170655F636170736C6F55
:10092000636B3A2025750A0064656275675F636FC3
:100930006E6669672E7261773A20253032580A2E2A
:10094000656E61626C653A2025750A2E6D61747260
:1009500069783A2025750A2E6B6579626F61726439
:100960003A2025750A2E6D6F7573653A2025750A34
:10097000006565636F6E6669673A0A6465666175EE
:100980006C745F6C617965723A2025750A000A09FA
:100990002D204D61676963202D0A443A0944656240
:1009A0007567204D65737361676520546F67676C69
:1009B000650A583A094D6174726978204465627518
:1009C00067204D6F646520546F67676C65202D202C
:1009D00053686F77206B65797072657373657320E8
:1009E000696E206D617472697820677269640A4B60
:1009F0003A094B6579626F6172642044656275677C
:100A000020546F67676C65202D2053686F77206BCB
:100A100065797072657373207265706F72740A4DB8
:100A20003A094465627567204D6F75736520546F90
:100A300067676C650A563A0956657273696F6E0A84
:100A4000533A095374617475730A433A09416374E4
:100A5000697661746520436F6E736F6C65204D6FAE
:100A600064650A46312D4631303A0953776974631B
:100A70006820746F204C6179657220302D392028F0
:100A8000463130203D204C30290A302D393A095367
:100A9000776974636820746F204C617965722030C7
:100AA0002D390A47524156453A09537769746368AC
:100AB00020746F204C6179657220302028616C743D
:100AC00065726E617465290A423A094A756D702033
:100AD000746F20426F6F746C6F616465720A455366
:100AE000433A094A756D7020746F20426F6F746CC1
:100AF0006F616465722028616C7465726E617465E3
:100B0000290A453A095072696E7420454550524F82
:100B10004D2053657474696E67730A4241434B53A9
:100B2000504143453A09436C656172204545505236
:100B30004F4D0A000A092D20436F6E736F6C6520BC
:100B40002D0A4553432F713A09717569740A0025BE
:100B500073000A092D20537461747573202D0A687F
:100B60006F73745F6B6579626F6172645F6C6564EB
:100B70007328293A20253032580A6B6579626F61F3
:100B800072645F70726F746F636F6C3A20253032DD
:100B9000580A6B6579626F6172645F69646C653A6B
:100BA00020253032580A74696D65725F7265616420
:100BB000333228293A202530386C580A003F000A81
:100BC0006D6F7573653A206F66660A000A6D6F7502
:100BD00073653A206F6E0A000A6B6579626F617205
:100BE000643A206F66660A000A6B6579626F61720B
:100BF000643A206F6E0A000A6D61747269783A2057
:100C00006F66660A000A6D61747269783A206F6EC9
:100C10000A000A64656275673A206F66660A000A10
:100C200064656275673A206F6E0A000A0A4A756D3C
:100C300070696E6720746F20626F6F746C6F61648F
:100C400065722E2E2E2000433E2000436C6561729B
:100C5000696E6720454550524F4D0A004C25640A85
:100C6000002B0014001A00080015001700E0000413
:100C7000001600070009000A00E1001D001B000625
:100C800000190005001C0018000C00120013002AB7
:100C9000000B000D000E000F003300340011001097
:100CA000003600370038002872E30001512C0002A2
:100CB00051E643000001001E021F02200221022211
:100CC0000201002D022E022F023002310201002902
:100CD00000E300E200390034022302240225022648
:100CE0000227024C005000510052004F00350035E1
:100CF000024A004D004B004E0046002C72010001DC
:100D000000280001000100000001001E001F00205B
:100D1000002100220001002D002E002F00300031A4
:100D20000001002900E700E6003900340023002418
:100D3000002500260027004C003A003B003C003D07
:100D4000003E003F00400041004200430044004597
:100D500000010001002A00010001000000C95CC779
:100D60005CC55CC35C0000C25CCA5CC85CC65CC499
:100D70005C00000000000000000000000000000017
:100D80000000000000000000000000000000000063
:100D9000000000000000000000005C0000000000F7
:100DA000000000000001000100000001000100003F
:100DB000005B435D005B445D005B535D005B575D22
:100DC000005B525D0009027B00040100A0FA0904E7
:100DD000000001030101000921110100012240006E
:100DE0000705810308000109040100020300000057
:100DF00009211101000122220007058203200001C0
:100E0000070503032000010904020001030000009C
:100E1000092111010001223200070584032000018D
:100E2000090403000203000000092111010001224E
:100E300022000705850320000107050503200001A6
:100E400012010002000000080778CBDC010001025B
:100E500000011403720065007600690075006E00E1
:100E600067003400310000000C0367007400690063
:100E70007000730000000403090411241FBECFEFAB
:100E8000DAE0DEBFCDBF12E0A0E0B1E0ECE3FCE5CC
:100E900002C005900D92AA34B107D9F723E0AAE465
:100EA000B2E001C01D92AB32B207E1F70E945627B3
:100EB0000C94F32D0C940000FF93EF93E0914A0201
:100EC000F0914B02309709F00995EF91FF91089549
:100ED000FC018591803011F0EFDFFBCF0895FF27F3
:100EE000E0E230E247FF0CC0419597FF09C0EDE218
:100EF0006095709580959095611D711D811D911D66
:100F000027FF02C0219530E350E2AA27660F771F22
:100F1000881F991FAA1FA41710F0A41B63955A9548
:100F2000A9F7AA3008F0A95FA05DAF93F39561150A
:100F300071058105910541F7ED3211F4EF93F395B9
:100F4000F21718F43F93F395FBCF8F91B5DFFA9525
:100F5000E1F70895E991F9918591803021F085328A
:100F600019F0AADFF9CF089520E0E89455915532A1
:100F7000C1F3503311F4689455915A3348F45053E7
:100F800090F3220F022E220F220F200D250FF4CFF7
:100F90000EF4219589919991533619F3533729F11C
:100FA000533559F1BC0188279927E8945C3621F420
:100FB0008991999168945591543639F446EF7EF0B1
:100FC00077FF0DC08FEF9FEF0AC055374AE039F029
:100FD000583540E121F0523642E009F00895FF9380
:100FE000EF937DDFEF91FF91B7CFFF93EF93FC017C
:100FF00081918030B9F360DFFBCFFF93EF9368DF1F
:10100000F1CFDF93CF93CDB7DEB72596A3DFCF9196
:10101000DF910895E8EDF0E080818E7F808310926B
:10102000E2001092DA001092E100A0EEB0E08C91A4
:1010300081608C9380818F77808319BCA7EDB0E0AD
:101040008C918E7F8C9380818F7E808310920C0395
:1010500008952091E4003091E50095E6A9012091E2
:10106000EC00822F817020FF06C08091E80080FF95
:1010700006C080E008952091E80022FD1AC080910A
:101080001903882389F0853089F08091EB0085FD74
:101090000FC02091E4003091E50042175307F9F2A8
:1010A0009150E1F684E0089582E0089583E0089588
:1010B00081E00895EF92FF920F931F93CF937C01ED
:1010C0008B010E942908C82F811117C08091E80068
:1010D00085FD0BC08091E8008E778093E8000E9428
:1010E0002908882399F3C82F08C0F70181917F014F
:1010F0008093F1000150110949F78C2FCF911F9176
:101100000F91FF90EF90089580911B0387FF13C00C
:101110008091E80082FF06C08091E8008B77809381
:10112000E80004C0809119038111F2CF08958091E5
:1011300019038823D9F38091E80080FFF8CF8091CC
:10114000E8008E77ECCF982F9093E900242F762F2C
:1011500050E0891731F07091EC002091ED00509132
:10116000F00021FD07C09F5F973071F78093E90081
:1011700081E008953091EB003E7F3093EB00309199
:10118000ED003D7F3093ED003091EB003160309306
:10119000EB007093EC002093ED005093F000209151
:1011A000EE0027FDE0CF80E00895B0E0A0E0EBED99
:1011B000F8E00C94642DC8EDD0E088818F7E8883A0
:1011C000E7EDF0E080818160808384E082BF81E090
:1011D00080930C0388818E7F888302EE10E0F801F3
:1011E00010821092DA0081EEC82ED12CF601108206
:1011F00088818F77888388818068888388818F7DC4
:10120000888319BC1092190310921A0310921803C4
:101210001092170390EEE92EF12CF70180818B7F5D
:10122000808388818160888342E060E080E00E9462
:10123000A308F60180818E7F8083F8018081816020
:101240008083808188608083F70180818E7F8083A6
:10125000888180618883CDB7DEB7E8E00C94802D6B
:10126000FC01809121039091220386179707A0F03B
:101270006115710529F49091E8009E779093E8003C
:1012800090E06115710551F4911108C08091E8005A
:1012900082FF34C080E00895BC01F2CF8091190331
:1012A0008823C1F18530C1F18091E80083FD30C011
:1012B0008091E80082FDEACF8091E80080FFE1CFD5
:1012C0008091F3002091F200382F6115710519F01B
:1012D0002830310558F091E02830310509F090E0D0
:1012E0002091E8002E772093E800CBCF8191809366
:1012F000F100615071092F5F3F4FE7CF80911903D3
:10130000882341F0853041F08091E80083FFBECF13
:1013100081E0089582E0089583E008950895089596
:10132000089580910E03089587E797E79093010849
:101330008093000888E19AE00FB6F894A89580930E
:1013400060000FBE90936000FFCF2FB7F8946091BC
:1013500023037091240380912503909126032FBFCE
:1013600008952FB7F8948091230390912403A091BE
:101370002503B09126032FBF0895209103033091D8
:1013800004032817390781F0909304038093030323
:10139000E0910103F0910203309731F00680F7816C
:1013A000E02DBC0184E0099508952091FF02309161
:1013B00000032817390781F0909300038093FF0200
:1013C000E0910103F0910203309731F00680F7813C
:1013D000E02DBC0183E009950895E0910103F091AF
:1013E0000203309729F00190F081E02D09950895CE
:1013F00080E00895FA01811101C0FB01099508956B
:101400008091F802982F9E7F29F4817082608093EA
:10141000F80208958A34E8F381708864F8CFAF92B7
:10142000BF92DF92EF92FF920F931F93CF93DF93C0
:10143000082F162FE901E42FF0E0EE52FB4F611167
:1014400010C0E4915E2F4E2F4983E8835A83DF91C9
:10145000CF911F910F91FF90EF90DF90BF90AF90D1
:101460000895E62EF12C4491D42EE42FF0E026E0EE
:10147000829FC00111242FEF30E0B9010E94D22CCD
:10148000802F90E0880F991F55E5569FD001579FF8
:10149000B00D11248A1B9B0B982F990F890F5901AE
:1014A000AE18BF08AE9ED001AF9EB00DBE9EB00D6F
:1014B00011245B2F189F80011124012F112759013E
:1014C000A01AB10AAE9E8001AF9E100DBE9E100DF7
:1014D00011245901A81AB108AE9CC001AF9C900D0F
:1014E000BE9C900D1124892F9927281B390B2E9F04
:1014F000C0012F9F900D3E9F900D1124E92F623067
:101500007105A1F050F46115710509F49DCF6130AA
:10151000710581F0EB2F512F97CF6430710569F081
:1015200080F06630710509F48FCFF4CFE42F4B2F94
:10153000592F8ACFE42F412F87CFEB2F542F492FDC
:1015400083CF4B2F5D2DE12F7FCFF894E82FE295CD
:10155000EF70F0E031A1282F2F7081E090E001C002
:10156000880F2A95EAF7982F9095932391A392A13B
:10157000892B82A3789408959091B60292FF06C0B9
:10158000282F28712830F9F4877F846093FF06C0E4
:10159000282F28712831F1F4877E84612091B702C9
:1015A00020FF06C0382F38713830D9F4877F81602A
:1015B00021FF06C0282F28712831D1F4877E816150
:1015C00094FD877E0895282F24712430F9F68B7FAF
:1015D0008860DCCF282F2471243101F78B7E88614D
:1015E000DDCF382F3171313019F78E7F8860E0CF31
:1015F000282F2171213121F78E7E8861E1CFCF9391
:10160000DF93EC0182389105B1F108F040C08133DD
:10161000910509F49DC048F58932910509F48DC002
:101620008A9709F49CC0C11522E5D20708F0BDC015
:10163000C11531E5D30708F024C1C83ED10508F033
:10164000A3C0C13ED10588F5C83AD10508F08EC0C7
:10165000C53AD10508F0F6C0C130D10531F1209767
:1016600021F1C430D10508F545C08533910509F451
:101670005FC0C997C1F68091B602837009F036C188
:101680008091B70283FF11C0C9E2D0E00EC0833E53
:10169000910599F170F4803E910501F1823E91052A
:1016A00011F68091B60282FD21C0CE01DF91CF916B
:1016B0000895863E910561F1873E910571F1843E62
:1016C000910509F0B0CF8091B70281FFEECF8091F4
:1016D000B602C7EED0E084FD0DC0E7CF8091B60220
:1016E00080FD33C09091B70290FFDFCFC3EED0E012
:1016F00084FFDBCFD0E0C0E0D8CF8091B60282FD7E
:10170000F2C09091B70290FDF1C084FFCECFF2CF2E
:101710008091B60283FDDDCFC8CF8091B60283FDF4
:10172000E8C09091B70291FFF0CFC4EED0E0BDCFFA
:101730008091B60285FFB9CFA7CF8091B60285FD13
:10174000DBC08091B70283FFB0CFC9E3D0E0ADCF5B
:101750008091B60286FFA9CFCAE2D0E0A6CF8091E1
:10176000B60286FFA2CFC1E3D0E09FCFCF3BD10529
:1017700008F6C85AD0E0CC0FDD1FCB52DE4F0990DF
:10178000D881C02DD46491CFC11540E5D40708F0AD
:1017900064C0C11580E4D80708F05CC0CE019A95FA
:1017A00081159F4108F481CFA5CFC11536E5D30738
:1017B00018F5C11545E5D40708F07CC0C11584E5CE
:1017C000D80708F072C09E01237033279C2F96958E
:1017D0009695C115D34508F459C0C1E0D0E002C0C8
:1017E000CC0FDD1F2A95E2F730E2939FC001112450
:1017F000C82BD92BDA6859CFC1158AE5D80778F4F8
:10180000C11529E5D20708F060C0C11538E5D30736
:1018100008F470CFDC2FCC27C06FD06A46CFCE0142
:1018200090568115904208F065CF8D2F8F710E94E0
:10183000BC0A90E0982F882788279F719C012C2B49
:10184000E90141C0C55AD0E0CE52DE4FC881D0E098
:10185000D0642BCFDF70D06A28CFCE018370992758
:1018600021E030E002C0220F331F8A95E2F7C695CF
:10187000C69580E2C89FE0011124C22BD32BDD68FE
:1018800014CFDC2FCC27C16FD06A0FCFC1E0D0E0DE
:1018900002C0CC0FDD1F2A95E2F720E2929FC00123
:1018A0001124C82BD92BDC6800CFDC2FCC27C46FC8
:1018B000D06AFBCE8C2F0E94BC0AC82FD0E0DC2F50
:1018C000CC27CC27DF71D062F0CE8C2F8F700E9496
:1018D000BC0A34E0D695C7953A95E1F7CF709C2FB6
:1018E000EC01D069E2CEC2EED0E0DFCEC0EED0E0B7
:1018F000DCCEC6EED0E0D9CEC5E3D0E0D6CE809126
:10190000AA0281111092AA02089580959091A902CD
:1019100098239093A9020895EEE4F2E0919189133F
:1019200003C0DF0111971C9292E0E435F907B1F78B
:101930000895AEE4B2E0EFEF90E02D91821751F000
:10194000EF3F19F4211101C0E92F9F5F9630A9F7ED
:10195000EF3F09F408950E2E000CFF0BE45BFD4FE2
:101960008283089580919E0290916D02981301C028
:1019700008958F5F8770FACF292F973078F58630DA
:1019800068F590E036E0239F800D911D1124682FAB
:10199000677023E0969587952A95E1F7FC01EE0F95
:1019A000FF1FE80FF91FEB5AFD4F50E040E080E0C9
:1019B000219130E0062E02C0369527950A94E2F771
:1019C00021703327042E01C0220F0A94EAF7822BDC
:1019D0004F5F5F4F4330510559F7089580E00895F8
:1019E000292F973098F5863088F590E036E0239FD0
:1019F000800D911D1124282F277041E001C0440F54
:101A00002A95EAF723E0969587952A95E1F7FC0158
:101A1000EE0FFF1FE80FF91FEB5AFD4F30E020E0FB
:101A200070E05191DF011197CB01022E02C0969513
:101A300087950A94E2F7817081958527842385270D
:101A40008C932F5F3F4F2330310559F708958295CE
:101A500090E09C01220F331F220F331F2C7C9595A1
:101A60008795959587958373282B30E0C901880F5A
:101A7000991F8A7A359527952575822B08959FB7EA
:101A8000F89410920A039FBF90911903943009F0C3
:101A900048C02091E9002F703091EC00932F917095
:101AA00030FD90E8922B25E02093E9002091EB0097
:101AB00020FF34C02091EE0027FF30C020910903A1
:101AC000222321F02091E80025FF28C0109209036D
:101AD00026E03091E80035FF14C08093F10080913A
:101AE000E80085FD27C08091E80080FFFCCF809151
:101AF000E8008E778093E8009F709093E90080E083
:101B0000089530911903343049F43091EB0035FDDC
:101B100005C0215041F481E0809309039F709093A8
:101B2000E9008FEF0895EFE9FFE03197F1F700C08A
:101B30000000CFCF8FB7F89421E020930A038FBF26
:101B4000DBCF8093060370930803609307038091B3
:101B500019038430F9F48093E9008FEF9091E80045
:101B6000815095FD06C095ED9A95F1F70000811121
:101B7000F5CF8091E80085FF0DC050E040E063E0C4
:101B800070E086E093E00E945A088091E8008E772A
:101B90008093E8000895CF93DF93EC0181E0809378
:101BA000E9008FEF9091E800815095FD06C095ED1A
:101BB0009A95F1F700008111F5CF8091E80085FF3B
:101BC00014C050E040E068E070E0CE010E945A0886
:101BD0008091E8008E778093E80088E0FE01AFE016
:101BE000B3E001900D928A95E1F7DF91CF910895CE
:101BF0008091F80280FD0AC0E7EDF2E011821082C8
:101C00001282339652E0E83FF507C1F7539A3BB191
:101C1000377F2BB128604FB7F89487ED92E0FC0135
:101C20005191CF0168E02BB9000000C057FF3BB9CC
:101C3000550F000000C000C000C03BB900C06A954D
:101C400091F7F2E0883F9F0751F74FBF8FE594E08F
:101C50000197F1F700C000000895EF92FF920F93F3
:101C60001F93CF93DF938C01C7EDD2E0F12CE12CD1
:101C7000F80194816091FA028091F902F5E0EF1683
:101C8000F104ECF49923E9F09E014091FB020E94DB
:101C90000F0A2FEFE21AF20A23968BE0E816F104FE
:101CA00039F70E94F80DF801848190E00196817067
:101CB00099278483CDB7DEB7E6E00C94822D992373
:101CC00019F39E0140E0E3CFB0E0A0E0EAE6FEE0D9
:101CD0000C94602DEC014C81042F10E09801D80188
:101CE0000E94312D9B01AC010E94472D4B015C01EC
:101CF000E0E2F0E0E01BF10BA5E5B0E0AC019B01F8
:101D00000E94472D6B017C019F01DF010E94292D5C
:101D10009B01AC010E94522D9B01AC01280D391D85
:101D20004A1D5B1DC701B6010E94FA2CF22E822FBC
:101D300090E039E23F1598F143E0249F900111248F
:101D400035952795122F109597EDC92E92E0D92E33
:101D500000E085E5E82EEF188E2D01FD8F2D960110
:101D6000412F6091FA020E940F0A0F5F53E0C50EE7
:101D7000D11C0B3089F70E94F80D9C8181E09923DA
:101D800019F0903219F48FEF8093170180911701A9
:101D9000890F8C83CDB7DEB7ECE00C947C2D25E564
:101DA00030E0A901481B590BCA019A01220F331FC9
:101DB000280F391F37FFC4CF2F5F3F4FC1CF0F937D
:101DC0001F93CF93DF93C7EDD2E0FE011182108203
:101DD0001282339682E0E83FF807C1F710E000E096
:101DE0008091D502082E000C990B081719078CF169
:101DF00080911601082E000C990B801791074CF169
:101E00009E014091FB026091FA028091F9020E94CA
:101E10000F0A0F5F1F4F23960B30110509F70E9421
:101E2000F80D809115019091D502980F9093D502ED
:101E300020911601280F20931601121614F49A30DF
:101E40001CF0819580931501DF91CF911F910F9127
:101E50000895198218821A82DCCFB0E0A0E0E3E393
:101E6000FFE00C94632DFC018281DD24DA9480FD77
:101E700002C0DD24D39407ED12E0D0E0C0E02BE0F7
:101E8000B22EF80111821082128294E0E92EF12C18
:101E9000C12C8091D4028C0D8C30C4F16B2D0E942A
:101EA000C42C892F082E000C990B8C179D0791F4D8
:101EB0008091FB028E9DA0018F9D500D11245595A0
:101EC00047955595479598016091FA028091F902DE
:101ED0000E940F0ACD0CF1E0EF1AF108D1F621961D
:101EE0000D5F1F4FCB30D10561F60E94F80D809138
:101EF000D40291E0D91210C081110CC08AE0809305
:101F0000D402CDB7DEB7E9E00C947F2D87FFCACFAE
:101F1000855FC8CF8150F3CF90E00196BE010E944B
:101F2000E62CEDCFEF92FF921F93CF93DF93EC015E
:101F300087EDE82E82E0F82E10E08C819701409129
:101F4000FB026091FA02810F0E940F0A195E83E082
:101F5000E80EF11C1D3F89F70E94F80D9A818C81D3
:101F600090FF08C08F5F8C83DF91CF911F91FF900E
:101F7000EF9008958150F7CF9091F80290FF0CC038
:101F8000E7EDF2E0818360834283339692E0E83F9D
:101F9000F907C1F70E94F80D0895A3E0B0E0E3ED62
:101FA000FFE00C94682D8C018091D60281110AC04B
:101FB0009E012F5F3F4F4FEF6FEF0E940F0A8A8104
:101FC0008093D602F8016481613069F08091D60275
:101FD00040E0662361F040E0623011F44091D602A7
:101FE00080E060E004C06091D60240E080E00E94A2
:101FF000BC0FF801848190E0019663E070E00E94DC
:10200000E62C84832396E4E00C94842DA3E0B0E0D6
:10201000ECE0F0E10C946A2D9091F80290FF0AC078
:102020009E012F5F3F4F0E940F0A4B8169818A8179
:102030000E94BC0F2396E2E00C94862DCF93DF9391
:10204000EC01E8EFF2E0438162818C810E9406108E
:102050008C818F5F8C83DF91CF910895CF93DF9335
:10206000EC01EC81F0E0E75DF84F4491E8EFF2E03D
:10207000628181810E9406108C818F5F8C83DF9149
:10208000CF910895CF93DF93C7E7D1E060E0CE0111
:102090000E94A52D2196C11584E0D807B9F7DF91DC
:1020A000CF9108951F93CF93DF93122F8430E0F4E4
:1020B0006730D0F44630C0F4C42FD0E0CC0FDD1F21
:1020C0009CE0699FC00DD11D112494E5899FC00D2E
:1020D000D11D1124632FCE0187960E94A52D612F5B
:1020E000CE0188960E94A52DDF91CF911F91089572
:1020F000AF92BF92CF92DF92EF92FF921F93CF9356
:10210000DF9381E6C82E8CE0D82ED0E07601C0E0C7
:1021100014C0F50125913491412F6C2F8D2F0E9411
:10212000521082E0A80EB11C1F5F163091F78CE0B0
:10213000E80EF11CCF5FC73019F0570110E0E9CF6E
:10214000DF5F84E5C80ED11CD43001F7DF91CF9159
:102150001F91FF90EF90DF90CF90BF90AF900895C8
:10216000CF93C82F6FEF811162E283E290E00E946B
:10217000A52D6FEFC11169E084E290E00E94A52DCA
:102180006FEFC11166E185E290E00E94A52DCF912D
:10219000089580E00E94B01060E086E290E00E9426
:1021A000A52D0E9478100E94421081E00E94B0107C
:1021B00008950F931F93CF93DF93843030F56730EA
:1021C00020F5463010F5C42FD0E0CC0FDD1F2CE0F9
:1021D000629FC00DD11D112434E5839FC00DD11D18
:1021E0001124CE0187960E94912D082F10E0102F08
:1021F0000027CE0188960E94912D9801282BC901B5
:10220000DF91CF911F910F91089590E080E0F8CF7A
:10221000462F843040F4773030F4663020F4672F56
:102220000E94D910089590E080E00895CF92DF9247
:10223000FF920F931F93CF93DF936C0100912A03BA
:102240008091AB02082BC7E0D0E010E0FC2EC80163
:102250000C2E02C0959587950A94E2F780FD0CC07C
:102260002197A0F7F12C8F2DDF91CF911F910F9126
:10227000FF90DF90CF900895B6018C2F0E94081137
:102280000E94FF0A019761F3EECFCF93DF93EC0139
:102290000E941611BE010E9408110E94FF0ADF91E0
:1022A000CF910895FC0183819481892B29F080814D
:1022B000918189238F3F51F480E00895843FE1F7B5
:1022C00017C0883EA8F0813FB9F712C08081918184
:1022D0000E94451192959F70963099F358F4925F41
:1022E0009F70923048F7803F19F040F7883E20F702
:1022F00081E008959A5FF4CF83E290E00E94912DEF
:10230000823289F484E290E00E94912D893059F460
:1023100085E290E00E94912D91E0863109F090E0F5
:10232000892F8170089580E0FCCFCF9384E090E006
:102330000E94912DC82F82E290E00E94912D982F4B
:102340008C2FCF9108951092D3028091FE0280FFCE
:1023500008C080E197E09F938F930E9401080F903F
:102360000F9008958091F8028E7F8093F8028091FB
:10237000FE0280FF0CC01F921F9285E496E09F939F
:102380008F930E9401080F900F900F900F900E9462
:10239000A3112FEF80E792E0215080409040E1F7B9
:1023A00000C000000E94F80D08956091F802669543
:1023B00070E04BE050E08AE091E00E94D92D892B3B
:1023C00019F481E08093D3020E94B1099093CD0269
:1023D0008093CC028091FE0280FF08C087EF96E0D8
:1023E0009F938F930E9401080F900F900895CF92B2
:1023F000DF92EF92FF926B017C010E94000AB7010D
:10240000A60188E090E00E94B72DFF90EF90DF904A
:10241000CF900895A7E0B0E0E0E1F2E10C945A2DEE
:10242000582E262E342E2F839091F80290FF46C00E
:10243000E92FE695AE2FB0E0A05FBD4F8C91809361
:10244000D2029E7F9230F1F59E012F5F3F4F852D86
:102450000E940F0A4B8169818A810E94BC0F5092B1
:10246000F9022092FA023092FB028F81882309F44C
:102470008CC06091F8027091F9028091FA029091FB
:10248000FB020E94F7118091FE0280FF17C080912D
:10249000FB021F928F938091FA021F928F9380917B
:1024A000F9021F928F9386EA96E09F938F930E9482
:1024B00001080FB6F894DEBF0FBECDBF2796E2E14C
:1024C0000C94762D823019F43090FB02C8CF863000
:1024D00019F45090F902C3CF8930D9F3893109F04A
:1024E000BECFE9518E2F81708D838E2F80958170A4
:1024F0008E83E695F0E0EE50F94F94919C83692E1F
:10250000712C87EDE82E82E0F82ED12CC12C10E042
:1025100000E09BE0892E912C2BECA22E26E0B22E1F
:10252000C601B4010E94D22C8D81452C81112BC093
:10253000460E8091FE0280FF13C01F929C819F93E4
:102540001F928E818F931F924F921F930F93BF9272
:10255000AF920E9401080FB6F894DEBF0FBECDBF48
:102560009701432D622D842D0E940F0A0F5F1F4F8C
:10257000C60CD71C93E0E90EF11C0B30110581F657
:102580000E94F80D6CCF461AD4CF8091FE0280FFD6
:1025900095CF1F923F921F922F921F925F928FE7CB
:1025A00096E083CFE8EFF2E0438120E1421B08F49C
:1025B00040E021E0628181810E940A120895E8EFE3
:1025C000F2E0438120E1420F08F44FEF21E0628105
:1025D00081810E940A120895E8EFF2E0628120E111
:1025E000621B08F460E021E0438181810E940A12AD
:1025F0000895E8EFF2E0628120E1620F08F46FEFE6
:1026000021E0438181810E940A120895E8EFF2E0FF
:10261000818121E04381628180510E940A120895E4
:10262000E8EFF2E0818121E043816281805F0E94D6
:102630000A1208958091FC02882319F0815080933A
:10264000FC026091F8027091F9028091FA02909177
:10265000FB020E94F71108958091FC02833018F468
:102660008F5F8093FC026091F8027091F902809173
:10267000FA029091FB020E94F71108959091F802DE
:1026800090FF40C0917081113EC092609093F8021B
:10269000662309F43FC06091F8027091F9028091BD
:1026A000FA029091FB020E94F7118091FE0280FFD6
:1026B0000FC08091F80286951F928F9380EF95E06E
:1026C0009F938F930E9401080F900F900F900F908F
:1026D0006091F802669570E04BE050E08AE091E08E
:1026E0000E94D92D892B11F10E94A31181E08093C2
:1026F000CF0220E04091FB026091FA028091F90242
:102700000E940A120895853210F09864BFCF880F96
:10271000982BBCCF8091FE0280FFDACF8091F80227
:1027200086951F928F9382ED95E0CACF0E94D511B6
:10273000DDCF8091F80281608093F8028091FE02E3
:1027400080FF0DC01F9281E08F938CE096E09F93F5
:102750008F930E9401080F900F900F900F9080911F
:10276000F80260E086950E943E1308958091F80279
:102770008695815009F484E261E00E943E13089539
:102780008091F80286958F5F853208F081E061E0E4
:102790000E943E1308959091F80290FF08C096950C
:1027A000981728F0961718F40E94C013089561E056
:1027B0000E943E130895E8EFF2E083E080831182E7
:1027C0008FEF828383831482608171818281938100
:1027D0000E94F711089568EE7EEF90E080E00E947D
:1027E000C32D60E082E090E00E94A52D60E083E0D0
:1027F00090E00E94A52D1092AB0260E084E090E092
:102800000E94A52D64E082E290E00E94A52D60E088
:1028100085E090E00E94A52D60E086E090E00E94B7
:10282000A52D6FEF87E090E00E94A52D40E050E0DD
:10283000BA0188E090E00E94B72D60E08DE090E062
:102840000E94A52D40E050E0BA0188E190E00E948E
:10285000B72D60E087E190E00E94A52D40E050E0B8
:10286000BA018CE190E00E94B72D70E060E080E258
:1028700090E00E94C32D40E050E0BA0188E190E072
:102880000E94B72D80E00E94B0100E94C91040E065
:1028900050E0BA018FE090E00E94B72D40E050E098
:1028A000BA0183E190E00E94B72D08950F931F9322
:1028B000CF93DF938091A9029091A802892B8093F6
:1028C0004C029091AA02992391F0892B80934C029B
:1028D00020E08EE492E0FC013191CF0131112F5FB5
:1028E000F2E084359F07B9F721110E947F0C48E080
:1028F00050E060EA72E08CE492E00E94E62D892BC1
:1029000009F441C088E0ECE4F2E0A0EAB2E0019012
:102910000D928A95E1F7E0910103F091020330975F
:1029200091F10280F381E02D8CE492E00995809191
:10293000FE0282FF28C080FF04C08EEF92E00E945A
:102940006807D0E0C0E008EF12E08091FE0280FF4F
:102950000EC0FE01E45BFD4F80811F928F931F9399
:102960000F930E9401080F900F900F900F902196E7
:10297000C830D10551F78091FE0280FF04C086EF78
:1029800092E00E946807DF91CF911F910F91089507
:1029900090E080E00E94D50990E080E00E94BD09AF
:1029A0001092A8020E945614089580932A030E9450
:1029B000C814089580912A03982F9670963021F4B8
:1029C00088600E94D5140895877FFBCF21E030E016
:1029D00001C0220F8A95EAF7209580912A0382236D
:1029E0000E94D514089590919F0280958923809329
:1029F0009F02282F277091F4282F082E000C330BEC
:102A00009217130659F09091B70292FF07C085956F
:102A1000859585950E94E61410929F020895CF93A4
:102A2000DF93D82FC091B702C2FB882780F98D179A
:102A300011F1D0FBC2F9C093B7026091B60284E0F5
:102A400090E00E94A52D6C2F82E290E00E94A52DBF
:102A500082E00E94F3148091FE0280FF0CC01F925E
:102A6000DF9381EE92E09F938F930E9401080F9075
:102A70000F900F900F90DF91CF91089521E030E0FB
:102A800001C0220F8A95EAF780912A03822B0E94C7
:102A9000D51408958093AB020E94C8140895109233
:102AA000A902EEE4F2E086E0DF011D928A95E9F7E3
:102AB0000E94C8140895AAE2B0E0E1E6F5E10C94A2
:102AC000692D8BE193E02091F100DC012D93CD0184
:102AD000B3E083329B07B9F780911C03833009F47C
:102AE00072C0B8F4813009F449C0823009F4B3C02F
:102AF0008091E80083FF91C280911B0390911C0399
:102B00009A3008F08AC2E92FF0E0EB50F24D0C94B5
:102B10001C2D8A3009F48EC08B3009F471C08930C5
:102B200039F780911B03813219F780911F0390912F
:102B30002003009711F00297D9F68091E800877F73
:102B40008093E8008091E80082FF38C09091F30004
:102B50008091F200029731F48091F100813011F000
:102B6000863021F48091F10080930E038091E8007B
:102B70008B778093E8000E948408BACF80911B0372
:102B8000813A09F0B5CF8091E800877F8093E80013
:102B900080911F0390912003892B61F468E08FE0FE
:102BA00093E070E00E9430098091E8008B77809379
:102BB000E8009ECF60E090E080E0F3CF80911903C1
:102BC0008111C0CF95CF80911B03813A09F090CF3E
:102BD00080911F0390912003892B09F089CF809168
:102BE000E800877F8093E8008091E80080FFFCCFB9
:102BF000809118018093F1008091E8008E77B9CF21
:102C000080911B03813209F073CF80911F03909153
:102C10002003892B09F06CCF8091E800877F809397
:102C2000E8000E94840880911D03809318010E948F
:102C30004F155ECF80911B03813209F059CF8091EF
:102C4000E800877F8093E8000E94840880911E033B
:102C500080930D034DCF80911B03813A09F048CF3B
:102C60008091E800877F8093E8008091E80080FFF2
:102C7000FCCF80910D03BECF803899F0823809F0E7
:102C8000CCC180911F038F70873008F0C6C180933C
:102C9000E9008091EB0085FB882780F91092E9001C
:102CA00006C0809117039091180391118260909152
:102CB000E800977F9093E8008093F1001092F10074
:102CC0008091E8008E77A5C1882309F493C18230F2
:102CD00009F0A3C180911D03811196C180911F034A
:102CE0008F702FEF280F263008F097C18093E900EE
:102CF0002091EB0020FF88C1933031F48091EB00EC
:102D000080628093EB0080C19091EB009061909382
:102D1000EB0021E030E001C0220F8A95EAF7209312
:102D2000EA001092EA008091EB008860EACF8111FE
:102D300074C110911D031F778091E3008078812B6F
:102D40008093E3008091E800877F8093E8000E94F1
:102D500084088091E80080FFFCCF8091E3008068C8
:102D60008093E30082E0111183E08093190355C141
:102D70008058823008F051C120911D0330911E030C
:102D80002C3DE3E03E07A1F583E08A838AE2898354
:102D90004FB7F894DE01139620E03EE051E2E32FB6
:102DA000F0E050935700E49120FF03C0E295EF70EC
:102DB0003F5FEF708E2F90E0EA30C0F0C7968D93A2
:102DC0009D932F5F243159F74FBF8091E800877F93
:102DD0008093E8006AE270E0CE0101960E9430091B
:102DE0008091E8008B778093E80017C1C096E7CF09
:102DF00080911F0390912003432F552743305105A5
:102E000009F44AC078F54130510509F47AC08BE7DE
:102E100090E0E5ECFDE04230510509F0FEC0209164
:102E2000E800277F2093E8002091210330912203BE
:102E30008217930708F49C0140E02115310509F041
:102E400065C0411163C08091E80082FDC9CF8091C7
:102E50001903882329F2853019F28091E80083FF55
:102E6000F2CFBECF4132510509F43CC04232510588
:102E700009F0D3C08430910508F0CFC0FC01EE0FFB
:102E8000FF1FE75CFD4F0190F081E02D8B5C9D4FB3
:102E9000DC018C9190E01AC0332721303105D1F04C
:102EA0002115310561F02230310509F0B6C0E2E5A7
:102EB000FEE0E4918E2F90E0E2E5FEE007C0E6E759
:102EC000FEE0E4918E2F90E0E6E7FEE0009709F443
:102ED000A4C0A5CFE8E6FEE0E4918E2F90E0E8E6FE
:102EE000FEE0F4CF8430910508F097C0880F991F59
:102EF000FC01EF5BFD4F0190F081E02D89E090E057
:102F00008ECF82E190E0E0E4FEE089CF809119036A
:102F1000882309F465CF853009F462CF8091E800F9
:102F200083FD5ECF8091E80082FD8DCF8091E80027
:102F300080FF83CF9091F3008091F200211531053D
:102F400019F08830910550F041E0089709F040E011
:102F50008091E8008E778093E8006FCF4491409392
:102F6000F1003196215031090196E8CF803809F0FF
:102F700054C08091E800877F8093E80080911A0315
:102F80008093F1009DCE811148C010911D03123035
:102F900008F043C08091E800877F8093E800109399
:102FA0001A030E948408112311F084E005C0809167
:102FB000E30087FDFACF81E08093190342E061ECE2
:102FC00081E00E94A30842E261EC84E00E94A30831
:102FD00042E261EC82E00E94A30842E260EC83E0FE
:102FE0000E94A30842E261EC85E00E94A308809160
:102FF000190313C080911D03813079F481E093306F
:1030000009F080E0809318031092E9008091E800B5
:10301000877F8093E8000E9484088091E80083FF06
:103020000AC08091E800877F8093E8008091EB00E0
:1030300080628093EB00AA96E3E00C94852DCF93F9
:10304000C82F1F928F938CE59CE09F938F930E94D3
:10305000010881E001C0880FCA95EAF70E944A156D
:103060000E944F150F900F900F900F90CF910895E1
:10307000EF92FF920F931F93CF93DF938B3109F45D
:103080001EC108F0B4C08B3009F4DAC008F086C065
:10309000863009F4E8C048F4853009F4B6C08DEBF9
:1030A0009BE00E94680780E0EEC0873009F4F0C022
:1030B0008830A9F783E090E00E94912D1F928F93B2
:1030C00081E799E09F938F930E94010882E090E04E
:1030D0000E94912D83FB992790F91F929F9382FB69
:1030E000992790F91F929F9381FB992790F91F923E
:1030F0009F93982F91701F929F931F928F9388E2B6
:1031000099E09F938F930E9401080E94951193FB71
:10311000222720F91F922F9387FB222720F91F9245
:103120002F9386FB222720F91F922F9385FB2227BE
:1031300020F91F922F9384FB222720F91F922F93AF
:1031400083FB222720F91F922F9382FB222720F94D
:103150001F922F9391FB222720F91F922F93292F43
:1031600021701F922F9381FB222720F91F922F930A
:10317000282F21701F922F939F938F9389E298E0BD
:103180009F938F930E9401088DB79EB78A960FB6C2
:10319000F8949EBF0FBE8DBF81E075C0803109F4E9
:1031A000A6C080F48E3009F07ACF9091FE02892F6C
:1031B0008B7F92FF84608093FE0282FF95C088EE31
:1031C0009BE089C0863109F4A2C0893109F067CF3C
:1031D00089E191E09F938F938FE49BE09F938F937E
:1031E0000E9401080F900F900F900F90D5CF8A3258
:1031F00099F1E0F4873261F128F48E3108F44FCF71
:103200008D5127C0893209F04ACF8BE29CE00E94A1
:1032100068070E944F159FEF24E38CE091502040F7
:103220008040E1F700C000000E949409833468F4F4
:103230008A3308F091C0853359F0883309F02FCFD5
:103240008EE899E00E946807A7CF833409F027CF62
:1032500080E00E941F18A0CF8BE49CE00E946807CA
:103260000E94EB1399CF8091FE02807F8093FE0233
:1032700084E39BE00E94680787E49CE00E94680763
:1032800081E08093FD02CDB7DEB7E6E00C94822D9D
:103290009091FE02892F8E7F90FF81608093FE02C5
:1032A00080FF03C08FE19CE0CDCF82E19CE00E94D3
:1032B00068078091FE02817F8093FE026DCF90911E
:1032C000FE02892F8D7F91FF82608093FE0281FF35
:1032D00008C085E09CE00E9468078091FE02816042
:1032E000EBCF87EF9BE0AECF88ED9BE0ABCF90912B
:1032F000FE02892F877F93FF88608093FE0283FF01
:1033000003C08CEC9BE0E7CF8FEB9BE09BCF0E9450
:10331000A509162F072FF82EE92ED0910D03C09185
:1033200018010E94ED09EF92FF920F931F931F92D5
:10333000DF931F92CF931F928F9382E59BE09F9321
:103340008F930E9401088DB79EB70C960FB6F89424
:103350009EBF0FBE8DBF20CF89537BCF0E944F15DC
:103360002FEF84E39CE0215080409040E1F700C0C3
:10337000000088E19AE00FB6F894A8958093600069
:103380000FBE90936000FFCF882321F00E94850C30
:103390000E9456140895882339F09091A902982B21
:1033A0009093A9020E9456140895882309F44DC0F1
:1033B000823879F40E94ED0981FF47C089E30E94B9
:1033C000990C0E94561489E30E948C0C0E9456149A
:1033D0000895833859F40E94ED0980FF36C083E5D3
:1033E0000E94990C0E94561483E5EECF843859F45C
:1033F0000E94ED0982FF29C087E40E94990C0E9477
:10340000561487E4E1CF9CEF980F913AE8F290E2EE
:10341000980F983050F4877091E001C0990F8A9509
:10342000EAF7892F0E94850CD1CF9BE5980F933046
:1034300028F490E080E00E94D5090895885A8731E9
:1034400020F490E080E00E94BD090895CF93C82F3A
:103450008823C9F08238C9F40E94ED0981FD13C0A8
:1034600089E30E94990C0E9456142FEF87EE93E097
:10347000215080409040E1F700C0000089E30E94A5
:103480008C0C0E945614CF9108958338A1F40E94A9
:10349000ED0980FDF8CF83E50E94990C0E94561437
:1034A0002FEF81EE94E0215080409040E1F700C082
:1034B000000083E5E4CF8438A1F40E94ED0982FD89
:1034C000E2CF87E40E94990C0E9456142FEF81EE00
:1034D00094E0215080409040E1F700C0000087E474
:1034E000CECF8CEF8C0F813A08F042C08091FD0264
:1034F000882399F08130D9F01092FD02EEE4F2E0D9
:1035000084E592E02191C21709F45EC08E179F07EF
:10351000C9F78C2F0E94990CB4CF8091A9028232F6
:1035200069F78C2F0E9438188111ADCFE7CF8091B9
:10353000A9028232B1F3C431B9F038F4CB3049F08A
:103540008BED92E00E94680711C0C93269F0C83360
:10355000B9F784E39BE00E9468078DED92E00E943A
:10356000680781E08170E0CF1092FD0280E0FACF21
:1035700080E28C0F883068F4C77021E030E001C031
:10358000220FCA95EAF78091A902822B8093A902A3
:1035900078CFEBE5EC0FE33040F4F0E0EE52FE4F75
:1035A000808190E00E94D5096ECFC85AC73108F0DB
:1035B0006ACFEC2FF0E0EE0FFF1FEB52FE4F808141
:1035C00091810E94BD095FCF8C2F0E948C0C0E94BC
:1035D00056149FCF1F93CF93DF93182FD0E0C0E0F6
:1035E000893311F4C0E5D0E0812F0E94261A20977C
:1035F00039F4812F0E94D519DF91CF911F91089541
:103600008FE99FE00197F1F700C000002197EFCF0D
:103610000F931F93CF93DF93C62FD42F022FFC015C
:1036200082818823A9F0609329030E94B1099093B5
:10363000280380932703C77081E001C0880FCA95D3
:10364000EAF70E94CB19DF91CF911F910F91089556
:103650008091290368133DC02091270330912803EE
:103660004FB7F8948091230390912403A0912503F0
:10367000B09126034FBF821B930B883C910548F500
:1036800010E21D0F6D17B9F080E2860F883040F40C
:10369000C77081E001C0880FCA95EAF70E94C4197B
:1036A000183048F481E09D2F977001C0880F9A95DB
:1036B000EAF70E94CB19802F0E94EA1A183018F6F8
:1036C000D77081E001C0880FDA95EAF70E94C4192B
:1036D000BACFC77081E001C0880FCA95EAF7F6CF6C
:1036E000A5E0B0E0E6E7FBE10C945B2D8C01FC016A
:1036F00083819481892B31F08081918189238F3F4F
:1037000009F0E3C52596E1E10C94772D0E9416118E
:10371000F82E682F89819A810E94F00C69817A8144
:103720008F2D0E9408117C01F8018281882309F401
:10373000BFC5970122513F452031310508F08BC5A7
:103740008FEF93E00E94912D811128C0FEEEEF0EC5
:1037500057E7852E99249394E11032C01C821B8276
:10376000442443944AE0342E74018FEFE81AF80A97
:10377000C4010E94912D89831A82882379F09FEFDA
:10378000980F933058F58A83498292E0890E911CF4
:10379000C7010E94912D8B83811121C080919F02CE
:1037A000877009F4AFCFF8018281882309F4AACF8A
:1037B0008091B70282FFA6CF82E00E94F314A2CFCD
:1037C000811424E0920651F3C4010E94912D8111CD
:1037D00001C0EA943FEF831A930ABECF4701FE016E
:1037E00031967F01F7012081222309F4BDCF2130DA
:1037F00009F047C091818281913031F4F2E0EF0EFF
:10380000F11C0E94EA1A07C0923049F422E0E20E4D
:10381000F11C0E94261A3FEFE31AF30AE3CF93301C
:1038200031F432E0E30EF11C0E94D519F4CF94304C
:1038300021F08FEFE81AF80AEECF92E0E90EF11CC2
:1038400030E020E0B7016F5F7F4FF7014181805387
:10385000990B8A30910550F021503109E0F28FE93F
:103860009FE00197F1F700C00000F6CF329EF00113
:10387000339EF00D11249C012E0F3F1F842F7B01DE
:10388000E1CFE22FF0E0EE56FE4F5490822F869566
:103890008695869590E0FC01EE57FE4F6490277068
:1038A000712C022E02C0759467940A94E2F7E1E04D
:1038B0006E227724FC01EE58FE4FA490B12C022E0C
:1038C00002C0B594A7940A94E2F7F1E0AF22BB24BA
:1038D000FC01EE59FE4FC490D12C02C0D594C79480
:1038E0002A95E2F721E0C222DD246114710419F067
:1038F00081EE0E94261AA114B10419F086EE0E94EE
:10390000261A852D0E94EA1AA114B10419F086EE38
:103910000E94D5196114710419F081EE0E94D51925
:10392000C114D10409F477CF8CE26BCF81E00E94FF
:103930003E150E94DA1432CF81E00E94E614F9CFDE
:1039400082E0F5CF95EFE9169CE5F90609F46CC025
:1039500008F466C027E245EE66EEF6EFEF16FCE5EA
:10396000FF0609F4A1C4882309F4C0C410922903F6
:1039700023E0E2162DE5F20608F05DC03AEFE3160B
:103980003CE5F30630F4C70182509C45449708F0AB
:103990005FC00E9495119093B7028093B602F2E146
:1039A000EF16FCE5FF0609F476C108F0B4C039E073
:1039B000E3163CE5F30609F44CC108F077C095E046
:1039C000E9169CE5F90609F434C108F05DC0F3E09E
:1039D000EF16FCE5FF0609F424C108F026C180912A
:1039E000B602816032E0E3163CE5F30609F490C0CC
:1039F0006091B602F090B70284E090E00E94A52D9D
:103A00006F2D82E290E00E94A52D0E944F15C6CE38
:103A100027E245EE65EE48C426E241EE60EE44C47E
:103A200027E245EE64EE40C426E241EE62EE3CC47D
:103A300028E241E0EFCF85EAE8168DE5F80609F4C3
:103A4000A8CFE0F4E1E6EE16EDE5FE0609F4A1CF1D
:103A500096E1E9169CE5F90609F055C48091A902A2
:103A60008A7A91E009F490E09093540281113DC16B
:103A700089E20E94990C0E94561490CEC7018D5A7B
:103A80009D45039728F785CF87E0E8168CE5F80673
:103A900009F4DBC08091B602806198E0E9169CE5EC
:103AA000F906B0F18091B602806432C0EDE0EE1606
:103AB000ECE5FE0609F4D7C0A0F48091B6028E7F33
:103AC0002BE0E2162CE5F20619F18091B6028C602B
:103AD0003CE0E3163CE5F306D8F08091B6028D7F1A
:103AE00017C08FE0E8168CE5F80609F4CCC008F49E
:103AF000BEC0E0E1EE16ECE5FE0609F4C8C0809118
:103B0000B6028F7BF1E1EF16FCE5FF0609F070CFFE
:103B10008093B6026DCF2FEFE2162CE5F20609F482
:103B2000C4C0D8F58AEFE8168CE5F80609F485C01C
:103B3000D0F4E4E1EE16ECE5FE0609F4C4C008F4A6
:103B4000B0C025E1E2162CE5F20609F051CF8091D4
:103B5000B60282FB992790F921E0922790FB82F927
:103B600090FB83F9D5CF3CEFE3163CE5F30609F46F
:103B700082C008F466C09DEFE9169CE5F90609F4D9
:103B80007EC08091B7028360EEEFEE16ECE5FE0694
:103B900009F02ECF8093B7022BCFF1E6EF16FDE5AB
:103BA000FF0609F49BC0A0F431E0E3163DE5F306FF
:103BB00009F492C008F47DC060E092E0E9169DE54A
:103BC000F90609F015CF8EE090E00E94A52D10CFE8
:103BD000EDEAEE16EDE5FE0601F168F49091B6020D
:103BE000892F8E7F90FF816025EAE2162DE5F2068F
:103BF00009F48ECFFDCE3EEAE3163DE5F30679F1FA
:103C00008FEAE8168DE5F80609F0F2CE9091B7023A
:103C1000892F877F93FF8860BDCF8091B70288602E
:103C2000B9CF8091B602826073CF8091B602846072
:103C30006FCF8091B60288606BCF8091B7028160B0
:103C4000A9CF8091B7028260A5CF8091B602806231
:103C50005FCF0E944F158091B602806859CF809146
:103C6000B702877F97CF8091B6028B7F51CF80912B
:103C7000B602877F4DCF8091B7028E7F8BCF809128
:103C8000B7028D7F87CF8091B6028F7E41CF809122
:103C9000B6028F7D3DCF0E944F158091B6028F777F
:103CA00037CF8091B602837F33CF8091B7028C7F6C
:103CB00071CF8091B702982F909591708E7F892B4C
:103CC00090FB81F967CF0E944F159091B602892F22
:103CD00097FB87F980581CCF61E075CF9091B602B1
:103CE000892F8F7E94FF806113CF85E3C2CE85E359
:103CF00007C381608093F8028091FE0280FF0DC0AF
:103D00001F9281E08F938AE492E09F938F930E94A9
:103D100001080F900F900F900F908091F80261E0D2
:103D200086950E943E133ACD46EB53E160EC73E179
:103D30000E94FA0933CD40EC53E166EB73E1F8CF12
:103D400040E153E166E073E1F3CF4CEE52E169EFFD
:103D500072E1EECF42ED52E16FED72E1E9CF4FED4E
:103D600052E162ED72E1E4CF4CE253E16AE173E1CA
:103D7000DFCF61E081E0D5CF65E082E00E94CB1328
:103D80000DCD68E086E0FACF64E18FE0F7CF67E120
:103D900085E1F4CF62E289E1F1CF61E083E2C1CF56
:103DA0009091FE02892F8E7F90FF81608093FE02AA
:103DB00080FF05C08AEC92E00E946807EFCC88EB98
:103DC00092E0FACF6FEF7FEF90E080E00E94C32D8A
:103DD0000E94AE198091B70282FB882780F991E09A
:103DE00089270E940F15F8018281E080F1808823E5
:103DF00009F445C0C7010E941611D82E682FC701CB
:103E00000E94F00CB7018D2D0E9408110E94FF0A3C
:103E10007C01882EF801D280B580B2943FE0B322B5
:103E200080919F028770C1F0AD2CDD20B1F08F2D05
:103E3000807F803421F080E28E0D883068F08091A0
:103E4000B70282FF09C082E00E94F31480919F02B2
:103E50008770AA24A3948111A12C9F2C92942FE007
:103E60009222FBE0F91508F479C0E92DF0E0E15069
:103E7000F24D0C941C2D81E0B4CF80E0B2CFC7018D
:103E80000E94BC0CD82EBECF2F2D2F70C22E8F2D8E
:103E9000807F19F0C29490EFC922DD20B9F0CC20C8
:103EA00069F080E28E0D883010F0811009C0809199
:103EB000A902C82AC092A9020E9456148E2D4CC095
:103EC0008091A802C82AC092A802F6CF8E2D0E9427
:103ED000D519CC2009F442C080E28E0D883010F054
:103EE000811004C08C2D0E94850C06C0C094809166
:103EF000A802C822C092A8020E9456142FC03F2DCB
:103F00003F70C32E8F2D807F803219F0C29480EFD6
:103F1000C822882089F081E0881609F468C0DD2075
:103F200009F472C0BB2009F468C0F801858180FFE4
:103F3000C5CF8F70858361C02091B70222FD35C047
:103F4000DD2069F1CC2039F08091A902C82AC09205
:103F5000A9020E94561480E00E94261A292D28509A
:103F6000330B2430310510F40E94ED09AA2009F426
:103F7000C9CB80919F0280FDC5CBF8011282859547
:103F8000859585950E943E15C8010E94701B809101
:103F90009F028595859585950E94E614B3CB80E0B8
:103FA0000E94D519CC20D1F29DCFDD2099F09091BF
:103FB000AA028C2D892BB11003C00E94CB19CECF41
:103FC000E1E0BE12FACF22FFC9CF981739F28093F1
:103FD000AA02C4CFB11006C00E947F0C8C2D0E9493
:103FE000C419BCCFF1E0BF1609F4B8CFF5CFDD207E
:103FF00031F025E02B1508F4B1CF8C2DDECF34E065
:104000003B1508F4ABCFEACFBB2041F3F9E38F12A5
:1040100009C02FEF37EE83E0215030408040E1F7B8
:1040200000C000008E2D0E94D51998CF8F2D869547
:104030008695837061F0813009F090CFC70193704D
:10404000D11002C090E080E00E94BD0987CFC70177
:104050009370D11002C090E080E00E94D5097ECF1D
:104060008F2D837091F5D11079CF4E2D42954695C5
:104070004770440F440F8E2D8F70042E01C0880F9F
:104080000A94EAF72E2D2071E4FE07C02FE030E0FD
:1040900001C0220F4A95EAF720953F2D36953695B7
:1040A0003370323069F050F44091AB02313029F076
:1040B000822B84230E944A1551CF842B822BFACF66
:1040C000282B8091AB028227F5CF8695DD2011F059
:1040D0008F2D8170882309F441CF4E2D429546954E
:1040E0004770440F440F8E2D8F70042E01C0880F2F
:1040F0000A94EAF72E2D2071E4FE07C02FE030E08D
:1041000001C0220F4A95EAF720953F2D3695369546
:104110003370323069F050F440912A03313029F085
:10412000822B84230E94D51419CF842B822BFACFA3
:10413000282B80912A038227F5CF9F2D9F70F92E7F
:10414000DD2029F0892F0E943E158E2D36CF8E2D31
:104150000E94C4198F2D0E94E61400CF8E2DE2EF2D
:104160008E16B1F1E81570F0F0EF8F16D1F021EF57
:10417000821691F0DD2009F45EC0B1109FCE8F2D24
:104180008F712AC033EF831651F194EF8912F2CF69
:104190008091B70282FD2FC08F2D8F71DD20D9F263
:1041A0001BC0DD2081F0E4E0EB1508F4D7CE2F2D05
:1041B0002F7181E090E001C0880F2A95EAF7909175
:1041C0002A038927AFCFF5E0FB1508F4C7CEEFCF60
:1041D0008F2D8F71D110BFCF0E943E15BFCE80E0D2
:1041E000DD2009F49FCF9F2D9F7181E001C0880FD2
:1041F0009A95EAF797CFDD2099F02F2D2F71F22EA7
:10420000822F0E943E158091B70282FF07C038E0DE
:10421000F39EC0011124836080939F028F2DDCCF19
:1042200081E00E94F31481E08B1508F097CE82E0C4
:104230000E94F31493CEBB2059F0893309F0F2CEDB
:104240009FEFE7EEF3E09150E040F040E1F7E8CE79
:104250008F2D8F7180CFF0E1EF16FFE5FF0609F497
:1042600065CB21E1E2162FE5F20609F469CB93EF65
:10427000E9169CE5F90609F4CFCB08F063CBF8ED1D
:10428000EF16FCE5FF0609F4C3CB29EDE2162CE599
:10429000F20609F4CDCB37EDE3163CE5F30609F061
:1042A00062CB26E241EE61EEC8010E94081B76CA8D
:1042B00030E1E3163FE5F30609F43ECB91E1E91660
:1042C0009FE5F906A1F682E038CB85E0DE01119684
:1042D00001900D928A95E1F7F801228189819A81F6
:1042E000211114CA0E94BC0CF82E18CAF6E1EF1670
:1042F000FCE5FF06E1F5809154028111F8CC89E2DA
:104300000E948C0CB8CB2AE5E2162DE5F20609F4E2
:10431000B2CDF0F481E0E8168CE5F80609F440CD62
:104320009EEDE9169CE5F90609F44CCDE114ECE5A7
:10433000FE0609F058CD0E944F153FEF84E39CE044
:10434000315080409040E1F700C000000E94940985
:10435000FCE5EF16FDE5FF0609F43CCD08F48DCD34
:1043600037EAE3163DE5F30609F432CD3CCD809102
:10437000A90282729CECE9169CE5F90609F4F4CCDA
:1043800008F096C0F6ECEF16FCE5FF0609F4D8CC71
:1043900008F065C033ECE3163CE5F30609F4C4CC41
:1043A00008F04CC0E2ECEE16ECE5FE0609F01BCD81
:1043B0008091FE0280FF10C08091F802809581708C
:1043C0001F928F9381E892E09F938F930E94010840
:1043D0000F900F900F900F908091F80280FF89CC82
:1043E0008E7F8093F8026091F8027091F9028091BB
:1043F000FA029091FB020E94F7118091FE0280FF69
:104400000FC08091F80281701F928F9382E192E039
:104410009F938F930E9401080F900F900F900F9021
:104420000E94A311EFEFF0E722E0E150F0402040BE
:10443000E1F700C000000E94F80DB0C9F4ECEF16DF
:10444000FCE5FF0609F477CC46E053E160E173E157
:1044500025ECE2162CE5F20609F46ACCC4CC39EC62
:10446000E3163CE5F30609F475CC88F4E7ECEE16A8
:10447000ECE5FE0609F469CC49EF52E16CEE72E11D
:10448000F8ECEF16FCE5FF0609F452CCACCC2AECB4
:10449000E2162CE5F20609F462CC4AE153E16CE243
:1044A00073E13BECE3163CE5F30609F441CC9BCC0D
:1044B00081EDE8168CE5F80609F466CCB8F4EEEC6C
:1044C000EE16ECE5FE0609F457CC08F452CC2FECBE
:1044D000E2162CE5F20609F454CC6EE089E030EDEA
:1044E000E3163CE5F30609F449CC7DCC84EDE816EF
:1044F0008CE5F80609F44ECC78F4E2EDEE16ECE526
:10450000FE0609F444CC61E088E1F3EDEF16FCE52A
:10451000FF0609F406CC67CC25EDE2162CE5F20681
:1045200009F43BCC3DE5E316F30609F437C95BCC4F
:104530001F93CF93DF9380916C02807F09F049C075
:1045400080916902882309F444C080919E02D09131
:104550006D026091670270916802A0916A02B09149
:104560006B02C62FC72316E0D81799F190E0109779
:1045700011F0CF3F19F401968770F6CF189F900184
:10458000199F300D1124F901E259FD4F4181471364
:10459000F2CF40814613EFCF42814111ECCF4381EE
:1045A00054814A1B5B0B483C510528F780916C02F3
:1045B0008F70806180936C02F901ED58FD4F80810E
:1045C0008F708061808387E692E00E94701B0E945A
:1045D000B20CDF91CF911F910895A1E1B0E0E3EF1C
:1045E000F2E20C94622D8C0185E0F801DE011D964B
:1045F00001900D928A95E1F7F801E28087E6A82EF6
:1046000082E0B82E60916A0270916B0261157105AB
:1046100009F426C19091670240916802892F842392
:104620008F3F09F41DC120813181C380D480F09077
:104630006902F601E61BF70BFF2009F4DCC080914C
:104640006C02582F507FE83CF10508F09FC05111D3
:104650006BC0FE2C431314C0921312C0E11010C0A3
:104660008F70806180936C02C5010E94701B8091E5
:104670006C02F80185838F2D6196EAE00C947E2D03
:10468000C114D10429F0822F83238F3F09F003C185
:1046900080E0F82FF170DF2E80FF3CC080919E02F9
:1046A00040916D0256E0841315C02D873E878D859D
:1046B0009E850E944511292F22952F702230F0F0FF
:1046C000243018F59F70F1F0F8019581907FD1F4B6
:1046D000D12C1EC090E0589FF001599FF00D11247D
:1046E000E259FD4F6181361306C06081261303C075
:1046F0006281E6120FC001968770D5CF9F7011F0CE
:10470000882331F3805E883018F3C8010E94701B43
:10471000FD2CB1CFEE2009F4AECF80916C02816008
:1047200080936C02F12CA7CF431306C0921304C0F0
:10473000F801EE2009F479C0C8010E9452118823C3
:1047400009F1EE20F9F080916C02803270F0209136
:1047500067023091680238872F831986DB86CA8604
:104760008C87CE0107960E94701B86E0F801A7E6B1
:10477000B2E001900D928A95E1F70E949822FF2401
:10478000F39479CFC8010E94701BF9CF51110AC070
:1047900087E692E00E94701B86E0F50111928A95EF
:1047A000E9F7C0CF43130FC092130DC0E1100BC047
:1047B000F8018583C8010E94701B86E0F501119203
:1047C0008A95E9F758CFC8010E9452118823D1F287
:1047D000EE20C1F280916C02803238F220916702A3
:1047E000309168023A8329831B82DD82CC828E83DA
:1047F000CE010196B8CFE83CF105F8F6FE2CEE208C
:1048000009F243131FC092131DC080916C0280FDFA
:1048100010C0982F907F69F0F8018583903F31F0A8
:10482000982F907F905F8F70892B8583C8010E949D
:10483000701B86E0F801A7E6B2E001900D928A9520
:10484000E1F719CFC8010E94521181118ECF8091DA
:104850006C02816080936C02C8010E94701B0BCFB8
:10486000EE2009F48FCFC8010E945211F82E882340
:1048700009F488CF86E0F801A7E6B2E001900D9236
:104880008A95E1F780916702909168020E94451134
:104890000E949822F0CE81E08E25FBCEA7E1B0E009
:1048A000E4E5F4E20C94692D4B8B5C8B6D8B7E8B75
:1048B0008F8B61111092A8021A8A198A85E0FE0175
:1048C0007396DE011D9601900D928A95E1F786E0C0
:1048D000FE013D96DE01179601900D928A95E1F753
:1048E000CE0107960E94ED22882359F016E08091B0
:1048F0009E0290916D02891343C06796E3E00C9489
:10490000852D86E0FE013796DE01119601900D920D
:104910008A95E1F78A859B85892B41F38F8198855C
:1049200089238F3F19F320916D0230E0C901019670
:104930008770992740919E024817190671F40E94CA
:104940004F1510926D0210929E0286E0E7E6F2E0AB
:10495000DF011D928A95E9F7C9CF96E0929FD001B9
:10496000939FB00D1124A259BD4FFE0131960190C5
:104970000D929A95E1F780936D020E94B20CB6CF2A
:10498000819FC001112482599D4F0E94ED228823EE
:1049900009F4B3CF80919E0290E001968770992729
:1049A00080939E02A4CFA7E0B0E0E9EDF4E20C947E
:1049B000612D8E010F5F1F4F87E0F80111928A95DC
:1049C000E9F783E0C82E82E0D82EF12CE12CAA244E
:1049D000A394B12CF60181916F018F3F09F443C07C
:1049E000F894E82FE295EF70F0E021A18F70A50117
:1049F00002C0440F551F8A95E2F7CA01922F982BE7
:104A000091A392A18095892382A3789400C0EAE0C3
:104A1000F2E0912C31E021912F3F09F470C0A22FD8
:104A2000A295AF70B0E090968C9190E02F7002C08C
:104A3000959587952A95E2F780FD61C0832F982A86
:104A4000330F52E0E031F50731F7F60131978081FD
:104A50008F3F11F00E94A50A80EA8A95F1F7F801CC
:104A6000EE0DFF1D9082EFEFEE1AFE0AF7E0EF1653
:104A7000F10409F0AFCF47E050E0B8018FEA92E0CF
:104A80000E94E62D892BE9F187E0F801AFEAB2E058
:104A900001900D928A95E1F781E08093AE020E9429
:104AA000B1099093AD028093AC022091AC02309199
:104AB000AD024FB7F8948091230390912403A09105
:104AC0002503B09126034FBF821B930B0597E8F097
:104AD00047E050E06FEA72E085EC92E00E94E62D3C
:104AE000892BC1F087E0EFEAF2E0A5ECB2E001909B
:104AF0000D928A95E1F781E01092AE0207C080E046
:104B00009ECF8091AE028111D0CF80E02796EBE05E
:104B10000C947D2D80E0F0CF90E080E00E949F2DEE
:104B2000883E9E4F19F40E947C11089580E00895FC
:104B30001F920F920FB60F9211242F933F934F9312
:104B40005F936F937F938F939F93AF93BF93CF9315
:104B5000DF93EF93FF93D091E900DF708091EC0039
:104B6000C82FC17080FDC0E81092E9008091F0006C
:104B7000877F8093F00078940E945B151092E90083
:104B80008091F00088608093F000CD2BCF70C093AF
:104B9000E900FF91EF91DF91CF91BF91AF919F918C
:104BA0008F917F916F915F914F913F912F910F90D6
:104BB0000FBE0F901F9018951F920F920FB60F9275
:104BC00011242F933F934F935F936F937F938F9312
:104BD0009F93AF93BF93EF93FF938091E10082FF88
:104BE00015C08091E20082FF11C08091E1008B7FAF
:104BF0008093E10020910B032F5F822F62E30E94DC
:104C0000B82C992309F4C0C020930B038091DA00DB
:104C100080FF28C08091D80080FF24C08091DA00F6
:104C20008E7F8093DA008091D90080FFE3C080E11D
:104C300089BD82E189BD09B400FEFDCF81E080938A
:104C4000190381EB9DE00E94680780910C0381119C
:104C500009C00E940A080E94D5088091E200846081
:104C60008093E2008091E10080FF1BC08091E20010
:104C700080FF17C08091E2008E7F8093E2008091D8
:104C8000E20080618093E2008091D800806280938E
:104C9000D80019BC85E08093190389EB9DE00E9440
:104CA00068078091E10084FF2FC08091E20084FFBB
:104CB0002BC080E189BD82E189BD89B5982F9170B3
:104CC00080FFFBCF8091D8008F7D8093D8008091AA
:104CD000E1008F7E8093E1008091E2008F7E8093DF
:104CE000E2008091E20081608093E20080911A03EB
:104CF000882309F489C084E0809319038DEB9DE03B
:104D00000E946807809119038091E10083FF2BC006
:104D10008091E20083FF27C08091E100877F80932C
:104D2000E10082E08093190310921A038091E10060
:104D30008E7F8093E1008091E2008E7F8093E2007D
:104D40008091E20080618093E20042E060E080E0D8
:104D50000E94A3088091F00088608093F00081ECAD
:104D60009DE00E946807FF91EF91BF91AF919F91E5
:104D70008F917F916F915F914F913F912F910F9004
:104D80000FBE0F901F90189510920B0380910A038D
:104D9000882309F43BCF809119038430C1F49091AA
:104DA000E9009F702091EC00822F817020FD80E847
:104DB000892B95E09093E9009091EB0090FF04C05F
:104DC0009091EE0097FD08C08F708093E9001092DB
:104DD0000A031CCF1092F1009091E80095FDFACFE4
:104DE0009091E80090FFF0CF9091E8009E7790932B
:104DF000E800EACF19BC1092190385EB9DE00E94F0
:104E0000680710920C032ECF8091E30087FD93E09A
:104E10009093190373CF78941F921FB61F92112499
:104E20008F939F93AF93BF9380912303909124031B
:104E3000A0912503B09126030196A11DB11D809379
:104E4000230390932403A0932503B0932603BF91DB
:104E5000AF919F918F911F901FBE1F9018951F9229
:104E60001FB61F9211248F939F93AF93BF9380918E
:104E70000503811113C08091230390912403A09115
:104E80002503B09126034196A11DB11D80932303F4
:104E900090932403A0932503B0932603BF91AF9171
:104EA0009F918F911F901FBE1F901895CDB7DEB7B1
:104EB000AA970FB6F894DEBF0FBECDBF85B7806846
:104EC00085BF85B7806885BF84B7877F84BF0FB6ED
:104ED000F894A8958091600088618093600010929A
:104EE00060000FBE80E890E00FB6F89480936100F8
:104EF000909361000FBE8FE39DE090934B028093EF
:104F00004A020E940A080E94D5088091E20084604B
:104F10008093E2007894809119038823A1F0109186
:104F2000E9001F709091EC00892F817090FD80E85E
:104F3000182B1092E9008091E80083FD0E945B1518
:104F40001F701093E90082E084BD93E095BD9AEF55
:104F500097BD80936E000E947C11811102C00E9457
:104F6000C91003E012E04AE0E42E42E0F42ED8013A
:104F70008D918D018F3F11F00E94A50AE016F10678
:104F8000B1F70AE012E030E1E32E32E0F32EF8014F
:104F900081918F018F3F11F00E94A50AE016F10662
:104FA000B1F787E0E5ECF2E0DF01282F1D922A95AA
:104FB000E9F7EFEAF2E0DF011D928A95E9F70E9436
:104FC0008C25811102C00E94EB1382E090E00E94C8
:104FD000912D8093FE020E9495119093B7028093C9
:104FE000B6020E94D324EFE3FCE93197F1F700C049
:104FF00000000E94D3248091C50280FF08C06FEF9B
:105000007FEF90E080E00E94C32D0E94940983E02E
:1050100090E00E94912D0E944A158091B802811162
:10502000DDC08091FE0280FF14C082E594E09F9372
:105030008F930E9401088091FE020F900F9080FFD5
:1050400008C08CE394E09F938F930E9401080F9017
:105050000F900E948C25811110C08091FE0280FF6C
:1050600008C084E194E09F938F930E9401080F9001
:105070000F900E94EB130E94DB1388E090E00E94E7
:10508000992D6093F8027093F9028093FA0290933D
:10509000FB026E7FD1F48091FE0280FF08C08BEC92
:1050A00093E09F938F930E9401080F900F900E94AE
:1050B000DB1388E090E00E94992D6093F8027093D2
:1050C000F9028093FA029093FB020E94000A8091F9
:1050D000FE0280FF76C082EB93E09F938F930E9445
:1050E00001088091FE020F900F9080FF6AC08091AE
:1050F000F80281701F928F9385E993E09F938F93BD
:105100000E9401088091FE020F900F900F900F9067
:1051100080FF57C08091F80286951F928F938AE78F
:1051200093E09F938F930E9401088091FE020F905D
:105130000F900F900F9080FF44C08091F9021F9252
:105140008F9380E693E09F938F930E940108809154
:10515000FE020F900F900F900F9080FF32C0809151
:10516000FA021F928F9386E493E09F938F930E949D
:1051700001088091FE020F900F900F900F9080FF1A
:1051800020C08091FB021F928F938CE293E09F934B
:105190008F930E9401088091FE020F900F900F9054
:1051A0000F9080FF0EC08091FC021F928F9380E1D0
:1051B00093E09F938F930E9401080F900F900F90A0
:1051C0000F901092D3028091F80280FF04C060E03B
:1051D00086950E943E1381E08093B80280E091E0C2
:1051E000909302038093010388E1482E512C85ECB3
:1051F00092E097E0392E380E27E7622E24E0722ED7
:10520000809119038530E1F489E694E00E946807F3
:1052100000E4F02EEE24E39400E112E18091190302
:10522000853009F458C00E944F150E94ED09109274
:10523000BA028091B90281110E9499130E94D5117E
:105240000E94D324BDEBEB2EB2E0FB2E15ECC12E59
:1052500012E0D12ED601F70191918D9122E0E43C2C
:10526000F20709F47CC09817B9F38091FE0281FD22
:105270002AC110E0D6010D916D01F70191907F01D7
:10528000901619F19026B12CAA24A394892D8A2175
:10529000A1F0BEA21FA391E0802F8A2109F490E023
:1052A00098A70E94B1098160782F9AA789A74EA17B
:1052B0005FA168A58AA50E944E24B394AA0CF6E0CB
:1052C000BF12E4CFF701319700831F5F173091F6CB
:1052D0000E94A50964C080911903843009F430C08C
:1052E0000E94A3118091BA02811109C0E092BA0212
:1052F0008091F80281708093B9020E94B2111092DD
:1053000005030FB6F894A895409260000FBEF09286
:10531000600083B7817F846083BF83B7816083BF70
:105320007894889583B78E7F83BF0FB6F894A8953D
:1053300080916000886180936000109260000FBED1
:1053400080911803882309F469CF0E94D324E5ECE7
:10535000F2E081918111EDC23E12FBCF5FCF981335
:1053600084CF0E94B1098C018091BB029091BC0254
:1053700008171907A1F08FEF89A38AA31BA20E9427
:10538000B1098160782F9DA38CA349A15AA16BA17B
:105390008DA10E944E241093BC020093BB02809109
:1053A000D3028823D1F18091D202E091F802E695F0
:1053B000E81BE093CE02823009F0B7C0F0E0E75678
:1053C000FB4FE4910E2F10E0EEE2EE2EE0E1FE2E18
:1053D0008091CF02882361F01092CF020E94B10920
:1053E0009093CD028093CC021092D1021092D00201
:1053F0000E94B109E091CC02F091CD028E1B9F0B6F
:105400008F3F9F4750F4E00FF11FF093CD02E093E0
:10541000CC028CEC92E0F70109950E94ED09182F5F
:105420008091C402181731F11093C4020E94A5099B
:105430008091FE0282FF1EC080FF1CC084EA94E0BF
:105440000E9468078091FE0280FF14C01F921F9384
:105450008FE994E09F938F930E9401088091FE0250
:105460000F900F900F900F9080FF04C08DE994E093
:105470000E94680780911903843009F0C1CE83E04F
:105480008093E9008091E80082FFBACE8091E80025
:1054900090E085FF06C00E942908882309F49FC078
:1054A00091E08091E8008B778093E800992309F4DC
:1054B000A7CEE981E150E33108F00DC1F0E0E55FEE
:1054C000F14D0C941C2D8CE794E00E946807F5ECDC
:1054D0008F2EF2E09F2E10E000E0AFE6AA2EA4E0AF
:1054E000BA2E1F930F937F926F920E94010884E758
:1054F00094E00E946807D4018D914D010E94270D10
:105500001F928F93BF92AF920E9401088DE694E0A4
:105510000E9468070F5F1F4F0FB6F894DEBF0FBEE3
:10552000CDBF07301105E9F6A4CE863059F4F0E07E
:10553000EA56FB4FE4910E2F10E07EE1E72E70E17A
:10554000F72E46CF893061F4E695F0E0ED56FB4F3B
:10555000E4910E2F10E062E9E62E6FE0F62E38CFD0
:105560008F3061F4E695F0E0E057FB4FE4910E2FA9
:1055700010E05DE2E52E5FE0F52E2ACF853159F48B
:10558000F0E0E357FB4FE4910E2F10E04FEDE42ED7
:105590004EE0F42E1DCF08E210E094E6E92E9EE0E6
:1055A000F92E883109F414CF833249F4EBE8F4E0A2
:1055B000059114913DECE32E3FE0F32E09CF04EF6B
:1055C00011E02DE2E22E2EE0F22E843209F400CF1B
:1055D00000ED17E08FE8E82E89E0F82EF9CE00E222
:1055E00010E0CE0101967C018091E80085FD0AC0A3
:1055F0008091E8008B778093E8000E942908882337
:1056000099F34ECF8091F100D7018D937D01015028
:10561000110951F745CF1A828AE08B8311C08A8124
:10562000823009F49CC1833091F1813009F053C07C
:105630000E94A5090E94222D6B837C838D839E830B
:1056400080911903843009F0DBCD1091E9001F70BF
:105650009091EC00892F817090FD80E8182B82E0FA
:105660008093E9008091E80080FF0DC050E040E0A9
:1056700060E270E0CE0101960E945A088091E80035
:105680008E778093E8001F701093E900B9CD809168
:10569000C5028B838091C6028C838091C7028D8363
:1056A0008091C8028E838091C9028F838091CA0243
:1056B00088878091CB028987C3CF8A81823059F451
:1056C0006B817C818D819E810E94222D86E290E0FB
:1056D0000E94A52DB5CF8FEF8983B2CF4C816B810E
:1056E0008A810E94D9109827892798279E838D83C5
:1056F000A7CF2D813E813227232732274C816B8112
:105700008A810E9452109CCF0E94781099CF8A8182
:10571000813809F1A8F4803809F092CF8B81BFEF6E
:105720008B9FC00111246FEF70E00E94D22C462F96
:1057300020E06091FA028091F9020E940A1280CF63
:105740008238B1F0833809F07BCF20E04091FB0232
:105750006C818B81F2CF60E08B810E943E138B8144
:10576000811103C00E94B2116BCF0E94991368CFC0
:105770008B818093FC029091FE0290FF61CF1F927B
:105780008F938FEA94E09F938F930E9401080F906C
:105790000F900F900F9054CF8A818138E1F078F408
:1057A000803809F04DCF8091FB02EFEF8E9FC00152
:1057B00011246FEF70E00E94D22C6B8341CF8238AE
:1057C00091F0833809F03CCF8091F9028B8380916E
:1057D000FA028C8335CF8091F80280FF02C0869553
:1057E0001CCF80E01ACF8091FC0217CF6091F802A5
:1057F0007091F9028091FA029091FB020E94F711D8
:105800001FCF80E18A831CCF82E08A8389E805CF9D
:10581000CA80DB80DC24CD24DC248E010F5F1F4F87
:10582000EC80E00EF12EF11CC60189589E4FE01667
:10583000F10609F405CFF9E8CF16F2E0DF0658F4D7
:105840000E94912DD80114968C93FFEFCF1ADF0A96
:105850000F5F1F4FE9CFF8011482F7CF0A811B8138
:10586000102701271027CE0101966C01EC80E00E75
:10587000F12EF11CC80189589E4F0E151F0509F421
:10588000DFCE0938A2E01A0720F4F60164810E94F5
:10589000A52DFFEFCF1ADF0A0F5F1F4FEBCF0E943E
:1058A0004210CECE84E0AECFCA80DB80DC24CD2493
:1058B000DC248E010F5F1F4FEC80E00EF12EF11CF7
:1058C000C60187960E151F0509F4BACE20E5C2164B
:1058D00021E0D20658F40E94912DD80114968C93A1
:1058E000FFEFCF1ADF0A0F5F1F4FEACFF8011482D4
:1058F000F7CF0A811B81102701271027CE010196BF
:105900006C01EC80E00EF12EF11CC8018796E016C8
:10591000F10609F495CE0035A1E01A0720F4F6014E
:1059200064810E94A52DFFEFCF1ADF0A0F5F1F4F82
:10593000ECCF09BD19BD09B400FEFDCF8091D800A0
:105940008F7D8093D8008091E00082608093E0009A
:105950008091E00081FDFCCF0E944F155FCC86E274
:1059600090E00E94912D1B821C821D828E8368CE46
:10597000991B79E004C0991F961708F0961B881FA1
:105980007A95C9F78095089587FB082E062687FD2E
:10599000819567FD61950E94B82C0EF4919507FCE6
:1059A00081950895AA1BBB1B51E107C0AA1FBB1F0D
:1059B000A617B70710F0A61BB70B881F991F5A959B
:1059C000A9F780959095BC01CD01089597FB072E0E
:1059D00016F4009407D077FD09D00E94D22C07FC62
:1059E00005D03EF4909581959F4F089570956195EF
:1059F0007F4F0895A1E21A2EAA1BBB1BFD010DC00B
:105A0000AA1FBB1FEE1FFF1FA217B307E407F5076E
:105A100020F0A21BB30BE40BF50B661F771F881F4A
:105A2000991F1A9469F760957095809590959B01E0
:105A3000AC01BD01CF010895EE0FFF1F0590F49159
:105A4000E02D0994692796276927782787277827E3
:105A500008950E94312D332312F48A1B9B0B0C9462
:105A6000422DA29FB001B39FC001A39F700D811D65
:105A70001124911DB29F700D811D1124911D089557
:105A80000E94312DB7FF0895821B930B08950E9449
:105A9000312DA59F900DB49F900DA49F800D911D59
:105AA00011240895B7FF0C94472D0E94472D821BA7
:105AB000930B08952F923F924F925F926F927F9235
:105AC0008F929F92AF92BF92CF92DF92EF92FF920E
:105AD0000F931F93CF93DF93CDB7DEB7CA1BDB0BBA
