:100000000C946D060C948A060C948A060C946A3142
:100010000C948A060C948A060C948A060C948A0620
:100020000C948A060C948A060C946A1A0C94261A6C
:100030000C9443280C948A060C948A060C948A0625
:100040000C948A060C948A060C948A060C948A06F0
:100050000C948A060C94431B0C948A060C948A0612
:100060000C948A060C948A060C948A060C948A06D0
:100070000C948A060C948A060C948A060C948A06C0
:100080000C948A060C948A060C948A060C948A06B0
:100090000C948A060C948A060C948A060C948A06A0
:1000A0000C948A060C948A060C948A060501098031
:1000B000A101850319012AB700150126B700950192
:1000C00075108100C0050C0901A101850419012AE0
:1000D000A002150126A002950175108100C00660DE
:1000E000FF0961A1010962150026FF00952075082E
:1000F00081020963150026FF00952075089102C052
:1001000005010906A101050719E029E715002501E8
:10011000950875018102950175088101050719008F
:1001200029FF150026FF00950675088100050819AE
:10013000012905950575019102950175039101C08D
:100140000005010502050305040505050006010675
:100150000206030604060506000701070207030757
:100160000407050700080108020803080408050839
:100170000009010902090309040905090000010039
:100180000200030004000500000101010201030157
:100190000401050100020102020203020402050239
:1001A0000003010302030303040305030004010425
:1001B0000204030404040504000000000000000021
:1001C000000000000000000000000000000000002F
:1001D0000000000000000000000000007E0F00D4BE
:1001E000FFFFFFC7000000780000000000000000D3
:1001F0002A2B280000000000000000000000000082
:1002000000000029000000002C1E3420212224348C
:100210002627252E362D3738271E1F20212223245E
:1002200025263333362E37381F0405060708090AFA
:100230000B0C0D0E0F101112131415161718191A96
:100240001B1C1D2F3130232D350405060708090A14
:100250000B0C0D0E0F101112131415161718191A76
:100260001B1C1D2F3130354C00DA0281FFD9F1DB28
:1002700020A4A62EAF00A0C000A1C800AED580A8C3
:100280001FD300408D14200000047F3F1F643214F0
:10029000643214783C1E1E140A054350534C4B0024
:1002A0000A0A00556E646566004C6F7765720052ED
:1002B0006169736500426173650A004C415945529A
:1002C000000A0A004D6F640A00436C6D6B005177A1
:1002D0007274000A0A0080818283848586878889F7
:1002E0008A8B8C8D8E8F9091929394A0A1A2A3A4BF
:1002F000A5A6A7A8A9AAABACADAEAFB0B1B2B3B436
:10030000C0C1C2C3C4C5C6C7C8C9CACBCCCDCECF75
:10031000D0D1D2D3D40000010101010101010101BA
:1003200002020202020202020203030303030303A6
:100330000304040404040404050505050506060673
:100340000606070707070708080808090909090A30
:100350000A0A0B0B0B0C0C0C0D0D0D0E0E0E0F0FD5
:100360000F10101111111212131314141515161663
:100370001717181819191A1A1B1B1C1D1D1E1E1FD2
:100380002020212222232424252626272829292A21
:100390002B2C2D2D2E2F3031323233343536373849
:1003A000393A3B3C3D3E3F40414243444546474845
:1003B000494A4C4D4E4F50515354555658595A5B1B
:1003C0005D5E5F616264656668696B6C6D6F7072BB
:1003D000737577787A7B7D7E8082838587888A8C27
:1003E0008E8F91939596989A9C9EA0A2A3A5A7A95B
:1003F000ABADAFB1B3B5B7BABCBEC0C2C4C6C9CB52
:10040000CDCFD1D4D6D8DBDDDFE2E4E7E9EBEEF007
:10041000F3F5F8FAFDFFFFAA7F5540222325262891
:10042000292A2C2D2F3032333536383A3B3D3E4089
:1004300042434547494A4C4E5051535557595A5CCF
:100440005E6062646668696B6D6F71737577797BE6
:100450007D7F81838587898A8C8E90929496989AE5
:100460009C9E9FA1A3A5A7A8AAACAEAFB1B3B4B6FA
:10047000B8B9BBBCBEBFC1C2C3C5C6C7C9CACBCC55
:10048000CDCED0D1D2D2D3D4D5D6D7D7D8D9D9DA28
:10049000DADBDBDBDCDCDCDCDCDDDDDDDDDCDCDC9D
:1004A000DCDCDBDBDBDADAD9D9D8D7D7D6D5D4D3C5
:1004B000D2D2D1D0CECDCCCBCAC9C7C6C5C3C2C19A
:1004C000BFBEBCBBB9B8B6B4B3B1AFAEACAAA8A7F7
:1004D000A5A3A19F9E9C9A98969492908E8C8A89AF
:1004E000878583817F7D7B79777573716F6D6B698C
:1004F00068666462605E5C5A5957555351504E4C61
:100500004A4947454342403E3D3B3A38363533320F
:10051000302F2D2C2A29282625232207087F08077B
:10052000003E5B4F5B3E003E6B4F6B3E001C3E7CD3
:100530003E1C00183C7E3C18001C577D571C001CBC
:100540005E7F5E1C0000183C180000FFE7C3E7FF59
:1005500000001824180000FFE7DBE7FF0030483AEE
:10056000060E00262979292600407F050507004050
:100570007F05253F005A3CE73C5A007F3E1C1C0883
:1005800000081C1C3E7F0014227F2214005F5F00C5
:100590005F5F0006097F017F00006689956A006041
:1005A000606060600094A2FFA2940008047E0408CA
:1005B0000010207E20100008082A1C0800081C2AB1
:1005C0000808001E10101010000C1E0C1E0C00302D
:1005D000383E383000060E3E0E06000000000000D7
:1005E0000000005F000000000700070000147F14F7
:1005F0007F1400242A7F2A12002313086462003625
:100600004956205000000807030000001C2241004A
:10061000000041221C00002A1C7F1C2A0008083E02
:100620000808000080703000000808080808000072
:1006300000606000002010080402003E5149453E61
:100640000000427F4000007249494946002141496B
:100650004D33001814127F10002745454539003CE2
:100660004A494931004121110907003649494936B3
:1006700000464949291E00000014000000004034D3
:100680000000000008142241001414141414000087
:1006900041221408000201590906003E415D594EED
:1006A000007C1211127C007F49494936003E4141CD
:1006B0004122007F4141413E007F49494941007F3D
:1006C00009090901003E41415173007F0808087F74
:1006D0000000417F4100002040413F01007F08149D
:1006E0002241007F40404040007F021C027F007F8B
:1006F0000408107F003E4141413E007F0909090680
:10070000003E4151215E007F0919294600264949D2
:1007100049320003017F0103003F4040403F001F7A
:100720002040201F003F4038403F006314081463FE
:10073000000304780403006159494D4300007F41E0
:10074000414100020408102000004141417F0004A3
:10075000020102040040404040400000030708003E
:10076000002054547840007F2844443800384444E2
:10077000442800384444287F00385454541800005A
:10078000087E09020018A4A49C78007F080404785D
:100790000000447D4000002040403D00007F1028C4
:1007A00044000000417F4000007C04780478007C15
:1007B0000804047800384444443800FC1824241801
:1007C0000018242418FC007C080404080048545431
:1007D00054240004043F4424003C4040207C001C7E
:1007E0002040201C003C4030403C0044281028445D
:1007F000004C9090907C004464544C4400000836B7
:1008000041000000007700000000413608000002AF
:1008100001020402003C2623263C000000000000E8
:1008200000404040F0F8F8FF38FFF8F83FF8F8FFD4
:1008300038FFF8F8F040404000000000000080C0A1
:10084000C0C0800000C0C08000000080C0C000C0E8
:10085000C0000080C0C00000000000C0C0C0C0C018
:1008600000C0C00000000000000000000000000008
:100870000000000000000000000000000000000078
:100880000000000000000000000000000000000068
:1008900000000000000000000000C0F0F8FC3E1E58
:1008A00006010000007F4141417F007F4141417FBF
:1008B000000080C0E07E5B4F5BFEC00000C000DC3B
:1008C000D7DEDEDED7DC00C0000000000000000044
:1008D0000000000000000000000000000000000018
:1008E00000494949FFFFFFFFE0DFBFBF00BFBFDF97
:1008F000E0FFFFFFFF49494900000000001F3F6083
:1009000060E0BF1F007F7F071E381E077F7F007FCC
:100910007F0E1F3B716000000000007F7F0C0C0CFD
:10092000007E7E007F7E0303007F7E03037E7E03C6
:10093000037F7E000F3E703C063C703E0F00327B12
:1009400049493F7E007F7E0303001E3F69696F2691
:1009500000000000000000000000030F1F3F3C7873
:1009600070600000007F4141417F007F4141417F35
:1009700000307B7F7830202030787F3B0003000FF1
:100980007F0F0F0F7F0F000300000000000000002A
:100990000000000000000000000000000000000057
:1009A00000010101070F0F7F0F7F0F0F7E0F0F7FD9
:1009B0000F7F0F0F07010101000000000000000081
:1009C0000000010100000000000000000000000025
:1009D0000000000000000000000000000000000017
:1009E0000000000000000000000000000000000007
:1009F00000000000000000000000000000000000F7
:100A000000000000000000000000000000000000E6
:100A100000000000000000000000000000000000D6
:100A200000000000000000000000000000000000C6
:100A300000000000000000000000000000000000B6
:100A400000000000000000000000000000000000A6
:100A5000000000000000000000000000AF00AE3504
:100A6000001E001F00200021002200290014001A8F
:100A7000000800150017002B0004001600070009ED
:100A8000000A00E1001D001B00060019000500E33C
:100A900000E200E00002512800A8003500270026EF
:100AA000002500240023002A00130012000C001867
:100AB000001C00340033000F000E000D000B00E599
:100AC0000038003700360010001100E700E600E4AF
:100AD0000003512C00000035001E001F00200021E3
:100AE000002200290014001A00090013000A002B3C
:100AF0000004001500160017000700E1001D001B90
:100B000000060019000500E300E200E000010028F3
:100B100000A8003500270026002500240023002A15
:100B20000033001C0018000F000D00340012000CF0
:100B300000080011000B00E50038003700360010F7
:100B4000000E00E700E600E40001002C00000001B8
:100B5000003A003B003C003D003E0035001E001FF7
:100B60000020002100220001001E021F022002219D
:100B700002220201002E002D002E022F023002015F
:100B80000001000100010001000100440043004297
:100B900000410040003F00450027002600250024BA
:100BA000002300310227022602250224022302012B
:100BB0000031003302330030002F0001000100013A
:100BC000000100010001000100010001000100011D
:100BD000000100010049004600650000000000011E
:100BE00000E200E000E1000000390001007A007B33
:100BF000007C007D000000010001000100010001F7
:100C00000001000100010001000100010001002AB3
:100C10000001000100520001004B002A004C004F6F
:100C200000510050004E00010000000100000001D2
:100C300000000001000100010001000100010009A5
:100C4000025B00030100A0FA090400000103010196
:100C5000000921110100012240000705810308005D
:100C60000109040100020300000009211101000133
:100C7000222200070582032000010705030320004C
:100C80000109040200010300000009211101000113
:100C90002232000705840320000112010002000037
:100CA000000832FC87020100010200010C0353001E
:100CB0006F0066006C00650000001A034A006F00B8
:100CC0007300650066004100640061006D00630010
:100CD00069006B0000000403090411241FBECFEF5C
:100CE000DAE0DEBFCDBF11E0A0E0B1E0EAE0F8E677
:100CF00002C005900D92A23EB107D9F726E0A2EE00
:100D0000B1E001C01D92A330B207E1F70E946A284A
:100D10000C94D3330C940000E8EDF0E080818E7FDA
:100D200080831092E2001092DA001092E100A0EEAF
:100D3000B0E08C9181608C9380818F77808319BC27
:100D4000A7EDB0E08C918E7F8C9380818F7E808325
:100D50001092E80508952091E4003091E50095E6B1
:100D6000A9012091EC00822F817020FF06C08091A4
:100D7000E80080FF06C080E008952091E80022FD91
:100D80001AC08091F505882389F0853089F080911B
:100D9000EB0085FD0FC02091E4003091E500421783
:100DA0005307F9F29150E1F684E0089582E0089546
:100DB00083E0089581E00895EF92FF920F931F93CF
:100DC000CF937C018B010E94AB06C82F811117C005
:100DD0008091E80085FD0BC08091E8008E778093BC
:100DE000E8000E94AB06882399F3C82F08C0F701DA
:100DF00081917F018093F1000150110949F78C2FF7
:100E0000CF911F910F91FF90EF9008958091F7057A
:100E100087FF13C08091E80082FF06C08091E80040
:100E20008B778093E80004C08091F5058111F2CFA3
:100E300008958091F5058823D9F38091E80080FF1B
:100E4000F8CF8091E8008E77ECCF982F9093E9004F
:100E5000242F762F50E0891731F07091EC0020910B
:100E6000ED005091F00021FD07C09F5F973071F7B2
:100E70008093E90081E008953091EB003E7F30934C
:100E8000EB003091ED003D7F3093ED003091EB00B1
:100E900031603093EB007093EC002093ED005093A1
:100EA000F0002091EE0027FDE0CF80E00895B0E053
:100EB000A0E0EDE5F7E00C94A432C8EDD0E0888125
:100EC0008F7E8883E7EDF0E080818160808384E01D
:100ED00082BF81E08093E80588818E7F888302EE5F
:100EE00010E0F80110821092DA0081EEC82ED12CA9
:100EF000F601108288818F77888388818068888353
:100F000088818F7D888319BC1092F5051092F605B3
:100F10001092F4051092F30590EEE92EF12CF701F2
:100F200080818B7F808388818160888342E060E05C
:100F300080E00E942507F60180818E7F8083F80182
:100F4000808181608083808188608083F7018081D7
:100F50008E7F8083888180618883CDB7DEB7E8E0AB
:100F60000C94C032FC018091FD059091FE0586171E
:100F70009707A0F06115710529F49091E8009E771C
:100F80009093E80090E06115710551F4911108C04B
:100F90008091E80082FF34C080E00895BC01F2CF68
:100FA0008091F5058823C1F18530C1F18091E80079
:100FB00083FD30C08091E80082FDEACF8091E80097
:100FC00080FFE1CF8091F3002091F200382F61156E
:100FD000710519F02830310558F091E028303105BD
:100FE00009F090E02091E8002E772093E800CBCF25
:100FF00081918093F100615071092F5F3F4FE7CFDE
:101000008091F505882341F0853041F08091E8001A
:1010100083FFBECF81E0089582E0089583E00895C4
:101020000895089508958091EA05089587E797E760
:10103000909301088093000888E19AE00FB6F89435
:10104000A895809360000FBE90936000FFCF2FB7EC
:10105000F8946091E1057091E2058091E30590912B
:10106000E4052FBF08959C01FC0132969FEF80E0BC
:101070004191461751F09F3F19F4411101C0982F3B
:101080008F5F8630A9F79F3F09F40895290F311D1E
:1010900097FD3A95F901628308952091DE0530911C
:1010A000DF052817390781F09093DF058093DE056F
:1010B000E091DC05F091DD05309731F00680F78195
:1010C000E02DBC0184E0099508952091DA05309166
:1010D000DB052817390781F09093DB058093DA054B
:1010E000E091DC05F091DD05309731F00680F78165
:1010F000E02DBC0183E009950895FC01680F791F7C
:101100008FEF91E32191822728E030E087FF09C02B
:10111000880F892721503109C9F7E617F70791F79A
:101120000895880FF7CFFA01811101C0FB010995DD
:101130000895ECEEF2E0118282818460828308954A
:101140008091C403982F9E7F61F4817082608093A8
:10115000C4038091C703893718F088E78093C703D9
:1011600008958A34B0F381708864F1CFAF92BF9252
:10117000DF92EF92FF920F931F93CF93DF93082F8D
:10118000162FE901E42FF0E0EA5EFC4F611110C078
:10119000E4915E2F4E2F4983E8835A83DF91CF91EC
:1011A0001F910F91FF90EF90DF90BF90AF90089547
:1011B000E62EF12C4491D42EE42FF0E026E0829F1D
:1011C000C00111242FEF30E0B9010E948632802F38
:1011D00090E0880F991F55E5569FD001579FB00D9D
:1011E00011248A1B9B0B982F990F890F5901AE1858
:1011F000BF08AE9ED001AF9EB00DBE9EB00D1124B3
:101200005B2F189F80011124012F11275901A01A6B
:10121000B10AAE9E8001AF9E100DBE9E100D11242E
:101220005901A81AB108AE9CC001AF9C900DBE9C9C
:10123000900D1124892F9927281B390B2E9FC0014F
:101240002F9F900D3E9F900D1124E92F6230710564
:10125000A1F050F46115710509F49DCF613071055D
:1012600081F0EB2F512F97CF6430710569F080F03A
:101270006630710509F48FCFF4CFE42F4B2F592F2F
:101280008ACFE42F412F87CFEB2F542F492F83CFC5
:101290004B2F5D2DE12F7FCF80E00895F894E82F4C
:1012A000E295EF70F0E031A1282F2F7081E090E0FF
:1012B00001C0880F2A95EAF7982F9095932391A360
:1012C00092A1892B82A37894089590919A0292FF1B
:1012D00006C0282F28712830F9F4877F846093FF97
:1012E00006C0282F28712831F1F4877E846120916F
:1012F0009B0220FF06C0382F38713830D9F4877F21
:10130000816021FF06C0282F28712831D1F4877E03
:10131000816194FD877E0895282F24712430F9F689
:101320008B7F8860DCCF282F2471243101F78B7EDE
:101330008861DDCF382F3171313019F78E7F8860A9
:10134000E0CF282F2171213121F78E7E8861E1CFF6
:10135000CF93DF93EC0182389105B1F108F040C0E2
:101360008133910509F49DC048F58932910509F44E
:101370008DC08A9709F49CC0C11522E5D20708F0F8
:10138000BDC0C11531E5D30708F027C1C83ED1055E
:1013900008F0A3C0C13ED10588F5C83AD10508F0D0
:1013A0008EC0C53AD10508F0F9C0C130D10531F180
:1013B000209721F1C430D10508F545C0853391054A
:1013C00009F45FC0C997C1F680919A02837009F051
:1013D0003EC180919B0283FF11C0C9E2D0E00EC0E4
:1013E000833E910599F170F4803E910501F1823EB2
:1013F000910511F680919A0282FD21C0CE01DF9104
:10140000CF910895863E910561F1873E910571F176
:10141000843E910509F0B0CF80919B0281FFEECF11
:1014200080919A02C7EED0E084FD0DC0E7CF809195
:101430009A0280FD33C090919B0290FFDFCFC3EEF4
:10144000D0E084FFDBCFD0E0C0E0D8CF80919A021B
:1014500082FDFAC090919B0290FDF9C084FFCECF2F
:10146000F2CF80919A0283FDDDCFC8CF80919A029E
:1014700083FDF0C090919B0291FFF0CFC4EED0E0CD
:10148000BDCF80919A0285FFB9CFA7CF80919A02F4
:1014900085FDE3C080919B0283FFB0CFC9E3D0E01C
:1014A000ADCF80919A0286FFA9CFCAE2D0E0A6CF45
:1014B00080919A0286FFA2CFC1E3D0E09FCFCF3BBD
:1014C000D10508F6C85AD0E0CC0FDD1FC55ADE4F53
:1014D0000990D881C02DD46491CFC11540E5D407BF
:1014E00008F067C0C11580E4D80708F05FC0CE01DE
:1014F0009A9581159F4108F481CFA5CFC11536E596
:10150000D30718F5C11545E5D40708F07FC0C1150C
:1015100084E5D80708F075C09E01237033279C2FFF
:1015200096959695C115D34508F45CC0C1E0D0E00E
:1015300002C0CC0FDD1F2A95E2F730E2939FC00175
:101540001124C82BD92BDA6859CFC11589E5D807E2
:1015500068F4C11528E5D20708F063C0C11537E566
:10156000D30708F070CFDD27D06648CFC1154AE514
:10157000D40708F45BC0CE0190568115904208F064
:1015800062CF8D2F8F710E94650990E0982F882778
:1015900088279F719C012C2BE90141C0C55AD0E0DE
:1015A000C85ADE4FC881D0E0D06428CFDF70D06A3F
:1015B00025CFCE018370992721E030E002C0220FB1
:1015C000331F8A95E2F7C695C69540E2C49FE001B5
:1015D0001124C22BD32BDD6811CFDC2FCC27C16F98
:1015E000D06A0CCFC1E0D0E002C0CC0FDD1F2A953D
:1015F000E2F720E2929FC0011124C82BD92BDC68AE
:10160000FDCEDC2FCC27C46FD06AF8CE8C2F0E9481
:101610006509C82FD0E0DC2FCC27CC27DF71D06242
:10162000EDCEDC2FCC27C06FD06AE8CE8C2F8F7028
:101630000E94650934E0D695C7953A95E1F7CF70D9
:101640009C2FEC01D069DACEC2EED0E0D7CEC0EE4E
:10165000D0E0D4CEC6EED0E0D1CEC5E3D0E0CECE41
:101660000E9427080895809153028111109253021D
:101670000895809590915202982390935202089574
:101680008091470290911602981301C008958F5FD0
:101690008770FACF292F9A3078F5863068F590E078
:1016A00036E0239F800D911D1124682F677023E081
:1016B000969587952A95E1F7FC01EE0FFF1FE80F3D
:1016C000F91FEA50FE4F50E040E080E0219130E009
:1016D000062E02C0369527950A94E2F7217033272B
:1016E000042E01C0220F0A94EAF7822B4F5F5F4F4E
:1016F0004330510559F7089580E00895292F9A3015
:1017000098F5863088F590E036E0239F800D911D96
:101710001124282F277041E001C0440F2A95EAF7D1
:1017200023E0969587952A95E1F7FC01EE0FFF1FC0
:10173000E80FF91FEA50FE4F30E020E070E05191D1
:10174000DF011197CB01022E02C0969587950A946E
:10175000E2F7817081958527842385278C932F5FFD
:101760003F4F2330310559F70895982F92959F7078
:1017700011F0892F94E0282F2695269511F09E5F71
:10178000822F869509F09F5F892F0895B0E0A0E031
:10179000ECECFBE00C94A4326C017B0164E670E09D
:1017A00088E70E94E42FEC0197FD12C010E000E0F2
:1017B000F601E00FF11F849164E670E00E94503062
:1017C000EC01892B29F40F5F1F4F0E151F0581F7C0
:1017D0000E94C630CE01CDB7DEB7E8E00C94C0322F
:1017E0008091D8059091D905911103C091E0892786
:1017F0000895882369F062E070E08DE59AE00E9428
:10180000C60B892B19F08091D80508951092D80540
:101810008091D805EBCFCF93C091D8058091D905A1
:101820008823D1F00E942708605A75418F4F9F4F3F
:101830006093D4057093D5058093D6059093D70512
:10184000C11108C062E070E08BE59AE00E94C60B0F
:10185000892B29F0C091D8058C2FCF91089581E074
:101860008093D805F7CF8093E5057093E7056093E3
:10187000E6058091F5058430F9F48093E9008FEF57
:101880009091E800815095FD06C095ED9A95F1F78D
:1018900000008111F5CF8091E80085FF0DC050E078
:1018A00040E063E070E085EE95E00E94DC06809108
:1018B000E8008E778093E8000895CF93DF93EC01E2
:1018C00081E08093E9008FEF9091E800815095FDD1
:1018D00006C095ED9A95F1F700008111F5CF809142
:1018E000E80085FF14C050E040E068E070E0CE0101
:1018F0000E94DC068091E8008E778093E80088E003
:10190000FE01ABEEB5E001900D928A95E1F7DF9113
:10191000CF910895609153018091C40380FF20C04E
:101920008091520143E0849FC00111248E509D4F4D
:10193000539A2BB1277F3BB138605FB7F894FC0115
:10194000649FE00DF11D1124BF0168177907D1F4E0
:101950005FBF8FE594E00197F1F700C000000895A4
:10196000809154019091550123E0829FF001112450
:10197000EE50FD4F8917A0F61182108212828F5F00
:101980003396F8CFFC014191CF01E8E03BB900006C
:1019900000C047FF2BB9440F000000C000C000C0CA
:1019A0002BB900C0EA9591F7D0CF0F931F93CF9337
:1019B000DF93EC0110E000E09091560190171106C2
:1019C00009F06CF40E948A0C8C8190E00196817081
:1019D00099278C83DF91CF911F910F9108952091CA
:1019E0005401A801420F511D9A01220F331F240FE9
:1019F000351F2E503D4F4C816091C6038091C50329
:101A000096959017110669F064F0442361F04091B7
:101A1000C703493708F048E70E94B6080F5F1F4F19
:101A2000CBCF4423A1F340E0F7CFB0E0A0E0EBE15F
:101A3000FDE00C94A032EC014C81042F10E09801E1
:101A4000D8010E9436339B01AC010E944C334B01FC
:101A50005C01E0E2F0E0E01BF10BA5E5B0E0AC01D9
:101A60009B010E944C336B017C019F01DF010E94AE
:101A70002E339B01AC010E9457339B01AC01280D12
:101A8000391D4A1D5B1DC701B6010E94FF32F22EAF
:101A9000822F90E039E23F1520F143E0249F90012E
:101AA000112435952795122F109500E085E5E82E35
:101AB000EF1880915601081718F10E948A0C9C813A
:101AC00081E0992319F0903219F48FEF809351013E
:101AD00080915101890F8C83CDB7DEB7ECE00C9477
:101AE000BC3225E530E0B901681B790B9B01220F60
:101AF000331F260F371F37FFD4CF2F5F3F4FD1CF74
:101B00008E2D01FD8F2D20915401622F600F7727BC
:101B1000771F9B01220F331F260F371F2E503D4F7B
:101B2000412F193708F048E76091C6030E94B608B4
:101B30000F5FBFCFEF92FF920F931F93CF93DF936F
:101B4000EC018C81811109C081E08C831092F0023C
:101B500092E09093500180934F01809154019091B5
:101B6000550123E0829FF0011124EE50FD4F8917AB
:101B700058F110E003E060915601161758F10E94E9
:101B80008A0C80914F012091F002280F2093F002DF
:101B900090915001980F90935001191654F4022E11
:101BA000000C330B409156014150550B241735075B
:101BB00034F0819580934F01813009F41C82CDB7B8
:101BC000DEB7E6E00C94C2321182108212828F5F7F
:101BD0003396CDCFE12EF12C70E0C7010E94EB329D
:101BE00020915401820F482F50E02091F002022EE4
:101BF000000C330BE216F306D4F020915001022EB4
:101C0000000C330B2E153F0594F0809F900111249A
:101C10002E503D4F4091C703493708F048E7609187
:101C2000C6038091C5030E94B6081F5FA4CFFA01C6
:101C3000EE0FFF1FE40FF51FEE50FD4F11821082D3
:101C40001282F3CFB0E0A0E0E8E2FEE00C94A03214
:101C5000EC018A81BB24BA9480FD02C0BB24B394FA
:101C6000A09056018C81811109C081E0B81220C07A
:101C70008FEF8A0D8093EF0281E08C83F12CE12CB1
:101C800046E4842EEA14B8F00E948A0C8091EF0298
:101C900091E0B9125AC0811153C080915601815010
:101CA0008093EF021C82CDB7DEB7ECE00C94BC321F
:101CB0001092EF02E1CF009154010E0D1F2D111D66
:101CC000C801880F991F080F191F0E501D4FF801EA
:101CD00011821082128234E0C32ED12C912C80917B
:101CE000EF02890D873444F1682D0E94DD32892F7F
:101CF000082E000C990B8E159F05A9F48091C7033F
:101D00008C9DA0018D9D500D11245595479555959D
:101D10004795493708F048E798016091C6038091DC
:101D2000C5030E94B6089B0CF1E0CF1AD108B9F6A2
:101D30008FEFE81AF80AA6CF87FFDACF8A0DD8CF3F
:101D400081508093EF02BC82AECF90E0019660910B
:101D5000560170E00E94EB328093EF028C83A3CF98
:101D6000EF92FF921F93CF93DF93EC0110E0EE24EC
:101D7000EA94F12C60915601161770F00E948A0CBB
:101D80009A818C8190FF2AC08F5F8C83DF91CF91E5
:101D90001F91FF90EF90089520915401422F410F21
:101DA0005527551FCA019A01220F331F280F391FCB
:101DB0002E503D4F4091C703493708F048E770E087
:101DC000C7010E94EB32962F8C816091C603199F48
:101DD000800D11240E94B6081F5FCCCF8150D5CF53
:101DE0009091C40390FF0EC0909154012091550131
:101DF00033E0939FF0011124EE50FD4F921718F03D
:101E00000E948A0C08958183608342839F5F33968A
:101E1000F5CFA3E0B0E0EFE0FFE00C94A8328C0136
:101E20008091F10281110AC09E012F5F3F4F48E768
:101E30006FEF0E94B6088A818093F102F8016481F5
:101E4000613069F08091F10240E0662361F040E08A
:101E5000623011F44091F10280E060E004C06091D2
:101E6000F10240E080E00E94F00EF801848190E0F1
:101E7000019663E070E00E94EB3284832396E4E0F5
:101E80000C94C432A3E0B0E0E8E4FFE00C94AA3282
:101E90009091C40390FF0DC0493708F048E79E01B8
:101EA0002F5F3F4F0E94B6084B8169818A810E9453
:101EB000F00E2396E2E00C94C632CF93DF93EC0150
:101EC000E4ECF3E0438162818C810E94420F8C81BB
:101ED0008F5F8C83DF91CF910895CF93DF93EC01D7
:101EE000EC81F0E0E55EFB4F4491E4ECF3E06281CD
:101EF00081810E94420F8C818F5F8C83DF91CF9113
:101F00000895E4ECF3E080818E7F80830E9499083D
:101F1000ECEEF2E08281816082832FEF80E792E035
:101F2000215080409040E1F700C000000E948A0CE0
:101F30000895B0E0A0E0EFE9FFE00C94A2327C014C
:101F40005B016A018091890201E010E08A3010F49F
:101F50000AE010E0C1E0D0E0B501C701F601099543
:101F6000811104C021960C171D072CF4CDB7DEB7E4
:101F7000EAE00C94BE32CC9F9001CD9F300D300D25
:101F8000112490E080E045E34A95F1F700000196C6
:101F900082179307C1F7E0CF80915F02811110C0D3
:101FA0008091D80080618093D8008AE18A95F1F70A
:101FB00000C08091D90080FF0AC081E080935F0259
:101FC00081E090915F02913009F080E0089582E015
:101FD00080935F020E948C061092F505F1CF0E945B
:101FE000CC0F882359F0E091DC05F091DD053097A6
:101FF00029F00190F081E02D0995089580E0089581
:102000000F931F930E94CC0F882329F00E9427086A
:102010001F910F9108950E94270800918A02109144
:102020008B0220918C0230918D02600F711F821FF4
:10203000931FEECFCF93DF93C7E0D2E060E0CE01F5
:102040000E949F332196C11584E0D807B9F7DF912C
:10205000CF9108951F93CF93DF93122F8430E0F434
:102060006A30D0F44630C0F4C42FD0E0CC0FDD1F6E
:102070009CE0699FC00DD11D112498E7899FC00D78
:10208000D11D1124632FCE0187960E949F33612FAB
:10209000CE0188960E949F33DF91CF911F910895C2
:1020A000AF92BF92CF92DF92EF92FF921F93CF93A6
:1020B000DF938FE5C82E8AE0D82ED0E07601C0E00D
:1020C00014C0F50125913491412F6C2F8D2F0E9462
:1020D0002A1082E0A80EB11C1F5F163091F78CE029
:1020E000E80EF11CCF5FCA3019F0570110E0E9CFBC
:1020F000DF5F88E7C80ED11CD43001F7DF91CF91A4
:102100001F91FF90EF90DF90CF90BF90AF90089518
:10211000CF93C82F6FEF811162E283E290E00E94BB
:102120009F336FEFC11169E084E290E00E949F331A
:102130006FEFC11165E285E290E00E949F33CF917D
:10214000089580E00E94881060E086E290E00E949E
:102150009F330E9450100E941A1081E00E94881044
:1021600008950F931F93CF93DF93843030F56A3037
:1021700020F5463010F5C42FD0E0CC0FDD1F2CE049
:10218000629FC00DD11D112438E7839FC00DD11D62
:102190001124CE0187960E948B33082F10E0102F58
:1021A0000027CE0188960E948B339801282BC90105
:1021B000DF91CF911F910F91089590E080E0F8CFCB
:1021C000462F843040F47A3030F4663020F4672FA4
:1021D0000E94B110089590E080E00895CF92DF92C0
:1021E000FF920F931F93CF93DF936C010091020630
:1021F00080915402082BC7E0D0E010E0FC2EC8010B
:102200000C2E02C0959587950A94E2F780FD0CC0CC
:102210002197A0F7F12C8F2DDF91CF911F910F9176
:10222000FF90DF90CF900895B6018C2F0E94E010B0
:102230000E94A809019761F3EECFCF93DF93EC01E1
:102240000E94EE10BE010E94E0100E94A809DF91DA
:10225000CF910895FC0183819481892B29F080819D
:10226000918189238F3F51F480E00895843FE1F705
:1022700017C0883EA8F0813FB9F712C080819181D4
:102280000E941D1192959F70963099F358F4925FB9
:102290009F70923048F7803F19F040F7883E20F752
:1022A00081E008959A5FF4CF83E290E00E948B333F
:1022B000823289F484E290E00E948B33893059F4B1
:1022C00085E290E00E948B3391E0853209F090E046
:1022D000892F8170089580E0FCCFCF9384E090E057
:1022E0000E948B33C82F82E290E00E948B33982F9C
:1022F0008C2FCF9108958091520290915102892B99
:102300008093E40190915302992391F0892B80935B
:10231000E40120E086EE91E0FC013191CF01311122
:102320002F5FF1E08C3E9F07B9F721110E94330B1C
:1023300048E050E069E472E084EE91E00E94753379
:10234000892BA9F088E0E4EEF1E0A9E4B2E0019085
:102350000D928A95E1F7E091DC05F091DD0530976B
:1023600031F00280F381E02D84EE91E0099508952B
:1023700090E080E00E94650890E080E00E944D08B7
:10238000109251020E947B110895809302060E94D0
:10239000B811089580910206982F9670963021F416
:1023A00088600E94C5110895877FFBCF21E030E04F
:1023B00001C0220F8A95EAF72095809102068223B8
:1023C0000E94C511089590914802809589238093B9
:1023D0004802282F277091F4282F082E000C330B69
:1023E0009217130659F090919B0292FF07C08595B2
:1023F000859585950E94D611109248020895CF9335
:10240000C0919B02C2FB992790F9981791F080FB2D
:10241000C2F9C0939B0260919A0284E090E00E940E
:102420009F336C2F82E290E00E949F3382E00E94F3
:10243000E311CF91089521E030E001C0220F8A9589
:10244000EAF780910206822B0E94C51108958093BD
:1024500054020E94B8110895882321F00E94390B7C
:102460000E947B110895882339F090915202982B95
:10247000909352020E947B110895882391F19CEF62
:10248000980F913A80F4E6EEF1E02CEE31E0919174
:10249000891303C0DF0111971C922E173F07B9F76C
:1024A0000E947B11089590E2980F983050F4877045
:1024B00091E001C0990F8A95EAF7892F0E94390BA4
:1024C000EFCF9BE5980F933028F490E080E00E94D6
:1024D00065080895885A873120F490E080E00E94D2
:1024E0004D080895CF93C82F8823B1F08CEF8C0F3F
:1024F000813A00F5E6EEF1E08CEE91E0DF012D91FE
:10250000C21761F08A179B07D1F76C2F84EE91E018
:102510000E9433080E947B11CF9108952191C2132C
:1025200003C0DF0111971C928E179F07B9F70E9415
:102530007B11EBCF80E28C0F883068F4C77021E00C
:1025400030E001C0220FCA95EAF780915202822B37
:1025500080935202DFCFEBE5EC0FE33040F4F0E084
:10256000E85AFE4F808190E00E946508D5CFC85A96
:10257000C73190F6EC2FF0E0EE0FFF1FE55AFE4F4B
:10258000808191810E944D08C7CF1F93CF93DF9325
:10259000182FCAE0D0E0893311F4C0E5D0E0812FD4
:1025A0000E9472128FE99FE00197F1F700C00000CE
:1025B0002197C1F7812F0E943D12DF91CF911F918A
:1025C00008951F93CF93DF93162F8A3039F481E05B
:1025D0000E948413DF91CF911F9108958D3011F4E3
:1025E00080E0F6CFC091D205D091D30596E0FE01F0
:1025F000ACECB5E001900D929A95E1F7803E90F138
:1026000086E0FE0111928A95E9F7C091D205D0913A
:10261000D305111133C046E050E0BE018CEC95E0CB
:102620000E9475339E012C5C3340892B91F52A5F03
:102630003F4F4091C903642F70E0C9010E94863268
:10264000481B463010F4240F311D211572E0370766
:1026500010F030E020E024533C4F3093D30520931A
:10266000D205B8CFF6E08F9FB0011124655E7A4F96
:1026700046E050E0CE010E945F33C7CF9E012A5F43
:102680003F4FFE012E173F0731F2808180958193E5
:10269000F9CFC90145E0969587954A95E1F741E064
:1026A00050E0BA0102C0660F771F8A95E2F7CB01AE
:1026B0006091CA037091CB03862B972BB9016B5F96
:1026C0007F4FE5E076956795EA95E1F702C0440F04
:1026D000551F6A95E2F7842B952B9093CB0380933B
:1026E000CA03A5CF1F93CF93DF93EC01162FFE01F2
:1026F0008491811104C0DF91CF911F910895612FC2
:102700000E94E1122196F3CFCF93382FE091D205AA
:10271000F091D305EC5CF3402091C903622F70E087
:10272000CF010E948632281B822F332369F066E096
:102730000E94D132C82FC15010F4CF91089560E0AB
:1027400080E20E94E112F7CF9F01280F311D211571
:10275000324018F080E0F0E0E0E08E0F9F2F911DF6
:1027600084539C4F9093D3058093D205E6CF0E946B
:10277000721381E00E948413089510925202E6EED3
:10278000F1E086E0DF011D928A95E9F70E94B81119
:102790000895AAE2B0E0EFECF3E10C94A93287EFE0
:1027A00095E02091F100DC012D93CD01B5E08F3F44
:1027B0009B07B9F78091F805833009F472C0B8F42B
:1027C000813009F449C0823009F4B3C08091E80037
:1027D00083FF8BC28091F7059091F8059A3008F03D
:1027E00084C2E92FF0E0EB52FC4C0C9421338A3088
:1027F00009F48EC08B3009F471C0893039F78091AB
:10280000F705813219F78091FB059091FC0500973F
:1028100011F00297D9F68091E800877F8093E80055
:102820008091E80082FF38C09091F3008091F2001F
:10283000029731F48091F100813011F0863021F45B
:102840008091F1008093EA058091E8008B77809376
:10285000E8000E940607BACF8091F705813A09F097
:10286000B5CF8091E800877F8093E8008091FB05D9
:102870009091FC05892B61F468E08BEE95E070E0A7
:102880000E94B2078091E8008B778093E8009ECF8A
:1028900060E090E080E0F3CF8091F5058111C0CF3A
:1028A00095CF8091F705813A09F090CF8091FB0593
:1028B0009091FC05892B09F089CF8091E800877FF2
:1028C0008093E8008091E80080FFFCCF8091570161
:1028D0008093F1008091E8008E77B9CF8091F70561
:1028E000813209F073CF8091FB059091FC05892B13
:1028F00009F06CCF8091E800877F8093E8000E9408
:1029000006078091F905809357010E94BD135ECFA1
:102910008091F705813209F059CF8091E800877FD7
:102920008093E8000E9406078091FA058093E905EC
:102930004DCF8091F705813A09F048CF8091E800AA
:10294000877F8093E8008091E80080FFFCCF809132
:10295000E905BECF803899F0823809F0C6C1809170
:10296000FB058F70873008F0C0C18093E90080912B
:10297000EB0085FB882780F91092E90006C0809162
:10298000F3059091F405911182609091E800977F92
:102990009093E8008093F1001092F1008091E8009C
:1029A0008E779FC1882309F48DC1823009F09DC1C3
:1029B0008091F905811190C18091FB058F702FEFF7
:1029C000280F263008F091C18093E9002091EB0098
:1029D00020FF82C1933031F48091EB0080628093BC
:1029E000EB007AC19091EB0090619093EB0021E0B5
:1029F00030E001C0220F8A95EAF72093EA00109296
:102A0000EA008091EB008860EACF81116EC11091DD
:102A1000F9051F778091E3008078812B8093E30094
:102A20008091E800877F8093E8000E9406078091EC
:102A3000E80080FFFCCF8091E30080688093E30092
:102A400082E0111183E08093F5054FC180588230F8
:102A500008F04BC12091F9053091FA052C3DE3E0D7
:102A60003E07A1F583E08A838AE289834FB7F89411
:102A7000DE01139620E03EE051E2E32FF0E05093B8
:102A80005700E49120FF03C0E295EF703F5FEF70C5
:102A90008E2F90E0EA30C0F0C7968D939D932F5F04
:102AA000243159F74FBF8091E800877F8093E80079
:102AB0006AE270E0CE0101960E94B2078091E800C0
:102AC0008B778093E80011C1C096E7CF8091FB051A
:102AD0009091FC05432F55274330510509F44AC016
:102AE00078F54130510509F47AC08BE590E0EFE3C9
:102AF000FCE04230510509F0F8C02091E800277F42
:102B00002093E8002091FD053091FE058217930780
:102B100008F49C0140E02115310509F065C0411120
:102B200063C08091E80082FDC9CF8091F5058823BC
:102B300029F2853019F28091E80083FFF2CFBECFF1
:102B40004132510509F43CC04232510509F0CDC073
:102B50008330910508F0C9C0FC01EE0FFF1FEA5257
:102B6000FE4F0190F081E02D8D529E4FDC018C9143
:102B700090E01AC0332721303105D1F021153105FD
:102B800061F02230310509F0B0C0ECEAFCE0E491DC
:102B90008E2F90E0ECEAFCE007C0E6EDFCE0E4916B
:102BA0008E2F90E0E6EDFCE0009709F49EC0A5CFE3
:102BB000EAEBFCE0E4918E2F90E0EAEBFCE0F4CF4E
:102BC0008330910508F091C0880F991FFC01E452F1
:102BD000FE4F0190F081E02D89E090E08ECF82E100
:102BE00090E0EAE9FCE089CF8091F505882309F4BB
:102BF00065CF853009F462CF8091E80083FD5ECF18
:102C00008091E80082FD8DCF8091E80080FF83CF26
:102C10009091F3008091F2002115310519F0883070
:102C2000910550F041E0089709F040E08091E800FC
:102C30008E778093E8006FCF44914093F1003196F6
:102C4000215031090196E8CF803809F04EC08091BB
:102C5000E800877F8093E8008091F6058093F1007B
:102C60009DCE811142C01091F9051230F0F580918E
:102C7000E800877F8093E8001093F6050E9406071E
:102C8000112311F084E005C08091E30087FDFACFA5
:102C900081E08093F50542E061EC81E00E94250728
:102CA00042E261EC84E00E94250742E261EC82E0AE
:102CB0000E94250742E260EC83E00E942507809194
:102CC000F50513C08091F905813079F481E09330E6
:102CD00009F080E08093F4051092E9008091E8000B
:102CE000877F8093E8000E9406078091E80083FFB9
:102CF0000AC08091E800877F8093E8008091EB0014
:102D000080628093EB00AA96E3E00C94C5320E94A7
:102D1000BD132FEF84E39CE0215080409040E1F709
:102D200000C0000088E19AE00FB6F894A89580935F
:102D300060000FBE90936000FFCFCF92DF92EF92C2
:102D4000FF926B017C010E94A008B701A60188E0F8
:102D500090E00E94B133FF90EF90DF90CF90089504
:102D6000A3E0B0E0E6EBF6E10C94A332F82ED62E09
:102D7000042FC22E9091C40390FF3EC0E92FE69528
:102D8000AE2FB0E0A255BE4F8C918093EC029E7F97
:102D90009230B1F5493708F048E79E012F5F3F4F69
:102DA0006D2D8F2D0E94B6084B8169818A810E940A
:102DB000F00E8091C5038F1108C08091C6038D115C
:102DC00004C08091C703801729F08091EE028260D1
:102DD0008093EE02F092C503D092C6030093C7031E
:102DE000CC2051F06091C4037091C5038091C6035B
:102DF0009091C7030E949D162396E9E00C94BF3280
:102E0000823019F40091C703D4CF863019F4F090C2
:102E1000C503CFCF8930D9F3893159F6E9516E2FE7
:102E20006170B62EE695F0E0EA5EFB4F1491E12C5E
:102E300060915601E61618F00E948A0CBACFE19E06
:102E4000C001112470E00E9486328F2DB11017C08E
:102E5000860F20915401622F6E0D7727771F9B01FB
:102E6000220F331F260F371F2E503D4F402F09379B
:102E700008F048E76D2D0E94B608E394D9CF861B71
:102E8000E8CFE4ECF3E0438121E1421B08F440E0A9
:102E900021E0628181810E94B0160895E4ECF3E0A4
:102EA000438121E1420F08F44FEF21E062818181EB
:102EB0000E94B0160895E4ECF3E0628121E1621B08
:102EC00008F460E021E0438181810E94B0160895FA
:102ED000E4ECF3E0628121E1620F08F46FEF21E09E
:102EE000438181810E94B0160895E4ECF3E0818172
:102EF00021E0438162818A500E94B0160895E4EC7B
:102F0000F3E0818121E043816281865F0E94B016F7
:102F100008958091C803882319F081508093C803D5
:102F20006091C4037091C5038091C6039091C7035B
:102F30000E949D1608958091C803833018F48F5F16
:102F40008093C8036091C4037091C5038091C60348
:102F50009091C7030E949D160895E4ECF3E083E08E
:102F6000808311828FEF828388E783831482ACEEA3
:102F7000B2E012968C911297836012968C936081C6
:102F80007181828193810E949D16089568EE7EEF83
:102F900090E080E00E94BD3360E082E090E00E941B
:102FA0009F3360E083E090E00E949F3310925402D0
:102FB00060E084E090E00E949F3364E082E290E071
:102FC0000E949F3360E085E090E00E949F3360E0C4
:102FD00086E090E00E949F336FEF87E090E00E94D0
:102FE0009F3340E050E0BA0188E090E00E94B133A6
:102FF00060E08DE090E00E949F3340E050E0BA0135
:1030000088E190E00E94B13360E087E190E00E94A7
:103010009F3340E050E0BA018CE190E00E94B13370
:1030200070E060E080E290E00E94BD3340E050E05C
:10303000BA0188E190E00E94B13380E00E948810DC
:103040000E94A11040E050E0BA018FE090E00E94A1
:10305000B13340E050E0BA0183E190E00E94B13327
:103060000895A8E0B0E0E7E3F8E10C94AA3285E027
:10307000E4ECF3E0DE01119601900D928A95E1F700
:103080008091EC029091ED02A091EE028E839F83DD
:10309000A887288540918502509186026091870219
:1030A000709188023FB7F8948091E1059091E20514
:1030B000A091E305B091E4053FBF841B950BA60BDF
:1030C000B70B84369105A105B10510F4222319F13F
:1030D0008091290190912A018F589D4F409128019C
:1030E00050E04930510510F048E050E0BE016F5FFC
:1030F0007F4F0E94823385E090E00E941032882347
:1031000069F00E942708609385027093860280937D
:103110008702909388021092EE0281E02896E2E006
:103120000C94C632A4E0B0E0E8E9F8E10C94A932CE
:1031300040916D0250916E0260916F027091700229
:103140002FB7F8948091E1059091E205A091E305F5
:10315000B091E4052FBF841B950BA60BB70B11E0B4
:1031600084369105A105B10570F10E9400106E5FD3
:103170007F4F8F4F9F4F69837A838B839C8380918E
:103180002101909122018F589D4F4091200150E0E4
:103190004530510510F044E050E0BE016F5F7F4FB5
:1031A0000E94823384E090E00E941032182F88231E
:1031B00051F00E94270860936D0270936E02809315
:1031C0006F0290937002812F2496E3E00C94C53235
:1031D0004F925F927F928F929F92AF92BF92CF92C7
:1031E000DF92EF92FF920F931F93CF93DF930F9293
:1031F000CDB7DEB7C62E4A015901482E880F5508B3
:10320000C2010E941032782E882309F480C0C201C6
:1032100033E0880F991F3A95E1F7FC01E050FF4F2A
:10322000438150E04115510511F041E050E08050DC
:103230009F4FFC01648175816F587D4FCE010196CF
:103240000E948233F40140815181628173812FB7E2
:10325000F8948091E1059091E205A091E305B09189
:10326000E4052FBF841B950BA60BB70B8436910585
:10327000A105B10540F4B701C8010E947D089981FC
:10328000891709F444C00C2C000CDD08C6010E940B
:103290001032782E811113C0712C872D0F90DF9181
:1032A000CF911F910F91FF90EF90DF90CF90BF9043
:1032B000AF909F908F907F905F904F900895C60140
:1032C00023E0880F991F2A95E1F7FC01E050FF4F9A
:1032D000438150E0E416F50608F4A70180509F4FA3
:1032E000FC01648175816F587D4FC5010E94823356
:1032F000B701C8010E947D0899818913CDCF0E9432
:103300002708F4016083718382839383C6CFA7016A
:10331000B801C5010E948233C0CFA1E0B0E0E3E96B
:10332000F9E10C94A332EE24E394F12C08E712E0C7
:103330009E012F5F3F4F49E652E063E082E00E942A
:10334000E818C82E882339F1D12C80E01DC00091E7
:103350009E020D0D202F30E0A90141555D4F7A01ED
:10336000E1E0F0E0EC0FFD1FED0DF11D1081FA0121
:103370009081191BB12E1B149CF0912F17FD90E02A
:10338000191B11111CC0D39490919D02D916F8F20B
:1033900081110E94300B8C2D2196E9E00C94BF32F4
:1033A000BA94F70180818F5F80838AEA002319F045
:1033B000013019F48BE40E94C5128C2DDCCF1F5F05
:1033C000F70180818150808389EA002319F0013060
:1033D00019F48EE40E94C5128C2DD3CFA5E0B0E085
:1033E000E4EFF9E10C94A4326B0185E0E82EF12CB6
:1033F00002E712E09E012F5F3F4F45E652E061E099
:1034000080E00E94E818882349F095E0FE0131969B
:10341000A0E6B2E001900D929A95E1F795E0E0E622
:10342000F2E0D60101900D929A95E1F72596E8E039
:103430000C94C03290E080E00E949933883E9E4F09
:1034400019F40E945411089580E008951F920F927C
:103450000FB60F9211242F933F934F935F936F9367
:103460007F938F939F93AF93BF93CF93DF93EF930C
:10347000FF93D091E900DF708091EC00C82FC170FC
:1034800080FDC0E81092E9008091F000877F809372
:10349000F00078940E94C9131092E9008091F00026
:1034A00088608093F000CD2BCF70C093E900FF912E
:1034B000EF91DF91CF91BF91AF919F918F917F91CC
:1034C0006F915F914F913F912F910F900FBE0F9091
:1034D0001F9018951F920F920FB60F9211242F93E1
:1034E0003F934F935F936F937F938F939F93AF938C
:1034F000BF93EF93FF938091E10082FF09C0809119
:10350000E20082FF05C08091E1008B7F8093E100A3
:103510008091DA0080FF24C08091D80080FF20C015
:103520008091DA008E7F8093DA008091D90080FF4D
:103530009DC080E189BD82E189BD09B400FEFDCF57
:1035400081E08093F5058091E805811109C00E9412
:103550008C060E9457078091E20084608093E2000D
:103560008091E10080FF17C08091E20080FF13C0CE
:103570008091E2008E7F8093E2008091E200806182
:103580008093E2008091D80080628093D80019BCBB
:1035900085E08093F5058091E10084FF2BC0809148
:1035A000E20084FF27C080E189BD82E189BD89B541
:1035B000982F917080FFFBCF8091D8008F7D8093F2
:1035C000D8008091E1008F7E8093E1008091E2003D
:1035D0008F7E8093E2008091E20081608093E20020
:1035E0008091F605882309F447C084E08093F505AF
:1035F0008091F5058091E10083FF27C08091E20072
:1036000083FF23C08091E100877F8093E10082E007
:103610008093F5051092F6058091E1008E7F8093EE
:10362000E1008091E2008E7F8093E2008091E200D1
:1036300080618093E20042E060E080E00E94250724
:103640008091F00088608093F000FF91EF91BF912E
:10365000AF919F918F917F916F915F914F913F912A
:103660002F910F900FBE0F901F90189519BC1092BC
:10367000F5051092E80574CF8091E30087FD93E093
:103680009093F505B5CF78941F921FB61F92112421
:103690008F939F93AF93BF938091E1059091E20543
:1036A000A091E305B091E4050196A11DB11D8093A1
:1036B000E1059093E205A093E305B093E405BF9183
:1036C000AF919F918F911F901FBE1F9018959C01E5
:1036D0004FB7F8948091E1059091E205A091E30540
:1036E000B091E4054FBF821B930B08952FB7F89458
:1036F0008091E1059091E205A091E305B091E40588
:103700002FBF08950F931F93CF93DF93C62FD42F0E
:10371000022FFC0182818823A9F0609301060E9498
:10372000761B909300068093FF05C77081E001C06F
:10373000880FCA95EAF70E943312DF91CF911F914B
:103740000F91089580910106681332C08091FF05A2
:10375000909100060E94671B8436910548F510E29F
:103760001D0FCD17B9F080E28C0F883040F4C77080
:1037700081E001C0880FCA95EAF70E942C12183028
:1037800048F481E09D2F977001C0880F9A95EAF761
:103790000E943312802F0E94C512183070F6D77025
:1037A00081E001C0880FDA95EAF70E942C12C5CF9C
:1037B000C77081E001C0880FCA95EAF7F6CF0E9472
:1037C000CC0F882319F00E94761B08950E940010E8
:1037D000CB0108956091C403669570E04BE050E022
:1037E00084E491E00E946833892B19F481E080938E
:1037F000ED020E94DF1B9093E7028093E602809126
:10380000EE0284608093EE0208959091C40390FFCD
:1038100031C0917081112FC092609093C403809148
:10382000EE0281608093EE02662351F06091C40342
:103830007091C5038091C6039091C7030E949D16A5
:103840006091C403669570E04BE050E084E491E041
:103850000E946833892BB1F00E94990881E080931F
:10386000E90220E04091C7036091C6038091C5033F
:103870000E94B0160895853210F09864CECF880F5C
:10388000982BCBCF0E94EA1BE9CF8091C403869589
:10389000815009F484E261E00E94051C0895809142
:1038A000C40386958F5F853208F081E061E00E9455
:1038B000051C08959091C40390FF08C09695981731
:1038C00028F0961718F40E944F1C089561E00E949A
:1038D000051C0895A5E0B0E0E0E7FCE10C949B3204
:1038E0008C01FC0183819481892B31F0808191814D
:1038F00089238F3F09F076C62596E1E10C94B73213
:103900000E94EE10F82E682F89819A810E947E0B0A
:1039100069817A818F2D0E94E0107C01F8018281FB
:10392000882309F425C6970122513F4520313105EE
:1039300008F04BC68FEF93E00E948B33811128C0B3
:10394000FEEEEF0E57E0852E52E0952EE11032C0CC
:103950001C821B82442443944AE0342E74018FEF6E
:10396000E81AF80AC4010E948B3389831A828823DB
:1039700079F09FEF980F933058F58A83498292E04F
:10398000890E911CC7010E948B338B83811121C04A
:1039900080914802877009F4AFCFF80182818823B3
:1039A00009F4AACF80919B0282FFA6CF82E00E94F9
:1039B000E311A2CF811424E0920651F3C4010E94C6
:1039C0008B33811101C0EA943FEF831A930ABECF73
:1039D0004701FE0131967F01F7012081222309F47E
:1039E000BDCF213009F058C081818130B1F4670129
:1039F000F2E0CF0ED11CF70182810E94C512760140
:103A00002FEFE21AF20A8BE0815031F3EFE9FFE089
:103A10003197F1F700C00000F7CF823049F4670119
:103A2000F2E0CF0ED11CF70182810E947212E7CF23
:103A3000833049F46701F2E0CF0ED11CF701828197
:103A40000E943D12DCCF843021F0FFEFEF1AFF0A15
:103A5000D7CF2281C70102967C0190E080E0A701C8
:103A60004F5F5F4F2053330B2A30310548F00197E9
:103A700038F2EFE9FFE03197F1F700C00000F7CF2F
:103A8000389EB001399E700D1124C901860F971F11
:103A9000F70121817A01E3CFE22FF0E0E851FE4FF8
:103AA0005490822F86958695869590E0FC01E85289
:103AB000FE4F64902770712C022E02C0759467949B
:103AC0000A94E2F731E063227724FC01E853FE4FC9
:103AD000A490B12C022E02C0B594A7940A94E2F7E8
:103AE000E1E0AE22BB24FC01E854FE4FC490D12C8F
:103AF00002C0D594C7942A95E2F7F1E0CF22DD24E5
:103B00006114710419F081EE0E947212A114B104C3
:103B100019F086EE0E947212852D0E94C512A11422
:103B2000B10419F086EE0E943D126114710419F07F
:103B300081EE0E943D12C114D10409F461CF8CE2E0
:103B40000E94C5125DCF81E00E941B120E94CA1123
:103B50001FCF81E00E94D611F9CF82E0FBCFF5EFB5
:103B6000EF16FCE5FF0609F46CC008F466C027E216
:103B700045EE66EE36EFE3163CE5F30609F421C5A3
:103B8000882309F440C51092010683E0E8168DE50C
:103B9000F80608F05DC09AEFE9169CE5F90630F4E6
:103BA000C70182509C45449708F05FC00E946D1188
:103BB00090939B0280939A0232E1E3163CE5F30670
:103BC00009F478C108F0B6C099E0E9169CE5F90659
:103BD00009F44AC108F07BC0F5E0EF16FCE5FF06EA
:103BE00009F436C108F05FC033E0E3163CE5F306A4
:103BF00009F426C108F028C180919A02816092E000
:103C0000E9169CE5F90609F492C060919A02F090D9
:103C10009B0284E090E00E949F336F2D82E290E04F
:103C20000E949F330E94BD13B3CE27E245EE65EE9E
:103C3000C8C426E241EE60EEC4C427E245EE64EE5D
:103C4000C0C426E241EE62EEBCC428E241E0EFCF00
:103C5000E5EAEE16EDE5FE0609F4A8CFF0F421E65C
:103C6000E2162DE5F20609F4A1CFF6E1EF16FCE528
:103C7000FF0609F08CC5809152028A7A91E009F41E
:103C800090E09093F40169E2811165E384EE91E0A4
:103C90000E9433080E947B117BCEC7018D5A9D453F
:103CA000039718F783CF80919A028062E7E0EE16BF
:103CB000ECE5FE06E1F180919A028061F8E0EF16F2
:103CC000FCE5FF06A0F180919A02806430C02DE0EF
:103CD000E2162CE5F20609F4D5C090F48BE0E81664
:103CE0008CE5F80609F4C6C080919A028C609CE0CD
:103CF000E9169CE5F906D8F080919A028D7F17C0ED
:103D0000EFE0EE16ECE5FE0609F4CCC008F4BEC008
:103D100020E1E2162CE5F20609F4C8C080919A026F
:103D20008F7B31E1E3163CE5F30609F06ECF80931B
:103D30009A026BCF8FEFE8168CE5F80609F4C4C041
:103D4000D8F5EAEFEE16ECE5FE0609F485C0D0F4EE
:103D500024E1E2162CE5F20609F4C4C008F4B0C070
:103D600085E1E8168CE5F80609F04FCF80919A02BC
:103D700082FB992790F921E0922790FB82F990FB32
:103D800083F9D5CF9CEFE9169CE5F90609F482C0CA
:103D900008F466C0FDEFEF16FCE5FF0609F47EC0EF
:103DA00080919B0283602EEFE2162CE5F20609F06B
:103DB0002CCF80939B0229CF31E6E3163DE5F30635
:103DC00009F49BC0A0F491E0E9169DE5F90609F419
:103DD00092C008F47DC060E0F2E0EF16FDE5FF065A
:103DE00009F013CF8EE090E00E949F330ECF2DEAB2
:103DF000E2162DE5F20601F168F485EAE8168DE594
:103E0000F80609F002CF90919A02892F8E7F90FFD9
:103E100081608DCF9EEAE9169DE5F90679F1EFEA1A
:103E2000EE16EDE5FE0609F0F0CE90919B02892F8B
:103E3000877F93FF8860BDCF80919B028860B9CF58
:103E400080919A02826073CF80919A0284606FCFD2
:103E500080919A0288606BCF80919B028160A9CF8C
:103E600080919B028260A5CF0E94BD1380919A022F
:103E700080685DCF80919A028E7F59CF80919B029E
:103E8000877F97CF80919A028B7F51CF80919A0242
:103E9000877F4DCF80919B028E7F8BCF80919B023D
:103EA0008D7F87CF80919A028F7E41CF80919A0239
:103EB0008F7D3DCF0E94BD1380919A028F7737CFBF
:103EC00080919A02837F33CF80919B028C7F71CF48
:103ED00080919B02982F909591708E7F892B90FBFB
:103EE00081F967CF0E94BD1390919A02892F97FBA9
:103EF00087F980581CCF61E075CF90919A02892F85
:103F00008F7E94FF806113CF8091F40181110FC0E7
:103F100089E2E6EEF1E02CEE31E09191891303C0E5
:103F2000DF0111971C922E173F07B9F7B3CE85E337
:103F3000F0CF81608093C40361E086950E94051CE8
:103F400027CD45E45CE16FE47CE10E94930820CD3D
:103F50004FE45CE165E47CE1F8CF4FE757E165E7CA
:103F600077E1F3CF4BE557E168E677E1EECF41E447
:103F700057E16EE477E1E9CF4EE457E161E477E1A0
:103F8000E4CF4BE957E169E877E1DFCF61E081E019
:103F9000D5CF65E082E00E945A1CFACC68E086E04A
:103FA000FACF64E18FE0F7CF67E185E1F4CF62E219
:103FB00089E1F1CF61E083E2C1CF0E94BD139FEFA1
:103FC000E4E3FCE09150E040F040E1F700C0000085
:103FD0000E94160880919B0282FB882780F991E05D
:103FE00089270E94FF11F8018281E080F1808823F7
:103FF00009F44BC0C7010E94EE10D82E682FC701EC
:104000000E947E0BB7018D2D0E94E0100E94A8092E
:10401000E82ED92EA82EF801F280B580B2943FE0A8
:10402000B322809148028770E9F09F2CFF20D9F0DD
:10403000892F807F803449F090E29E0D983090F077
:10404000803619F4F6EFEF1669F080919B0282FF3B
:1040500009C082E00E94E311809148028770992490
:1040600093948111912C8D2C82942FE082222BE04D
:10407000281508F479C0E82DF0E0E152FC4C0C94CE
:10408000213381E0AECF80E0ACCFC7010E944A0B64
:10409000D82EB8CF3D2D3F70C32E8D2D807F19F0C7
:1040A000C29490EFC922FF20B9F0CC2069F080E2E1
:1040B0008E0D883010F0A11009C080915202C82ADC
:1040C000C09252020E947B118E2D4CC080915102F1
:1040D000C82AC0925102F6CF8E2D0E943D12CC20EC
:1040E00009F442C080E28E0D883010F0A11004C0A7
:1040F0008C2D0E94390B06C0C09480915102C822B9
:10410000C09251020E947B112FC08D2D8F70C82E3E
:104110008D2D807F803219F0C29480EFC822AA20B2
:1041200089F091E0A91609F47AC0FF2009F484C04F
:10413000BB2009F47AC0F801858180FFC5CF8F705C
:10414000858373C020919B0222FD46C0FF20F1F1C0
:10415000CC2039F080915202C82AC09252020E94AB
:104160007B1180E00E947212282D2850330B2430DE
:10417000310510F40E94EF0FFF2079F08D2D807F24
:10418000803619F436EFA31641F08091F5018230A4
:1041900009F0E6C183E08093F501992009F4ACCBE6
:1041A0008091480280FDA8CBF80112828595859503
:1041B00085950E941B12C8010E946A1C80914802CA
:1041C0008595859585950E94D61196CB80E00E94B5
:1041D0003D12CC2049F28CCFFF20A1F090915302E8
:1041E0008C2D892BB11003C00E943312BDCFE1E0AA
:1041F000BE12FACF22FFB8CF981709F4B5CF80933B
:104200005302B2CFB11006C00E94330B8C2D0E9416
:104210002C12AACFF1E0BF1609F4A6CFF5CFFF20EC
:1042200031F025E02B1508F49FCF8C2DDDCF34E045
:104230003B1508F499CFEACFBB2041F3F9E3AF1265
:1042400018C12FEF37EE83E0215030408040E1F776
:1042500000C000008E2D0E943D1286CF8D2D8695C8
:104260008695837069F0813009F07ECF8E2D9D2D6B
:104270009370F11002C090E080E00E944D0874CF6E
:104280008E2D9D2D9370F11002C090E080E00E9471
:1042900065086ACF8D2D837091F5F11065CF4E2D95
:1042A000429546954770440F440F8E2D8F70042E13
:1042B00001C0880F0A94EAF72E2D2071E4FE07C092
:1042C0002FE030E001C0220F4A95EAF720953D2DFE
:1042D000369536953370323069F050F4409154027F
:1042E000313029F0822B84230E9427123DCF842B6A
:1042F000822BFACF282B809154028227F5CF869506
:10430000FF2011F08D2D8170882309F42DCF4E2DC3
:10431000429546954770440F440F8E2D8F70042EA2
:1043200001C0880F0A94EAF72E2D2071E4FE07C021
:104330002FE030E001C0220F4A95EAF720953D2D8D
:10434000369536953370323069F050F4409102065C
:10435000313029F0822B84230E94C51105CF842B94
:10436000822BFACF282B809102068227F5CFFD2DD4
:10437000FF70CF2EFF2029F08F2F0E941B128E2D51
:1043800033CF8E2D0E942C128C2D0E94D611ECCE94
:104390008E2D22EFA216B1F12A1570F030EFA31680
:1043A000D1F091EFA91691F0FF2009F45DC0B11092
:1043B0008BCE8D2D8F712AC0E3EFAE1651F1F4EF45
:1043C000AF12F2CF80919B0282FD2FC08D2D8F7195
:1043D000FF20D9F21BC0FF2081F024E02B1508F448
:1043E000C3CE2D2D2F7181E090E001C0880F2A955A
:1043F000EAF7909102068927AFCF35E03B1508F424
:10440000B3CEEFCF8D2D8F71F110BFCF0E941B1255
:10441000ABCE80E0FF2009F49FCF81E09D2D9F71FE
:1044200001C0880F9A95EAF797CFFF2091F08D2D64
:104430008F71E82E0E941B1280919B0282FF07C0A1
:10444000E8E0EE9EC00111248360809348028E2D27
:10445000DDCF81E00E94E311F1E0FB1508F084CE8E
:1044600082E00E94E31180CEBB2041F0893309F441
:10447000E8CEEFE3FCE93197F1F7EACE8D2D8F71AD
:1044800084CFE0E1EE0DE73008F03FC0F0E0E55109
:10449000FC4C0C942133FF2009F466CE80910F026E
:1044A00091E0892780930F025FCEF0920F025CCEDD
:1044B00081E08F25F7CFF11057CE81E0F3CFF110D7
:1044C00053CE10920F0250CEFF2021F082E0809355
:1044D000F501F3CF8091F501823021F481E08093E2
:1044E000F50142CE833009F03FCE1092F501E9CFBD
:1044F000FF2039F080910E02882381F210920E0283
:1045000033CEF4E0FB1550F62FCE80910E02BB2087
:10451000D9F0882341F080910F0291E089278093A0
:104520000F0210920E02F110CFCD8FE39CE901979C
:10453000F1F700C000008E2D0E943D1286E0F801C8
:1045400011928A95E9F710CE882309F40DCEF11067
:104550000BCE80910F0291E0892780930F02CECF7E
:10456000813009F01ACE1092F50110920F0215CE8B
:10457000F0E1EF16FFE5FF0609F4EBCA21E1E216D0
:104580002FE5F20609F4E9CAF3EFEF16FCE5FF06A2
:1045900009F44FCB08F0E3CA38EDE3163CE5F30627
:1045A00009F443CB99EDE9169CE5F90609F44DCBE6
:1045B000E7EDEE16ECE5FE0609F0E2CA26E241EE72
:1045C00061EEC8010E94821BE3C930E1E3163FE5BA
:1045D000F30609F4B8CA91E1E9169FE5F906A1F6D8
:1045E00082E0B2CA85E0DE01119601900D928A95B3
:1045F000E1F7F801228189819A81211181C90E9404
:104600004A0BF82E85C9F6E1EF16FCE5FF0609F422
:104610007BCC8091520282722CECE2162CE5F206E1
:1046200009F4AFCC08F073C096ECE9169CE5F906E6
:1046300009F493CC08F042C0F3ECEF16FCE5FF065A
:1046400009F47FCC50F532ECE3163CE5F30609F0B3
:10465000CACC8091C40380FF6CCC8E7F8093C4034E
:104660006091C4037091C5038091C6039091C70304
:104670000E949D160E9499088091EE0281608093AD
:10468000EE022FEF30E782E0215030408040E1F72A
:1046900000C000000E948A0C7BC994ECE9169CE5DE
:1046A000F90609F455CC45E757E16FE777E1E5EC0A
:1046B000EE16ECE5FE0609F448CC95CCF9ECEF16C5
:1046C000FCE5FF0609F453CC88F437ECE3163CE52F
:1046D000F30609F447CC48E657E16BE577E198EC3F
:1046E000E9169CE5F90609F430CC7DCCEAECEE162F
:1046F000ECE5FE0609F440CC49E857E16BE977E1C7
:10470000FBECEF16FCE5FF0609F41FCC6CCC21EDA9
:10471000E2162CE5F20609F444CCB8F48EECE81667
:104720008CE5F80609F435CC08F430CCEFECEE1645
:10473000ECE5FE0609F432CC6EE089E0F0EDEF1610
:10474000FCE5FF0609F427CC4ECC24EDE2162CE55F
:10475000F20609F42CCC78F482EDE8168CE5F80624
:1047600009F422CC61E088E193EDE9169CE5F906B5
:1047700009F4E4CB38CCE5EDEE16ECE5FE0609F4E1
:1047800019CCFDE5EF16FF0609F402C92CCC2AE589
:10479000E2162DE5F20609F474CC98F4E1148CE5E8
:1047A000F80609F40ACC9EEDE9169CE5F90609F035
:1047B0001ACC6FEF7FEF90E080E00E94BD330E9443
:1047C0008716ECE5EE16EDE5FE0609F403CC08F4D9
:1047D0005ACC27EAE2162DE5F20689F304CC1F93A2
:1047E000CF93DF9380911502807F09F049C08091BB
:1047F0001202882309F444C080914702D091160226
:104800006091100270911102A0911302B0911402F4
:10481000C62FC72316E0D81799F190E0109711F032
:10482000CF3F19F401968770F6CF189F9001199F1A
:10483000300D1124F901E95EFD4F41814713F2CF9C
:1048400040814613EFCF42814111ECCF4381548127
:104850004A1B5B0B4436510528F7809115028F7077
:10486000806180931502F901E45EFD4F80818F70B5
:104870008061808380E192E00E946A1C0E94400B6C
:10488000DF91CF911F910895A1E1B0E0EAE4F4E255
:104890000C94A2328C0185E0F801DE011D96019096
:1048A0000D928A95E1F7F801E28080E1A82E82E07E
:1048B000B82E60911302709114026115710509F40C
:1048C00026C19091100240911102892F84238F3FBD
:1048D00009F41DC120813181C380D480F09012027F
:1048E000F601E61BF70BFF2009F4DCC080911502EE
:1048F000582F507FE436F10508F09FC051116BC06E
:10490000FE2C431314C0921312C0E11010C08F701C
:10491000806180931502C5010E946A1C8091150276
:10492000F80185838F2D6196EAE00C94BE32C114A4
:10493000D10429F0822F83238F3F09F011C180E039
:10494000F82FF170DF2E80FF3CC08091470240912C
:10495000160256E0841315C02D873E878D859E85EF
:104960000E941D11292F22952F702230F0F0243043
:1049700018F59F70F1F0F8019581907FD1F4D12C5A
:104980001EC090E0589FF001599FF00D1124E95E80
:10499000FD4F6181361306C06081261303C062811A
:1049A000E6120FC001968770D5CF9F7011F0882353
:1049B00031F3805E883018F3C8010E946A1CFD2C18
:1049C000B1CFEE2009F4AECF8091150281608093C3
:1049D0001502F12CA7CF431306C0921304C0F801AF
:1049E000EE2009F479C0C8010E942A11882309F138
:1049F000EE20F9F080911502803270F020911002C3
:104A00003091110238872F831986DB86CA868C87FE
:104A1000CE0107960E946A1C86E0F801A0E1B2E090
:104A200001900D928A95E1F70E94EF23FF24F39401
:104A300079CFC8010E946A1CF9CF51110AC080E1E8
:104A400092E00E946A1C86E0F50111928A95E9F7CE
:104A5000C0CF43130FC092130DC0E1100BC0F8017B
:104A60008583C8010E946A1C86E0F50111928A952F
:104A7000E9F758CFC8010E942A118823D1F2EE200D
:104A8000C1F280911502803238F2209110023091EB
:104A900011023A8329831B82DD82CC828E83CE0170
:104AA0000196B8CFE436F105F8F6FE2CEE2009F2B7
:104AB00043131FC092131DC08091150280FD10C0CA
:104AC000982F907F69F0F8018583903F31F0982FFF
:104AD000907F905F8F70892B8583C8010E946A1C2C
:104AE00086E0F801A0E1B2E001900D928A95E1F72D
:104AF00019CFC8010E942A1181118ECF8091150211
:104B0000816080931502C8010E946A1C0BCFEE20C1
:104B100009F48FCFC8010E942A11F82E882309F4C6
:104B200088CF86E0F801A0E1B2E001900D928A956D
:104B3000E1F780911002909111020E941D1192954F
:104B40009F70963051F4863F41F080910F0291E0C2
:104B5000892780930F0290930E020E94EF23E2CEEA
:104B600081E08E25EDCEA7E1B0E0E9EBF5E20C9413
:104B7000A8326D8B7E8B8F8B252F61111092510285
:104B80008E899F89892B19F02F3F09F07DC01A8AE1
:104B9000198A4B8B2C8B85E0FE017396DE011D96E6
:104BA00001900D928A95E1F786E0FE013D96DE01C7
:104BB000179601900D928A95E1F7CE0107960E9413
:104BC0004424882379F016E08091470290911602E0
:104BD000891347C06796E4E00C94C432802F809517
:104BE000892387C086E0FE013796DE011196019089
:104BF0000D928A95E1F78A859B85892B21F388851B
:104C00009F8189238F3FF9F22091160230E0C9017C
:104C1000019687709927409147024817190671F449
:104C20000E94BD13109216021092470286E0E0E146
:104C3000F2E0DF011D928A95E9F7C5CF96E0929FD9
:104C4000D001939FB00D1124A95EBD4FFE01319696
:104C500001900D929A95E1F7809316020E94400B05
:104C6000B2CF819FC0011124895E9D4F0E944424D0
:104C7000882309F4AFCF8091470290E001968770B6
:104C8000992780934702A0CF2A3008F080CF463082
:104C900008F07DCFE42FF0E086E0289FE00DF11DC5
:104CA0001124DF01A770BB2701E010E001C0000F55
:104CB000AA95EAF7DF0193E0B695A7959A95E1F7F3
:104CC000A451BE4F9C9180910F02611102C0892FA7
:104CD0008023882309F482CFAF01440F551FFA01C6
:104CE000EF5BFE4F2491405C5E4FFA014491892FA7
:104CF000802B8C934CCFAFE0B0E0E1E8F6E20C946F
:104D00009F328E010F5F1F4F8AE0D8011D928A9556
:104D1000E9F78BE8C82E81E0D82EF12CE12CAA24EB
:104D2000A394B12C26E9822E21E0922EF6018191E6
:104D30006F018F3F09F442C0F894E82FE295EF70BD
:104D4000F0E021A18F70A50102C0440F551F8A9584
:104D5000E2F7CA01922F982B91A392A18095892303
:104D600082A3789400C0E0E9F1E0712C31E0219158
:104D70002F3F09F46BC0A22FA295AF70B0E09096C0
:104D80008C9190E02F7002C0959587952A95E2F757
:104D900080FD5CC0832F782A330F8E169F0639F76B
:104DA000F601319780818F3F11F00E944E0950EA41
:104DB0005A95F1F7F801EE0DFF1D70828FEFE81A9A
:104DC000F80A95E0E916F10409F0B0CF4AE050E0A6
:104DD000B8018EE892E00E947533009741F02AE016
:104DE000F801AEE8B2E001900D922A95E1F700914A
:104DF0009902892B69F181E0809357020E94761B0A
:104E000090935602809355028091550290915602DC
:104E10000E94671B059700F110E004521D4F45E00A
:104E200050E06EE872E0C8010E947533D12C892BE6
:104E300051F085E0EEE8F2E0D80101900D928A95FC
:104E4000E1F7DD24D3941092570207C080E0A3CF8E
:104E5000809157028111D8CFD12C0E94CC0FC82E3F
:104E6000E0919902DE011B967D01882309F47AC046
:104E700085E01D928A95E9F70E2F10E004521D4F30
:104E8000809189028A30D8F54EEE59E1B701C80108
:104E90000E94990F882309F454C04DE859E1B701E5
:104EA000C8010E94990F882309F44BC042E958E1D8
:104EB000B701C8010E94990F882309F442C041E359
:104EC00058E1B701C8010E94990F8823D1F11092CF
:104ED00089028091980290E045E050E0B701845249
:104EE0009D4F0E94753321E020935E02892BE1F4EF
:104EF000C12C8C2D8D292F96EDE00C94BB32809126
:104F00005802909159020E94671B843F914008F01B
:104F1000BBCF80915E02882359F385E0F70111929F
:104F20008A95E9F710925E02A0919802B0E0A4522F
:104F3000BD4F85E0FE013B9601900D928A95E1F709
:104F4000D8CF809189028F3F31F08F5F80938902A3
:104F50008A3008F4BECF0E94761B9093590280934A
:104F60005802D7CFF0E0E452FD4F85E0A2E7B2E06F
:104F700001900D928A95E1F765E070E082E792E09A
:104F80000E947D08809371024091B40250E06091CC
:104F9000B30270E061557D4FC7010E9482338B855B
:104FA0008093780261E070E0C7010E947D088093E1
:104FB00077028090790290907A02A0907B02B09064
:104FC0007C0280915A0290915B02A0915C02B091A8
:104FD0005D0288169906AA06BB06D1F080925A0295
:104FE00090925B02A0925C02B0925D020E94CC0F94
:104FF00081110EC00E942708861A970AA80AB90ACA
:1050000080928A0290928B02A0928C02B0928D02C2
:1050100080918402882309F46CCF80FF0DC08091B9
:105020007D0280FF2AC09091C40391609093C403D5
:1050300060E086950E94051C8091840281FF09C072
:1050400020E04091800260917F0280917E020E9468
:10505000B0168091840282FF06C08091830288236B
:1050600079F00E94EA1B8091840283FF03C081E0F3
:105070008093E902109284023CCF0E94810FDCCF22
:105080000E949908F0CF1F921FB61F9211248F9390
:105090009F93AF93BF938091E005811113C08091DE
:1050A000E1059091E205A091E305B091E4054196F8
:1050B000A11DB11D8093E1059093E205A093E30546
:1050C000B093E405BF91AF919F918F911F901FBE48
:1050D0001F901895CDB7DEB7AD970FB6F894DEBF29
:1050E0000FBECDBF85B7806885BF85B7806885BF97
:1050F00084B7877F84BF0FB6F894A895809160002D
:10510000886180936000109260000FBE80E890E09C
:105110000FB6F89480936100909361000FBE8CE409
:1051200099E09093E3018093E2010E948C060E9433
:1051300057078091E20084608093E2007894809128
:10514000F5058823A1F01091E9001F709091EC0003
:10515000892F817090FD80E8182B1092E9008091D2
:10516000E80083FD0E94C9131F701093E90082E0DC
:1051700084BD93E095BD9AEF97BD80936E00109229
:105180008A0210928B0210928C0210928D020E9461
:105190005411811102C00E94A1100E94CC0F809373
:1051A000300180913001882309F46DC010925201C2
:1051B00084E2809353010E94CC0F81110E9424311C
:1051C000809130018091300195E0811190E09093C1
:1051D000990285E0891B809398020BE811E060E951
:1051E000E62E61E0F62ED8018D918D018F3F11F0F2
:1051F0000E944E09E016F106B1F700E911E056E908
:10520000E52E51E0F52EF80181918F018F3F11F0CD
:105210000E944E09E016F106B1F78AE0ECEDF2E0EB
:10522000DF01282F1D922A95E9F7EEE8F2E0DF0171
:105230001D928A95E9F70E941A1A811102C00E94F4
:10524000C61782E090E00E948B338093A1020E94F7
:105250006D1190939B0280939A020E947B26EFE34C
:10526000FCE93197F1F700C000000E947B26809195
:10527000DC0280FF0CC06FEF7FEF90E080E00E94C7
:10528000BD330E94160884E28093520192CF83E0DE
:1052900090E00E948B330E9427120E94CC0F88233B
:1052A00009F4E2C083E08093D70280FDDFC080E88C
:1052B0008093C9030E94DE2F6DE070E08BE792E0DF
:1052C0000E94C60B892BE9F58091D70263E070E05C
:1052D00081FDCEC088E792E00E94C60B892B89F53C
:1052E0006DE070E088E692E00E94C60B892B49F5DC
:1052F0000E942708605A75418F4F9F4F6093D405D5
:105300007093D5058093D6059093D705ECECF3E028
:1053100080E092E0DF019C011D9221503040E1F7D6
:10532000F093D305E093D2058FEF9FEF9093CB03DB
:105330008093CA0381E08093D9058093D8051092A9
:10534000D80280919C02811138C00E941A1A8111E2
:1053500004C00E94C6170E94AD1788E090E00E942A
:1053600093336093C4037093C5038093C6039093F3
:10537000C7038091EE0283608093EE026E7F71F42A
:105380000E94AD1788E090E00E9493336093C403BD
:105390007093C5038093C6039093C7030E94A0082F
:1053A0000E9499088091C40380FF04C060E0869544
:1053B0000E94051C81E080939C029091300181E065
:1053C00098279093B302382F391B30939E02909107
:1053D00030018093B4029091300180939D028091BE
:1053E0003001811106C084EF80933C0185EF8093EA
:1053F0003B0120913C01E22FE295EF70F0E061A1CA
:105400002F7081E090E0AC0101C0440F2A95EAF7CB
:10541000342F3095362331A322A1242B22A32091AF
:105420003B01E22FE295EF70F0E031A12F7001C057
:10543000880F2A95EAF7982F9095932391A392A12C
:10544000892B82A3EFE8F1E03197F1F700C000006B
:105450001091B40265EB72E04CE351E08BE3E82E6F
:1054600081E0F82EFB012FC080E01DCF80E220CF2D
:1054700085E792E031CFDA012D91AD01822F82953F
:105480008F7090E0DC0190968C9190E02F7002C0BC
:10549000959587952A95E2F78170D7019D917D01B9
:1054A000292F22952F7030E0D90190962C9130E071
:1054B0009F7002C0359527959A95E2F790E020FD00
:1054C00092E0892B81938E2F861B8117A0F20E9478
:1054D000CC0F811102C00E94273181E391E09093AB
:1054E000DD058093DC058091F50500E112E1853052
:1054F00009F48DC00E947B2632EAE32E32E0F32EBF
:105500004CED442E42E0542E2CEA32E0D201F70159
:1055100091918D912E173F0709F483C09817C1F31D
:105520000E94CC0F882E2CEDC22E22E0D22E10E04D
:10553000D6010D916D01F70191907F01901629F12F
:105540009026B12CAA24A394892D8A21B1F0882019
:10555000A1F0BEA21FA391E0802F8A2109F490E060
:1055600098A70E94761B8160782F9AA789A74EA1E1
:105570005FA168A58AA50E94B325B394AA0CF6E0A2
:10558000BF12E2CFF701319700831F5F1A3081F617
:105590000E942708CC24C39465C08091F50584300F
:1055A00031F10E94F00B1092E005E8E1F0E020E418
:1055B0000FB6F894A895E09360000FBE20936000AA
:1055C00083B7817F846083BF83B7816083BF789412
:1055D000889583B78E7F83BF0FB6F894A895809186
:1055E0006000886180936000109260000FBE80911F
:1055F000F405882361F00E947B26ECEDF2E08191B6
:105600008111BDC486EE92E08E179F07C1F780918D
:10561000F505853009F4C1CF0E94BD130E94EF0F3C
:1056200069CF98137DCF0E94761B8C0180919F02D9
:105630009091A00208171907A1F08FEF89A38AA300
:105640001BA20E94761B8160782F9DA38CA349A189
:105650005AA16BA18DA10E94B3251093A0020093C3
:105660009F02C12C0E94CC0F8091ED02882309F487
:1056700064C08091EC02E091C403E695E81BE093DE
:10568000E802823009F0CFC0F0E0EA56FD4FE49125
:105690000E2F10E09DE6E92E9FE0F92E8091E902A1
:1056A000882361F01092E9020E94DF1B9093E702C9
:1056B0008093E6021092EB021092EA020E94DF1B36
:1056C000E091E602F091E7029C012E1B3F0B2F3F79
:1056D0003F4798F52091AE022223B1F01092AE021E
:1056E0002091AC023091AD02821B930B8F3F9F47FC
:1056F00058F4205D3A483093AD022093AC0280917B
:10570000EE0288608093EE02A090EA02B090EB0275
:10571000E00FF11FF093E702E093E60286EE92E0DD
:10572000F70109958091EA029091EB02892B29F407
:10573000AB2819F081E08093AE02E12CD12C80914E
:10574000B402E81608F4C9C0D1100E94300B809151
:10575000D905882351F18091D9029091DA020E94F3
:10576000671BC29708F035C12091CA033091CB0363
:105770002115310509F099C18091D8058823A9F038
:105780000E9427080091D4051091D5052091D605D7
:105790003091D705601B710B820B930B6F3F7F4FCE
:1057A0008F4F9F4710F40E94F00BC11001C0D11021
:1057B0000E940B0C0E94EF0F9091DB02891721F0E1
:1057C0008093DB020E9427088091F505843009F060
:1057D0008ACE83E08093E9008091E80082FF83CE47
:1057E0008091E80090E085FF0CC00E94AB0690E23B
:1057F000E92EF12C8E010F5F1F4F882309F432C26E
:1058000091E08091E8008B778093E800992309F478
:105810006ACEE981E150E33108F088C2F0E0EE5051
:10582000FC4C0C942133863059F4F0E0ED56FD4FDA
:10583000E4910E2F10E08DE5E82E8FE0F82E2ECFAC
:10584000893061F4E695F0E0E057FD4FE4910E2FCA
:1058500010E0B0EBEB2EBEE0FB2E20CF8F3061F4DA
:10586000E695F0E0E357FD4FE4910E2F10E0A2E241
:10587000EA2EAEE0FA2E12CF853159F4F0E0E65769
:10588000FD4FE4910E2F10E0FAE9EF2EFDE0FF2E20
:1058900005CF08E210E065E1E62E6DE0F62E8831D6
:1058A00009F4FCCE833249F4E8E8F2E00591149162
:1058B000E9E0EE2EEFE0FE2EF1CE04EF11E075ED03
:1058C000E72E7CE0F72E843209F4E8CE00ED17E0F5
:1058D00051E1E52E58E0F52EE1CE0E2D10E0F80155
:1058E000E45CFE4F8081E82FE295EF70F0E0E0A1EC
:1058F000F0E08F7002C0F595E7958A95E2F7E170C8
:10590000D801A55CBE4F2C91A22FA295AF70B0E03C
:1059100090968C9190E02F7002C0959587952A956E
:10592000E2F780FD54C080E08E2BD801AB54BD4F10
:10593000EC919E2F9370891709F447C0EE0FEE0F7C
:10594000E82BEC93F090B302FE0CEF70F0E0EA5617
:10595000FE4F0F541D4F8081D8019C91890F8C936D
:1059600020E082308CF0EF2DF0E0E155FD4F80819A
:105970008F5F80838AEAFF2021F0B1E0FB1203C031
:105980008BE40E94C51221E0F80180818F3F8CF4E6
:10599000EF2DF0E0E155FD4F80818150808389EA51
:1059A000FF2021F0F1E0FF1203C08EE40E94C51237
:1059B00021E0D8018C91082E000C990B62E070E078
:1059C0000E94EB32F8018083D22AE394B8CE82E0C1
:1059D000ABCF0E94761B9093DA028093D9028CECB5
:1059E00093E09093D3058093D2050E94CC0F60E0A2
:1059F000882309F455C083ED92E00E9472138091D0
:105A000002060E94B50B882341F0813021F160E04D
:105A100084EC92E00E94721305C060E08EEC92E08C
:105A20000E94B71360E081EC92E00E94721360E084
:105A30008BEB92E00E94B713809102060E94B50B97
:105A4000823031F160F0833039F160E083EA92E036
:105A50000E94B71309C060E089EC92E0E1CF60E0FA
:105A600085EB92E00E94721360E080EA92E00E946F
:105A700072130E94EF0F81FB662760F98AE992E0BA
:105A80000E94B7138091D905882309F475CE6CCE96
:105A900060E08FEA92E0E6CF60E089EA92E0E2CF50
:105AA00086ED92E00E947213EDCF8091D80261E002
:105AB00070E0811161CE082F10E07B01082E02C03A
:105AC000EE0CFF1C0A94E2F7A9014E215F21452B41
:105AD00009F447C09091D70290FD45C08295880F88
