:100000000C9495060C94B2060C94B2060C944133F1
:100010000C94B2060C94B2060C94B2060C94B20680
:100020000C94B2060C94B2060C94001C0C94BC1BED
:100030000C94402A0C94B2060C94B2060C94B206AE
:100040000C94B2060C94B2060C94B2060C94B20650
:100050000C94B2060C94D91C0C94B2060C94B20603
:100060000C94B2060C94B2060C94B2060C94B20630
:100070000C94B2060C94B2060C94B2060C94B20620
:100080000C94B2060C94B2060C94B2060C94B20610
:100090000C94B2060C94B2060C94B2060C94B20600
:1000A0000C94B2060C94B2060C94B20605010980B9
:1000B000A101850319012AB700150126B700950192
:1000C00075108100C0050C0901A101850419012AE0
:1000D000A002150126A002950175108100C005013E
:1000E0000906A1018506050719E029E71500250184
:1000F0009508750181020507190029EF15002501F2
:1001000095F075018102050819012905950575010C
:100110009102950175039101C00660FF0961A1017B
:100120000962150026FF00952075088102096315F4
:100130000026FF00952075089102C005010906A15F
:1001400001050719E029E7150025019508750181CA
:10015000029501750881010507190029FF15002680
:10016000FF00950675088100050819012905950508
:1001700075019102950175039101C001000005010F
:100180000502050305040505050006010602060330
:100190000604060506000701070207030704070512
:1001A00007000801080208030804080508000901FF
:1001B00009020903090409050900000100020003FE
:1001C0000004000500000101010201030104010512
:1001D00001000201020202030204020502000301FF
:1001E00003020303030403050300040104020403E0
:1001F00004040405040000000000000000000000EA
:1002000000000000000000000000000000000000EE
:100210000000000000000000007E0F00D4FFFFFF80
:10022000C70000007800000000000000002A2B2812
:1002300000000000000000000000000000000000BE
:1002400029000000002C1E342021222434262725DA
:100250002E362D3738271E1F202122232425263312
:1002600033362E37381F0405060708090A0B0C0D14
:100270000E0F101112131415161718191A1B1C1D26
:100280002F3130232D350405060708090A0B0C0D04
:100290000E0F101112131415161718191A1B1C1D06
:1002A0002F3130354C00DA0281FFD9F1DB20A4A6D2
:1002B0002EAF00A0C000A1C800AED580A81FD300FB
:1002C000408D1420005343524C4B004E554D4C4B27
:1002D000004350534C4B000A0A004E464900476108
:1002E0006D652B004D656469610046756E630A009B
:1002F0004E756D0A0047616D650A00426173650ABB
:10030000004C41594552000A0A008081828384854D
:10031000868788898A8B8C8D8E8F9091929394A0FA
:10032000A1A2A3A4A5A6A7A8A9AAABACADAEAFB045
:10033000B1B2B3B4C0C1C2C3C4C5C6C7C8C9CACBB1
:10034000CCCDCECFD0D1D2D3D40000010101010158
:10035000010101010202020202020202020303037E
:10036000030303030304040404040404050505054E
:10037000050606060606070707070708080808090E
:100380000909090A0A0A0B0B0B0C0C0C0D0D0D0EBA
:100390000E0E0F0F0F10101111111212131314144F
:1003A000151516161717181819191A1A1B1B1C1DC4
:1003B0001D1E1E1F2020212222232424252626271D
:1003C0002829292A2B2C2D2D2E2F3031323233344F
:1003D00035363738393A3B3C3D3E3F404142434455
:1003E00045464748494A4C4D4E4F50515354555637
:1003F00058595A5B5D5E5F616264656668696B6CE3
:100400006D6F7072737577787A7B7D7E808283855D
:1004100087888A8C8E8F91939596989A9C9EA0A29D
:10042000A3A5A7A9ABADAFB1B3B5B7BABCBEC0C2A7
:10043000C4C6C9CBCDCFD1D4D6D8DBDDDFE2E4E76B
:10044000E9EBEEF0F3F5F8FAFDFF07087F08070087
:100450003E5B4F5B3E003E6B4F6B3E001C3E7C3E66
:100460001C00183C7E3C18001C577D571C001C5E6D
:100470007F5E1C0000183C180000FFE7C3E7FF0088
:10048000001824180000FFE7DBE7FF0030483A06B9
:100490000E00262979292600407F05050700407FA8
:1004A00005253F005A3CE73C5A007F3E1C1C0800D3
:1004B000081C1C3E7F0014227F2214005F5F005F37
:1004C0005F0006097F017F00006689956A00606011
:1004D0006060600094A2FFA2940008047E040800FB
:1004E00010207E20100008082A1C0800081C2A087A
:1004F00008001E10101010000C1E0C1E0C003038CE
:100500003E383000060E3E0E0600000000000000DF
:1005100000005F000000000700070000147F147F48
:100520001400242A7F2A120023130864620036492B
:1005300056205000000807030000001C2241000064
:100540000041221C00002A1C7F1C2A0008083E08CB
:10055000080000807030000008080808080000004B
:10056000606000002010080402003E5149453E0032
:1005700000427F4000007249494946002141494DEF
:1005800033001814127F10002745454539003C4AB6
:1005900049493100412111090700364949493600CE
:1005A000464949291E0000001400000000403400A4
:1005B0000000000814224100141414141400004117
:1005C000221408000201590906003E415D594E00FF
:1005D0007C1211127C007F49494936003E4141415D
:1005E00022007F4141413E007F49494941007F0946
:1005F000090901003E41415173007F0808087F004E
:1006000000417F4100002040413F01007F0814224B
:1006100041007F40404040007F021C027F007F0479
:1006200008107F003E4141413E007F090909060054
:100630003E4151215E007F0919294600264949495A
:10064000320003017F0103003F4040403F001F2074
:1006500040201F003F4038403F00631408146300EF
:100660000304780403006159494D4300007F414170
:100670004100020408102000004141417F000402B3
:100680000102040040404040400000030708000011
:100690002054547840007F2844443800384444446F
:1006A0002800384444287F00385454541800000867
:1006B0007E09020018A4A49C78007F080404780036
:1006C00000447D4000002040403D00007F10284451
:1006D000000000417F4000007C04780478007C0822
:1006E00004047800384444443800FC1824241800DA
:1006F00018242418FC007C080404080048545454AE
:10070000240004043F4424003C4040207C001C2082
:1007100040201C003C4030403C004428102844004D
:100720004C9090907C004464544C44000008364146
:1007300000000000770000000041360800000201C0
:10074000020402003C2623263C00000000000000BA
:10075000404040F0F8F8FF38FFF8F83FF8F8FF386D
:10076000FFF8F8F040404000000000000080C0C0EA
:10077000C0800000C0C08000000080C0C000C0C0B9
:10078000000080C0C00000000000C0C0C0C0C000A9
:10079000C0C00000000000000000000000000000D9
:1007A0000000000000000000000000000000000049
:1007B0000000000000000000000000000000000039
:1007C000000000000000000000C0F0F8FC3E1E0623
:1007D000010000007F4141417F007F4141417F0096
:1007E0000080C0E07E5B4F5BFEC00000C000DCD735
:1007F000DEDEDED7DC00C0000000000000000000EC
:1008000000000000000000000000000000000000E8
:10081000494949FFFFFFFFE0DFBFBF00BFBFDFE087
:10082000FFFFFFFF49494900000000001F3F6060D3
:10083000E0BF1F007F7F071E381E077F7F007F7F7E
:100840000E1F3B716000000000007F7F0C0C0C004D
:100850007E7E007F7E0303007F7E03037E7E030394
:100860007F7E000F3E703C063C703E0F00327B499D
:10087000493F7E007F7E0303001E3F69696F2600AB
:10088000000000000000000000030F1F3F3C7870D4
:10089000600000007F4141417F007F4141417F0076
:1008A000307B7F7830202030787F3B0003000F7F43
:1008B0000F0F0F7F0F00030000000000000000007A
:1008C0000000000000000000000000000000000028
:1008D000010101070F0F7F0F7F0F0F7E0F0F7F0F9B
:1008E0007F0F0F0701010100000000000000000061
:1008F00000010100000000000000000000000000F6
:1009000000000000000000000000000000000000E7
:1009100000000000000000000000000000000000D7
:1009200000000000000000000000000000000000C7
:1009300000000000000000000000000000000000B7
:1009400000000000000000000000000000000000A7
:100950000000000000000000000000000000000097
:100960000000000000000000000000000000000087
:100970000000000000000000000000000000000077
:100980000000000000000000000000AF00AE4E00BC
:100990004B00A900AA004F0050004F005000550026
:1009A0005400A900AA004E004B004D004A00C75C4D
:1009B000C55CCB5CC95CA900AA00A900AA00165CB2
:1009C0001E001F002000210022002B0014001A002E
:1009D000080015001700E1000400160007000900D8
:1009E0000A002F001D001B00060019000500E3008F
:1009F000E200E00004512C0011502A0027002600DC
:100A00002500240023003100130012000C00180000
:100A10001C00347233000F000E000D000B0030007C
:100A2000380037003600100011004F7852745171B1
:100A300050432800A80010500000000000000000F3
:100A400000000000000000000000000000000100A5
:100A50000000000000000000000001000000000095
:100A60000000000000000100010001000100010081
:100A7000B200010000005600550054005300000071
:100A800000005700610060005F0000000000570098
:100A90005E005D005C000000000000005B005A008A
:100AA0005900010063006200620001000100165C51
:100AB0001E001F002000210022002B001700140040
:100AC0001A0008001500E1000A00040016000700E3
:100AD0000900E0001D001B000600190005002800A9
:100AE000E200035105512C0068002A00270026006F
:100AF0002500240023003100130012000C00180010
:100B00001C00347233000F000E000D000B00E500D6
:100B100038003700360010001100E700E600E4005E
:100B200001002C00A80044003A003B003C003D00BE
:100B30003E0045003F0040004100420043003900B4
:100B400000000000000000002E0200000000000075
:100B5000000000002E004600470048002D002D0236
:100B60000100000000000000000000000000000084
:100B7000000000004900000000000000000000002C
:100B80000000000000000000000000000000000065
:100B9000145C000000000000010001000100005C86
:100BA00000000000000000000000C25C0000000027
:100BB0000000000000000100000000000000000034
:100BC0000000DE5C000000000000000000000000EB
:100BD0000000000001000100010000000000000012
:100BE0000000000000000000000000000000000005
:100BF00000000000000000000000000000000000F5
:100C000000000000000000000000AB00AE00AC00DF
:100C100012500100C35C1050230024002500260060
:100C2000270000000000000001000000000000009C
:100C300000000100010001000000000000000000B1
:100C400000000000000000000000000001000000A3
:100C50000000000000000000000000000000000094
:100C60000000000000000000000000000000000084
:100C70000000000000000000000000000000000074
:100C80000000000000000000000000000000090259
:100C90005B00030100A0FA09040000010301010048
:100CA000092111010001224000070581030800010C
:100CB00009040100020300000009211101000122C2
:100CC000220007058203200001070503032000011D
:100CD00009040200010300000009211101000122A2
:100CE0006D000705840320000112010002000000CE
:100CF0000832FC87020100010200010C0353006F5F
:100D00000066006C00650000001A034A006F007363
:100D100000650066004100640061006D00630069C9
:100D2000006B000000040309040011241FBECFEF74
:100D3000DAE0DEBFCDBF13E0A0E0B1E0E8ECFDE615
:100D400002C005900D92A430B107D9F727E0A4E0C6
:100D5000B3E001C01D92AA3EB207E1F70E94672AE4
:100D60000C94B2360C940000E8EDF0E080818E7FA8
:100D700080831092E2001092DA001092E100A0EE5F
:100D8000B0E08C9181608C9380818F77808319BCD7
:100D9000A7EDB0E08C918E7F8C9380818F7E8083D5
:100DA0001092B30708952091E4003091E50095E694
:100DB000A9012091EC00822F817020FF06C0809154
:100DC000E80080FF06C080E008952091E80022FD41
:100DD0001AC08091D807882389F0853089F08091E6
:100DE000EB0085FD0FC02091E4003091E500421733
:100DF0005307F9F29150E1F684E0089582E00895F6
:100E000083E0089581E00895EF92FF920F931F937E
:100E1000CF937C018B010E94D306C82F811117C08C
:100E20008091E80085FD0BC08091E8008E7780936B
:100E3000E8000E94D306882399F3C82F08C0F70161
:100E400081917F018093F1000150110949F78C2FA6
:100E5000CF911F910F91FF90EF9008958091DA0745
:100E600087FF13C08091E80082FF06C08091E800F0
:100E70008B778093E80004C08091D8078111F2CF6E
:100E800008958091D8078823D9F38091E80080FFE6
:100E9000F8CF8091E8008E77ECCF982F9093E900FF
:100EA000242F762F50E0891731F07091EC002091BB
:100EB000ED005091F00021FD07C09F5F973071F762
:100EC0008093E90081E008953091EB003E7F3093FC
:100ED000EB003091ED003D7F3093ED003091EB0061
:100EE00031603093EB007093EC002093ED00509351
:100EF000F0002091EE0027FDE0CF80E00895B0E003
:100F0000A0E0E5E8F7E00C947B34C8EDD0E0888100
:100F10008F7E8883E7EDF0E080818160808384E0CC
:100F200082BF81E08093B30788818E7F888302EE41
:100F300010E0F80110821092DA0081EEC82ED12C58
:100F4000F601108288818F77888388818068888302
:100F500088818F7D888319BC1092D8071092D90799
:100F60001092D7071092D60790EEE92EF12CF701D8
:100F700080818B7F808388818160888342E060E00C
:100F800080E00E944D07F60180818E7F8083F8010A
:100F9000808181608083808188608083F701808187
:100FA0008E7F8083888180618883CDB7DEB7E8E05B
:100FB0000C949734FC018091E0079091E10786172B
:100FC0009707A0F06115710529F49091E8009E77CC
:100FD0009093E80090E06115710551F4911108C0FB
:100FE0008091E80082FF34C080E00895BC01F2CF18
:100FF0008091D8078823C1F18530C1F18091E80044
:1010000083FD30C08091E80082FDEACF8091E80046
:1010100080FFE1CF8091F3002091F200382F61151D
:10102000710519F02830310558F091E0283031056C
:1010300009F090E02091E8002E772093E800CBCFD4
:1010400081918093F100615071092F5F3F4FE7CF8D
:101050008091D807882341F0853041F08091E800E5
:1010600083FFBECF81E0089582E0089583E0089574
:10107000089508958091B507089587E797E79093BD
:1010800001088093000888E19AE00FB6F894A895CB
:10109000809360000FBE90936000FFCF2FB7F8944D
:1010A0006091AA077091AB078091AC079091AD0752
:1010B0002FBF089520917A012223C9F02091AE0715
:1010C00027FF15C0E62FE695E695E695EE31D8F4B4
:1010D000E80FF92FF11D677021E030E001C0220F09
:1010E0006A95EAF720958281282322830895FC01DE
:1010F000329608962191621303C0DF0111971C926A
:10110000E817F907B9F7089520917A012223C1F071
:101110002091AE0727FF14C0E62FE695E695E695E9
:10112000EE31F8F4E80FF92FF11D677021E030E09F
:1011300001C0220F6A95EAF78281822B828308958B
:10114000FC0132962FEF30E04191641751F02F3FB0
:1011500019F4411101C0232F3F5F3630A9F72F3F0B
:1011600009F40895820F911D27FD9A95FC01628371
:1011700008952091A7073091A8072817390771F023
:101180009093A8078093A707E091A507F091A60781
:10119000309721F00084F185E02D09950895209184
:1011A000A3073091A4072817390771F09093A4077B
:1011B0008093A307E091A507F091A607309721F04F
:1011C0000680F781E02D09950895FC01680F791FCD
:1011D0008FEF91E32191822728E030E087FF09C05B
:1011E000880F892721503109C9F7E617F70791F7CA
:1011F0000895880FF7CFFA01811101C0FB0109950D
:101200000895E3EBF4E024813AE0231B08F420E0A6
:1012100024838091B20481608093B2040895E3EB4B
:10122000F4E024813AE0230F08F42FEF2483809127
:10123000B20481608093B20408959091B3049370D6
:1012400071F08093B4046093B504493708F048E71F
:101250004093B6048091B204822B8093B204089527
:10126000E3EBF4E0438128E0421B08F440E0818195
:1012700021E0628190E00E941D090895E3EBF4E013
:10128000438128E0420F08F44FEF818121E0628121
:1012900090E00E941D090895E3EBF4E0628128E0EC
:1012A000621B08F460E0818121E0438190E00E94AC
:1012B0001D090895E3EBF4E0628128E0620F08F471
:1012C0006FEF818121E0438190E00E941D09089524
:1012D000E3EBF4E0818121E0438162818250990B4C
:1012E0000E941D090895E3EBF4E0818190E021E084
:1012F0004381628102960E941D0908959091B30472
:10130000937061F081110BC094609093B3041092BC
:1013100079018091B204862B8093B20408958430C1
:1013200010F09C60F2CF880F880F982BEECF809141
:10133000B30486958695815009F483E061E00E94AC
:101340007E0908958091B304869586958F5F8430D9
:1013500008F081E061E00E947E09089580937501A4
:101360008091B3048370809374010E94F00D83E038
:101370008093790108950E94810E0895FF920F9342
:101380001F93CF93DF93182F062FF42ED0E0C0E0E9
:101390002F2D402F612FCE010E94BB092196C8340A
:1013A000D105B1F7CDB7DEB7E5E00C949A3440959E
:1013B000282F429F412D1124842F0895AF92BF9270
:1013C000CF92DF92FF920F931F93CF93DF93362F2D
:1013D000472FE82FF0E0E65BFC4F71110FC0E4915E
:1013E0008E2F2E2F6E2F722FDF91CF911F910F9185
:1013F000FF90DF90CF90BF90AF900895C72FD0E0BF
:101400002491F22E022F10E056E0659FC0011124B6
:10141000EFEFF0E0BF010E945D34832F90E0880F72
:10142000991F35E5369FD001379FB00D11248A1BD7
:101430009B0B982F990F980F6F01CC1ADD0AC09E55
:10144000D001C19EB00DD09EB00D11248B2F499FAD
:10145000A0011124452F55276F01C41AD50AC09E3B
:10146000A001C19E500DD09E500D11245F01A91AFC
:10147000B108AC9E6001AD9ED00CBC9ED00C112476
:10148000CD2CDD24EC19FD09E09FE001E19FD00D9A
:10149000F09FD00D1124ED2F62307105A1F050F4B2
:1014A0006115710509F49ECF6130710581F0EB2F54
:1014B000852F98CF6430710569F080F06630710532
:1014C00009F490CFF4CFE22F2B2F8D2F8BCFE22F6B
:1014D000252F88CFEB2F822F2D2F84CF2B2F8F2DD1
:1014E000E52F80CF80E00895F894E82FE295EF7023
:1014F000F0E031A1282F2F7081E090E001C0880F2B
:101500002A95EAF7982F9095932391A392A1892B7E
:1015100082A3789408959091AE0792FF06C0282F79
:1015200028712830F9F4877F846093FF06C0282F44
:1015300028712831F1F4877E84612091AF0720FF64
:1015400006C0382F38713830D9F4877F816021FF89
:1015500006C0282F28712831D1F4877E816194FD3F
:10156000877E0895282F24712430F9F68B7F8860B8
:10157000DCCF282F2471243101F78B7E8861DDCFE9
:10158000382F3171313019F78E7F8860E0CF282FE6
:101590002171213121F78E7E8861E1CFCF93DF93D6
:1015A000EC0182389105A9F1D8F58133910509F450
:1015B00096C048F58932910509F48AC08A9709F4E2
:1015C00095C0C11522E5D20708F0B6C0C11531E5B6
:1015D000D30708F029C1C83ED10508F09CC0C03E21
:1015E000D10560F5C83AD10508F087C0C53AD105E4
:1015F00008F0F2C0C130D10509F12097F9F0C430EC
:10160000D105E0F440C08533910509F45AC0C9976B
:10161000C1F68091AE07837089F0C0EED0E00EC0B5
:10162000833E910599F170F4803E910501F1823E6F
:10163000910539F68091AE0782FD21C0CE01DF9180
:10164000CF910895863E910561F1873E910571F134
:10165000843E910509F0B5CF8091AF0781FFEECFB1
:101660008091AE07C7EED0E084FD0DC0E7CF80913A
:10167000AE0780FD0FC19091AF0790FFDFCFC3EEA3
:10168000D0E084FFDBCFD0E0C0E0D8CF8091AE07C0
:1016900082FD03C19091AF0790FDBFCF84FFCECFF5
:1016A000F2CF8091AE0783FDDDCFC8CF8091AE072A
:1016B00083FDF6C09091AF0791FFF0CFC4EED0E06C
:1016C000BDCF8091AE0785FFB9CFC9E2D0E0B6CFDC
:1016D0008091AE0785FFB2CFC5E3D0E0AFCF809158
:1016E000AE0786FFABCFCAE2D0E0A8CF8091AE07AD
:1016F00086FFA4CFC1E3D0E0A1CFCF3BD10518F640
:10170000C85AD0E0CC0FDD1FCF57DE4F0990D881EB
:10171000C02DD46493CFC11540E5D40708F067C04D
:10172000C11580E4D80708F05FC0CE019A958115F5
:101730009F4108F483CFA7CFC11536E5D30718F52D
:10174000C11545E5D40708F087C0C11584E5D80761
:1017500008F07DC09C2F969596959E0123703327A7
:10176000C115D34508F465C0C1E0D0E002C0CC0F7C
:10177000DD1F2A95E2F730E2939FC0011124C82BA8
:10178000D92BDA685BCFC11589E5D80768F4C11594
:1017900098E5D90708F06BC0C11527E5D20708F016
:1017A00072CFDD27D0664ACFC1153AE5D30708F4DA
:1017B00063C0CE0190568115904208F064CF8D2F02
:1017C0008F710E948B0A90E0982F882788279F713D
:1017D0009C012C2BE90149C0C55AD0E0C258DE4F0C
:1017E000C881D0E0D0642ACFDF70D06A27CFCE0185
:1017F000E4E096958795EA95E1F783702C2F26957E
:101800002695237090E2299F90011124382B8C2F6C
:101810008370C1E0D0E002C0CC0FDD1F8A95E2F7F3
:10182000C22BD32BDC680ACFDC2FCC27C16FD06A48
:1018300005CFC1E0D0E002C0CC0FDD1F2A95E2F752
:1018400020E2929FC0011124C82BD92BEBCFDC2FB3
:10185000CC27C46FD06AF2CE8C2F0E948B0AC82F7F
:10186000D0E0DC2FCC27CC27DF71D062E7CEDC2F95
:10187000CC27C06FD06AE2CE8C2F8F700E948B0A6B
:1018800034E0D695C7953A95E1F7CF709C2FEC01DF
:10189000D069D4CEC9E3D0E0D1CEC2EED0E0CECE76
:1018A000C6EED0E0CBCE0E944E0808958091F7039B
:1018B00081111092F70308959091AF0792FF05C030
:1018C0009091F70398138093F70308958095909172
:1018D000F50398239093F5030895809187039091E1
:1018E0005603981301C008958F5F8770FACFA82F11
:1018F000A77023E0969587952A95E1F7FC01EE0FF6
:10190000FF1FE80FF91FE60FF71F50E040E080E0EF
:10191000219130E00A2E02C0369527950A94E2F70D
:1019200021703327042E01C0220F0A94EAF7822B7C
:101930004F5F5F4F4330510559F70895292F9A3073
:1019400068F4863090F490E066E373E036E0239F1D
:10195000800D911D11240E94770C08952C5F223078
:1019600020F463E373E090E0F6CF80E00895262F43
:10197000277091E001C0990F2A95EAF723E0769548
:1019800067952A95E1F7FB01EE0FFF1FE60FF71FA2
:10199000E40FF51F50E040E0682F70E08191DF0117
:1019A00011979B01042E02C0369527950A94E2F701
:1019B000217021952827292328272C934F5F5F4FDB
:1019C0004330510559F70895282F862F9A3070F427
:1019D000263058F4622F70E026E0929F600D711D52
:1019E000112446E353E00E94B70C08959C5F9230A7
:1019F000E0F7622F70E043E353E0F5CF982F929524
:101A00009F7011F0892F94E0282F2695269511F0CC
:101A10009E5F822F869509F09F5F892F0895B0E021
:101A2000A0E0E5E1FDE00C947B346C017B0164E611
:101A300070E088E70E94B831EC0197FD12C010E019
:101A400000E0F601E00FF11F849164E670E00E946F
:101A50002632EC01892B29F40F5F1F4F0E151F054D
:101A600081F70E949D32CE01CDB7DEB7E8E00C943D
:101A700097348091A0079091A107911103C091E044
:101A800089270895882369F062E070E08CE899E086
:101A90000E940F0D892B19F08091A00708951092D4
:101AA000A0078091A007EBCFCF93C091A0078091B2
:101AB000A1078823D1F00E944E08605A75418F4FCC
:101AC0009F4F60939C0770939D0780939E07909310
:101AD0009F07C11108C062E070E08AE899E00E94A7
:101AE0000F0D892B29F0C091A0078C2FCF9108955D
:101AF00081E08093A007F7CF8093B0077093B2077F
:101B00006093B1078091D8078430F9F48093E9009D
:101B10008FEF9091E800815095FD06C095ED9A9564
:101B2000F1F700008111F5CF8091E80085FF0DC02D
:101B300050E040E063E070E080EB97E00E94040733
:101B40008091E8008E778093E8000895BC0184E0DE
:101B50000E947C0D0895BC0183E00E947C0D0895D5
:101B6000CF93DF93EC0180917A018823B1F18091CA
:101B7000AE0787FF32C060E284E08093E9008FEF18
:101B80009091E800815095FD06C095ED9A95F1F78A
:101B900000008111F5CF8091E80085FF1BC0809186
:101BA0007A0170E050E040E0811104C050E040E074
:101BB00068E070E0CE010E9404078091E8008E7713
:101BC0008093E80080E2FE01A6EBB7E001900D9261
:101BD0008A95E1F7DF91CF91089568E081E0CDCF5C
:101BE000539A3BB1377F2BB128604FB7F89489EBFC
:101BF00094E0FC015191CF0168E02BB9000000C0D6
:101C000057FF3BB9550F000000C000C000C03BB9F2
:101C100000C06A9591F7F5E081399F0751F74FBFF2
:101C20008FE594E00197F1F700C000000895B0E05F
:101C3000A0E0EDE1FEE00C9479347C015B016A01E7
:101C40008091000401E010E08A3010F40AE010E016
:101C5000C1E0D0E0B501C701F6010995811104C0CA
:101C600021960C171D072CF4CDB7DEB7EAE00C94D3
:101C70009534CC9F9001CD9F300D300D112490E014
:101C800080E045E34A95F1F700000196821793073B
:101C9000C1F7E0CF8091B403811110C08091D800CA
:101CA00080618093D8008AE18A95F1F700C0809125
:101CB000D90080FF0AC081E08093B40381E0909155
:101CC000B403913009F080E0089582E08093B4037A
:101CD0000E94B4061092D807F1CF0E944A0E8111DB
:101CE00003C08091A2070895E091A507F091A6078F
:101CF000309729F00190F081E02D0995089580E05A
:101D00000895FF920F931F93CF93DF93EC01F62E6C
:101D1000042F122F0E944A0E81110FC0C432D10528
:101D20007CF0A497FE01EE0FFF1FEC0FFD1FE754A0
:101D3000FB4FF1820083128303C0C432D10594F3B8
:101D4000CDB7DEB7E5E00C949A34B0E0A0E0EBEA62
:101D5000FEE00C947B34182F80917501811329C00B
:101D60009091B30493702091740130E081E0921758
:101D7000130609F480E08170809378018091B804A3
:101D800090917701981739F08093770140E060E0F7
:101D900080E00E94BE091130C9F0112361F0C091AA
:101DA0007601123009F453C0133009F4E2C080E028
:101DB000B2C081E0E0CF80917801882309F4ABC004
:101DC00040E060E080E00E94BE09F1CFC091760162
:101DD0008FE0C89FC02D11240FE00C0F093408F0CC
:101DE00008E40E944A0E882319F0053208F004E244
:101DF0000E944A0E811103C0C43208F4C4E260910B
:101E0000B4047091B5048091B6040E94DE09F62EE8
:101E1000E72ED82ED0E0C01750F00E944A0E88233B
:101E200009F417C181E0043208F475C0C0CFFE0187
:101E3000E455FD4F808190917701892331F02D2D5C
:101E40004F2D6E2DCE010E94BB092196E4CF8FE06D
:101E5000C89FC02D1124DFE0DC0FD93408F0D8E48E
:101E60000E944A0E882319F0D53208F0D4E20E946D
:101E70004A0E811103C0C43208F4C4E26091B40474
:101E80007091B5044091B604E091AD04F091AE04B8
:101E90008091B70486958695869530E020E0E89F8E
:101EA000212DF89F200D311D1124922F96FD209594
:101EB000322F3F7096FD3F5F26952695269526701A
:101EC000E22FF0E0E852FE4F8181839F802D312D7B
:101ED000112482958F703295307F832B2081820F61
:101EE00097FD819587FD8195880F282F249F212DAF
:101EF0001124822F0E94DE09062FD72EC82EEC2E29
:101F0000F12CED1600F10E944A0E882371F181E058
:101F1000D43208F04CCF909176019F5F9093760178
:101F200081110CC082E08093790180917801811148
:101F300005C0111103C083E080937901CDB7DEB7EE
:101F4000E8E00C949734F701E455FD4F80819091BF
:101F50007701892331F02C2D402F6D2DC7010E9470
:101F6000BB098FEFE81AF80ACCCF81E0D83498F299
:101F70001ECF8FE0C89FC02D11240FE00C0F093435
:101F800008F008E40E944A0E882319F0053208F090
:101F900004E20E944A0E811103C0C43208F4C4E274
:101FA0002091B70431E0230F08F42FEF30E050E028
:101FB00040E06FEF7FEF80E090E00E94C83479014D
:101FC000D0E0D12CC12C2C2FC01708F026CFFE0159
:101FD000E455FD4F808190917701892331F1809103
:101FE00080048150082E000C990B87FF20C0B70198
:101FF0003091B70421E0320F08F43FEFA601639F50
:10200000412D739F400D511D11246091B4047091B6
:10201000B5048091B6040E94D7090E94DE09462FBC
:10202000282F672FCE010E94BB092196CCCFFC013F
:10203000E058FB4F318932130AC0FC01EE0FFF1F3D
:10204000E058FB4F618D728D6E157F0588F2019708
:10205000CCCF81E0083408F45ECFA9CE0F931F9354
:102060000E944A0E882329F00E944E081F910F916A
:1020700008950E944E0800910104109102042091DD
:10208000030430910404600F711F821F931FEECF71
:10209000CF92DF92EF92FF926B017C010E944A0E79
:1020A0008823A1F02FB7F8946091AA077091AB072D
:1020B0008091AC079091AD072FBF6C197D098E09F7
:1020C0009F09FF90EF90DF90CF9008950E942E100F
:1020D000F4CFCF93DF93C7E2D3E060E0CE010E945C
:1020E0008E362196C11584E0D807B9F7DF91CF91DC
:1020F00008951F93CF93DF93122F8630E0F46A3058
:10210000D0F44630C0F4C42FD0E0CC0FDD1F9CE0EB
:10211000699FC00DD11D112498E7899FC00DD11D65
:102120001124632FCE0187960E948E36612FCE0137
:1021300088960E948E36DF91CF911F910895B0E06E
:10214000A0E0E5EAF0E10C9476348EE8A82E89E070
:10215000B82E9EEBC92E99E0D92E712C0FEF12E00C
:102160007601C0E014C0F401259134914D2F6C2FFD
:10217000872D0E94791082E0880E911CDF5FD63097
:1021800091F78CE0E80EF11CCF5FCA3019F04701DF
:10219000D0E0E9CFE80128977501F7018590949088
:1021A000692DCE010E948E36682DCE0101960E94C7
:1021B0008E36F701329685909490692DCE01029665
:1021C0000E948E36682DCE0103960E948E3684E0E2
:1021D000E80EF11C24960C171D07F9F688E0A80EEE
:1021E000B11C085F1F4F739488E7C80ED11C86E0AE
:1021F0007812B6CFCDB7DEB7EDE00C949234CF9322
:10220000C82F6FEF811162E283E290E00E948E3668
:102210006FEFC11166E084E290E00E948E366FEFAE
:10222000C11168E285E290E00E948E36CF91089558
:1022300080E00E94FF1060E086E290E00E948E360F
:102240000E949F100E94691081E00E94FF10089573
:10225000FF920F931F93CF93DF93F42E863070F588
:10226000623060F528E0829F8001112434E0639F92
:10227000B0011124060F171F09501D4F82E090E096
:10228000442311F090E080E0800F911F0E9470368F
:10229000C82FD0E0DC2FCC2783E090E0FF2011F0A6
:1022A00081E090E0800F911F0E9470369E01282BE4
:1022B000C901CDB7DEB7E5E00C949A3490E080E038
:1022C000F8CF0F931F93CF93DF93863030F56A30AA
:1022D00020F5463010F5C42FD0E0CC0FDD1F2CE0E8
:1022E000629FC00DD11D112438E7839FC00DD11D01
:1022F0001124CE0187960E947036082F10E0102F0F
:102300000027CE0188960E9470369801282BC901BB
:10231000DF91CF911F910F91089590E080E0F8CF69
:10232000863070F47A3038F4663050F4462F672FD8
:102330000E94611108957D3F31F441E0623040F028
:1023400090E080E008957C3FD9F76230C8F740E024
:102350000E9428110895CF92DF92FF920F931F934E
:10236000CF93DF936C010091E5078091EC03082B7C
:10237000C7E0D0E010E0FC2EC8010C2E02C09595FD
:1023800087950A94E2F780FD0CC02197A0F7F12C05
:102390008F2DDF91CF911F910F91FF90DF90CF9004
:1023A0000895B6018C2F0E9490110E94CE0A0197C9
:1023B00061F3EECFCF93DF93EC010E94AB11BE012E
:1023C0000E9490110E94CE0ADF91CF910895FC01E6
:1023D000808191810E94DA1192959F70963091F0E0
:1023E00058F4925F9F70923058F4803F19F030F4A7
:1023F000883E30F481E008959A5FF4CF843FD1F3B2
:1024000080E00895883EB0F3813FD1F7F3CF83E2B7
:1024100090E00E947036823289F484E290E00E945B
:102420007036863059F485E290E00E94703691E073
:10243000883209F090E0892F8170089580E0FCCF08
:10244000CF9384E090E00E947036C82F82E290E043
:102450000E947036982F8C2FCF9108958091F503AC
:102460009091F603892B809306039091F7039923AB
:10247000A1F0892B8093060380917A018823E1F1F2
:102480008091AE0787FF38C08EE1E8E0F3E090E08E
:102490008150A0F591110E94560C40E250E069E88D
:1024A00073E086E093E00E944A36892B21F180E2B6
:1024B000E6E0F3E0A9E8B3E001900D928A95E1F738
:1024C000E091A507F091A6073097A9F080917A01D5
:1024D000882359F08091AE0787FF07C080910603DB
:1024E0008093070386E0809306030280F381E02D4A
:1024F00086E093E00995089586E0C7CF21912223D5
:1025000039F29F5FC5CF90E080E00E94CF0890E055
:1025100080E00E94B9081092F6030E942E120895DE
:102520008093E5070E94831208958091E507982F14
:102530009670963021F488600E9490120895877FEB
:10254000FBCF21E030E001C0220F8A95EAF7209509
:102550008091E50782230E9490120895909188034C
:102560008095892380938803282F277091F4282F42
:10257000082E000C330B9217130659F09091AF07F9
:1025800092FF07C08595859585950E94A1121092AE
:1025900088030895CF93C091AF07C2FB992790F9A4
:1025A000981791F080FBC2F9C093AF076091AE0716
:1025B00084E090E00E948E366C2F82E290E00E94D0
:1025C0008E3682E00E94AE12CF91089521E030E075
:1025D00001C0220F8A95EAF78091E507822B0E94BD
:1025E000901208958093EC030E948312089588232B
:1025F00021F00E94660C0E942E120895882339F063
:102600009091F503982B9093F5030E942E12089554
:10261000882351F19CEF980F913A40F4682F86E09F
:1026200093E00E945A080E942E12089590E2980F9B
:10263000983050F4877091E001C0990F8A95EAF7BD
:10264000892F0E94660CEFCF9BE5980F933028F4FA
:1026500090E080E00E94CF080895885A873120F4E6
:1026600090E080E00E94B9080895CF93C82F882396
:10267000D9F18CEF8C0F813AC8F580917A018823CB
:1026800011F18091AE0787FF1EC0EC2FE695E6950D
:10269000E695F0E0EA5FFC4F828190E04C2F4770B6
:1026A00021E030E002C0220F331F4A95E2F7822377
:1026B0009323892B91F06C2F86E093E00E945A08B7
:1026C0000E942E120AC0E8E0F3E08EE093E0219130
:1026D000C21789F38E179F07D1F76C2F86E093E01E
:1026E0000E9484080E942E12CF91089580E28C0FE0
:1026F000883068F4C77021E030E001C0220FCA952D
:10270000EAF78091F503822B8093F503EBCFEBE59D
:10271000EC0FE33040F4F0E0E258FE4F808190E0AF
:102720000E94CF08E1CFC85AC731F0F6EC2FF0E095
:10273000EE0FFF1FEF57FE4F808191810E94B90875
:10274000D3CF1F93CF93DF93182FCAE0D0E0893304
:1027500011F4C0E5D0E0812F0E9435138FE99FE08E
:102760000197F1F700C000002197C1F7812F0E9467
:102770000813DF91CF911F9108951F93CF93DF939B
:10278000162F8A3039F481E00E946014DF91CF91D6
:102790001F9108958D3011F480E0F6CFC0919A0713
:1027A000D0919B0796E0FE01A4E9B7E001900D925D
:1027B0009A95E1F7803E90F186E0FE0111928A95AC
:1027C000E9F7C0919A07D0919B07111133C046E0F9
:1027D00050E0BE0184E997E00E944A369E012459E8
:1027E0003540892B91F52A5F3F4F40919105642F29
:1027F00070E0C9010E945D34481B463010F4240F7C
:10280000311D211572E0370710F030E020E02C5622
:102810003A4F30939B0720939A07B8CFF6E08F9FEB
:10282000B0011124665B7B4F46E050E0CE010E9470
:102830001635C7CF9E012A5F3F4FFE012E173F0777
:1028400031F2808180958193F9CFC90145E0969559
:1028500087954A95E1F741E050E0BA0102C0660F62
:10286000771F8A95E2F7CB016091920570919305ED
:10287000862B972BB9016B5F7F4FE5E076956795C7
:10288000EA95E1F702C0440F551F6A95E2F7842BE1
:10289000952B9093930580939205A5CF1F93CF938B
:1028A000DF93EC01162FFE018491811104C0DF91AA
:1028B000CF911F910895612F0E94BD132196F3CFF0
:1028C000CF93382FE0919A07F0919B07E459F54098
:1028D00020919105622F70E0CF010E945D34281B8A
:1028E000822F332369F066E00E94A834C82FC150BC
:1028F00010F4CF91089560E080E20E94BD13F7CFFD
:102900009F01280F311D2115324018F080E0F0E0C2
:10291000E0E08E0F9F2F911D8C569A4F90939B074E
:1029200080939A07E6CF0E944E1481E00E946014C3
:1029300008951092F50380917A01E8E0F3E088238E
:1029400061F08091AE0787FF08C08EE1DF011D9224
:102950008A95E9F70E948312089586E0F7CFAAE2EC
:10296000B0E0E5EBF4E10C9480348AED97E020913F
:10297000F100DC012D93CD01B7E0823E9B07B9F752
:102980008091DB07833009F472C0B8F4813009F418
:1029900049C0823009F4B3C08091E80083FF8BC244
:1029A0008091DA079091DB079A3008F084C2E92F12
:1029B000F0E0EC54F94C0C94E7348A3009F48EC002
:1029C0008B3009F471C0893039F78091DA07813290
:1029D00019F78091DE079091DF07009711F00297B9
:1029E000D9F68091E800877F8093E8008091E80025
:1029F00082FF38C09091F3008091F200029731F489
:102A00008091F100813011F0863021F48091F10045
:102A10008093B5078091E8008B778093E8000E944F
:102A20002E07BACF8091DA07813A09F0B5CF8091AD
:102A3000E800877F8093E8008091DE079091DF07B0
:102A4000892B61F460E286EB97E070E00E94DA0780
:102A50008091E8008B778093E8009ECF60E090E063
:102A600080E0F3CF8091D8078111C0CF95CF8091BE
:102A7000DA07813A09F090CF8091DE079091DF0765
:102A8000892B09F089CF8091E800877F8093E80047
:102A90008091E80080FFFCCF80917A018093F10063
:102AA0008091E8008E77B9CF8091DA07813209F002
:102AB00073CF8091DE079091DF07892B09F06CCFEF
:102AC0008091E800877F8093E8000E942E07809124
:102AD000DC0780937A010E9499145ECF8091DA0717
:102AE000813209F059CF8091E800877F8093E80018
:102AF0000E942E078091DD078093B4074DCF80910F
:102B0000DA07813A09F048CF8091E800877F809307
:102B1000E8008091E80080FFFCCF8091B407BECF31
:102B2000803899F0823809F0C6C18091DE078F7035
:102B3000873008F0C0C18093E9008091EB0085FBED
:102B4000882780F91092E90006C08091D6079091FD
:102B5000D707911182609091E800977F9093E800E9
:102B60008093F1001092F1008091E8008E779FC170
:102B7000882309F48DC1823009F09DC18091DC0762
:102B8000811190C18091DE078F702FEF280F2630C2
:102B900008F091C18093E9002091EB0020FF82C1F1
:102BA000933031F48091EB0080628093EB007AC126
:102BB0009091EB0090619093EB0021E030E001C038
:102BC000220F8A95EAF72093EA001092EA0080919A
:102BD000EB008860EACF81116EC11091DC071F778E
:102BE0008091E3008078812B8093E3008091E8005E
:102BF000877F8093E8000E942E078091E80080FF85
:102C0000FCCF8091E30080688093E30082E01111A3
:102C100083E08093D8074FC18058823008F04BC1C1
:102C20002091DC073091DD072C3DE3E03E07A1F564
:102C300083E08A838AE289834FB7F894DE01139692
:102C400020E03EE051E2E32FF0E050935700E491A2
:102C500020FF03C0E295EF703F5FEF708E2F90E092
:102C6000EA30C0F0C7968D939D932F5F243159F7BA
:102C70004FBF8091E800877F8093E8006AE270E0B0
:102C8000CE0101960E94DA078091E8008B7780934D
:102C9000E80011C1C096E7CF8091DE079091DF0771
:102CA000432F55274330510509F44AC078F5413088
:102CB000510509F47AC08BE590E0EEE8FCE0423083
:102CC000510509F0F8C02091E800277F2093E80023
:102CD0002091E0073091E1078217930708F49C01E7
:102CE00040E02115310509F065C0411163C08091B4
:102CF000E80082FDC9CF8091D807882329F285306A
:102D000019F28091E80083FFF2CFBECF4132510526
:102D100009F43CC04232510509F0CDC08330910521
:102D200008F0C9C0FC01EE0FFF1FE950FD4F0190F4
:102D3000F081E02D8C509D4FDC018C9190E01AC009
:102D4000332721303105D1F02115310561F02230D2
:102D5000310509F0B0C0EBEFFCE0E4918E2F90E07C
:102D6000EBEFFCE007C0E5E2FDE0E4918E2F90E0A0
:102D7000E5E2FDE0009709F49EC0A5CFE9E0FDE0A3
:102D8000E4918E2F90E0E9E0FDE0F4CF83309105EF
:102D900008F091C0880F991FFC01E350FD4F01908E
:102DA000F081E02D89E090E08ECF82E190E0E9EEC5
:102DB000FCE089CF8091D807882309F465CF85305E
:102DC00009F462CF8091E80083FD5ECF8091E80036
:102DD00082FD8DCF8091E80080FF83CF9091F3003A
:102DE0008091F2002115310519F08830910550F0DD
:102DF00041E0089709F040E08091E8008E778093E9
:102E0000E8006FCF44914093F10031962150310991
:102E10000196E8CF803809F04EC08091E800877FA6
:102E20008093E8008091D9078093F1009DCE8111B5
:102E300042C01091DC071230F0F58091E800877FE6
:102E40008093E8001093D9070E942E07112311F0F8
:102E500084E005C08091E30087FDFACF81E0809394
:102E6000D80742E061EC81E00E944D0742E261EC4C
:102E700084E00E944D0742E261EC82E00E944D072F
:102E800042E260EC83E00E944D078091D80713C0B6
:102E90008091DC07813079F481E0933009F080E0A3
:102EA0008093D7071092E9008091E800877F809394
:102EB000E8000E942E078091E80083FF0AC08091FD
:102EC000E800877F8093E8008091EB008062809328
:102ED000EB00AA96E3E00C949C340E9499142FEF27
:102EE00084E39CE0215080409040E1F700C0000066
:102EF00088E19AE00FB6F894A895809360000FBE21
:102F000090936000FFCF46E050E06CE170E083EB0F
:102F100094E00E947E361092B2040895B0E0A0E0E2
:102F2000E4E9F7E10C9473346091A9047091AA0468
:102F30008091AB049091AC040E9448106B017C011D
:102F40000E942E104B015C018092A9049092AA0469
:102F5000A092AB04B092AC04A0915704E7E5F4E072
:102F60008A2F90E04FEF5FEF60E070E04C195D0951
:102F70006E097F09A91320C0809357048091B10482
:102F8000C0E0811108C08091B304C82FC37019F04C
:102F9000C82FC695C695809179018130B9F18823F3
:102FA000F1F0823009F4E9C0833009F4EAC0CDB70A
:102FB000DEB7E0E10C948F34218D328D2901712C24
:102FC000612C441555056605770520F481509F5FF7
:102FD0003296D0CF2C0D3D1D328F218FF8CF10921D
:102FE00076018092AD049092AE04A092AF04B092AC
:102FF000B00489E2E7E5F4E0A0E8B4E001900D92C6
:103000008A95E1F781E080937901D1CF8C2F0E94DE
:10301000A50ECC2361F2E09076018FE0E89E802D32
:10302000112421EF922E980EE82E28E4281710F490
:1030300098E4E92E0E946D0EC92DD0E081FD33C0C9
:103040008091E5070E94FE0C182F882309F4AFCF6A
:1030500080EEC82E81E0D82EF12C560100E0F5015B
:10306000C1915F01C91508F44BC0EC1608F448C0C3
:10307000602F7F2D812F0E94901181159C45B1F406
:1030800020E040E068E78C2F90E038C0FE01E45576
:10309000FD4F808182FF06C026E446E466E4CE014F
:1030A0000E94BB092196EC1688F7CACF602F7F2DAE
:1030B000812F0E9490118E3D9C4511F3602F7F2D32
:1030C000812F0E949011029708F441C0D0E0133084
:1030D00089F030F4113061F0123009F128E70BC0AB
:1030E000153099F1C8F020E01630C1F748E724C048
:1030F00028E7FCCF20E048E768E7CE010E94BB0943
:103100000F5F063009F0ABCFF39486E0C80ED11CF8
:10311000EAE0FE12A2CF4BCF28E740E0EDCF602FD0
:103120007F2D82E00E9490118730910561F030F48C
:10313000049749F020E040E060E0DFCF8631910560
:1031400011F04A97B9F720E0E8CF28E7F4CF602FD5
:103150007F2D812F0E9490112AE04AE06AE00197BA
:1031600009F491CF602F7F2D812F0E949011892B20
:1031700039F620E040E060E086CF8C2F0E94AE0957
:1031800016CF8091B20481110E9483176091AD0423
:103190007091AE048091AF049091B0040E944810E9
:1031A000603171058105910508F401CF1092790114
:1031B000FECEE3EBF4E089E0808380917B01909187
:1031C0007C01A0917D0181839283A3838FE7848317
:1031D0008FEF85830E9483170895B0E0A0E0E3EFAE
:1031E000F8E10C947C347901C82F880FDD0B411570
:1031F0005105A9F0FE0193E0EE0FFF1F9A95E1F74C
:10320000EA5FFE4F818192818B549C4F208130E098
:103210004217530708F49A01A9010E945736CE01BC
:103220000E94E733D82E8823D1F001151105B9F09B
:1032300083E0CC0FDD1F8A95E1F7FE01EA5FFE4FC8
:10324000438150E00417150708F4A801CA5FDE4F58
:103250006C817D816B547C4FC7010E9457368D2D48
:10326000CDB7DEB7E7E00C949834A3E0B0E0EBE331
:10327000F9E10C947F348091F8039091F903A091C7
:10328000FA03B091FB032FB7F8944091AA0750912D
:10329000AB076091AC077091AD072FBF481B590B6E
:1032A0006A0B7B0B81E0443651056105710508F41A
:1032B00080E09091F50399834436510561057105CD
:1032C00020F42091C903291381E09091F6039A8399
:1032D000811106C081E02091CA03291301C080E05A
:1032E0009091F7039B83811105C08091CB0311E07E
:1032F0008917C9F010E000E030E020E043E050E042
:10330000BE016F5F7F4F89E00E94ED18182F882360
:1033100051F00E944E086093F8037093F903809374
:10332000FA039093FB03812F2396E4E00C949B34E3
:10333000A4E0B0E0EEE9F9E10C947F344091E403BD
:103340005091E5036091E6037091E7032FB7F8947D
:103350008091AA079091AB07A091AC07B091AD07FF
:103360002FBF841B950BA60BB70B11E0843691057C
:10337000A105B10518F10E942E106E5F7F4F8F4F8F
:103380009F4F69837A838B839C8310E000E030E059
:1033900020E044E050E0BE016F5F7F4F85E00E9477
:1033A000ED18182F882351F00E944E086093E40313
:1033B0007093E5038093E6039093E703812F2496AF
:1033C000E4E00C949B348F929F92AF92BF92EF9265
:1033D000FF920F931F93CF937B01942FB901A80104
:1033E000F70180809180A280B380EFB7F8940091BC
:1033F000AA071091AB072091AC073091AD07EFBF42
:10340000081919092A093B09043611052105310556
:1034100018F4C1E0992381F010E000E030E020E0F2
:103420000E94ED18C82F882339F00E944E08F7013A
:1034300060837183828393838C2FCF911F910F912F
:10344000FF90EF90BF90AF909F908F9008950F9353
:103450001F9341E09091C6038091E507981301C046
:1034600040E001E010E025EE37E06DEE73E086E02D
:103470000E94E319882389F041E09091C70380916D
:10348000EC03981301C040E001E010E02CEE33E0C3
:1034900068EE73E087E00E94E3191F910F91089591
:1034A000CF92DF92FF920F931F93CF93DF93F82E6B
:1034B0006B01EA01A801B901CE010E944A3641E040
:1034C000892B09F440E09E01B6018F2D0E94E3197B
:1034D000DF91CF911F910F91FF90DF90CF900895D2
:1034E000A7E0B0E0E6E7FAE10C947F3486E0E3EB96
:1034F000F4E0DE01119601900D928A95E1F780913A
:10350000B1048F8307E010E02CEC33E0AE014F5F95
:103510005F4F6CEF73E08AE00E94501A2796E4E058
:103520000C949B34A1E0B0E0E8E9FAE10C947F341C
:103530000E946D0E898301E010E028EC33E0AE01BB
:103540004F5F5F4F61EF73E088E00E94501A219651
:10355000E4E00C949B340F931F9305E010E02BEBF9
:1035600033E0AC016CED73E082E00E94501A1F91D1
:103570000F910895A1E0B0E0E0ECFAE10C9476340C
:10358000762E4A015901680101E010E09E012F5F8B
:103590003F4F50E040E070E060E00E94ED18182FCF
:1035A000882309F440C0F401408151816281738114
:1035B0002FB7F8948091AA079091AB07A091AC0720
:1035C000B091AD072FBF841B950BA60BB70B8436AC
:1035D0009105A105B10538F4B701C6010E94E508BF
:1035E0009981891701F18701950150E040E070E071
:1035F00060E0872D0E94ED18B82EB701C6010E9429
:10360000E50811E09981981310E01B2139F00E9420
:103610004E08F4016083718382839383812F219606
:10362000EDE00C949234A701B601C5010E94573613
:10363000F5CFA5E0B0E0EFE1FBE10C947B346B014A
:1036400085E0E82EF12C06EB13E09E012F5F3F4F43
:1036500048ED53E061E080E00E94BA1A882349F007
:1036600095E0FE013196A3EDB3E001900D929A959D
:10367000E1F795E0E3EDF3E0D60101900D929A9524
:10368000E1F72596E8E00C94973490E080E00E9402
:103690007836883E9E4F19F40E940712089580E004
:1036A000089568EE7EEF90E080E00E94AC3660E026
:1036B00082E090E00E948E3660E083E090E00E941D
:1036C0008E361092EC0360E084E090E00E948E362B
:1036D00064E082E290E00E948E3660E085E090E057
:1036E0000E948E3660E086E090E00E948E366FEF9A
:1036F00087E090E00E948E3640E050E0BA0188E01A
:1037000090E00E94A03660E08DE090E00E948E364E
:1037100040E050E0BA0188E190E00E94A03660E00D
:1037200087E190E00E948E3640E050E0BA018CE1E3
:1037300090E00E94A03670E060E080E290E00E949D
:10374000AC3640E050E0BA0188E190E00E94A0363B
:1037500080E00E94FF100E94181140E050E0BA0182
:103760008FE090E00E94A03640E050E0BA0183E193
:1037700090E00E94A03608951F920F920FB60F920C
:1037800011242F933F934F935F936F937F938F9366
:103790009F93AF93BF93CF93DF93EF93FF93D0911A
:1037A000E900DF708091EC00C82FC17080FDC0E897
:1037B0001092E9008091F000877F8093F000789468
:1037C0000E94AF141092E9008091F000886080930D
:1037D000F000CD2BCF70C093E900FF91EF91DF9106
:1037E000CF91BF91AF919F918F917F916F915F9199
:1037F0004F913F912F910F900FBE0F901F901895F2
:103800001F920F920FB60F9211242F933F934F9355
:103810005F936F937F938F939F93AF93BF93EF9338
:10382000FF938091E10082FF09C08091E20082FF56
:1038300005C08091E1008B7F8093E1008091DA00E8
:1038400080FF24C08091D80080FF20C08091DA00E2
:103850008E7F8093DA008091D90080FF9DC080E147
:1038600089BD82E189BD09B400FEFDCF81E080936E
:10387000D8078091B307811109C00E94B4060E9445
:103880007F078091E20084608093E2008091E100F4
:1038900080FF17C08091E20080FF13C08091E2009A
:1038A0008E7F8093E2008091E20080618093E2004D
:1038B0008091D80080628093D80019BC85E0809305
:1038C000D8078091E10084FF2BC08091E20084FF43
:1038D00027C080E189BD82E189BD89B5982F9170AB
:1038E00080FFFBCF8091D8008F7D8093D80080919E
:1038F000E1008F7E8093E1008091E2008F7E8093D3
:10390000E2008091E20081608093E2008091D9071B
:10391000882309F447C084E08093D8078091D807B2
:103920008091E10083FF27C08091E20083FF23C0E4
:103930008091E100877F8093E10082E08093D80747
:103940001092D9078091E1008E7F8093E1008091F1
:10395000E2008E7F8093E2008091E200806180939C
:10396000E20042E060E080E00E944D078091F000BC
:1039700088608093F000FF91EF91BF91AF919F918C
:103980008F917F916F915F914F913F912F910F9008
:103990000FBE0F901F90189519BC1092D807109267
:1039A000B30774CF8091E30087FD93E09093D8072D
:1039B000B5CF78941F921FB61F9211248F939F93B7
:1039C000AF93BF938091AA079091AB07A091AC07EA
:1039D000B091AD070196A11DB11D8093AA079093E8
:1039E000AB07A093AC07B093AD07BF91AF919F9188
:1039F0008F911F901FBE1F9018959C014FB7F89490
:103A00008091AA079091AB07A091AC07B091AD0748
:103A10004FBF821B930B08952FB7F8948091AA078C
:103A20009091AB07A091AC07B091AD072FBF08955F
:103A30000F931F93CF93DF93C62FD42F022FFC0138
:103A400082818823A9F06093E4070E940C1D909363
:103A5000E3078093E207C77081E001C0880FCA9531
:103A6000EAF70E94FE12DF91CF911F910F91089506
:103A70008091E407681332C08091E2079091E307D8
:103A80000E94FD1C883C910548F510E21D0FCD17E2
:103A9000B9F080E28C0F883040F4C77081E001C03B
:103AA000880FCA95EAF70E94F712183048F481E0AF
:103AB0009D2F977001C0880F9A95EAF70E94FE1219
:103AC000802F0E94A113183070F6D77081E001C0DA
:103AD000880FDA95EAF70E94F712C5CFC77081E028
:103AE00001C0880FCA95EAF7F6CFA5E0B0E0EBE792
:103AF000FDE10C9472348C01FC0183819481892B4B
:103B000031F08081918189238F3F09F0B0C62596DD
:103B1000E1E10C948E340E94AB11F82E682F89815C
:103B20009A810E94E40C69817A818F2D0E94901104
:103B30007C01F8019281992309F48CC697012251E6
:103B40003F452031310508F05BC68FEF93E00E94BE
:103B50007036811128C0FEEEEF0E57E2852E53E03D
:103B6000952EE11032C01C821B82442443944AE00B
:103B7000342E74018FEFE81AF80AC4010E947036DF
:103B800089831A82882379F09FEF980F933058F534
:103B90008A83498292E0890E911CC7010E94703687
:103BA0008B83811121C080918803877009F4AFCF86
:103BB000F8018281882309F4AACF8091AF0782FFA0
:103BC000A6CF82E00E94AE12A2CF811424E092061A
:103BD00051F3C4010E947036811101C0EA943FEF95
:103BE000831A930ABECF4701FE0131967F01F70188
:103BF0002081222309F4BDCF213009F047C09181F3
:103C00008281913031F4F2E0EF0EF11C0E94A11399
:103C100007C0923049F422E0E20EF11C0E943513F5
:103C20003FEFE31AF30AE3CF933031F432E0E30ECF
:103C3000F11C0E940813F4CF943021F08FEFE81AA2
:103C4000F80AEECF92E0E90EF11C30E020E0B70177
:103C50006F5F7F4FF70141818053990B8A30910547
:103C600050F021503109E0F28FE99FE00197F1F720
:103C700000C00000F6CF329EF001339EF00D1124FB
:103C80009C012E0F3F1F842F7B01E1CFE22FF0E03C
:103C9000EB5DFD4F5490822F86958695869590E03A
:103CA000FC01EB5EFD4F64902770712C022E02C068
:103CB000759467940A94E2F7E1E06E227724FC01A0
:103CC000EB5FFD4FA490B12C022E02C0B594A794D7
:103CD0000A94E2F7F1E0AF22BB24FC01EB50FE4F67
:103CE000C490D12C02C0D594C7942A95E2F721E064
:103CF000C222DD246114710419F081EE0E94351393
:103D0000A114B10419F086EE0E943513852D0E948E
:103D1000A113A114B10419F086EE0E9408136114D6
:103D2000710419F081EE0E940813C114D10409F442
:103D300077CF8CE26BCF81E00E94E6120E94951251
:103D400032CF81E00E94A112F9CF82E0F5CF9091AD
:103D50002F03992309F4CAC18CE40E94081310921E
:103D60002F0321CFF3EFEF16FCE5FF0609F485C022
:103D700008F068C038EDE3163CE5F30609F479C0B5
:103D8000E9EDEE16ECE5FE0609F483C0F7EDEF165B
:103D9000FCE5FF0609F469C0992309F479C510927E
:103DA000E407F3E0EF16FDE5FF0608F075C02AEF23
:103DB000E2162CE5F20638F4970122503C452431F6
:103DC000310508F075C00E9420129093AF078093D0
:103DD000AE07F1E1EF16FCE5FF0609F457C108F064
:103DE000C6C039E0E3163CE5F30609F43DC108F02E
:103DF0008BC095E0E9169CE5F90609F429C108F0A5
:103E000070C0F3E0EF16FCE5FF0609F417C108F0F7
:103E10001BC18091AE07816032E0E3163CE5F306FA
:103E200009F40FC16091AE07F090AF0784E090E015
:103E30000E948E366F2D82E290E00E948E360E94A4
:103E40009914B1CE25EFE2162CE5F206F1F0C8F098
:103E500027E245EE66EEE6EFEE16ECE5FE0609F02B
:103E60009BCFC8010E94181D9ECE26E241EE61EE56
:103E7000F8CF27E245EE65EEF4CF26E241EE60EEA4
:103E8000F0CF27E245EE64EEECCF26E241EE62EEA3
:103E9000E8CF28E241E0EFCF31E6E3163DE5F30657
:103EA00009F491CFE5EAEE16EDE5FE0609F48BCFB5
:103EB000E6E1EE16ECE5FE0609F016C1992309F4D9
:103EC000EDC48A7A91E009F490E09093310369E2BD
:103ED000811165E386E093E00E9484080E942E121F
:103EE00062CE87E0E8168CE5F80609F4B9C0809147
:103EF000AE07806198E0E9169CE5F90608F4A1C0D8
:103F00008091AE0780649DC08091AE078B7FEDE00D
:103F1000EE16ECE5FE0609F494C0B0F48091AE070D
:103F20008E7F2BE0E2162CE5F20609F48AC0809120
:103F3000AE078C603CE0E3163CE5F30608F481C074
:103F40008091AE078D7F7DC08FE0E8168CE5F80686
:103F500009F498C08091AE07877F90E1E9169CE54F
:103F6000F90608F46EC08091AE078F7D6AC0EDEF50
:103F7000EE16ECE5FE0609F481C060F525E1E216D7
:103F80002CE5F20609F490C088F483E1E8168CE58C
:103F9000F80609F485C008F47DC00E949914909138
:103FA000AE07892F97FB87F980584BC0EBEFEE16D1
:103FB000ECE5FE0609F450C008F05CC08091AF0744
:103FC00081602AEFE2162CE5F20609F02BCF8093F0
:103FD000AF0728CF31E0E3163DE5F30609F470C0E2
:103FE000C8F48091AF078C7F9FEFE9169CE5F90636
:103FF00071F38091AF078360E114EDE5FE0638F3BD
:104000008091AF07982F909591708E7F892B90FBB0
:1040100081F9DDCFF1E6EF16FDE5FF0609F456C0A4
:1040200025EAE2162DE5F20609F457C032E0E31660
:104030003DE5F30609F0F6CE60E043C08091AE079F
:1040400082608093AE07EECE8091AE078460F9CF98
:104050008091AE078860F5CF8091AF078260B7CFBF
:104060008091AE078062EDCF0E9499148091AE07D7
:104070008068E7CF8091AF078E7FA9CF8091AF078F
:104080008D7FA5CF8091AE078F7EDBCF8091AE076D
:104090008F7BD7CF0E9499148091AE078F77D1CFB5
:1040A0008091AE07837FCDCF8091AE0782FB9927A9
:1040B00090F921E0922790FB82F990FB83F9C1CF20
:1040C00061E08EE090E00E948E36ACCE9091AE071B
:1040D000892F8F7E94FF8061B4CF9091AE07892F96
:1040E0008E7F90FF8160ADCF9111E1C08272F9ECBB
:1040F000EF16FCE5FF0609F4D2C008F07DC035ECF0
:10410000E3163CE5F30609F4C5C008F05CC0E3EC37
:10411000EE16ECE5FE0609F4B1C008F0B6C022ECDC
:10412000E2162CE5F20609F49BC0F8018281E080DA
:10413000F180882309F4F7C0C7010E94AB11D82E83
:10414000682FC7010E94E40CB7018D2D0E949011C9
:104150000E94CE0AE82ED92EA82EF801F280B58052
:10416000B2943FE0B322809188038770E9F09F2CDE
:10417000FF20D9F0892F807F803449F090E29E0D96
:10418000983090F0803619F4F6EFEF1669F08091D0
:10419000AF0782FF09C082E00E94AE1280918803BF
:1041A0008770992493948111912C8D2C82942FE007
:1041B00082222BE0281508F425C1E82DF0E0E25416
:1041C000F94C0C94E7344CE459E06AE579E037ECBB
:1041D000E3163CE5F30609F455C043E759E068E609
:1041E00079E098ECE9169CE5F90608F44BC04AE53D
:1041F00059E06CE479E046C0EDECEE16ECE5FE0625
:1042000009F452C0B8F441E059E06FE079E02BECDA
:10421000E2162CE5F206B1F14EE359E060E379E0F5
:104220003CECE3163CE5F30668F14FE059E061E051
:1042300079E028C086EDE8168CE5F80658F461E0D0
:1042400082E09FECE9169CE5F90608F0ACCC0E94F0
:104250007E09A9CCEDE5EE16FE0609F4A4CC65CFE7
:104260008091B30491E089278093B304109279017F
:104270008091B20481608093B20495CC47E959E003
:1042800062EA79E00E94FB088ECC42EA59E067E9D5
:1042900079E0F8CF48E659E063E779E0F3CF40E30F
:1042A00059E06EE379E0EECF61E081E0D0CFFAE54E
:1042B000EF16FDE5FF0699F168F4E1143CE5F3061D
:1042C000B9F08EEDE8168CE5F80609F02ECF0E94C5
:1042D000511B0CC09CE5E9169DE5F906B1F008F10B
:1042E000F7EAEF16FDE5FF0609F01FCF0E946D17F4
:1042F0000E9499142FEF34E38CE02150304080402D
:10430000E1F700C000000E943D088091AF0782FBEA
:10431000882780F991E089270E94CA1206CF81E0A0
:10432000FBCF80E0F9CFC7010E949E0CD82E0CCFA6
:104330003D2D3F70C32E8D2D807F19F0C29490EFDC
:10434000C922FF20B9F0CC2069F080E28E0D8830C0
:1043500010F0A11009C08091F503C82AC092F5039E
:104360000E942E128E2D4CC08091F603C82AC09256
:10437000F603F6CF8E2D0E940813CC2009F442C01C
:1043800080E28E0D883010F0A11004C08C2D0E94A8
:10439000660C06C0C0948091F603C822C092F60352
:1043A0000E942E122FC08D2D8F70C82E8D2D807FD4
:1043B000803219F0C29480EFC822AA2089F091E0DF
:1043C000A91609F474C0FF2009F47EC0BB2009F4CB
:1043D00074C0F801858180FFC5CF8F7085836DC063
:1043E0008091AF0782FD46C0FF20F1F1CC2039F06B
:1043F0008091F503C82AC092F5030E942E1280E036
:104400000E943513282D2850330B2430310510F429
:104410000E946D0EFF2079F08D2D807F803619F47B
:1044200036EFA31641F080913203823009F0E0C1EB
:1044300083E080933203992009F469CB809188034B
:1044400080FD65CBF80112828595859585950E9442
:10445000E612C8010E94751D809188038595859597
:1044600085950E94A11253CB80E00E940813CC20B6
:1044700049F28CCFFF2071F08091F7038C29B110A5
:1044800003C00E94FE12BECFE1E0BE12FACF0E942E
:104490005C0CB8CFB11006C00E94560C8C2D0E9447
:1044A000F712B0CFF1E0BF1609F4ACCFF5CFFF2083
:1044B00031F025E02B1508F4A5CF8C2DE2CF34E0A8
:1044C0003B1508F49FCFEACFBB2041F3F9E3AF12CD
:1044D00018C12FEF37EE83E0215030408040E1F7E4
:1044E00000C000008E2D0E9408138CCF8D2D869564
:1044F0008695837069F0813009F084CF8E2D9D2DD3
:104500009370F11002C090E080E00E94B9087ACF69
:104510008E2D9D2D9370F11002C090E080E00E94DE
:10452000CF0870CF8D2D837091F5F1106BCF4E2D8C
:10453000429546954770440F440F8E2D8F70042E80
:1045400001C0880F0A94EAF72E2D2071E4FE07C0FF
:104550002FE030E001C0220F4A95EAF720953D2D6B
:10456000369536953370323069F050F44091EC0353
:10457000313029F0822B84230E94F21243CF842B06
:10458000822BFACF282B8091EC038227F5CF8695DA
:10459000FF2011F08D2D8170882309F433CF4E2D2B
:1045A000429546954770440F440F8E2D8F70042E10
:1045B00001C0880F0A94EAF72E2D2071E4FE07C08F
:1045C0002FE030E001C0220F4A95EAF720953D2DFB
:1045D000369536953370323069F050F44091E507E6
:1045E000313029F0822B84230E9490120BCF842B30
:1045F000822BFACF282B8091E5078227F5CFFD2D5E
:10460000FF70CF2EFF2029F08F2F0E94E6128E2DF3
:1046100038CF8E2D0E94F7128C2D0E94A112F2CE5F
:104620008E2D22EFA216B1F12A1570F030EFA316ED
:10463000D1F091EFA91691F0FF2009F45DC0B110FF
:1046400091CE8D2D8F712AC0E3EFAE1651F1F4EFAC
:10465000AF12F2CF8091AF0782FD2FC08D2D8F71E9
:10466000FF20D9F21BC0FF2081F024E02B1508F4B5
:10467000C9CE2D2D2F7181E090E001C0880F2A95C1
:10468000EAF79091E5078927AFCF35E03B1508F4AD
:10469000B9CEEFCF8D2D8F71F110BFCF0E94E612F2
:1046A000B1CE80E0FF2009F49FCF81E09D2D9F7166
:1046B00001C0880F9A95EAF797CFFF2091F08D2DD2
:1046C0008F71E82E0E94E6128091AF0782FF07C02B
:1046D000E8E0EE9EC00111248360809388038E2D54
:1046E000DDCF81E00E94AE12F1E0FB1508F08ACE2A
:1046F00082E00E94AE1286CEBB2041F0893309F4DD
:10470000E8CEEFE3FCE93197F1F7EACE8D2D8F711A
:1047100084CFE0E1EE0DE73008F03FC0F0E0E65373
:10472000F94C0C94E734FF2009F46CCE80914F03D0
:1047300091E0892780934F0365CEF0924F0362CEBC
:1047400081E08F25F7CFF1105DCE81E0F3CFF1103E
:1047500059CE10924F0356CEFF2021F082E0809375
:104760003203F3CF80913203823021F481E08093D1
:10477000320348CE833009F045CE10923203E9CFA0
:10478000FF2039F080914E03882381F210924E036E
:1047900039CEF4E0FB1550F635CE80914E03BB20A8
:1047A000D9F0882341F080914F0391E089278093CD
:1047B0004F0310924E03F110D5CD8FE39CE9019782
:1047C000F1F700C000008E2D0E94081386E0F8016A
:1047D00011928A95E9F716CE882309F413CEF110C9
:1047E00011CE80914F0391E0892780934F03CECF64
:1047F000813009F020CE1092320310924F031BCE6D
:10480000F0E1EF16FFE5FF0609F495CA21E1E21693
:104810002FE5F20609F499CA8091F50380933003DD
:10482000EAE2EE16F10409F09DCA992309F48FCA51
:10483000282F227209F4B3CA82E20E94660C8CE42B
:104840000E94351381E080932F0380913003809381
:10485000F503A9C930E1E3163FE5F30609F471CA8F
:1048600081E1E8168FE5F806B9F682E06BCA85E0CB
:10487000DE01119601900D928A95E1F7F8012281EF
:1048800089819A81211147C90E949E0CF82E4BC93B
:10489000F6E1EF16FCE5FF0609F028CC8091310324
:1048A00069E2811165E386E093E00E945A0816CB25
:1048B0001F93CF93DF9380915503807F09F049C008
:1048C00080915203882309F444C080918703D091DA
:1048D00056036091500370915103A0915303B0911E
:1048E0005403C62FC72316E0D81799F190E010970C
:1048F00011F0CF3F19F401968770F6CF189F900101
:10490000199F300D1124F901E95AFC4F41814713D9
:10491000F2CF40814613EFCF42814111ECCF43816A
:1049200054814A1B5B0B483C510528F78091550385
:104930008F70806180935503F901E45AFC4F8081A8
:104940008F708061808380E593E00E94751D0E94D6
:104950006D0CDF91CF911F910895A1E1B0E0E3EBE1
:10496000F4E20C9479348C0185E0F801DE011D96A7
:1049700001900D928A95E1F7F801E28080E5A82E7A
:1049800083E0B82E60915303709154036115710553
:1049900009F416C19091500340915103892F84234B
:1049A0008F3F09F40DC120813181C380D480F09004
:1049B0005203F601E61BF70BFF2009F4E8C08091D3
:1049C0005503582F507FE83CF10508F0ABC051115A
:1049D0006BC0FE2C431314C0921312C0E11010C020
:1049E0008F70806180935503C5010E94751D809171
:1049F0005503F80185838F2D6196EAE00C94953478
:104A0000C114D10429F0822F83238F3F09F001C103
:104A100080E0F82FF170DF2E80FF3CC0809187038B
:104A20004091560356E0841315C02D873E878D852F
:104A30009E850E94DA11292F22952F702230F0F0E6
:104A4000243018F59F70F1F0F8019581907FD1F432
:104A5000D12C1EC090E0589FF001599FF00D1124F9
:104A6000E95AFC4F6181361306C06081261303C0EA
:104A70006281E6120FC001968770D5CF9F7011F04A
:104A8000882331F3805E883018F3C8010E94751DB9
:104A9000FD2CB1CFEE2009F4AECF8091550381609B
:104AA00080935503F12CA7CF431312C0921310C06B
:104AB000E1100EC0F8018583C8010E94751D86E0D3
:104AC000F801A0E5B3E001900D928A95E1F793CF4C
:104AD000C8010E94E711882309F1EE20F9F08091C6
:104AE0005503803270F02091500330915103388784
:104AF0002F831986DB86CA868C87CE0107960E9493
:104B0000751D86E0F801A0E5B3E001900D928A954D
:104B1000E1F70E945824FF24F3946DCFC8010E944E
:104B2000751DF9CF51110AC080E593E00E94751DF3
:104B300086E0F50111928A95E9F7B4CF43130FC0CF
:104B400092130DC0E1100BC0F8018583C8010E94CB
:104B5000751D86E0F50111928A95E9F74CCFC801E1
:104B60000E94E7118823D1F2EE20C1F28091550313
:104B7000803238F220915003309151033A832983D7
:104B80001B82DD82CC828E83CE010196B8CFE83CB9
:104B9000F105F8F6FE2CEE2009F2431303C092173C
:104BA00009F48DCFC8010E94E7118111AACF80912D
:104BB0005503816080935503C8010E94751D1BCF6A
:104BC000EE2009F4ABCFC8010E94E711F82E88232C
:104BD00009F4A4CF86E0F801A0E5B3E001900D92BE
:104BE0008A95E1F780915003909151030E94DA1168
:104BF00092959F70963051F4863F41F080914F031B
:104C000091E0892780934F0390934E030E9458248C
:104C1000F2CE81E08E25FDCEA7E1B0E0E2E1F6E242
:104C20000C9480346D8B7E8B8F8B61111092F60308
:104C30008E899F89892BB9F15F3F09F0B3C04F3F3F
:104C400091F5542F30C0463070F5E42FF0E086E047
:104C5000589FE00DF11D1124CF018770992721E0A5
:104C600030E001C0220F8A95EAF7DF0173E0B695C4
:104C7000A7957A95E1F7A95DBC4F7C9180914F0390
:104C8000611102C0872F82238823A1F1CF01880FF1
:104C9000991FFC01E258FE4F5491FC01E358FE4F6E
:104CA0004491272B2C931A8A198A4B8B5C8B85E0B5
:104CB000FE017396DE011D9601900D928A95E1F733
:104CC00086E0FE013D96DE01179601900D928A95D1
:104CD000E1F7CE0107960E94AD24882389F016E003
:104CE0008091870390915603891349C06796E3E04A
:104CF0000C949C3420952723D5CF809582237AC0AD
:104D000086E0FE013796DE01119601900D928A959C
:104D1000E1F78A859B85892B11F38F8198858923FB
:104D20008F3FE9F22091560330E0C9010196877068
:104D30009927409187034817190671F40E94991426
:104D4000109256031092870386E0E0E5F3E0DF015E
:104D50001D928A95E9F7C3CF96E0929FD001939F69
:104D6000B00D1124A95ABC4FFE01319601900D924D
:104D70009A95E1F7809356030E946D0CB0CF819F06
:104D8000C0011124895A9C4F0E94AD24882309F444
:104D9000ADCF8091870390E001968770992780932B
:104DA00087039ECF5A3008F44ECF84E0850F8230BF
:104DB00008F079CFE42FF0E0242F277081E090E015
:104DC00001C0880F2A95EAF7DF0193E0B695A79511
:104DD0009A95E1F7AA5DBC4F2C9130914F03611178
:104DE00002C0322F3823332309F487CFE558FE4F12
:104DF0004491822B8C9357CFAAE0B0E0E2E0F7E237
:104E00000C947F34182F062F662399F10E940C1DF5
:104E10001E832DEF2F8321E0288781609A87898761
:104E20004E815F81688579858A850E940C268FE393
:104E30009FE10197F1F700C000000023F9F00E9404
:104E40000C1D19832DEF2A831B8281609D838C8327
:104E500049815A816B817C818D810E940C268FE370
:104E60009FE10197F1F700C000002A96E4E00C945E
:104E70009B340E940C1D1E832CEFCCCF0E940C1D76
:104E800019832CEFE0CFA1E0B0E0E9E4F7E20C9465
:104E90007A34EE24E394F12C01EC13E09E012F5FB1
:104EA0003F4F40EE53E064E083E00E94BA1AC82E00
:104EB000882339F100E080E01DC0D0901404D00EAA
:104EC0002D2D30E0A901405E5B4F7A01E1E0F0E07A
:104ED000EC0FFD1FE00FF11D1081FA019081191BED
:104EE000B12E1B149CF0912F17FD90E0191B11118E
:104EF00018C00F5F909113040917F8F281110E94F6
:104F0000530C8C2D2196E9E00C949634BA94F70159
:104F100080818F5F808360E08D2D0E94FC268C2D28
:104F2000E0CF1F5FF70180818150808361E08D2D8C
:104F30000E94FC268C2DDBCFAFE0B0E0E2EAF7E286
:104F40000C9471348E010F5F1F4F8AE0D8011D92BF
:104F50008A95E9F741EBC42E41E0D42EF12CE12CE7
:104F6000AA24A394B12CF60181916F018F3F09F41B
:104F700043C0F894E82FE295EF70F0E021A18F7024
:104F8000A50102C0440F551F8A95E2F7CA01922F6E
:104F9000982B91A392A18095892382A3789400C035
:104FA000E6EBF1E0912C31E021912F3F09F4B0C004
:104FB000A22FA295AF70B0E090968C9190E02F70E8
:104FC00002C0959587952A95E2F780FDA1C0832FB1
:104FD000982A330F51E0EC3BF50731F7F601319792
:104FE00080818F3F11F00E94740A80EA8A95F1F760
:104FF000F801EE0DFF1D90829FEFE91AF90AA5E076
:10500000EA16F10409F0AFCF4AE050E0B80187E0BA
:1050100094E00E944A367C01892B41F08AE0F80135
:10502000A7E0B4E001900D928A95E1F70091120497
:1050300010E0035B1B4FD090AC03DD2009F479C175
:105040000E940C1D2091AA033091AB03AC01421BBE
:10505000530B9093AB038093AA034F3F510511F07C
:1050600008F058C04115510509F44EC0642E6091F6
:105070000504709106041092AC031092A90390E00D
:1050800080E0712C512CAA24A394B12C30E020E0B4
:105090001801280E391EFC01E95FFB4F4F01FB018F
:1050A000E20FF31FC0804C2CE89440F84420E9F054
:1050B0004C2C4694BC2DB170CB2E4416150609F02D
:1050C00064F5B083B1112FC0F501022E01C0EE0FBF
:1050D0000A94EAF7FE2FF095D101CC90FC21D4017F
:1050E000CC90EC21EF2BD101EC932F5F3F4F26307A
:1050F0003105A9F66A5F7F4F01968530910531F63B
:105100005092AC037092A903E114F104B1F415C1FB
:1051100080E05ECF4FEF50E0A9CF4618440CC42882
:10512000C0825D2CE2CF7D2CE0CFD11006C00E9462
:105130000C1D9093AB038093AA038091050490917A
:105140000604C090AC0327E0222E24E0322EF801A2
:105150004C015EE1850E911C01E010E0D1017D90D3
:105160001D012081722630E020E05D01B1E0AB1A24
:10517000B108AC01420F531FB801022E01C0660FE7
:105180000A94EAF7DA01DC906D2CE89460F8572C69
:105190005622B9F061101CC0D501CC90C622DD2486
:1051A000D394C11001C0D12CBD2DBA60DB2EDA0121
:1051B000DC92D0FE03C0408164276083CC24C3947A
:1051C00007C0662029F0D0FC03C06D2D61706C9380
:1051D0002F5F3F4F2630310561F6069631968816CF
:1051E000990609F0BBCFC092AC0381E090E0E114D6
:1051F000F10409F4A6C02F96E2E10C948D3485E009
:10520000DA011D928A95E9F70E2F10E0035B1B4F20
:10521000809100048A3008F058C049E15BE1B70191
:10522000C8010E94170E882309F45FC04BEA5AE1B7
:10523000B701C8010E94170E882309F456C043E441
:1052400057E2B701C8010E94170E882309F44DC028
:1052500048E959E1B701C8010E94170E882309F4F3
:1052600044C047E25AE1B701C8010E94170E8823E3
:10527000E1F142E95AE1B701C8010E94170E882303
:10528000A1F145E359E1B701C8010E94170E882337
:1052900061F140E75AE1B701C8010E94170E882367
:1052A00021F1109200048091110490E045E050E05B
:1052B000B701835B9B4F0E944A3621E02093B303E2
:1052C000892B51F5D12C8D2D96CF8091AD039091E6
:1052D000AE030E94FD1C843F914008F09ECF809158
:1052E000B303811112C080E086CF809100048F3F0C
:1052F00029F08F5F809300048A30A8F20E940C1D71
:105300009093AE038093AD03EACF85E0F70111924D
:105310008A95E9F71092B303A0911104B0E0A35B62
:10532000BB4F85E0FE013B9601900D928A95E1F717
:10533000CACFE114F10409F0FACE8091A9038111DA
:10534000F4CE0E944A0ED82EE0911204AE01455FC1
:105350005F4F7A01811153CF0091110410E0035B7C
:105360001B4FF0E0E35BFB4F85E0A6EBB3E0019061
:105370000D928A95E1F765E070E086EB93E00E947C
:10538000E5088093B50385E0EBEBF3E0D8010190ED
:105390000D928A95E1F74091250450E06091240434
:1053A00070E0605E7B4FC7010E9457368B8580930B
:1053B000C10361E070E0C7010E94E5088093C0036B
:1053C000C090C203D090C303E090C403F090C50323
:1053D0008091AF039091B003A091B103B091B2035B
:1053E000C816D906EA06FB06D1F0C092AF03D092E8
:1053F000B003E092B103F092B2030E944A0E811111
:105400000EC00E944E08C61AD70AE80AF90AC092CE
:105410000104D0920204E0920304F092040480910B
:10542000C6038093E5078091C7038093EC038091C6
:10543000C8038093A2078091C9038093F5038091EC
:10544000CA038093F6038091CB030E945C0C86E034
:10545000ECECF3E0A3EBB4E001900D928A95E1F758
:105460001091D203112349F08091B104811105C03C
:105470000E94A50E80E00E94AE091093B10433CFC4
:105480001F921FB61F9211248F939F93AF93BF93C8
:105490008091A907811113C08091AA079091AB0751
:1054A000A091AC07B091AD074196A11DB11D8093AD
:1054B000AA079093AB07A093AC07B093AD07BF9139
:1054C000AF919F918F911F901FBE1F901895CDB7E0
:1054D000DEB7E1970FB6F894DEBF0FBECDBF85B73C
:1054E000806885BF85B7806885BF84B7877F84BFA4
:1054F0000FB6F894A8958091600088618093600051
:10550000109260000FBE80E890E00FB6F894809390
:105510006100909361000FBE82E79AE090930503CB
:10552000809304030E94B4060E947F078091E200EA
:1055300084608093E20078948091D8078823A1F05A
:105540001091E9001F709091EC00892F817090FDFF
:1055500080E8182B1092E9008091E80083FD0E94FA
:10556000AF141F701093E90082E084BD93E095BDF5
:105570009AEF97BD80936E0010920104109202047E
:1055800010920304109204040E940712811102C0B9
:105590000E9418110E944A0E80935E010E944A0EDA
:1055A00081110E94FB3280915E0180915E0195E045
:1055B000811190E09093120485E0891B809311047F
:1055C00001EB11E086EBE82E81E0F82ED8018D91F9
:1055D0008D018F3F11F00E94740AE016F106B1F7B9
:1055E00006EB11E0F80181918F018F3F11F00E94CD
:1055F000740AF1E00C3B1F07A9F78AE0EDE4F4E040
:10560000DF01282F1D922A95E9F7E7E0F4E0DF019A
:105610001D928A95E9F78EE190E00E941F35BC014A
:10562000909306048093050430E020E0FB01E20F34
:10563000F31F96E04081417041939150D9F72A5F62
:105640003F4F2E31310591F70E94451B811102C059
:105650000E94511B82E090E00E94703680931504F6
:105660000E9420129093AF078093AE070E949C2760
:10567000EFE3FCE93197F1F700C000000E949C279E
:1056800080914D0480FF08C06FEF7FEF90E080E0D5
:105690000E94AC360E943D0883E090E00E94703684
:1056A0000E94F212109280048FEF9FEF90939A0461
:1056B0008093990490939C0480939B0490939E0400
:1056C00080939D049093A00480939F049093A204E0
:1056D0008093A1049093A4048093A3049093A604C0
:1056E0008093A5049093A8048093A7041092570474
:1056F0009093710480937004909373048093720468
:105700009093750480937404909377048093760447
:10571000909379048093780490937B0480937A0427
:1057200090937D0480937C0490937F0480937E0407
:105730000E94451B811104C00E94511B0E94D91870
:1057400046E050E06CE170E083EB94E00E9460364C
:105750001092B2048091B3048C7F11F40E94D91886
:105760000E944A0E882309F4A9C083E0809348046C
:1057700080FDA6C080E8809391050E94B2316DE063
:1057800070E088EB92E00E940F0D892BE9F5809183
:10579000480463E070E081FD95C085EB92E00E94D3
:1057A0000F0D892B89F56DE070E085EA92E00E948B
:1057B0000F0D892B49F50E944E08605A75418F4F95
:1057C0009F4F60939C0770939D0780939E079093D3
:1057D0009F07E4E9F5E080E092E0DF019C011D9283
:1057E00021503040E1F7F0939B07E0939A078FEF49
:1057F0009FEF909393058093920581E08093A1079A
:105800008093A0071092490490915E0181E098274F
:1058100090932404382F391B3093140490915E0127
:105820008093250490915E018093130480915E0122
:10583000811106C084EF80936C0185EF80936B012A
:1058400080916C01E82FE295EF70F0E061A18F701C
:1058500021E030E0A90101C0440F8A95EAF7942FB6
:105860009095962391A382A1842B82A390916B01A2
:10587000E92FE295EF70F0E041A19F70B90102C0FD
:10588000660F771F9A95E2F7CB01962F9095942398
:1058900091A392A1892B82A38FE891E00197F1F760
:1058A00000C000001091250466E274E04CE651E06F
:1058B0008BE6E82E81E0F82EFB012FC080E056CF6A
:1058C00080E259CF82EB92E06ACFDA012D91AD01EF
:1058D000822F82958F7090E0DC0190968C9190E001
:1058E0002F7002C0959587952A95E2F78170D701B0
:1058F0009D917D01292F22952F7030E0D90190963E
:105900002C9130E09F7002C0359527959A95E2F76B
:1059100090E020FD92E0892B81938E2F861B8117CA
:10592000A0F20E944A0E811102C00E94FE328FE551
:1059300091E09093A6078093A5078091D80700E493
:10594000F02E00E112E1853009F481C10E949C270C
:10595000C82E81110E944E086DE474E07CA76BA7ED
:10596000B6E1EB2EB4E0FB2E10EE812E11E0912E6D
:1059700078AB6FA7512C412CAFA5B8A92D90B8AB2F
:10598000AFA7F7018081821509F48DC0822589AB0C
:105990009EA68DA6312C7724739489A9872109F4BA
:1059A00078C00E944A0ED22CD720882399F039A2C1
:1059B0004AA281E0D11001C080E08BA30E940C1D9F
:1059C0008160782F9DA38CA349A15AA16BA18DA1C1
:1059D0000E940C26D7018C9187258C93DD2049F0FD
:1059E000EDA5FEA58081D12C8F3F19F0682EDD2416
:1059F000D3940D2D10E080915704800F912F911DAD
:105A000009976CF1E8E0AE2EB12CA01AB10AB801EA
:105A1000685A7B4FA50188E594E00E945736B8018B
:105A2000605A7B4FA50180E694E00E945736A5019D
:105A3000440F551FB801660F771F60597B4F80E7F1
:105A400094E00E945736B80168597B4FA50188E65B
:105A500094E00E94573688E08D1980935704809116
:105A6000570490E0A62DB0E09D01220F331F245E65
:105A70003D4FAA0FBB1FBD01635E7D4F41E0480F44
:105A80009D1508F4F0C0809357045394BBE0B515FE
:105A900030F13394770CEDA5FEA53196FEA7EDA766
:105AA000F6E03F127ACF43942FEFE21AF20A36E083
:105AB000830E911C6AE046125FCF511010C08FEF29
:105AC0008EA38FA318A60E940C1D8160782F9AA721
:105AD00089A74EA15FA168A58AA50E940C260E94F5
