:100000000C9482070C949F070C949F070C949842C1
:100010000C949F070C949F070C949F070C949F07C8
:100020000C949F070C949F070C945A230C9401285E
:100030000C943B380C949F070C949F070C949F07DB
:100040000C949F070C949F070C949F070C949F0798
:100050000C949F070C9433240C949F070C949F07D7
:100060000C949F070C949F070C949F070C949F0778
:100070000C949F070C949F070C949F070C949F0768
:100080000C949F070C949F070C949F070C949F0758
:100090000C949F070C949F070C949F070C949F0748
:1000A0000C949F070C949F070C949F07050109026D
:1000B000A10185020901A1000509190129081500FE
:1000C0002501950875018102050109300931158165
:1000D000257F95027508810609381581257F9501D0
:1000E00075088106050C0A38021581257F95017572
:1000F000088106C0C005010980A101850319012AF4
:10010000B700150126B700950175108100C0050CD8
:100110000901A101850419012AA002150126A002E6
:10012000950175108100C005010906A1018506052C
:100130000719E029E71500250195087501810205D9
:1001400007190029EF1500250195F07501810205B9
:10015000081901290595057501910295017503910D
:1001600001C00660FF0961A1010962150026FF00B8
:100170009520750881020963150026FF00952075FA
:10018000089102C005010906A101050719E029E748
:1001900015002501950875018102950175088101F9
:1001A0000507190029FF150026FF0095067508812F
:1001B000000508190129059505750191029501753C
:1001C000039101C0010000050105020503050405B6
:1001D00005050006010602060306040605060007DB
:1001E00001070207030704070507000801080208C2
:1001F00003080408050800090109020903090409A4
:1002000005090000010002000300040005000001D0
:1002100001010201030104010501000201020202C1
:1002200003020402050200030103020303030403A3
:10023000050300040104020403040404050400008F
:1002400000000000000000000000000000000000AE
:10025000000000000000000000000000000000009E
:1002600000007E0F00D4FFFFFFC7000000780000F1
:100270000000000000002A2B280000000000000001
:1002800000000000000000000029000000002C1EFB
:100290003420212224342627252E362D3738271EB8
:1002A0001F202122232425263333362E37381F04DE
:1002B00005060708090A0B0C0D0E0F101112131476
:1002C00015161718191A1B1C1D2F3130232D350434
:1002D00005060708090A0B0C0D0E0F101112131456
:1002E00015161718191A1B1C1D2F3130354C00DA42
:1002F0000281FFD9F1DB20A4A62EAF00A0C000A18F
:10030000C800AED580A81FD300408D1420005343F1
:10031000524C4B004E554D4C4B004350534C4B00F0
:100320000A0A004E46490A004D6F757365005379FD
:100330006D0A004E61760A0047616D652B004D65C0
:100340006469610046756E630A004E756D0A004768
:10035000616D650A00426173650A004C415945525E
:10036000000A0A00808182838485868788898A8B37
:100370008C8D8E8F9091929394A0A1A2A3A4A5A6F8
:10038000A7A8A9AAABACADAEAFB0B1B2B3B4C0C16F
:10039000C2C3C4C5C6C7C8C9CACBCCCDCECFD0D1C5
:1003A000D2D3D400000101010101010101010202C7
:1003B0000202020202020203030303030303030413
:1003C00004040404040405050505050606060606DE
:1003D000070707070708080808090909090A0A0A98
:1003E0000B0B0B0C0C0C0D0D0D0E0E0E0F0F0F103A
:1003F00010111111121213131414151516161717C4
:10040000181819191A1A1B1B1C1D1D1E1E1F20202F
:10041000212222232424252626272829292A2B2C79
:100420002D2D2E2F30313232333435363738393A9C
:100430003B3C3D3E3F404142434445464748494A94
:100440004C4D4E4F50515354555658595A5B5D5E62
:100450005F616264656668696B6C6D6F70727375FD
:1004600077787A7B7D7E8082838587888A8C8E8F61
:1004700091939596989A9C9EA0A2A3A5A7A9ABAD8F
:10048000AFB1B3B5B7BABCBEC0C2C4C6C9CBCDCF7D
:10049000D1D4D6D8DBDDDFE2E4E7E9EBEEF0F3F52B
:1004A000F8FAFDFF07087F0807003E5B4F5B3E0040
:1004B0003E6B4F6B3E001C3E7C3E1C00183C7E3C5D
:1004C00018001C577D571C001C5E7F5E1C00001826
:1004D0003C180000FFE7C3E7FF00001824180000E5
:1004E000FFE7DBE7FF0030483A060E0026297929AE
:1004F0002600407F05050700407F05253F005A3C48
:10050000E73C5A007F3E1C1C0800081C1C3E7F0074
:1005100014227F2214005F5F005F5F0006097F01E5
:100520007F00006689956A0060606060600094A248
:10053000FFA2940008047E04080010207E20100012
:1005400008082A1C0800081C2A0808001E101010A1
:1005500010000C1E0C1E0C0030383E383000060E09
:100560003E0E060000000000000000005F000000DA
:10057000000700070000147F147F1400242A7F2A3C
:100580001200231308646200364956205000000808
:1005900007030000001C224100000041221C000053
:1005A0002A1C7F1C2A0008083E08080000807030C2
:1005B0000000080808080800000060600000201023
:1005C000080402003E5149453E0000427F400000C1
:1005D0007249494946002141494D33001814127FA0
:1005E00010002745454539003C4A49493100412121
:1005F00011090700364949493600464949291E0074
:100600000000140000000040340000000008142224
:1006100041001414141414000041221408000201B3
:10062000590906003E415D594E007C1211127C00B2
:100630007F49494936003E41414122007F414141C5
:100640003E007F49494941007F09090901003E41B7
:10065000415173007F0808087F0000417F4100007E
:100660002040413F01007F08142241007F4040406C
:1006700040007F021C027F007F0408107F003E4183
:1006800041413E007F09090906003E4151215E00BB
:100690007F091929460026494949320003017F0193
:1006A00003003F4040403F001F2040201F003F40CC
:1006B00038403F0063140814630003047804030007
:1006C0006159494D4300007F414141000204081037
:1006D0002000004141417F0004020102040040402B
:1006E00040404000000307080000205454784000B8
:1006F0007F2844443800384444442800384444287F
:100700007F0038545454180000087E09020018A4D1
:10071000A49C78007F080404780000447D40000019
:100720002040403D00007F102844000000417F40F1
:1007300000007C04780478007C08040478003844C5
:1007400044443800FC182424180018242418FC0001
:100750007C080404080048545454240004043F4412
:1007600024003C4040207C001C2040201C003C40D9
:1007700030403C004428102844004C9090907C006D
:100780004464544C440000083641000000007700E7
:1007900000000041360800000201020402003C266D
:1007A00023263C00000000000000404040F0F8F824
:1007B000FF38FFF8F83FF8F8FF38FFF8F8F040404E
:1007C0004000000000000080C0C0C0800000C0C029
:1007D0008000000080C0C000C0C0000080C0C00019
:1007E00000000000C0C0C0C0C000C0C000000000C9
:1007F00000000000000000000000000000000000F9
:1008000000000000000000000000000000000000E8
:1008100000000000000000000000000000000000D8
:10082000000000C0F0F8FC3E1E06010000007F4101
:1008300041417F007F4141417F000080C0E07E5BFD
:100840004F5BFEC00000C000DCD7DEDEDED7DC0080
:10085000C0000000000000000000000000000000D8
:1008600000000000000000000000494949FFFFFFB0
:10087000FFE0DFBFBF00BFBFDFE0FFFFFFFF494971
:100880004900000000001F3F6060E0BF1F007F7F45
:10089000071E381E077F7F007F7F0E1F3B716000A1
:1008A000000000007F7F0C0C0C007E7E007F7E032A
:1008B00003007F7E03037E7E03037F7E000F3E7076
:1008C0003C063C703E0F00327B49493F7E007F7EF4
:1008D0000303001E3F69696F26000000000000004E
:1008E000000000030F1F3F3C7870600000007F4154
:1008F00041417F007F4141417F00307B7F78302044
:100900002030787F3B0003000F7F0F0F0F7F0F0019
:1009100003000000000000000000000000000000D4
:1009200000000000000000000000010101070F0F9F
:100930007F0F7F0F0F7E0F0F7F0F7F0F0F070101BC
:1009400001000000000000000000000101000000A4
:100950000000000000000000000000000000000097
:100960000000000000000000000000000000000087
:100970000000000000000000000000000000000077
:100980000000000000000000000000000000000067
:100990000000000000000000000000000000000057
:1009A0000000000000000000000000000000000047
:1009B0000000000000000000000000000000000037
:1009C0000000000000000000000000000000000027
:1009D0000000000000000000000000000000000017
:1009E0000000000000AF00AE29001E001F00200024
:1009F00021002200350014001A000800150017001D
:100A0000E10004001600070009000A0000571D005D
:100A10001B00060019000500E300E200E74429423C
:100A20002C4339002A00270026002500240023003B
:100A30003100130012000C0018001C003472330047
:100A40000F000E000D000B00015738003700360074
:100A5000100011007600E6004C472A452846A80001
:100A600029001E001F002000210022002B0017007B
:100A700014001A0008001500E1000A000400160026
:100A800007000900E0001D001B000600190005001A
:100A900000000000055108512C0068002A002700C2
:100AA00026002500240023003100130012000C0052
:100AB00018001C00340033000F000E000D000B0066
:100AC000E50038003700360010001100000000007B
:100AD0004C002A002800A8000000000000000000D0
:100AE0000000000000000000000000000000000006
:100AF00001000401160100000000000001001D01BA
:100B00001B010601190100000100010000000100A5
:100B100000000000000000000000000000000000D5
:100B200016011D011B01060119011C0100004F00E7
:100B3000520051005000390001004D004B004E00A2
:100B40004A004900010001004C002A002800000072
:100B5000005C000000000868000001500000000078
:100B6000000000000000000000000000166A000005
:100B700000000000DE5C000000000000000000003B
:100B80000000000000000000010000000000000064
:100B9000000000000000000016011D011B010601FD
:100BA00019011C010000F300F000F100F200000048
:100BB00000004F00520051005000000000000000F3
:100BC000F500F600F4000000010000000000000045
:100BD0000000000001000000000000000000000014
:100BE0000100E300E200E000E1000000010000007D
:100BF00000000000000000000000000001000000F4
:100C000000000000010000000000000000000000E3
:100C10000000C95CC75CC55CC35CC25C0000AB0083
:100C2000A900AA00AC0000000000000000000000C5
:100C30000000000000000000A800AD00AE00C35C92
:100C400000000000000000000000000000002F0075
:100C5000240025002600300000003300210022007F
:100C600023002E00000035001E001F002000310070
:100C700000000000370027002D00000000000000E9
:100C80000000000000000000000000000000000064
:100C9000000000000000E300E600E400E5000000C2
:100CA0000000000000000000000000000000000044
:100CB0000000010000000000000000000000000033
:100CC0000000000000002F0224022502260230024C
:100CD000000033022102220223022E02000035020C
:100CE0001E021F022002310200000000260227021D
:100CF0002D020000000000000000000000000000C5
:100D00000000000000000000000000000000E30000
:100D1000E600E400E5000000000000000000000024
:100D200000000000000000000000000001000000C2
:100D3000000000000000000000000000000045006E
:100D40004000410042004600000044003D003E00DB
:100D50003F004700000043003A003B003C004800D1
:100D60000000000076002B002C00000000000000B6
:100D70000000000000000000000000000000000073
:100D8000000000000000E300E600E400E5000000D1
:100D90000000000000000000000000000000000053
:100DA0000100000000000000000000000000000042
:100DB0000000000000000000000001000000000032
:100DC0000000000001000100010000000000000020
:100DD0000000000000000000000000000000010012
:100DE000280000000050000000000000000000008B
:100DF00000000000000000000000000000000000F3
:100E000000000000000000000000000000000000E2
:100E100000000000000000000000000000000000D2
:100E20004E004B00A900AA0055005400A900AA00DA
:100E3000A900AA00A900AA00A900AA00A900AA0066
:100E4000C75CC55CCB5CC95C4F0050004F005000D4
:100E5000A900AA00A900AA004E004B004D004A00BC
:100E6000A900AA00A900AA0009025B00030100A0D2
:100E7000FA09040000010301010009211101000128
:100E80002240000705810308000109040100020354
:100E90000000000921110100012222000705820340
:100EA00020000107050303200001090402000103DB
:100EB00000000009211101000122B600070584038A
:100EC000200001120100020000000832FC8702012C
:100ED00000010200010C0353006F0066006C006506
:100EE0000000001A034A006F0073006500660041AD
:100EF00000640061006D00630069006B0000000485
:100F00000309040011241FBECFEFDAE0DEBFCDBF1E
:100F100029E0A6E2B3E001C01D92A832B207E1F7D2
:100F200013E0A0E0B1E0EEEDFDE802C005900D9207
:100F3000A632B107D9F70E9462380C9487460C9408
:100F40000000E8EDF0E080818E7F80831092E20067
:100F50001092DA001092E100A0EEB0E08C91816076
:100F60008C9380818F77808319BCA7EDB0E08C9142
:100F70008E7F8C9380818F7E80831092C00808952D
:100F80002091E4003091E50095E6A9012091EC0064
:100F9000822F817020FF06C08091E80080FF06C08C
:100FA00080E008952091E80022FD1AC08091E508B4
:100FB000882389F0853089F08091EB0085FD0FC092
:100FC0002091E4003091E50042175307F9F2915067
:100FD000E1F684E0089582E0089583E0089581E0D9
:100FE00008958091E70887FF13C08091E80082FF91
:100FF00006C08091E8008B778093E80004C0809160
:10100000E5088111F2CF08958091E5088823D9F38E
:101010008091E80080FFF8CF8091E8008E77ECCFD8
:10102000982F9093E900242F762F50E0891731F004
:101030007091EC002091ED005091F00021FD07C06F
:101040009F5F973071F78093E90081E008953091B8
:10105000EB003E7F3093EB003091ED003D7F30930D
:10106000ED003091EB0031603093EB007093EC00B9
:101070002093ED005093F0002091EE0027FDE0CF8B
:1010800080E00895B0E0A0E0E8E4F8E00C94D243FA
:10109000C8EDD0E088818F7E8883E7EDF0E0808125
:1010A0008160808384E082BF81E08093C008888172
:1010B0008E7F888302EE10E0F80110821092DA0031
:1010C00081EEC82ED12CF601108288818F7788831B
:1010D00088818068888388818F7D888319BC10927D
:1010E000E5081092E6081092E4081092E30890EEEA
:1010F000E92EF12CF70180818B7F808388818160CC
:10110000888342E060E080E00E941008F601808160
:101110008E7F8083F80180818160808380818860F8
:101120008083F70180818E7F8083888180618883BE
:10113000CDB7DEB7E8E00C94EE43FC018091ED08FA
:101140009091EE0886179707A0F06115710529F4B4
:101150009091E8009E779093E80090E0611571050A
:1011600051F4911108C08091E80082FF34C080E002
:101170000895BC01F2CF8091E5088823C1F1853044
:10118000C1F18091E80083FD30C08091E80082FDCC
:10119000EACF8091E80080FFE1CF8091F3002091B9
:1011A000F200382F6115710519F02830310558F01B
:1011B00091E02830310509F090E02091E8002E7789
:1011C0002093E800CBCF81918093F10061507109A9
:1011D0002F5F3F4FE7CF8091E508882341F08530AE
:1011E00041F08091E80083FFBECF81E0089582E066
:1011F000089583E008958091C208089587E797E7EE
:10120000909301088093000888E19AE00FB6F89463
:10121000A895809360000FBE90936000FFCF2FB71A
:10122000F8946091BA087091BB088091BC089091C5
:10123000BD082FBF0895209195012223C9F0209168
:10124000BE0827FF15C0E62FE695E695E695EE3138
:10125000D8F4E80FF92FF11D677021E030E001C0EC
:10126000220F6A95EAF72095828128232283089528
:10127000FC01329608962191621303C0DF01119799
:101280001C92E817F907B9F70895209195012223D8
:10129000C1F02091BE0827FF14C0E62FE695E69521
:1012A000E695EE31F8F4E80FF92FF11D677021E0B3
:1012B00030E001C0220F6A95EAF78281822B828397
:1012C0000895FC0132962FEF30E04191641751F000
:1012D0002F3F19F4411101C0232F3F5F3630A9F78A
:1012E0002F3F09F40895820F911D27FD9A95FC0167
:1012F00062830895A3E0B0E0E0E8F9E00C94D843FD
:101300002091B7083091B80828173907A1F09093B9
:10131000B8088093B708E091B508F091B608309707
:1013200051F024E029839B838A830680F781E02D96
:10133000CE01019609952396E2E00C94F443A3E0D4
:10134000B0E0E5EAF9E00C94D8432091B30830917D
:10135000B40828173907A1F09093B4088093B30814
:10136000E091B508F091B608309751F023E0298359
:101370009B838A830680F781E02DCE010196099533
:101380002396E2E00C94F443FC01680F791F8FEF81
:1013900091E32191822728E030E087FF09C0880F80
:1013A000892721503109C9F7E617F70791F7089502
:1013B000880FF7CFFA01811101C0FB01099508954B
:1013C000E3EFF8E024813AE0231B08F420E02483D3
:1013D0008091C40581608093C4050895E3EFF8E02F
:1013E00024813AE0230F08F42FEF24838091C40571
:1013F00081608093C40508959091F308937071F013
:101400008093F4086093F508493708F048E7409363
:10141000F6088091C405822B8093C4050895E3EFFC
:10142000F8E0438128E0421B08F440E0818121E09C
:10143000628190E00E94FC090895E3EFF8E04381A7
:1014400028E0420F08F44FEF818121E0628190E0B3
:101450000E94FC090895E3EFF8E0628128E0621B36
:1014600008F460E0818121E0438190E00E94FC0962
:101470000895E3EFF8E0628128E0620F08F46FEF6F
:10148000818121E0438190E00E94FC090895E3EF0F
:10149000F8E0818121E0438162818250990B0E94B2
:1014A000FC090895E3EFF8E0818190E021E04381B9
:1014B000628102960E94FC0908959091F30893704E
:1014C00061F081110BC094609093F3081092940125
:1014D0008091C405862B8093C40508958B3210F04B
:1014E000986AF2CF880F880F982BEECF8091F3087F
:1014F00086958695815009F48AE261E00E945D0A32
:1015000008958091F308869586958F5F8B3208F059
:1015100081E061E00E945D0A0895809393018091CB
:10152000F3088370809392010E94DE1283E080931F
:1015300094010895EF92FF920F939701201B3109B8
:101540002F3F310519F010F02FEF30E02095382FA4
:10155000320F08F43FEF832F0F91FF90EF90089523
:10156000EF92FF920F939701201B31092F3F310516
:1015700019F010F02FEF30E0322F3095482F430F45
:1015800008F44FEF842F620F0F91FF90EF900895B2
:10159000EF92FF920F93972F093438F4B701601B35
:1015A00071096F3F710519F010F06FEF70E0485F3F
:1015B0005F4F4131510540F0A901485F5F4F413114
:1015C000510510F06FEF70E06095482F460F08F45A
:1015D0004FEF842F37FF02C02D5F3F4F3595279582
:1015E000359527956091F408620F792F0F91FF9040
:1015F000EF900895EF92FF920F931F930E0D1F2D02
:10160000111DF90137FF03C0F195E195F10924E0BF
:10161000EE0FFF1F2A95E1F7EF3FF10519F014F0E7
:10162000EFEFF0E09A0157FF03C0319521953109A2
:1016300094E0220F331F9A95E1F72E173F070CF421
:10164000F901E00FF11FEF3FF10519F010F0EFEF96
:10165000F0E0E095282F3E2F230F08F42FEF822F84
:101660001F910F91FF90EF900895EF92FF920F93CB
:10167000970195E0099F200D311D11242F3F310561
:1016800019F010F02FEF30E02095382F320F08F4CA
:101690003FEF832F0F91FF90EF90089522E8241BD6
:1016A00008F420E0620F08954095282F429F412DB5
:1016B0001124842F0895E42FF0E0EE0FFF1FE35B69
:1016C000FD4F9081921B97FD9195292F38E1239F23
:1016D000212D1124620F08950F931F9310E0F8013C
:1016E000EE0FFF1FE35BFD4F9081905797FD9195A3
:1016F000000F111FF801EF5EFD4F05AD0052110BF9
:101700002003F001219FF00D112408E310E0091BD4
:10171000110997FD139540039001419F300D11244D
:10172000E20FF31F9F01220F331F2E0F3F1F37FFC2
:1017300002C021583F4F220F232F221F330B620F6D
:101740001F910F9108950F931F93522F10E0F801EE
:10175000EE0FFF1FEF5EFD4FA5ADA052BB0B9D012D
:101760005203F001539FF00D1124000F111FD801F7
:10177000A35BBD4F0C910057110B40039001419F9B
:10178000300D11242E0F3F1F37FF02C0215C3F4F49
:1017900096E0359527959A95E1F7620F1F910F9185
:1017A00008950F931F93522F10E0F801EE0FFF1FC3
:1017B000EF5EFD4FA5ADA052BB0B9D015203F001A2
:1017C000539FF00D1124000F111FD801A35BBD4FD3
:1017D0000C910057110B40039001419F300D1124D3
:1017E0002E0F3F1F37FF02C021583F4F220F232FDC
:1017F000221F330B620F1F910F910895EF920F93E9
:10180000972F23E0029FB0011124759567956E0D07
:10181000792F0F91EF900895322F50E0FA01EE0FDB
:10182000FF1FEF5EFD4F95AD905297FD9195440FD0
:10183000551FFA01E35BFD4F2081231B330B290F5A
:10184000311D97FD3A95620F0895E42FF0E0EE0FF9
:10185000FF1FEF5EFD4F65AD621B0895E42FF0E0C2
:10186000EE0FFF1FE35BFD4F6081621B0895622F47
:101870000895E42FF0E0EE0FFF1FE35BFD4F408182
:1018800034EE439F412D1124E82FF0E050E0445EF8
:101890005F4FDA01A21BB1099D01B7FF03C031956B
:1018A0002195310993E0220F331F9A95E1F7AF019B
:1018B000421B530B9A0157FD20E0582F259F212DE5
:1018C0001124822F0895E42FF0E0EE0FFF1FE35B59
:1018D000FD4F408134EE439F412D1124E72FF0E06E
:1018E00050E0445E5F4FDA01A21BB1099D01B7FFD2
:1018F00003C031952195310993E0220F331F9A954A
:10190000E1F7AF01421B530B9A0157FD20E0279FDF
:10191000212D1124722F08950E946F130895FF92B4
:101920000F931F93CF93DF93182F062FF42ED0E041
:10193000C0E02F2D402F612FCE010E948C0C2196EC
:10194000C834D105B1F7CDB7DEB7E5E00C94F1436B
:10195000FC019B01009729F480E077FF2BC080E811
:101960000895AC0197FF04C044275527481B590B25
:10197000B901640F751F37FD10C0241B350BC90159
:10198000A5E0880F991FAA95E1F70E940B4480E219
:10199000861BF7FF0FC081950895CB0165E0880F86
:1019A000991F6A95E1F7BA01621B730B0E940B4401
:1019B00080E6EECF0895EF920F93CF93DF93D72F6A
:1019C000C82FC9010E19BA010E94A80C602F681B0C
:1019D0007D2F8C2FDF91CF910F91EF9008950F9372
:1019E000CF93DF93D72FC82FC901BA010E94A80C4B
:1019F000682F600F7D2F8C2FDF91CF910F9108956D
:101A0000EF920F931F93CF93DF93D62FC72F182FEB
:101A1000C9010E19010FBA010E94A80C081B202F42
:101A2000219F212D1124822F6D2F7C2FDF91CF91AB
:101A30001F910F91EF900895EF920F931F93CF9303
:101A4000DF93D62F172FC82FC9010E19070FBA0120
:101A50000E94A80C702F781B719F712D11246D2F7F
:101A60008C2FDF91CF911F910F91EF9008950F93DD
:101A70001F93CF93DF93D62FC72F182FC901212F84
:101A8000201B022FBA010E94A80C982F990F990FC2
:101A9000891B800F282F219F212D1124822F6D2F2C
:101AA0007C2FDF91CF911F910F9108950F931F937A
:101AB000CF93DF93D62F172FC82FC901272F201BB5
:101AC000022FBA010E94A80C982F990F990F782F16
:101AD000791B700F719F712D11246D2F8C2FDF9149
:101AE000CF911F910F910895E82F86FDE0952E2F3D
:101AF0002F7086FD2F5FE695E695E695E670F0E09F
:101B0000E650FE4F9181929F902D212D11249295A8
:101B10009F702295207F922B2081920F87FD9195B7
:101B200080E8890F08950F931F93CF93DF938B0164
:101B3000D82FC42F822F0E94740DEC2FF0E0EE0FEF
:101B4000FF1FE35BFD4F90819058890F87FD8195C2
:101B5000880F682F2CE0629F612D1124600F712F78
:101B60008D2FDF91CF911F910F910895409190019A
:101B70005091910125E038E0429FC001439F900DB4
:101B8000529F900D1124875E994C90939101809300
:101B90009001890F0895AC018230910508F40895F1
:101BA0009FEF413E8EE1580740F49A0195E036954B
:101BB00027959A95E1F798E0920F61E0E62FE90FFB
:101BC000FF27FF1F9F0135952795822F229FF00148
:101BD000239FF00DF00D11244E175F0738F49FEF8F
:101BE000920F961758F78FEF860F08952F3FE9F35E
:101BF00061E0620FF6CF0F93CF93DF93D72FC82FFB
:101C000047FD419588E390E0841B910947FD93953A
:101C1000889FB001899F700D700D1124229FC00113
:101C2000239F900D900D1124860F971F0E94CB0DBE
:101C3000982F990F890F682F600F7D2F8C2FDF91C0
:101C4000CF910F91089530E020E0869F212D969F3F
:101C5000200D311D1124C90108952091F70830E1AC
:101C6000230F08F42FEF60E1822F90E00E94230EF3
:101C7000BC0188EB9BE00E94B44390E080E00895B3
:101C8000AF92BF92CF92DF92FF920F931F93CF93A9
:101C9000DF93362F472FE82FF0E0EC55FC4F711102
:101CA0000FC0E4918E2F2E2F6E2F722FDF91CF91C8
:101CB0001F910F91FF90DF90CF90BF90AF9008954C
:101CC000C72FD0E02491F22E022F10E056E0659F3E
:101CD000C0011124EFEFF0E0BF010E94B443832F55
:101CE00090E0880F991F35E5369FD001379FB00DE2
:101CF00011248A1B9B0B982F990F980F6F01CC1AF8
:101D0000DD0AC09ED001C19EB00DD09EB00D112441
:101D10008B2F499FA0011124452F55276F01C41A0D
:101D2000D50AC09EA001C19E500DD09E500D112419
:101D30005F01A91AB108AC9E6001AD9ED00CBC9E9B
:101D4000D00C1124CD2CDD24EC19FD09E09FE0011D
:101D5000E19FD00DF09FD00D1124ED2F6230710561
:101D6000A1F050F46115710509F49ECF6130710541
:101D700081F0EB2F852F98CF6430710569F080F0EA
:101D80006630710509F490CFF4CFE22F2B2F8D2F01
:101D90008BCFE22F252F88CFEB2F822F2D2F84CFB3
:101DA0002B2F8F2DE52F80CFB0E0A0E0EAEDFEE0F5
:101DB0000C94D3438C01FC01E352FD4F80816823D6
:101DC00049F1D090F508D091F608C091F408EC2EB6
:101DD000F12C0E94B60D282FC7018C549F4F68E646
:101DE00071E00E940B448E199F0997FD039695950B
:101DF00087959595879523706C2F289F600D1124EA
:101E00007D2D8D2F0E94400E462F282F672FC80151
:101E10000E948C0CCDB7DEB7E7E00C94EF438091C5
:101E2000890480FD16C081FD16C082FD16C0809118
:101E300088048823A1F0883280F428E0829FC001C2
:101E4000112468E270E00E940B44862F672B39F062
:101E5000089582E0089584E0089588E0089581E07F
:101E600008958091890480FD14C081FD14C082FD15
:101E700016C080918704882381F08E3180F420E59C
:101E8000829FC00111246EE170E00E940B44862FF6
:101E9000089584E1089588E2089588E0089580E532
:101EA000089580E00895F894E82FE295EF70F0E04F
:101EB00031A1282F2F7081E090E001C0880F2A9572
:101EC000EAF7982F9095932391A392A1892B82A34F
:101ED000789408959091BE0892FF06C0282F28712B
:101EE0002830F9F4877F846093FF06C0282F28717B
:101EF0002831F1F4877E84612091BF0820FF06C05D
:101F0000382F38713830D9F4877F816021FF06C0BF
:101F1000282F28712831D1F4877E816194FD877E36
:101F20000895282F24712430F9F68B7F8860DCCF48
:101F3000282F2471243101F78B7E8861DDCF382F63
:101F40003171313019F78E7F8860E0CF282F2171F1
:101F5000213121F78E7E8861E1CFCF93DF93EC01B1
:101F600082389105B1F108F040C08133910509F440
:101F70009DC048F58932910509F48DC08A9709F40E
:101F80009CC0C11522E5D20708F0C8C0C11531E5D3
:101F9000D30708F02FC1C83ED10508F0A3C0C13E49
:101FA000D10588F5C83AD10508F08EC0C53AD105EB
:101FB00008F004C1C130D10531F1209721F1C430BE
:101FC000D10508F545C08533910509F45FC0C9976F
:101FD000C1F68091BE08837009F046C18091BF08A8
:101FE00083FF11C0C9E2D0E00EC0833E910599F194
:101FF00070F4803E910501F1823E910511F68091C9
:10200000BE0882FD21C0CE01DF91CF910895863EAA
:10201000910561F1873E910571F1843E910509F0CA
:10202000B0CF8091BF0881FFEECF8091BE08C7EE90
:10203000D0E084FD0DC0E7CF8091BE0880FD33C0A5
:102040009091BF0890FFDFCFC3EED0E084FFDBCFDD
:10205000D0E0C0E0D8CF8091BE0882FD02C190914F
:10206000BF0890FD01C184FFCECFF2CF8091BE08A2
:1020700083FDDDCFC8CF8091BE0883FDF8C090916D
:10208000BF0891FFF0CFC4EED0E0BDCF8091BE0875
:1020900085FFB9CFA7CF8091BE0885FDEBC08091A9
:1020A000BF0883FFB0CFC9E3D0E0ADCF8091BE08B9
:1020B00086FFA9CFCAE2D0E0A6CF8091BE0886FFF6
:1020C000A2CFC1E3D0E09FCFC13CD10508F6C85AEA
:1020D000D0E0CC0FDD1FC156DE4F0990D881C02D56
:1020E000D46491CFC11540E2D40758F4C11581E002
:1020F000D80708F088CFC03FD10508F4A9CFD06534
:1021000082CFC11520E4D20708F4A2CFC11530E573
:10211000D30708F05BC0DF70D06A75CFC11546E504
:10212000D40718F5C11585E5D80708F07CC0C1159E
:1021300024E5D20708F072C09E01237033279C2F3C
:1021400096959695C115D34508F459C0C1E0D0E0E5
:1021500002C0CC0FDD1F2A95E2F730E2939FC00149
:102160001124C82BD92BDA684ECFC11589E5D807C1
:1021700068F4C11528E5D20708F060C0C11537E53D
:10218000D30708F065CFDD27D0663DCFC1154AE5FE
:10219000D40708F458C0CE0190568115904208F03B
:1021A00057CF8D2F8F710E946A0F90E0982F88274C
:1021B00088279F719C012C2BE9013EC0C55AD0E0B5
:1021C000C456DE4FC881D0E0D0641DCFCE018370ED
:1021D000992721E030E002C0220F331F8A95E2F7F1
:1021E000C695C69540E2C49FE0011124C22BD32BB3
:1021F000DD6809CFDC2FCC27C16FD06A04CFC1E0E6
:10220000D0E002C0CC0FDD1F2A95E2F720E2929FBA
:10221000C0011124C82BD92BDC68F5CEDC2FCC27CC
:10222000C46FD06AF0CE8C2F0E946A0FC82FD0E006
:10223000DC2FCC27CC27DF71D062E5CEDC2FCC277A
:10224000C06FD06AE0CE8C2F8F700E946A0F34E08E
:10225000D695C7953A95E1F7CF709C2FEC01D069E0
:10226000D2CEC2EED0E0CFCEC0EED0E0CCCEC6EE25
:10227000D0E0C9CEC5E3D0E0C6CE0E940F090895D4
:102280008091230481111092230408959091BF0836
:1022900092FF05C09091230498138093230408951E
:1022A00080959091AE0898239093AE0808958095FC
:1022B0009091AF0898239093AF0808958091B1034F
:1022C00090918003981301C008958F5F8770FACFB3
:1022D000A82FA77023E0969587952A95E1F7880F98
:1022E000991F880F991FFB01E80FF91F50E040E08C
:1022F00080E0219130E00A2E02C0369527950A949D
:10230000E2F721703327042E01C0220F0A94EAF766
:10231000822B4F5F5F4F4430510559F70895292FA5
:102320009A3068F4863090F490E068E573E036E027
:10233000239F800D911D11240E94681108952C5F28
:10234000223020F464E573E090E0F6CF80E0089559
:10235000262F277091E001C0990F2A95EAF723E014
:10236000769567952A95E1F7660F771F660F771FB9
:10237000FA01E60FF71F50E040E0682F70E081910E
:10238000DF0111979B01042E02C0369527950A9410
:10239000E2F7217021952827292328272C934F5FC6
:1023A0005F4F4430510559F70895282F862F9A30F2
:1023B00070F4263058F4622F70E026E0929F600D92
:1023C000711D112448E553E00E94A81108959C5FF7
:1023D0009230E0F7622F70E044E553E0F5CF82E001
:1023E0000895FC019281913039F4858182FD08C005
:1023F00080FF06C083E00895923021F081E00895C7
:1024000082E0089584E00895B0E0A0E0EAE0F2E11F
:102410000C94D2436C017B0164E670E088E70E9473
:102420001241EC0197FD12C010E000E0F601E00F50
:10243000F11F849164E670E00E947E41EC01892BDB
:1024400029F40F5F1F4F0E151F0581F70E94F441FD
:10245000CE01CDB7DEB7E8E00C94EE438091AC0836
:102460009091AD08911103C091E0892708958823C8
:1024700069F062E070E086EE99E00E940412892B18
:1024800019F08091AC0808951092AC088091AC08C6
:10249000EBCFCF93C091AC088091AD088823D1F0E9
:1024A0000E940F09605A75418F4F9F4F6093A80893
:1024B0007093A9088093AA089093AB08C11108C033
:1024C00062E070E084EE99E00E940412892B29F00A
:1024D000C091AC088C2FCF91089581E08093AC0817
:1024E000F7CF0F931F93CF93DF938B01EA01909166
:1024F000E508943061F58093E9008FEF9091E80052
:10250000815095FD06C095ED9A95F1F70000811177
:10251000F5CF8091E80085FF1AC00E94C0078111A5
:1025200011C08091E80085FD06C08091E8008E779B
:102530008093E800F2CFF80181918F018093F10040
:10254000219779F78091E8008E778093E800DF91FA
:10255000CF911F910F91089543E050E0BC0184E0BA
:102560000E947112089546E050E0BC0184E00E9490
:1025700071120895CF93DF93EC0180919501811141
:1025800011C048E050E0BE0181E00E94711280E27B
:10259000FE01A3ECB8E001900D928A95E1F7DF917E
:1025A000CF9108958091BE0887FF05C040E284E086
:1025B00050E0BE01EACF48E081E0FACF539A3BB148
:1025C000377F2BB128604FB7F89485EC95E0FC017C
:1025D0005191CF0168E02BB9000000C057FF3BB913
:1025E000550F000000C000C000C03BB900C06A9594
:1025F00091F7F6E08D399F0751F74FBF8FE594E0D3
:102600000197F1F700C000000895B0E0A0E0EBE012
:10261000F3E10C94D0437C015B016A0180912C04AE
:1026200001E010E08A3010F40AE010E0C1E0D0E0F0
:10263000B501C701F6010995811104C021960C1757
:102640001D072CF4CDB7DEB7EAE00C94EC43CC9F29
:102650009001CD9F300D300D112490E080E045E3D6
:102660004A95F1F70000019682179307C1F7E0CF72
:102670008091DF03811110C08091D8008061809328
:10268000D8008AE18A95F1F700C08091D90080FFD7
:102690000AC081E08093DF0381E09091DF039130F5
:1026A00009F080E0089582E08093DF030E94A10793
:1026B0001092E508F1CF0E943813811103C0809178
:1026C000B2080895E091B508F091B608309729F066
:1026D0000190F081E02D0995089580E00895FF9222
:1026E0000F931F93CF93DF93EC01F62E042F122F3D
:1026F0000E94381381110FC0C432D1057CF0A49719
:10270000FE01EE0FFF1FEC0FFD1FEB53FA4FF1829E
:102710000083128303C0C432D10594F3CDB7DEB772
:10272000E5E00C94F143CF93C82F0E94381388231F
:1027300029F081E0C43228F080E003C081E0C83491
:10274000D8F7CF910895A8E0B0E0E9EAF3E10C945E
:10275000C843282E7C836B83209196018FE0289FAD
:10276000802D11248D83815F8983893410F038E4B2
:1027700039830E943813882329F08981853210F02B
:1027800094E299830E943813811105C0ED81E432EF
:1027900010F4F4E2FD832091F9082A839D81892FAA
:1027A00090E098878F83880F991FFC01EF5EFD4FA3
:1027B0006F01822D90E09C012F5F3F4F3E832D8360
:1027C00089819F81981730F00E9493132896E2E147
:1027D0000C94E443EF81F885E352FD4F80819091A2
:1027E00097018923F9F03090F4084090F5088D8125
:1027F0009E818750974F3C01522C10E0FA815F1662
:10280000D8F02091F608129F112D1124632D742DFC
:10281000812F0E94400E462F282F672F8F81988589
:102820000E948C0C2F8138852F5F3F4F38872F8374
:1028300032E0C30ED11CC4CFF30181913F01F601F8
:10284000A4ACA81ABB0885ACF3018781881A990843
:10285000AA9C9001AB9C300D300D1124889CC001C6
:10286000899C900D900D1124820F931F0E94CB0D17
:10287000082F6091F70821E0620F08F46FEFF30171
:10288000EE0FFF1FE95FF840858996890E94230EAD
:102890007C019401A501632D742D812FEB81FC81B6
:1028A0000995362E472E5394182FA8CFB0E0A0E0FC
:1028B000ECE5F4E10C94D2437C01C09196018FE0E9
:1028C000C89FC02D11241FE01C0F193408F018E414
:1028D0000E943813882319F0153208F014E20E9480
:1028E0003813811103C0C43208F4C4E22091F70800
:1028F00031E0230F08F42FEF30E050E040E06FEFBD
:102900007FEF80E090E00E9424466901D0E001E082
:102910002C2FC11740F0812F0E949313CDB7DEB743
:10292000E8E00C94EE43FE01E352FD4F808190916C
:102930009701892309F14091F9084150042E000CB8
:10294000550B47FF1BC0C6016091F708600F08F4E4
:102950006FEF0E94230EAC016091F4087091F508AE
:102960008091F608F70109950E94400E462F282F06
:10297000672FCE010E948C0C2196CACFFA01E75036
:10298000F74F818982130AC0FA01EE0FFF1FE7504B
:10299000F74F818D928D8C159D05B0F241505109F4
:1029A000D0CFEF92FF920F931F93CF93DF937C01D1
:1029B000C09196018FE0C89FC02D11241FE01C0F0D
:1029C000193408F018E40E943813882319F01532DE
:1029D00008F014E20E943813811103C0C43208F4D5
:1029E000C4E26091F7086695669521E0620F08F4ED
:1029F0006FEF8091EF089091F0080E94230E082F4E
:102A0000D0E0C11740F0812F0E949313CDB7DEB7FD
:102A1000E6E00C94F043FE01E352FD4F808190917B
:102A20009701892391F06091F4087091F5088091E5
:102A3000F608202F4C2FF70109950E94400E462FD3
:102A4000282F672FCE010E948C0C2196DACFB0E0A0
:102A5000A0E0EDE2F5E10C94D0436C01C091960149
:102A60008FE0C89FC02D11241FE01C0F193408F0FF
:102A700018E40E943813882319F0153208F014E284
:102A80000E943813811103C0C43208F4C4E260917B
:102A9000F708669566958091EF089091F0080E947E
:102AA000230EF82E80E48F0D0E94740D90E8B92E4D
:102AB000B80E8F2D0E94740D20E8A22EA80ED0E033
:102AC000C11740F0812F0E949313CDB7DEB7EAE023
:102AD0000C94EC43FE01E352FD4F808190919701ED
:102AE0008923A1F06091F4087091F5088091F608AF
:102AF000EF2C0C2F2A2D4B2DF60109950E94400E2C
:102B0000462F282F672FCE010E948C0C2196D8CFFC
:102B1000B0E0A0E0EEE8F5E10C94CC435C01C0919C
:102B200096018FE0C89FC02D11241FE01C0F19349F
:102B300008F018E40E943813882319F0153208F0C1
:102B400014E20E943813811103C0C43208F4C4E2B5
:102B50006091F70866958091EF089091F0080E94C7
:102B6000230EF82ED0E0CE01880F991F9C012F5E16
:102B70003D4F6901C11740F0812F0E949313CDB7DB
:102B8000DEB7EEE00C94E843FE01E352FD4F808196
:102B900090919701892379F1F60184AD282F205770
:102BA000330B490185ADE82FE052FF0B3F01889CB4
:102BB0009001899C300D300D1124EE9FC001EF9FD4
:102BC000900D900D1124820F931F0E94CB0D082FA2
:102BD0006091F4087091F5088091F608EF2C93014C
:102BE000A401F50109950E94400E462F282F672F5A
:102BF000CE010E948C0CF2E0CF0ED11C2196BACFF0
:102C0000B0E0A0E0E6E0F6E10C94D1436C01C091A5
:102C100096018FE0C89FC02D11241FE01C0F1934AE
:102C200008F018E40E943813882319F0153208F0D0
:102C300014E20E943813811103C0C43208F4C4E2C4
:102C40006091F70866958091EF089091F0080E94D6
:102C5000230EB82ED0E0CE01880F991F9C012F5E65
:102C60003D4F7901C11740F0812F0E949313CDB7DA
:102C7000DEB7E9E00C94ED43FE01E352FD4F8081A5
:102C8000909197018923C1F0F70125AD2052330BB4
:102C900044AD4057550B6091F4087091F508809150
:102CA000F6080B2DF60109950E94400E462F282F9D
:102CB000672FCE010E948C0CF2E0EF0EF11C2196E2
:102CC000D1CF0F931F930E943813882329F00E94BD
:102CD0000F091F910F9108950E940F0900912D0473
:102CE00010912E0420912F0430913004600F711F39
:102CF000821F931FEECFCF92DF92EF92FF926B0174
:102D00007C010E9438138823A1F02FB7F8946091BA
:102D1000BA087091BB088091BC089091BD082FBF84
:102D20006C197D098E099F09FF90EF90DF90CF907D
:102D300008950E946116F4CF0F931F93CF93DF93F2
:102D4000142F022F893020F5623010F598E0899F0A
:102D5000E001112484E0689FB0011124C60FD71F41
:102D6000C15ADB4F82E090E0442311F090E080E014
:102D7000632F8C0F9D1F0E94004683E090E011237B
:102D800011F081E090E0602F8C0F9D1F0E940046A3
:102D9000DF91CF911F910F9108951F93CF93DF93F0
:102DA000122F8930E0F46A30D0F44630C0F4C42FDA
:102DB000D0E0CC0FDD1F9CE0699FC00DD11D112418
:102DC00098E7899FC00DD11D1124632FCE018796EE
:102DD0000E940046612FCE0188960E940046DF9136
:102DE000CF911F910895B0E0A0E0E9EFF6E10C94D7
:102DF000CE4380E2E82E8EE0F82E08EE19E0C0E027
:102E00005801D0E015C0F401259134914D2D6D2F5E
:102E10008C2F0E94CD1682E0880E911CD39486E000
:102E2000D812F1CF8CE0A80EB11CDF5FDA3019F0B8
:102E30004501D12CE8CF6701D0E0F601259134910E
:102E400041E06D2F8C2F0E949C16F6013296259141
:102E5000349140E06D2F8C2F0E949C1684E0C80EA8
:102E6000D11CD13071F488E0E80EF11CCF5F085816
:102E70001F4FC93009F0C4CFCDB7DEB7ECE00C94DA
:102E8000EA43D1E0DACFCF93C82F6FEF811162E22E
:102E900083E290E00E9400466FEFC11160E184E29E
:102EA00090E00E9400466FEFC11161E285E290E080
:102EB0000E940046CF91089580E00E94431760E091
:102EC00086E290E00E9400460E94F316C7EAD4E032
:102ED00060E0CE010E9400462196FACFFF920F9348
:102EE0001F93CF93DF93F42E893070F5623060F535
:102EF00028E0829F8001112434E0639FB0011124F7
:102F0000060F171F015A1B4F82E090E0442311F077
:102F100090E080E0800F911F0E94E245C82FD0E032
:102F2000DC2FCC2783E090E0FF2011F081E090E0DF
:102F3000800F911F0E94E2459E01282BC901CDB749
:102F4000DEB7E5E00C94F14390E080E0F8CF0F931A
:102F50001F93CF93DF93893030F56A3020F54630E8
:102F600010F5C42FD0E0CC0FDD1F2CE0629FC00D08
:102F7000D11D112438E7839FC00DD11D1124CE012E
:102F800087960E94E245082F10E0102F0027CE01FF
:102F900088960E94E2459801282BC901DF91CF91C4
:102FA0001F910F91089590E080E0F8CF7A3048F4B7
:102FB000663070F4893060F4462F672F0E94A7179F
:102FC00008957D3F41F4623018F441E0893050F0BB
:102FD00090E080E008957C3FD9F76230C8F78930EF
:102FE000B8F740E00E946E170895B0E0A0E0EBEF64
:102FF000F7E10C94D1437C0100912209109123093F
:103000008091190490911A04082B192BCFE0D0E07D
:10301000CC24C394D12CBC2EC6010C2E02C0880F28
:10302000991F0A94E2F780239123892B49F4219771
:1030300090F7B12C8B2DCDB7DEB7E9E00C94ED43C2
:10304000B7018C2F0E94D6170E94AD0F019779F31C
:10305000F1CFCF93DF93EC010E94F517BE010E94E0
:10306000D6170E94AD0FDF91CF910895FC018381A7
:103070009481892B29F08081918189238F3F51F49C
:1030800080E00895843FE1F717C0883EA8F0813FB3
:10309000B9F712C0808191810E94291892959F7082
:1030A000963099F358F4925F9F70923048F7803FC2
:1030B00019F040F7883E20F781E008959A5FF4CF39
:1030C000A5E0B0E0E6E6F8E10C94D74349835A83E3
:1030D00089819A81662399F0222389F00E94F5174D
:1030E000182F682F89819A810E94D51169817A8170
:1030F000812F0E94D6172596E3E00C94F3430E949B
:103100008F11182FF3CF83E290E00E94E2458232C4
:1031100089F484E290E00E94E245803159F485E22E
:1031200090E00E94E24591E0813209F090E0892F21
:103130008170089580E0FCCFCF9384E090E00E94FE
:10314000E245C82F82E290E00E94E245982F8C2F42
:10315000CF9108958091AF089091AE08892B80930C
:103160002803909123049923A1F0892B80932803AD
:10317000809195018823E1F18091BE0887FF38C0D6
:103180008EE1EAE2F3E090E08150A0F591110E9417
:10319000401140E250E063EB73E088E293E00E946C
:1031A000BC45892B21F180E2E8E2F3E0A3EBB3E038
:1031B00001900D928A95E1F7E091B508F091B6087B
:1031C0003097A9F080919501882359F08091BE082D
:1031D00087FF07C0809128038093290386E08093AE
:1031E00028030280F381E02D88E293E00995089599
:1031F00086E0C7CF2191222339F29F5FC5CFCF93BD
:10320000DF93EC01EA85FB85309719F06C857D85AD
:1032100009958B810E9450118C810E9457110E9448
:10322000AA1886E0FE0111928A95E9F7DF91CF9105
:103230000895CF93DF93EC018D8181FD18C08260EA
:103240008D838091AE089B81892B8093AE088091FD
:10325000AF089C81892B8093AF080E94AA18E8854B
:10326000F985309721F06C857D85CE010995109206
:10327000B1081092B0088D8180FD03C0CE010E947C
:10328000FF18DF91CF910895882321F00E945011FB
:103290000E94AA180895882339F09091AE08982BBF
:1032A0009093AE080E94AA180895882321F00E94E6
:1032B00057110E94AA180895882339F09091AF08F9
:1032C000982B9093AF080E94AA1808951F93CF934C
:1032D000DF93162F8A3039F481E00E94091ADF91BA
:1032E000CF911F9108958D3011F480E0F6CFC091F9
:1032F000A608D091A70896E0FE01A0EAB8E00190E8
:103300000D929A95E1F7803E90F186E0FE011192D0
:103310008A95E9F7C091A608D091A708111133C08A
:1033200046E050E0BE0180EA98E00E94BC459E0164
:10333000205A3640892B91F52A5F3F4F40919D06D8
:10334000642F70E0C9010E94B443481B463010F45A
:10335000240F311D211572E0370710F030E020E016
:103360002056394F3093A7082093A608B8CFF6E02F
:103370008F9FB00111246C557B4F46E050E0CE0189
:103380000E948844C7CF9E012A5F3F4FFE012E173F
:103390003F0731F2808180958193F9CFC90145E0E3
:1033A000969587954A95E1F741E050E0BA0102C051
:1033B000660F771F8A95E2F7CB0160919E067091A8
:1033C0009F06862B972BB9016B5F7F4FE5E07695C3
:1033D0006795EA95E1F702C0440F551F6A95E2F739
:1033E000842B952B90939F0680939E06A5CF1F93C9
:1033F000CF93DF93EC01162FFE018491811104C05D
:10340000DF91CF911F910895612F0E946619219637
:10341000F3CFCF93382FE091A608F091A708E05A98
:10342000F64020919D06622F70E0CF010E94B443C8
:10343000281B822F332369F066E00E94FF43C82FC8
:10344000C15010F4CF91089560E080E20E946619A7
:10345000F7CF9F01280F311D2115324018F080E071
:10346000F0E0E0E08E0F9F2F911D8056994F9093D2
:10347000A7088093A608E6CF0E94F71981E00E9472
:10348000091A08951F93CF93DF93EC01FC01E352D7
:10349000FD4F80816823B1F00E947844182F0E946C
:1034A00078448F77782F20E8720F08F47FEF612F30
:1034B0008091F6080E94400E462F282F672FCE01DC
:1034C0000E948C0CDF91CF911F910895B0E0A0E095
:1034D000ECE6FAE10C94CA43182F80919301811312
:1034E00023C09091F30893702091920130E081E025
:1034F0009217130609F480E08170809398018091FF
:10350000F80890919701981739F08093970140E05F
:1035100060E080E00E948F0C1B3260F4E12FF0E04D
:10352000E757F94B0C941F4481E0E6CF8091980156
:10353000811102C0C0E01BC240E060E080E00E9458
:103540008F0CF8CFC09196018FE0C89FC02D112439
:103550000FE00C0F093408F008E40E9438138823A8
:1035600019F0053208F004E20E943813811103C0FB
:10357000C43208F4C4E26091F4087091F5088091B7
:10358000F6080E94400EF62EE72ED82ED0E0C01787
:1035900010F0802FFEC2FE01E352FD4F808190911A
:1035A0009701892331F02D2D4F2D6E2DCE010E94D4
:1035B0008C0C2196ECCFC09196018FE0C89FC02D56
:1035C00011240FE00C0F093408F008E40E943813AE
:1035D000882319F0053208F004E20E9438138111A3
:1035E00003C0C43208F4C4E2E090F508F090F60895
:1035F000D091F4086D2F7E2D8F2D0E94400ED62E77
:10360000C72EB82E6091F7086D0F7E2D8F2D0E946A
:10361000400EF62EE72EA82ED0E0C01708F0B9CF46
:10362000FE01E352FD4F908180919701892359F06B
:103630002A2D4F2D6E2D90FD03C02B2D4D2D6C2D61
:10364000CE010E948C0C2196E8CFC09196018FE0AC
:10365000C89FC02D11240FE00C0F093408F008E4B6
:103660000E943813882319F0053208F004E20E9402
:103670003813811103C0C43208F4C4E2E090F508A5
:10368000D090F6082091F70890E4F92E3F2D329F54
:10369000312D1124F32ED0E0C01708F07ACFFE01AF
:1036A000E352FD4F8081909197018923B9F0FE018B
:1036B000EE0FFF1FEF5EFD4F85AD82958F7060911D
:1036C000F4088F9D600D11247E2D8D2D0E94400EDB
:1036D000462F282F672FCE010E948C0C2196DCCF1D
:1036E000C09196018FE0C89FC02D11240FE00C0FF0
:1036F000093408F008E40E943813882319F00532D1
:1037000008F004E20E943813811103C0C43208F4A7
:10371000C4E2E090F508D090F6082091F708D0E4D4
:10372000FD2E3F2D329F312D1124F32ED0E0C017F6
:1037300008F02FCFFE01E352FD4F80819091970159
:103740008923D9F0FE01EE0FFF1FEF5EFD4F64AD40
:10375000F69EB0011124B5E075956795BA95E1F72D
:103760008091F408680F7E2D8D2D0E94400E462F0B
:10377000282F672FCE010E948C0C2196D8CFC091A4
:1037800096018FE0C89FC02D11240FE00C0F093463
:1037900008F008E40E943813882319F0053208F075
:1037A00004E20E943813811103C0C43208F4C4E259
:1037B000F090F408D091F508E090F6086091F708D1
:1037C0006695669566958091EF089091F0080E9445
:1037D000230E0E94740D805887FD8195880F282F35
:1037E0003E2D239F212D1124822F6F2D7D2F0E948E
:1037F000400EF62EE72ED82ED0E0C01708F0C9CE26
:10380000FE01E352FD4F808190919701892331F0B1
:103810002D2D4F2D6E2DCE010E948C0C2196EDCFBB
:1038200083E69CE00E94D11407C089E39CE0FACFB4
:1038300086E59DE00E940016C82F99C087E39DE0B1
:10384000F9CF8CE19DE00E948815F6CF80E09DE0E5
:10385000FACF87E39CE0E6CF8EE29CE0E3CF85E2FF
:103860009CE0E0CF8CE09CE0DDCF8EEF9BE0EBCFE7
:103870008BEF9DE0DFCF8FEE9CE0DCCF8BED9CE00B
:10388000E2CF81ED9BE00E942715D6CF83EA9BE033
:10389000FACF8CE69BE0F7CFC09196018FE0C89FEE
:1038A000C02D11240FE00C0F093408F008E40E9429
:1038B0003813882319F0053208F004E20E94381307
:1038C000811103C0C43208F4C4E2809198018111CF
:1038D0001FC06091F70820E1620F08F46FEF80913C
:1038E000EF089091F0080E94230E6AE070E00E94B9
:1038F000B443892B09F04DCE0E94B60D68E40E94B6
:10390000FF4360919701892F90E00E94D40E41CE31
:10391000D0E0E02EF12CCE15DF050CF03ACE609110
:103920009701CE010E94D40E2196F5CFC091980147
:10393000C11135C06091F70820E1620F08F46FEF04
:103940008091EF089091F0080E94230E65E070E0EE
:103950000E94B443892B09F0EDCD0E94784468E4BD
:1039600070E00E940B44609197010E94421A80917E
:1039700096018F5F80939601C1110CC082E0809305
:10398000940180919801811105C0111103C083E059
:1039900080939401CDB7DEB7E0E10C94E643C0918B
:1039A00096018FE0C89FC02D11240FE00C0F093441
:1039B00008F008E40E943813882319F0053208F053
:1039C00004E20E943813811103C0C43208F4C4E237
:1039D000D0E0E02EF12CCE15DF050CF0DACD6091B1
:1039E0009701CE010E94421A2196F5CFC09196010F
:1039F0008FE0C89FC02D11240FE00C0F093408F090
:103A000008E40E943813882319F0053208F004E214
:103A10000E943813811103C0C43208F4C4E2E0905C
:103A2000F508F090F608D091F4086091F7086695D3
:103A3000669566958091EF089091F0080E94230E9C
:103A40000E94740D805887FD8195880F682F2CE0A7
:103A5000629F612D11246D0F7E2D8F2D0E94400ECF
:103A6000F62EE72ED82ED0E0C01708F092CDFE013A
:103A7000E352FD4F808190919701892331F02D2DE4
:103A80004F2D6E2DCE010E948C0C2196EDCF83E937
:103A90009DE0C8CE8BE59BE0C5CE80919601CFE03E
:103AA0008C9FC00D1124C93408F0C8E40E9438135B
:103AB000882319F0C53208F0C4E20E9438134091FF
:103AC000EF085091F0086091F1087091F208809130
:103AD000940490919504A0919604B0919704841752
:103AE0009507A607B70708F053C00E94B60DD82F58
:103AF0000E94B60D98E4891BF0F7890FE82EF12C8F
:103B0000F701E352FD4F809197019081892309F4D9
:103B10003FC020E040E060E0D1FD13C00E94B60D40
:103B2000D82F0E94B60D8695782F2FE7720F08F4D4
:103B30007FEF6D2F8091F6080E94400E462F282FB0
:103B4000672FC7010E948C0C2091F70830E1230FEA
:103B500008F42FEF60E1822F90E00E94230EBC0159
:103B600084EF91E00E94B4438091EF089091F008B7
:103B7000A091F108B091F208860F971FA11DB11D09
:103B80008093940490939504A0939604B093970423
:103B90008C2F0E94931350CE409170055091710567
:103BA00060917205709173058091EF089091F00813
:103BB000A091F108B091F20884179507A607B707FE
:103BC00008F4B8CC8091980181111FC0C091960172
:103BD0008FE0C89FC02D11240FE00C0F093408F0AE
:103BE00008E40E943813811149C00E9438138111E2
:103BF00003C0C43208F4C4E2EC2EF12C33E0C39FBE
:103C0000E0011124C856DB4F50C040E060E080E086
:103C10000E948F0CF8E9EF2EF4E0FF2ED0E0C0E018
:103C20000FE70E94B60D81FF0CC0F70110821182D0
:103C300012822196F3E0EF0EF11CC834D10589F70A
:103C4000C5CF0E94B60DB82E0E94B60D8695782F6E
:103C5000700F08F47FEFCE01880F991F8C0F9D1F06
:103C60009C0128563B4F69016B2D8091F6080E94FC
:103C7000400EF601608371838283DBCF053208F446
:103C8000B4CF04E2B2CFF701E352FD4F80819091AF
:103C90009701892331F02A8148816981C7010E94F7
:103CA0008C0C23962FEFE21AF20AE01660F3802FB5
:103CB0000E94931381116DCC20E0802F8150990BCD
:103CC0007C01822F90E08E159F053CF10E94B60D7D
:103CD000E701CC0FDD1F81FF38C0CE0DDF1DC856B8
:103CE000DB4F188219821A820E942D0EC090EF08B5
:103CF000D090F008E090F108F090F208DC01CB01E0
:103D00008C0D9D1DAE1DBF1D809370059093710598
:103D1000A0937205B09373053CCCAC01440F551FC2
:103D2000480F591F48565B4F0196FC01EE0FFF1FCD
:103D3000E80FF91FE856FB4F80819181A281FA01BB
:103D400080839183A2832F5FBCCF0E94B60DD82EB3
:103D50000E94B60D8695782F2FE7720F08F47FEF3B
:103D6000CE0DDF1DC856DB4F6D2D8091F6080E94E9
:103D7000400E688379838A83B7CF80919801882326
:103D800029F040E060E080E00E948F0C8091960175
:103D90000FE0809F000D1124093408F008E40E9410
:103DA0003813882319F0053208F004E20E94381312
:103DB0004091EF085091F0086091F1087091F2087D
:103DC0008091920590919305A0919405B0919505ED
:103DD00084179507A607B70708F0DBCB6091F408B6
:103DE0007091F5088091F6080E94400E762E672E9D
:103DF000582E84E7E82E85E0F82EC1E1D2E05E017E
:103E00004E016701412C02C044244394F401819186
:103E10004F0190E0F6012081222309F454C0252DA2
:103E2000472D662D0E948C0CF5018581252D472D8F
:103E3000662D90E00E948C0CF601818181936F01C8
:103E4000F1E0AF1AB10821E04212DECF8A8190E0A2
:103E5000F7012281222309F441C0252D472D662D2B
:103E60000E948C0C8B81252D472D662D90E00E94A1
:103E70008C0C0E94B60D837091E009F090E0F70180
:103E80009283F3E0EF0EF11C269622E0CD34D207A8
:103E900009F0B5CF0E942D0EC090EF08D090F00829
:103EA000E090F108F090F208DC01CB018C0D9D1D33
:103EB000AE1DBF1D8093920590939305A09394052A
:103EC000B093950566CB20E040E060E00E948C0C4A
:103ED000F501858120E040E060E0ABCF20E040E0EC
:103EE00060E00E948C0C8B8120E040E060E0BECF5F
:103EF00084E59BE00E9456149FCC8EE49BE0FACFB1
:103F00008091F90821E0382F321B08F430E0832F2C
:103F100065E37BE00E94A3138FCC65E37BE080E048
:103F2000F9CF8091F90821E0382F321B08F430E0F6
:103F3000832F6AEF7AE0EECF6AEF7AE0F0CF8091DC
:103F4000F90821E0382F321B08F430E0832F68ECA9
:103F50007AE0E0CF68EC7AE0E2CF8091F90821E0E6
:103F6000382F321B08F430E0832F60EB7AE0D2CF99
:103F700060EB7AE0D4CF8091F90821E0382F321B32
:103F800008F430E0832F6AE97AE0C4CF6AE97AE086
:103F9000C6CF46E050E06CE170E083EF98E00E940D
:103FA000F0451092C40508954F925F926F927F92F0
:103FB0008F929F92AF92BF92CF92DF92EF92FF9239
:103FC0006091BF057091C0058091C1059091C205B7
:103FD0000E947B166B017C010E9461164B015C0103
:103FE0008092BF059092C005A092C105B092C20513
:103FF000A0919605E6E9F5E08A2F90E04FEF5FEF9C
:1040000060E070E04C195D096E097F09A91328C0B2
:10401000809396058091C305811135C09091F30876
:10402000892F837019F0892F869586959091940138
:10403000913009F441C0992341F1923009F43FC015
:10404000933009F43FC0FF90EF90DF90CF90BF9086
:10405000AF909F908F907F906F905F904F9008955A
:10406000218D328D2901712C612C44155505660571
:10407000770520F481509F5F3296C8CF2C0D3D1DEF
:10408000328F218FF8CF80E0D1CF109296018092AD
:10409000EF089092F008A092F108B092F20889E23D
:1040A000E6E9F5E0A9EFB8E001900D928A95E1F715
:1040B00081E080939401C7CF0E94661AC4CF0E940A
:1040C0008D0AC1CF8091C40581110E94C91F6091E2
:1040D000EF087091F0088091F1089091F2080E9429
:1040E0007B16603171058105910508F4ACCF109203
:1040F0009401A9CFE3EFF8E085E1808380919901F5
:1041000090919A01A0919B0181839283A3838FE771
:1041100084838FEF85830E94C91F0895B0E0A0E0DB
:10412000E4E9F0E20C94D3437901C82F880FDD0B4A
:1041300041155105A9F0FE0193E0EE0FFF1F9A957E
:10414000E1F7E65FFE4F8181928180529C4F208192
:1041500030E04217530708F49A01A9010E94C945AB
:10416000CE010E943E43D82E8823D1F001151105BF
:10417000B9F083E0CC0FDD1F8A95E1F7FE01E65F21
:10418000FE4F438150E00417150708F4A801C65FED
:10419000DE4F6C817D8160527C4FC7010E94C94512
:1041A0008D2DCDB7DEB7E7E00C94EF43A3E0B0E090
:1041B000ECEDF0E20C94D643809124049091250418
:1041C000A0912604B09127042FB7F8944091BA0823
:1041D0005091BB086091BC087091BD082FBF481B6F
:1041E000590B6A0B7B0B81E0443651056105710563
:1041F00008F480E09091AF08998344365105610539
:10420000710520F42091F603291381E09091AE0806
:104210009A83811106C081E02091F703291301C020
:1042200080E0909123049B83811105C08091F80365
:1042300011E08917C9F010E000E030E020E043E031
:1042400050E0BE016F5F7F4F89E00E948E20182FE3
:10425000882351F00E940F09609324047093250471
:104260008093260490932704812F2396E4E00C94F6
:10427000F243A4E0B0E0EFE3F1E20C94D6434091C6
:1042800011045091120460911304709114042FB71B
:10429000F8948091BA089091BB08A091BC08B091A5
:1042A000BD082FBF841B950BA60BB70B11E08436FE
:1042B0009105A105B10518F10E9461166E5F7F4F4F
:1042C0008F4F9F4F69837A838B839C8310E000E03C
:1042D00030E020E044E050E0BE016F5F7F4F85E0BA
:1042E0000E948E20182F882351F00E940F0960939E
:1042F0001104709312048093130490931404812F7B
:104300002496E4E00C94F2438F929F92AF92BF9276
:10431000EF92FF920F931F93CF937B01942FB901DC
:10432000A801F70180809180A280B380EFB7F89454
:104330000091BA081091BB082091BC083091BD08CB
:10434000EFBF081919092A093B090436110521058F
:10435000310518F4C1E0992381F010E000E030E06D
:1043600020E00E948E20C82F882339F00E940F0978
:10437000F70160837183828393838C2FCF911F9188
:104380000F91FF90EF90BF90AF909F908F90089506
:104390000F931F9341E02091F1033091F20380913C
:1043A0002209909123092817390709F440E002E017
:1043B00010E022E239E06BE174E086E00E948421A3
:1043C0008823B1F041E02091F3033091F403809110
:1043D000190490911A042817390709F440E002E003
:1043E00010E029E134E065E174E087E00E94842177
:1043F0001F910F910895CF92DF92FF920F931F9319
:10440000CF93DF93F82E6B01EA01A801B901CE0129
:104410000E94BC4541E0892B09F440E09E01B601B1
:104420008F2D0E948421DF91CF911F910F91FF90DA
:10443000DF90CF900895A7E0B0E0E1E2F2E20C94C3
:10444000D64386E0E3EFF8E0DE01119601900D928D
:104450008A95E1F78091C3058F8307E010E029EF8B
:1044600033E0AE014F5F5F4F68E274E08AE00E9484
:10447000FB212796E4E00C94F243A1E0B0E0E3E4F2
:10448000F2E20C94D6430E945B13898301E010E0B2
:1044900025EF33E0AE014F5F5F4F6FE174E088E0DE
:1044A0000E94FB212196E4E00C94F2430F931F93AA
:1044B00005E010E026EE33E0AC0169E074E082E054
:1044C0000E94FB211F910F910895A1E0B0E0EBE65F
:1044D000F2E20C94CD43762E4A015901680101E0C5
:1044E00010E09E012F5F3F4F50E040E070E060E041
:1044F0000E948E20182F882309F440C0F4014081C7
:104500005181628173812FB7F8948091BA0890919C
:10451000BB08A091BC08B091BD082FBF841B950BB0
:10452000A60BB70B84369105A105B10538F4B70188
:10453000C6010E94C4099981891701F1870195017B
:1045400050E040E070E060E0872D0E948E20B82EA1
:10455000B701C6010E94C40911E09981981310E0C7
:104560001B2139F00E940F09F4016083718382835B
:104570009383812F2196EDE00C94E943A701B601C6
:10458000C5010E94C945F5CFA5E0B0E0EAECF2E232
:104590000C94D2436B0185E0E82EF12C01EE13E080
:1045A0009E012F5F3F4F45E054E061E080E00E94B4
:1045B0006522882349F095E0FE013196A0E0B4E041
:1045C00001900D929A95E1F795E0E0E0F4E0D601D4
:1045D00001900D929A95E1F72596E8E00C94EE4350
:1045E00090E080E00E94EA45883E9E4F19F40E94C8
:1045F0008318089580E0089568EE7EEF90E080E0F3
:104600000E941E4660E082E090E00E94004660E06A
:1046100083E090E00E94004610921A041092190460
:1046200060E084E090E00E94004664E182E290E075
:104630000E94004660E085E090E00E94004660E055
:1046400086E090E00E9400466FEF87E090E00E94D5
:10465000004640E050E0BA0188E090E00E94124637
:1046600060E08DE090E00E94004640E050E0BA013A
:1046700088E190E00E94124660E087E190E00E94AD
:10468000004640E050E0BA018CE190E00E94124602
:1046900070E060E080E290E00E941E4640E050E062
:1046A000BA0188E190E00E94124680E00E94431720
:1046B0000E945C171F920F920FB60F9211242F9336
:1046C0003F934F935F936F937F938F939F93AF939A
:1046D000BF93EF93FF938091E10082FF09C0809127
:1046E000E20082FF05C08091E1008B7F8093E100B2
:1046F0008091DA0080FF24C08091D80080FF20C024
:104700008091DA008E7F8093DA008091D90080FF5B
:104710009DC080E189BD82E189BD09B400FEFDCF65
:1047200081E08093E5088091C008811109C00E9452
:10473000A1070E9442088091E20084608093E20019
:104740008091E10080FF17C08091E20080FF13C0DC
:104750008091E2008E7F8093E2008091E200806190
:104760008093E2008091D80080628093D80019BCC9
:1047700085E08093E5088091E10084FF2BC0809163
:10478000E20084FF27C080E189BD82E189BD89B54F
:10479000982F917080FFFBCF8091D8008F7D809300
:1047A000D8008091E1008F7E8093E1008091E2004B
:1047B0008F7E8093E2008091E20081608093E2002E
:1047C0008091E608882309F447C084E08093E508D7
:1047D0008091E5088091E10083FF27C08091E2008D
:1047E00083FF23C08091E100877F8093E10082E016
:1047F0008093E5081092E6088091E1008E7F809317
:10480000E1008091E2008E7F8093E2008091E200DF
:1048100080618093E20042E060E080E00E94100846
:104820008091F00088608093F000FF91EF91BF913C
:10483000AF919F918F917F916F915F914F913F9138
:104840002F910F900FBE0F901F90189519BC1092CA
:10485000E5081092C00874CF8091E30087FD93E0D3
:104860009093E508B5CF78941F921FB61F9211243C
:104870008F939F93AF93BF938091BA089091BB0899
:10488000A091BC08B091BD080196A11DB11D8093F7
:10489000BA089093BB08A093BC08B093BD08BF9121
:1048A000AF919F918F911F901FBE1F9018959C01F3
:1048B0004FB7F8948091BA089091BB08A091BC08BA
:1048C000B091BD084FBF821B930B08952FB7F8948A
:1048D0008091BA089091BB08A091BC08B091BD0826
:1048E0002FBF08950E9466249C01909190048091AE
:1048F0009104982B21F030938D0420938C04909197
:10490000920480919304982B21F030938B04209390
:104910008A04E091B508F091B608309749F082E03A
:1049200080938E040480F581E02D8EE894E0099553
:10493000089590E080E00E949F0990E080E00E944E
:104940007A091092AE080E94AA1886E0EEE8F4E018
:10495000DF011D928A95E9F710928704109288046E
:10496000109289040E9472240895909323098093E1
:1049700022090E9499240895809122099091230987
:104980009C01267033272630310521F488600E946F
:10499000B5240895877FFBCF21E030E002C0220FCD
:1049A000331F8A95E2F720953095809122099091E6
:1049B0002309822393230E94B52408959091B20382
:1049C000809589238093B203282F277091F4282F94
:1049D000082E000C330B9217130659F09091BF0864
:1049E00092FF07C08595859585950E94CC241092ED
:1049F000B2030895CF93C091BF08C2FB992790F9E5
:104A0000981791F080FBC2F9C093BF086091BE086F
:104A100084E090E00E9400466C2F82E290E00E94C9
:104A2000004682E00E94DE24CF91089521E030E02C
:104A300002C0220F331F8A95E2F7809122099091DC
:104A40002309822B932B0E94B524089590931A0476
:104A5000809319040E94992408951092AF088091C0
:104A60009501EAE2F3E0882361F08091BE0887FFB8
:104A700008C08EE1DF011D928A95E9F70E94992412
:104A8000089586E0F7CFAAE2B0E0E9E4F5E20C94FD
:104A9000D74387EE98E02091F100DC012D93CD0102
:104AA000B8E08F3E9B07B9F78091E808833009F49E
:104AB00072C0B8F4813009F449C0823009F4B3C03F
:104AC0008091E80083FF8BC28091E7089091E8080D
:104AD0009A3008F084C2E92FF0E0EC54F94B0C94C2
:104AE0001F448A3009F48EC08B3009F471C08930BC
:104AF00039F78091E708813219F78091EB0890919E
:104B0000EC08009711F00297D9F68091E800877FB2
:104B10008093E8008091E80082FF38C09091F30014
:104B20008091F200029731F48091F100813011F010
:104B3000863021F48091F1008093C2088091E800D2
:104B40008B778093E8000E94F107BACF8091E70845
:104B5000813A09F0B5CF8091E800877F8093E80023
:104B60008091EB089091EC08892B61F460E283EC72
:104B700098E070E00E949D088091E8008B77809318
:104B8000E8009ECF60E090E080E0F3CF8091E50800
:104B90008111C0CF95CF8091E708813A09F090CF7D
:104BA0008091EB089091EC08892B09F089CF8091D6
:104BB000E800877F8093E8008091E80080FFFCCFC9
:104BC000809195018093F1008091E8008E77B9CFB4
:104BD0008091E708813209F073CF8091EB089091C2
:104BE000EC08892B09F06CCF8091E800877F8093D7
:104BF000E8000E94F1078091E908809395010E94E6
:104C00002D255ECF8091E708813209F059CF809140
:104C1000E800877F8093E8000E94F1078091EA080E
:104C20008093C1084DCF8091E708813A09F048CFC1
:104C30008091E800877F8093E8008091E80080FF02
:104C4000FCCF8091C108BECF803899F0823809F03E
:104C5000C6C18091EB088F70873008F0C0C1809387
:104C6000E9008091EB0085FB882780F91092E9002C
:104C700006C08091E3089091E408911182609091C0
:104C8000E800977F9093E8008093F1001092F10084
:104C90008091E8008E779FC1882309F48DC182300E
:104CA00009F09DC18091E908811190C18091EB08C4
:104CB0008F702FEF280F263008F091C18093E90004
:104CC0002091EB0020FF82C1933031F48091EB0002
:104CD00080628093EB007AC19091EB009061909399
:104CE000EB0021E030E001C0220F8A95EAF7209323
:104CF000EA001092EA008091EB008860EACF81110F
:104D00006EC11091E9081F778091E3008078812BB4
:104D10008093E3008091E800877F8093E8000E9401
:104D2000F1078091E80080FFFCCF8091E30080686C
:104D30008093E30082E0111183E08093E5084FC186
:104D40008058823008F04BC12091E9083091EA0880
:104D50002C3DE3E03E07A1F583E08A838AE2898364
:104D60004FB7F894DE01139620E03EE051E2E32FC6
:104D7000F0E050935700E49120FF03C0E295EF70FC
:104D80003F5FEF708E2F90E0EA30C0F0C7968D93B2
:104D90009D932F5F243159F74FBF8091E800877FA3
:104DA0008093E8006AE270E0CE0101960E949D08BF
:104DB0008091E8008B778093E80011C1C096E7CF1F
:104DC0008091EB089091EC08432F55274330510513
:104DD00009F44AC078F54130510509F47AC08BE5F1
:104DE00090E0E8E6FEE04230510509F0F8C020917D
:104DF000E800277F2093E8002091ED083091EE082D
:104E00008217930708F49C0140E02115310509F051
:104E100065C0411163C08091E80082FDC9CF8091D7
:104E2000E508882329F2853019F28091E80083FF94
:104E3000F2CFBECF4132510509F43CC04232510598
:104E400009F0CDC08330910508F0C9C0FC01EE0F18
:104E5000FF1FEB5FFD4F0190F081E02D8E5F9D4FB6
:104E6000DC018C9190E01AC0332721303105D1F05C
:104E70002115310561F02230310509F0B0C0E5EDB2
:104E8000FEE0E4918E2F90E0E5EDFEE007C0EFEF4D
:104E9000FEE0E4918E2F90E0EFEFFEE0009709F442
:104EA0009EC0A5CFE3EEFEE0E4918E2F90E0E3EE0E
:104EB000FEE0F4CF8330910508F091C0880F991F70
:104EC000FC01E55FFD4F0190F081E02D89E090E06D
:104ED0008ECF82E190E0E3ECFEE089CF8091E5089F
:104EE000882309F465CF853009F462CF8091E8000A
:104EF00083FD5ECF8091E80082FD8DCF8091E80038
:104F000080FF83CF9091F3008091F200211531054D
:104F100019F08830910550F041E0089709F040E021
:104F20008091E8008E778093E8006FCF44914093A2
:104F3000F1003196215031090196E8CF803809F00F
:104F40004EC08091E800877F8093E8008091E6085A
:104F50008093F1009DCE811142C01091E90812307A
:104F6000F0F58091E800877F8093E8001093E608D1
:104F70000E94F107112311F084E005C08091E30045
:104F800087FDFACF81E08093E50842E061EC81E0A3
:104F90000E94100842E261EC84E00E94100842E2A4
:104FA00061EC82E00E94100842E260EC83E00E9423
:104FB00010088091E50813C08091E908813079F4E8
:104FC00081E0933009F080E08093E4081092E900DA
:104FD0008091E800877F8093E8000E94F10780912C
:104FE000E80083FF0AC08091E800877F8093E80093
:104FF0008091EB0080628093EB00AA96E3E00C9432
:10500000F3431F920F920FB60F9211242F933F93E9
:105010004F935F936F937F938F939F93AF93BF93C0
:10502000CF93DF93EF93FF93D091E900DF708091EE
:10503000EC00C82FC17080FDC0E81092E90080919B
:10504000F000877F8093F00078940E9443251092AF
:10505000E9008091F00088608093F000CD2BCF7044
:10506000C093E900FF91EF91DF91CF91BF91AF9194
:105070009F918F917F916F915F914F913F912F9170
:105080000F900FBE0F901F9018950E942D252FEFA7
:1050900084E39CE0215080409040E1F700C0000094
:1050A00088E19AE00FB6F894A895809360000FBE4F
:1050B00090936000FFCF662309F45DC0803F41F408
:1050C0000E94310F8195809391040E94722408956B
:1050D000813F19F40E94310FF6CF823F31F40E94D4
:1050E000310F819580939004F0CF833F19F40E9493
:1050F000310FF8CF893F29F40E940F0F809392045B
:10510000E4CF8A3F21F40E940F0F8195F7CF8B3FA8
:1051100031F40E940F0F819580939304D6CF8C3F7A
:1051200019F40E940F0FF8CF9CE0980F953070F49F
:10513000845F990B21E030E001C0220F8A95EAF7E5
:1051400080918F04822B80938F04BFCF8D3F31F4E9
:1051500080918904816080938904B7CF8E3F21F4C8
:10516000809189048260F7CF8F3F09F0AECF8091A4
:1051700089048460F0CF40919004803F59F480917D
:10518000910487FF0DC01092910441110BC0109241
:10519000870408C0813F81F48091910418169CF324
:1051A000442381F08091920490919304892B09F01B
:1051B0008CCF1092880489CF823F49F447FFF0CF0B
:1051C00010929004809191048111ECCFE0CF833F45
:1051D00019F41416ACF3E4CF90919204893F29F4AA
:1051E0001916F4F610929204DBCF8A3F19F497FF58
:1051F000D7CFF8CF909193048B3F29F497FFD0CF6E
:1052000010929304CDCF8C3F19F41916CCF3C8CF6C
:105210009CE0980F953090F4845F990B21E030E08A
:10522000B90102C0660F771F8A95E2F7CB0180951E
:1052300090918F04892380938F04B2CF8D3F31F4F6
:10524000809189048E7F80938904AACF8E3F21F4B8
:10525000809189048D7FF7CF8F3F09F0A1CF809196
:1052600089048B7FF0CF882389F19CEF980F913AC6
:1052700040F4682F88E293E00E941B090E94AA185C
:10528000089590E2980F983050F4877091E001C033
:10529000990F8A95EAF7892F0E945711EFCF9BE566
:1052A000980F933028F490E080E00E949F090895C1
:1052B00098E5980F993128F490E080E00E947A09EF
:1052C0000895803F18F060E00E945B280895CF9316
:1052D000DF93EC010E943329CE010E94EF110E945E
:1052E0004419DF91CF91089580914803833049F0AC
:1052F000843011F0823041F487E292E00E94672905
:10530000089580E40E9455190895809148038330E0
:1053100049F0843011F0823041F486E292E00E943C
:105320006729089581E00E9455190895CF93C82FE9
:105330008823D9F18CEF8C0F813AC8F580919501C3
:10534000882311F18091BE0887FF1EC0EC2FE695DF
:10535000E695E695F0E0E85DFC4F828190E04C2F09
:10536000477021E030E002C0220F331F4A95E2F778
:1053700082239323892B91F06C2F88E293E00E9483
:105380001B090E94AA180AC0EAE2F3E080E393E056
:105390002191C21789F38E179F07D1F76C2F88E2EE
:1053A00093E00E9445090E94AA18CF91089580E2D7
:1053B0008C0F883068F4C77021E030E001C0220F04
:1053C000CA95EAF78091AF08822B8093AF08EBCFA4
:1053D000EBE5EC0FE33040F4F0E0E456FE4F808163
:1053E00090E00E949F09E1CFE8E5EC0FE93150F42D
:1053F000F0E0EE0FFF1FE156FE4F808191810E9489
:105400007A09D3CFC03F88F261E08C2F0E945B28DD
:10541000CCCF1F93CF93DF93182FEB010E949629D7
:105420008FE99FE00197F1F700C000002197C1F7D5
:10543000812F0E943329DF91CF911F910895CF933F
:10544000C82F0E94EF110E944B198C2F0E949629A1
:10545000CF9108950E94F11180934803833049F061
:10546000843059F0823021F487E292E00E941F2AB2
:10547000089580E40E945C19089587E292E00E94FA
:105480001F2A8AE090E0EFE9FFE03197F1F700C0D2
:1054900000000197C1F787E292E00E946729E4CFFC
:1054A0000E94F11180934803833049F0843059F011
:1054B000823021F486E292E00E941F2A089581E062
:1054C0000E945C19089586E292E00E941F2A8AE0F9
:1054D00090E0EFE9FFE03197F1F700C0000001979D
:1054E000C1F786E292E00E946729E4CFA1E1B0E033
:1054F000ECE7FAE20C94C9438E010F5F1F4F8AE07C
:10550000D8011D928A95E9F753EDC52E51E0D52EAD
:10551000F12CE12CAA24A394B12CF60181916F0106
:105520008F3F09F443C0F894E82FE295EF70F0E064
:1055300021A18F70A50102C0440F551F8A95E2F783
:10554000CA01922F982B91A392A18095892382A3BF
:10555000789400C0E8EDF1E0912C31E021912F3FEB
:1055600009F4C8C0A22FA295AF70B0E090968C91BC
:1055700090E02F7002C0959587952A95E2F780FDFF
:10558000B9C0832F982A330F51E0EE3DF50731F76C
:10559000F601319780818F3F11F00E94530F80EA0E
:1055A0008A95F1F7F801EE0DFF1D90829FEFE91A41
:1055B000F90AA5E0EA16F10409F0AFCF4AE050E09D
:1055C000B80183E394E00E94BC457C01892B41F043
:1055D0008AE0F801A3E3B4E001900D928A95E1F727
:1055E00000913E0410E003581B4F1092D703D09057
:1055F000D603DD2009F4ECC10E9466242091D40377
:105600003091D503BC01621B730B9093D50380933B
:10561000D4036F3F710511F008F06EC0611571057C
:1056200009F464C0362EE0913104F09132041092F6
:10563000D6031092D30330E020E0512C412CC12C32
:10564000AA24A394B12C50E040E0C801820F931F1C
:10565000998B888BD901AD5CBB4F3D01CF01840F85
:10566000951FDC019C90892CE89480F8882061F1DA
:10567000892C8694B92DB1709B2E8616170611F0D1
:105680000CF03DC0DC019C92911040C0A889B98902
:105690009C90D3018C90C501042E01C0880F0A9400
:1056A000EAF7982D982380958921892B992D9827A1
:1056B000842C912C892A442443948114910409F464
:1056C000412CA889B9898C934F5F5F4F46305105B3
:1056D00029F636962F5F3F4F2530310509F0B3CFBD
:1056E000C092D6034092D7035092D303EF2809F01B
:1056F0007EC170C180E046CF6FEF70E093CF83181A
:10570000880C8B2ADC018C92CD2CDECF5D2CDCCF7B
:10571000772021F040FD02C041704C932F5F3F4F36
:105720002630310509F081C1069631960817190710
:1057300009F070C15093D6038092D703C090D7036D
:105740000E943813D82EE0913E04AE01455F5F4FB2
:105750007A01882309F4A0C085E0DA011D928A95B8
:10576000E9F70E2F10E003581B4F80912C048A306C
:1057700008F05FC044EC52E2B701C8010E94051373
:10578000882309F478C046E552E2B701C8010E94B7
:105790000513882309F46FC042EE57E3B701C8012F
:1057A0000E940513882309F466C049E351E2B7015A
:1057B000C8010E940513882309F45DC048EC51E23A
:1057C000B701C8010E940513882309F454C04DE3B2
:1057D00052E2B701C8010E940513882309F44BC0A7
:1057E00046ED50E2B701C8010E940513882309F471
:1057F00042C04BE152E2B701C8010E940513882361
:10580000D1F110922C0480913D0490E045E050E0ED
:10581000B70183589B4F0E94BC4521E02093DE03D3
:10582000892BE1F4D12C8D2D8C296196E1E10C942A
:10583000E5438091D8039091D9030E945724843F77
:10584000914008F097CF8091DE03882359F385E0DB
:10585000F70111928A95E9F71092DE03A0913D04B9
:10586000B0E0A358BB4F85E0FE013B9601900D923E
:105870008A95E1F7D8CF80912C048F3F31F08F5F6C
:1058800080932C048A3008F4BECF0E946624909343
:10589000D9038093D803D7CF00913D0410E003587B
:1058A0001B4FF0E0E358FB4F85E0A1EEB3E0019021
:1058B0000D928A95E1F765E070E081EE93E00E9439
:1058C000C4098093E00385E0E6EEF3E0D80101909F
:1058D0000D928A95E1F74091550450E0609154048F
:1058E00070E0605B7B4FC7010E94C9458B85809348
:1058F000EC0361E070E0C7010E94C4098093EB03F0
:105900008090ED039090EE03A090EF03B090F00331
:105910008091DA039091DB03A091DC03B091DD0369
:1059200088169906AA06BB06D1F08092DA039092F7
:10593000DB03A092DC03B092DD030E9438138111D7
:105940000EC00E940F09861A970AA80AB90A809207
:105950002D0490922E04A0922F04B09230048091D6
:10596000F1039091F203909323098093220980918F
:10597000F3039091F40390931A0480931904809197
:10598000F5038093B2088091F7039091F60390930A
:10599000AF088093AE088091F8030E94461186E01C
:1059A000E9EFF3E0A3EFB8E001900D928A95E1F7FB
:1059B0001091FF03112349F08091C305811105C0A7
:1059C0000E94661A80E00E948D0A1093C3052BCFB7
:1059D000EF2839F48091D303882309F4AFCED11096
:1059E00006C00E9466249093D5038093D4038091CF
:1059F0003104909132045091D6038090D70323E371
:105A0000422E24E0522EF8018C01025E1F4FEE243C
:105A1000E394F12CD2019D902D012081922630E05B
:105A200020E06D01B1E0CB1AD108BC01620F731FF9
:105A30005701022E02C0AA0CBB1C0A94E2F7DB013C
:105A40004C91742EE89470F8692C6A2009F460CEA9
:105A5000711064CED6015C915A2141E009F440E016
:105A60004A60DB014C9340FF05C04081A426A08220
:105A70008824839451E052CEA4E0B0E0E2E4FDE259
:105A80000C94C9438C01DC0113968D919C91149761
:105A9000892B49F04C9111965C911197842F8523A5
:105AA0008F3F09F091C62496E1E10C94E543C401CF
:105AB0000E94E245811101C0EA942FEF821A920AF6
:105AC000D8C64701CE0101967C01D7012C91222333
:105AD00009F4D7C6213009F062C011968C91119754
