:100000000C941F030C943C030C943C030C94D422DA
:100010000C943C030C943C030C943C030C943C0364
:100020000C943C030C943C030C941C2A0C94F02A72
:100030000C94F7240C943C030C943C030C943C0368
:100040000C943C030C943C030C943C030C943C0334
:100050000C943C030C949A250C943C030C943C03A4
:100060000C943C030C943C030C943C030C943C0314
:100070000C943C030C943C030C943C030C943C0304
:100080000C943C030C943C030C943C030C943C03F4
:100090000C943C030C943C030C943C030C943C03E4
:1000A0000C943C030C943C030C943C0300000000B3
:1000B0000000000000000000000014001A0008000A
:1000C00015001700000004681664076109620A0041
:1000D00000001D411B74060019000500000000000F
:1000E00029422C432B4400000000000000000000C7
:1000F000000000000000130012000C0018001C009B
:10010000000034680F640E610D620B00000038417E
:100110003774360010001100000000004C472A46DA
:100120002845000000000000000000000000000062
:1001300000001D011B01060119011C010000E30064
:10014000E200E000E100010000001D011B010601CA
:1001500019011C0100000000F200F300F100000092
:1001600000000000000000000000000000001D0171
:100170001B01060119011C010000E300E200E00080
:10018000E100010000001D011B01060119011C0115
:1001900000000000F200F300F10000000000000089
:1001A00000000000000000000000005C00000000F3
:1001B000000000000000E300E200E000E1000000B9
:1001C00000000000E6000000000000000000000049
:1001D000000000000000000000000000000000001F
:1001E000000000000000CA5CC85CC65CC45CC35C64
:1001F0000000AB00A900AA00AC0000000000000055
:10020000000000000000000000000000A800AE0098
:10021000AD00000000000000000000000000000031
:100220000000005C00000000000000000000E3008F
:10023000E200E000E100000000000000E600000035
:1002400000000000000000000000000000000000AE
:1002500000000000000000000000000000001D0180
:100260001B01060119011C0100004F005200510042
:100270005000390000004D004B004E004A0049007C
:10028000000000004C002A002800000000000000D0
:1002900000000000000000000000005C0000000002
:1002A000000000000000E300E200E000E1000000C8
:1002B00000000000E6000000000000000000000058
:1002C000000000000000000000000000000000002E
:1002D0000000000000001D011B01060119011C01A6
:1002E0000000F000ED00EE00EF0000000000FC0058
:1002F000F900FA00FB00000000000000F200F3002B
:10030000F1000000000000000000000000000000FC
:1003100000002F02240225022602300200003302D0
:100320002102220223022E02000035021E021F02B9
:100330002002310200000000260227022D020000E8
:100340000000000000000000000000000000005C51
:1003500000000000000000000000E300E200E000F8
:10036000E100000000000000E600000000000000C6
:10037000000000000000000000000000000000007D
:10038000000000000000000000002F0024002500F5
:1003900026003000000033002100220023002E0040
:1003A000000035001E001F0020003100000000008A
:1003B000370027002D0000000000000000000000B2
:1003C000000000000000005C0000000000000000D1
:1003D0000000E300E200E000E10000000000000097
:1003E000E600000000000000000000000000000027
:1003F00000000000000000000000000000000000FD
:10040000000045004000410042004600000044005A
:100410003D003E003F004700000043003A003B0023
:100420003C0048000000000065002C002B0000008C
:100430000000000000000000000000000000005C60
:1004400000000000000000000000E300E200E00007
:10045000E100000000000000E600000000000000D5
:100460000000000000000000000000000005010581
:10047000020503050405050500060106020603063C
:10048000040605060007010702070307040705071E
:10049000000801080208030804080508000901090A
:1004A0000209030904090509000001000200030014
:1004B000040005000001010102010301040105011E
:1004C000000201020202030204020502000301030A
:1004D00002030303040305030004010402040304EC
:1004E0000404050400AE00AF00DA0281FFD9F1DB9D
:1004F00020A4A62EAF00A0C000A1C800AED580A841
:100500001FD300408D1420000C0353006F006600C1
:100510006C00650000001A034A006F00730065005C
:1005200066004100640061006D00630069006B00BB
:1005300000000403090409023B00020100A0FA09BB
:100540000400000103010100092111010001224002
:1005500000070581030800010904010001030000F0
:1005600000092111010001227B0007058203200000
:1005700001120100020000000832FC8702010001A4
:1005800002000105010902A10185020901A100057E
:100590000919012908150025019508750181020531
:1005A00001093009311581257F95027508810609F9
:1005B000381581257F950175088106050C0A3802DA
:1005C0001581257F950175088106C0C00501098048
:1005D000A101850319012AB700150126B70095016D
:1005E00075108100C0050C0901A101850419012ABB
:1005F000A002150126A002950175108100C0050119
:100600000906A101050719E029E71500250195084C
:10061000750181029501750881010507190029FFFF
:10062000150026FF009506750881000508190129A7
:1006300005950575019102950175039101C011247D
:100640001FBECFEFDAE0DEBFCDBF11E0A0E0B1E02A
:10065000EAE0FBE502C005900D92A23DB107D9F793
:1006600025E0A2EDB1E001C01D92A635B207E1F789
:100670000E9400170C94662D0C9400009C013A9582
:1006800021153F4150F5FC01EE27F170BC016627B2
:100690007270AC01442754709C012227387094FF7B
:1006A0000EC080E1EF2B09F480E0672B09F0806237
:1006B000452B09F08064232B89F08068089581E040
:1006C000EF2B09F480E0672B09F08260452B09F0DD
:1006D0008460232B19F08860089580E00895CF93FB
:1006E000DF93EB010E943E03FE010995DF91CF915C
:1006F0000895CF93DF93EC01805E9109089720F075
:1007000065EF78E0209711F465E076E0CE010E9475
:100710006F038C2F0E946605DF91CF910895CF93D0
:10072000DF93EC010E94B205CE01805E910908972B
:1007300020F06CEF78E0209711F46CE076E0CE01C9
:100740000E946F03DF91CF91089581E0089581E0C9
:1007500008950E94A703089508950E94AC03089588
:10076000A5E0B0E0E6EBF3E00C94E62C49835A8375
:100770003091DD0189819A81311119C0662399F088
:10078000222389F00E94EE0A182F682F89819A810E
:100790000E94CA0A69817A81812F0E94B11125962F
:1007A000E3E00C94022D0E94DC0A182FF3CF0E9484
:1007B000EE0A69817A81F1CFFC01262F40815181B7
:1007C0006281738184810E94B003089581E008955D
:1007D000CF93DF93EC0160E00E94DC03BE010E9436
:1007E000AD03DF91CF9108950E94141308950E94E4
:1007F0001813089508950E9419090E94FA032FEF13
:1008000084E39CE0215080409040E1F700C000006C
:1008100008950E94FB030E94BE2508950E94FB03D9
:100820000E94CF2508950F931F93CF93DF938C01E0
:1008300061E00E94DC03EC01B8010E94A903811170
:1008400006C080E0DF91CF911F910F910895B8010C
:10085000CE010E94381E8823A1F3B801CE010E9468
:10086000F320882371F3B801CE010E94A41B8823D2
:1008700041F3B801CE010E946520882311F3F801ED
:100880008281882361F0CB35FDE5DF0701F158F463
:10089000C115ECE5DE0791F0CF3DDC4591F0C801D4
:1008A0000E94A503CFCFCD358DE5D80769F090F034
:1008B000C83ADD45A1F70E940E04C3CF0E94090487
:1008C000C0CF0E94C10FF7CF0E94020FE8CF0E9455
:1008D0000C0FE5CF0E94100FE2CF0E94D4240E949B
:1008E0008C040E944C1B08950E9490040E94D924FD
:1008F000089508950E947904089581E008950E9462
:100900007D0408950895CF93C82F0E947A048C2FF8
:100910000E947F04CF91089580E00E94830408958F
:100920000E94FA230E94830408950E94FA23909162
:10093000D401981721F08093D4010E948304089574
:10094000442319F08091DF0108959C0143E036951E
:1009500027954A95E1F7620F731F8770992721E069
:1009600030E001C0220F8A95EAF7FB0190819223C3
:1009700081E009F480E00895FC01E770FF2721E0A1
:1009800030E001C0220FEA95EAF733E096958795AB
:100990003A95E1F7FB01E80FF91F8081442319F034
:1009A000282B2083089520952823FBCF0F931F9396
:1009B000CF93DF938C01DC0111968C9111978A30D3
:1009C00048F5CC91C63030F5D0E0B6E08B9FC00D35
:1009D000D11D1124F801428165ED71E0CE010E9424
:1009E000A00440E0882389F0CE01880F991FFC0104
:1009F000E359FB4FE491D8011196EC931197FC0158
:100A0000E459FB4FE491EC9341E065ED71E0CE01D8
:100A10000E94BC04DF91CF911F910F910895ABE02C
:100A2000B0E0E5E1F5E00C94E72C4F835887698747
:100A30007A878B8761110E944D0E8A859B85892B51
:100A400029F08F81988589238F3F39F51E821D8279
:100A500085E0FE013796DE01119601900D928A9590
:100A6000E1F78C819D81892B61F449815A816B81E9
:100A70007C818D819E810E94500D2B96E2E00C942A
:100A8000032D89819A8189238F3F79F3CE010196C5
:100A90000E94E6038111E9CFF0CFCE0107960E94B4
:100AA000D604D4CFFC01808191810E94280B9295BD
:100AB0009F70963051F4863F41F08091DF0191E0C4
:100AC00089278093DF019093DE010895CF93C82F8B
:100AD0008823B9F08CEF8C0F813AA8F46C2F8091A9
:100AE0000001909101010E946524882329F08C2F38
:100AF0000E94E70D0E946E0E8C2F0E94DF0D0E9457
:100B00006E0ECF91089580E28C0F883048F4C77044
:100B100081E001C0880FCA95EAF70E94300EEFCF3E
:100B2000EBE5EC0FE33040F4F0E0E858FE4F808155
:100B300090E00E942724E5CFE8E5EC0FE73150F480
:100B4000F0E0EE0FFF1FE65BFE4F808191810E9477
:100B50003D24D7CFCD3EA8F28C2F0E9484170E944F
:100B60005718CFCF882379F19CEF980F913A28F44A
:100B70000E94E70D0E946E0E089590E2980F983043
:100B800050F4877091E001C0990F8A95EAF7892F98
:100B90000E94360EEFCF9BE5980F933028F490E03B
:100BA00080E00E942724089598E5980F973128F453
:100BB00090E080E00E943D2408958D3E20F00E9448
:100BC000DE170E94571808951F93CF93DF93182FB5
:100BD000EB010E946605209739F4812F0E94B2052F
:100BE000DF91CF911F9108958FE99FE00197F1F771
:100BF00000C000002197EFCF6AE070E0893311F464
:100C000060E570E00E94E4050895882321F00E94C9
:100C1000300E0E946E0E0895882321F00E94360E39
:100C20000E946E0E08954F925F926F927F92BF92D4
:100C3000CF92DF92EF92FF920F931F93CF93DF93A8
:100C40006C01C62F172FFC01D281058102950F7010
:100C50000E94260EE82E8823D1F0DD2329F1812F72
:100C6000807F803441F090E29C0F9830E8F080362D
:100C700011F4C63FC9F08091260382FF15C082E0BF
:100C80000E94D10E0E94260E91E0E82EE926B12E98
:100C9000B2949FE0B922FBE0FB15C0F1EB2DF0E030
:100CA000E859F24D0C94D12CE12CF1CF012F0F70AB
:100CB000812F807F11F00295007FDD2399F00023C2
:100CC00059F080E28C0F883010F0C11107C0802FDE
:100CD0000E94300E0E946E0E8C2F6EC0802F0E94DC
:100CE000400EF8CF8C2F0E94B205002379F080E2ED
:100CF0008C0F883010F0C11104C0802F0E94360E76
:100D000003C0802F0E94460E0E946E0E2B2D28508D
:100D1000330B2430310520F40E94FA230E9483040F
:100D2000DD2339F0107F103611F4C63F11F00E9418
:100D3000190EEE2089F00E94FC0D80FD0DC0F60119
:100D400012820E94F60D0E94D209C6010E94CB08B1
:100D50000E94F60D0E94F409DF91CF911F910F912F
:100D6000FF90EF90DF90CF90BF907F906F905F905B
:100D70004F900895212F2F70F22E812F807F803287
:100D800019F0F29480EFF822CC2341F0C130E9F160
:100D9000DD2309F445C00023E9F19ECF80912603AD
:100DA00082FD15C0DD2359F0FF2029F08F2D0E9410
:100DB000300E0E946E0E80E00E946605A7CF80E094
:100DC0000E94B205FF2009F4A1CF8F2D97CFDD231C
:100DD00081F0011106C00E94500E8F290E94050665
:100DE00095CF0130C1F70E94500E8F290E94570EF7
:100DF0008DCF011106C00E94640E8F2D0E940C063B
:100E000085CF013009F482CFF6CFDD2329F00630FB
:100E100008F07CCF8F2DE2CF053008F077CFEDCFF3
:100E2000002359F3C93369F43FEF87EE93E0315063
:100E300080409040E1F700C000008C2F0E94B20576
:100E400065CFEFE3FCE93197F1F7F5CF812F869578
:100E50008695837069F0813009F058CF8C2F912FDF
:100E60009370D11102C090E080E00E943D244ECFEB
:100E70008C2F912F9370D11102C090E080E00E94DE
:100E8000272444CF8C2FDD2329F00E9484170E9451
:100E900057183CCF0E94DE17FACF812F837009F0DC
:100EA00043C0D11133CF2C2F229526952770220FC6
:100EB000220F6C2F6F70462E512C712C612C022E3C
:100EC00004C0440C551C661C771C0A94D2F760E0E1
:100ED00070E0CB01C4FF0FC06FE070E080E090E0F5
:100EE00004C0660F771F881F991F2A95D2F7609557
:100EF000709580959095212F2695269523706429CD
:100F0000752986299729223049F058F4213019F0A3
:100F10000E947D09FBCE0E946A09F8CE0E949009CA
:100F2000F5CE0E946709F2CE8695DD2311F0812F60
:100F30008170882309F4EACE2C2F229526952770FC
:100F4000220F220F6C2F6F70462E512C712C612CAA
:100F5000022E04C0440C551C661C771C0A94D2F760
:100F600060E070E0CB01C4FF0FC06FE070E080E094
:100F700090E004C0660F771F881F991F2A95D2F74B
:100F80006095709580959095212F269526952370D4
:100F90006429752986299729223049F058F421308F
:100FA00019F00E944D0AB2CE0E943A0AAFCE0E94BA
:100FB000600AACCE0E94A909A9CE012F0F70DD23D3
:100FC00029F0802F0E94D2098C2F08CF8C2F0E94ED
:100FD0000C06802F0E94F40999CEC23F41F160F4C3
:100FE000C03FB9F0C13F81F0DD2309F447C00111D2
:100FF00073CE812F8F711FC0C33F01F1C43FA1F792
:101000008091260382FD24C0812F8F71DD2311F38F
:1010100012C0DD2341F0053008F078CE812F8F71AA
:101020000E94180A73CE063008F070CEF7CF812FD9
:101030008F71D111CFCF0E94D20968CEDD2329F064
:10104000812F8F710E94BC0961CE0E94B6095ECECD
:10105000DD2351F0012F0F71802F0E94D20963E030
:10106000802F0E94B30E52CE81E00E94D10E02303A
:1010700008F44CCE82E00E94D10E48CE002379F0D5
:10108000C93341F4FFEF27EE33E0F1502040304008
:10109000E1F7D1CE8FE39CE90197F1F7CCCE812F18
:1010A0008F7198CFE0E1EC0FE73090F5F0E0EC586D
:1010B000F24D0C94D12CDD2309F428CE8091DF0170
:1010C00091E089278093DF0121CED093DF011ECEEE
:1010D00081E08D27F7CFD11119CE81E0F3CFD11167
:1010E00015CE1092DF0112CEDD2319F00E94000E02
:1010F0000DCE0E940C0E0ACEDD2339F08091DE0168
:101100008823E1F21092DE0101CE0530B8F2FECD67
:101110008091DE010023D9F0882341F08091DF0126
:1011200091E089278093DF011092DE01D111D4CDA7
:10113000EFE3FCE93197F1F700C000008C2F0E942B
:10114000B20586E0F60111928A95E9F7DFCD882392
:1011500009F4DCCDD111DACD8091DF0191E089274E
:101160008093DF01CFCF0F931F93CF93DF93EC01D9
:10117000688179818A810E94330B8C010E94730AF5
:101180000E946609B801CE010E941306DF91CF913B
:101190001F910F910895CF93DF93EC018B819C8178
:1011A000892B29F08881998189238F3F51F4DF9120
:1011B000CF910895CE010E94B308CE010E94E803AA
:1011C000F6CFCE010E9413048111F4CF0E94260EA7
:1011D000882369F38A81882351F38091260382FF53
:1011E000E6CF82E00E94D10EE2CF882321F00E9458
:1011F000400E0E946E0E0895882321F00E94460E34
:101200000E946E0E089590E080E00E94272490E0F6
:1012100080E00E943D240E944D0E0E946E0E0E94AE
:1012200068190E94571808950E94EF0D0E94030943
:1012300008950E943D0E0E941409089592959F7092
:10124000963091F058F4925F9F70923058F4803F3E
:1012500019F030F4883E30F481E008959A5FF4CFBD
:10126000843FD1F380E00895883EB0F3813FD1F709
:10127000F3CFFC01808191810E94280B0E941E09FE
:101280000895A5E0B0E0E7E4F9E00C94E72C25969A
:10129000E2E00C94032DA6E0B0E0E1E5F9E00C9467
:1012A000E72C2696E2E00C94032D08950E94550940
:1012B00008950E94560960930C0270930D0280936A
:1012C0000E0290930F020E940309089508950E9450
:1012D000590908950F931F9300910C0210910D026C
:1012E00020910E0230910F02602B712B822B932BD9
:1012F0000E9459091F910F9108950F931F93009118
:101300000C0210910D0220910E0230910F02602309
:101310007123822393230E9459091F910F910895ED
:101320000F931F9300910C0210910D0220910E0259
:1013300030910F0260277127822793270E94590955
:101340001F910F9108950E94550908950E94A309C5
:1013500008950E94A6096093080270930902809381
:101360000A0290930B020E940309089560E070E066
:10137000CB010E94A90908950F931F9341E050E00B
:1013800060E070E08A019B0104C0000F111F221F62
:10139000331F8A95D2F7C901B8010E94A9091F918C
:1013A0000F9108950F931F9341E050E060E070E0CB
:1013B00004C0440F551F661F771F8A95D2F780918E
:1013C000080290910902A0910A02B0910B028A01D1
:1013D0009B01082B192B2A2B3B2BC901B8010E941A
:1013E000A9091F910F9108950F931F9341E050E0B9
:1013F00060E070E004C0440F551F661F771F8A9598
:10140000D2F7CB01BA0160957095809590950091C7
:1014100008021091090220910A0230910B02602308
:101420007123822393230E94A9091F910F9108958C
:101430000F931F9341E050E060E070E004C0440F60
:10144000551F661F771F8A95D2F7809108029091E9
:101450000902A0910A02B0910B028A019B010827A0
:1014600019272A273B27C901B8010E94A9091F9102
:101470000F9108950F931F93009108021091090294
:1014800020910A0230910B02602B712B822B932B3F
:101490000E94A9091F910F9108950F931F93009126
:1014A00008021091090220910A0230910B02602378
:1014B0007123822393230E94A9091F910F910895FC
:1014C0000F931F93009108021091090220910A02C4
:1014D00030910B0260277127822793270E94A90968
:1014E0001F910F9108950895262F277091E001C054
:1014F000990F2A95EAF723E0769567952A95E1F703
:1015000025E0269FF001279FF00D1124E40FF51F21
:1015100050E040E0682F70E08191DF0111979B015E
:10152000042E02C0369527950A94E2F72170219582
:101530002827292328272C934F5F5F4F45305105DB
:1015400059F70895A82FA77023E0969587952A95B7
:10155000E1F725E0289FF001299FF00D1124E60F07
:10156000F71F50E040E080E0219130E00A2E02C0F9
:10157000369527950A94E2F721703327042E01C08F
:10158000220F0A94EAF7822B4F5F5F4F45305105D7
:1015900059F70895262F9A3070F4863060F4682F3A
:1015A00070E086E0989F600D711D112440EE51E0BF
:1015B000822F0E94740A0895292F9A3068F4863089
:1015C00058F490E060EE71E036E0239F800D911DAD
:1015D00011240E94A20A089580E00895B0E0A0E0DE
:1015E000E4EFFAE00C94E02C8C01C0900802D0905B
:1015F0000902E0900A02F0900B0280910C02909197
:101600000D02A0910E02B0910F02C82AD92AEA2A2F
:10161000FB2ACFE1D0E0BC2ED701C6010C2E04C0BE
:10162000B695A795979587950A94D2F780FD09C03E
:10163000219788F7B12C8B2DCDB7DEB7E9E00C945C
:10164000FC2CB8018C2F0E94CC11019789F3F3CFA9
:10165000CF93DF93EC010E94EE0ABE010E94CC11F1
:10166000DF91CF9108951F93CF93DF93EB0190917A
:10167000DD01992339F0CB010E94280BDF91CF9136
:101680001F910895882369F0CB010E94EE0A182F5C
:10169000682FCE010E94CA0ABE01812F0E94CC1180
:1016A000EDCFCB010E94DC0A182FF6CF1F93CF930A
:1016B000DF93C091100216E0809111028C1304C0D8
:1016C000DF91CF911F910895D0E01C9FF0011D9FE5
:1016D000F00D1124EE5EFD4F4081518162817381D6
:1016E000848195810E944B092196C770E5CF409176
:1016F00042025091430260914402709145028091F0
:101700004602909147020E944B0908951F93CF9380
:10171000DF9380914702807F09F049C080914402A5
:10172000882309F444C080911002C0911102609195
:10173000420270914302A0914502B0914602D62F19
:10174000D72316E0C81799F190E0109711F0DF3F0A
:1017500019F401968770F6CF189F9001199F300DEC
:101760001124F901EE5EFD4F41814713F2CF408114
:101770004613EFCF42814111ECCF438154814A1B84
:101780005B0B483C510528F7809147028F708061C0
:1017900080934702F901E95EFD4F80818F7080617F
:1017A000808382E492E00E94CB080E94560BDF9176
:1017B000CF911F910895A1E1B0E0E1EEFBE00C9420
:1017C000DF2C8C0185E0F801DE011D9601900D9261
:1017D0008A95E1F7F801E28082E4C82E82E0D82EF3
:1017E00060914502709146026115710509F43CC192
:1017F0009091420220914302892F82238F3F09F466
:1018000033C140815181A380B480F0904402F5013E
:10181000E61BF70BFF2009F4F8C080914702382F30
:10182000307FE83CF10508F0B1C031116DC0FE2CED
:10183000251316C0941314C0E11012C08F7080617C
:10184000809347020E94770BC6010E94CB088091CB
:101850004702F80185838F2D6196EAE00C94FB2CFA
:10186000A114B10429F0842F85238F3F09F015C1FD
:1018700080E0F82FF170DF2E80FF3CC080911002D5
:101880002091110236E0821315C04D875E878D8549
:101890009E850E94280B292F22952F702230F0F070
:1018A000243018F59F70F1F0F8019581907FD1F404
:1018B000D12C1EC090E0389FF001399FF00D11240B
:1018C000EE5EFD4F6181651306C06081641303C045
:1018D0006281E6120FC001968770D5CF9F7011F01C
:1018E000882331F3805E883018F3C8010E94CB084A
:1018F000FD2CB1CFEE2009F4AECF8091470281607C
:1019000080934702F12CA7CF251314C0941312C063
:10191000E11010C0F8018583C8010E94CB0886E061
:10192000F801A2E4B2E001900D928A95E1F70E94DD
:10193000770B91CFC8010E943909882319F1EE2055
:1019400009F180914702803270F02091420230917B
:10195000430238872F831986BB86AA868C87CE01DF
:1019600007960E94CB0886E0F801A2E4B2E001905D
:101970000D928A95E1F70E94860B0E94770BFF2457
:10198000F39469CFC8010E94CB08F9CF311113C07D
:101990007A2DB98AA88A6E2D89890E94410982E42C
:1019A00092E00E94CB0886E0F60111928A95E9F751
:1019B0000E94770BA7CF25130FC094130DC0E11021
:1019C0000BC0F8018583C8010E94CB0886E0F601B0
:1019D00011928A95E9F73FCFC8010E9439098823FF
:1019E00089F2EE2079F280914702803208F4BBCF71
:1019F00020914202309143023A8329831B82BD82A7
:101A0000AC828E83CE010196ACCFE83CF105F8F4B0
:101A1000FE2CEE2009F4B6CF25130BC0941309C099
:101A200086E0F801A2E4B2E001900D928A95E1F718
:101A300012CFC8010E943909811195CF80914702C8
:101A4000816080934702C8010E94CB0804CF7A2DA1
:101A5000B98AA88A6E2D89890E94410986E0F6011B
:101A600011928A95E9F763CFEE2009F48BCFC80174
:101A70000E943909F82E882309F484CF86E0F80102
:101A8000A2E4B2E001900D928A95E1F782E492E03F
:101A90000E9452050E94860B4ACF81E08E25E9CE36
:101AA000ACE0B0E0E6E5FDE00C94E62C4F8358870F
:101AB00069877A878B879C87CE0107960E94DB0B0C
:101AC000882369F08A859B85892B39F04F81588559
:101AD000842F85238F3F09F06BC016E05FC086E03E
:101AE000FE013796DE01119601900D928A95E1F77D
:101AF0008A859B85892B89F38F81988589238F3FE0
:101B000061F32091110230E0C90101968770992795
:101B1000409110024817190671F40E941909109299
:101B200011021092100286E0E2E4F2E0DF011D9261
:101B30008A95E9F7D2CF96E0929FD001939FB00D9E
:101B40001124AE5EBD4FFE01319601900D929A9523
:101B5000E1F7809311020E94560BBFCF819FC00115
:101B600011248E5E9D4F0E94DB0B8823E9F0E091EB
:101B700010021E9FF0011124EE5EFD4F4081518145
:101B800062817381848195810E944B09809110024A
:101B900090E001968770992780931002809110023F
:101BA000909111028913DACF2C96E3E00C94022D68
:101BB00069857A858B859C850E944B098ECF682F1D
:101BC00080910001909101010E949B240895682F4B
:101BD00080910001909101010E949E2408958091BE
:101BE0000001909101010E94A12408958091510269
:101BF0008595859585950895809151028770089502
:101C000082E08093500281E08093DF01089510927A
:101C100050021092DF01089580915002823021F429
:101C200081E0809350020895833011F40E94070EE2
:101C3000089580915002823021F483E08093500215
:101C40000895813011F40E94070E08959091510279
:101C5000977081E009F480E0089580915C02089516
:101C600090915C02892B80935C02089580959091FD
:101C70005C02982390935C02089510925C02089590
:101C800090915B02892B80935B02089580959091DF
:101C90005B02982390935B02089510925B02089573
:101CA00080915202089508950E94530E08959091D4
:101CB000260392FF08C090915202981721F080935A
:101CC00052020E94540E089580915202882329F0F6
:101CD0001092520280E00E94540E0895CF93DF9339
:101CE000E0910001F091010180915C028083E0911C
:101CF0000001F0910101808190915B02892B80832A
:101D000090915202992381F0E0910001F09101013C
:101D10008081892B808380910001909101010E9434
:101D2000532481110E94640EC0910001D0910101E1
:101D300048E050E068E472E0CE010E940E2D892B4D
:101D400059F088E0FE01A8E4B2E001900D928A9576
:101D5000E1F7CE010E940E24DF91CF9108950895FE
:101D60000E94AF0E08959091260392FF11C098E053
:101D7000899F90011124622B609351020E94D20925
:101D8000809151028595859585950E94B00E0895A4
:101D90000E94D20908951092510280E00E94B00E74
:101DA0000895909151028095892380935102282FA4
:101DB000277091F4282F082E000C330B921713066E
:101DC00059F09091260392FF07C0859585958595DA
:101DD0000E94F4090E94CB0E08959091260392FB75
:101DE000222720F9281769F080FB92F990932603A7
:101DF00080912503909126030E94370F82E00E9474
:101E0000D10E08958091260382FB882780F991E006
:101E100089270E94ED0E089581E00E94ED0E08953D
:101E200080E00E94ED0E089590E080E00E942C2D4D
:101E300021E0883E9E4F09F020E0822F089582E045
:101E400090E00E94242D089583E090E00E94242DCC
:101E50000895CF9384E090E00E94242DC82F82E261
:101E600090E00E94242D982F8C2FCF910895CF932E
:101E7000C92F682F84E090E00E94322D6C2F82E2FF
:101E800090E00E94322DCF910895AB01BC018FE00C
:101E900090E00E94442D0895AB01BC0183E190E0E5
:101EA0000E94442D089560E070E0CB010E944C0F29
:101EB000089560E070E0CB010E94450F0E94530F2F
:101EC000089568EE7EEF90E080E00E94502D60E083
:101ED00082E090E00E94322D60E083E090E00E947A
:101EE000322D10920C0210920D0210920E021092DE
:101EF0000F0260E084E090E00E94322D64E082E214
:101F000090E00E94322D60E085E090E00E94322D4A
:101F100060E086E090E00E94322D6FEF87E090E075
:101F20000E94322D40E050E0BA0188E090E00E942B
:101F3000442D60E08DE090E00E94322D40E050E0C2
:101F4000BA0188E190E00E94442D60E087E190E0D2
:101F50000E94322D40E050E0BA018CE190E00E94F6
:101F6000442D70E060E080E290E00E94502D40E05F
:101F700050E0BA0188E190E00E94442D0E94590F80
:101F800008950E94610F0895682F8EE090E00E94EE
:101F9000322D08950E94632560936F027093700242
:101FA000809371029093720260936B0270936C0243
:101FB00080936D0290936E0208950E946325609352
:101FC0006F0270937002809371029093720260931B
:101FD0006702709368028093690290936A02089581
:101FE000089508950E94F10F089508950E94F50F35
:101FF00008958BEE92E10E94F0230E94F00F0E9460
:10200000F20F08950E94B7140895089508950E944C
:1020100005100E94061008950E94EE120E9482048C
:1020200008950E944E250E94AB120E94D2140E9475
:102030001B140E940C100E94761980E00E94D11996
:102040000E940D1F0E94DC140E94F60F0895AAE062
:10205000B0E0EDE2F0E10C94DE2C0E943E14B82ECC
:1020600081110E94CA0F8DE5E82E82E0F82E10E063
:10207000D12C812F0E941B13982EF701A080A81647
:1020800081F18091730281FD0E942113A924C12C4A
:1020900001E08A2D802301F10E9402108823A1F023
:1020A000CE821F8391E0892D802309F490E09887E8
:1020B0000E9457258160782F9A8789874E815F819A
:1020C00068858A850E940F05F701808180278083BB
:1020D000D394F3E0FD15F0F0C394000F86E0C8122E
:1020E000D8CF1F5FEFEFEE1AFE0A1A3009F0C1CF0A
:1020F000D11010C08FEF89838A831B820E945725DD
:102100008160782F9D838C8349815A816B818D8179
:102110000E940F0581E0B11001C080E02A96EBE03B
:102120000C94FA2C0E94B71481110E94071E089586
:10213000CF93DF930E942710D82F0E9492100E9405
:10214000911FC82F81110E94DD0F0E946C1BD111BD
:1021500001C0C1110E94301A0E9473180E94950498
:10216000DF91CF910895CF93DF930E94D111EC01BD
:10217000811522E5920708F047C0811531E59307E4
:1021800008F0BAC0883E910530F5803E910508F010
:1021900092C0883A910588F4853A910508F084C088
:1021A0008130910509F487C0009709F484C0049731
:1021B00008F081C0D0E0C0E07EC08F3B9105D0F731
:1021C000C85AD0E0CC0FDD1FC558DE4F0990D8812A
:1021D000C02DD46470C08115904250F4C11581E0C7
:1021E000D80708F068C0CD3ED10520F3D06563C0A4
:1021F000C11590E4D907F0F2C11520E5D20708F027
:102200005EC0DF70D06A57C0811536E5930718F5B8
:10221000811545E5940708F087C0C11584E5D80706
:1022200008F07DC09C2F969596959E0123703327CC
:10223000C115D34508F465C0C1E0D0E002C0CC0FA1
:10224000DD1F2A95E2F730E2939FC0011124C82BCD
:10225000D92BDA6830C0C11589E5D80768F4C115F3
:1022600098E5D90708F06AC0C11527E5D20708F03C
:10227000A1CFDD27D0661FC0C1153AE5D30708F40A
:1022800062C0CE0190568115904208F093CF8D2FF9
:102290008F710E94681290E0982F882788279F717D
:1022A0009C012C2BE90148C0C55AD0E0C755DE4F30
:1022B000C881D0E0D064CE01DF91CF910895CE01E6
:1022C000E4E096958795EA95E1F783702C2F2695A3
:1022D0002695237090E2299F90011124382B8C2F92
:1022E0008370C1E0D0E002C0CC0FDD1F8A95E2F719
:1022F000C22BD32BDC68DFCFD82FCC27C16FD06A9D
:10230000DACFC1E0D0E002C0CC0FDD1F2A95E2F7A2
:1023100020E2929FC0011124C82BD92BEBCFDC2FD8
:10232000CC27C46FD06AC7CF0E946812C82FD0E0F4
:10233000DC2FCC27CC27DF71D062BDCFDC2FCC27A0
:10234000C06FD06AB8CF8C2F8F700E94681234E0B3
:10235000D695C7953A95E1F7CF709C2FEC01D069DF
:10236000AACF972F7A30A8F4663098F470E026E070
:10237000929F600D711D1124FB019CE3899FE00D6C
:10238000F11D1124EE0FFF1FE455FF4F859194912D
:10239000089580E090E008950E94B1110E94B3106A
:1023A000089582389105B1F1B0F48133910509F4B3
:1023B00075C048F48932910509F469C08A329105E3
:1023C00009F473C008958533910509F459C0893320
:1023D000910501F10895833E9105A9F138F4803EFD
:1023E0009105F9F0823E910549F10895863E9105E7
:1023F000A9F1873E9105C9F1843E910519F5209117
:10240000260321FF1FC08091250384FD14C087EEA1
:1024100090E00895209125032370A1F080EE90E0D4
:1024200008952091250320FD47C03091260330FFF9
:1024300009C024FF44C090E080E004C0209125033F
:1024400022FDF7CF08952091250322FD3BC0309156
:10245000260330FDE3CF24FFF5CFEDCF20912503F8
:1024600023FFF0CF24FDE7CFD2CF2091250323FD1A
:102470002CC03091260331FFEECF84EE90E008951A
:102480002091250325FFDECF89E290E00895209179
:10249000250325FFD7CF85E390E0089520912503FC
:1024A00026FFD0CF8AE290E008952091250326FFF1
:1024B000C9CF81E390E0089589E390E0089583EE29
:1024C00090E0089582EE90E0089586EE90E0089501
:1024D0009091250392FF06C0282F28712830F9F427
:1024E000877F846093FF06C0282F28712831F1F47C
:1024F000877E84612091260320FF06C0382F387123
:102500003830D9F4877F816021FF06C0282F2871D9
:102510002831D1F4877E816194FD877E0895282F2C
:1025200024712430F9F68B7F8860DCCF282F24714A
:10253000243101F78B7E8861DDCF382F3171313046
:1025400019F78E7F8860E0CF282F2171213121F784
:102550008E7E8861E1CF10922103109222031092A7
:102560002303109224030895CF92DF92EF92FF92FB
:102570006B017C010E94B71481110EC00E9463257B
:10258000C61AD70AE80AF90AC0922103D092220398
:10259000E0922303F0922403FF90EF90DF90CF901E
:1025A00008950F931F930E94B714882329F00E9467
:1025B00063251F910F9108950E94632500912103C7
:1025C000109122032091230330912403600F711F87
:1025D000821F931FEECF80E0089508950E94140F8C
:1025E000811102C00E94C10F0E941F0F80937302CD
:1025F0000E94290F90932603809325030E94ED12D9
:102600000E94240F682F70E090E080E00E9467092C
:10261000609108027091090280910A0290910B0268
:102620000E94A609089508950E941313089508951D
:102630000E9417130895E82FF0E0EE5CFC4F8081B4
:102640000895089580EA8A95F1F7089500C00895E5
:102650000E942213089508950E942B130895A5E067
:10266000B0E0E5E3F3E10C94E32C0E94B714F82EFC
:1026700060913C03882309F440C085E0E82E8E0178
:102680000F5F1F4FF8018E2D11928A95E9F7862F63
:1026900090E0B8018E5C9C4F0E94EA148823B9F048
:1026A0008091270390E045E050E0B8018E5C9C4F9C
:1026B0000E940E2D21E020937402892B91F4F12CBD
:1026C0000E94F7038F2D2596E6E00C94FF2C809155
:1026D00074028823A1F3F8011192EA94E9F71092A9
:1026E0007402A0912703B0E0AE5CBC4F85E0F80116
:1026F00001900D928A95E1F7E3CF70E06E5C7C4F1C
:102700008091270390E08E5C9C4F0E9471150E947F
:102710002C13D8CFF894E82FE295EF70F0E031A1B8
:10272000282F2F7081E090E001C0880F2A95EAF7EA
:10273000982F9095932391A392A1892B82A37894AB
:102740000895CF93DF93C2EBD1E089918F3F11F0D1
:102750000E948A1381E0C73BD807B9F7CCEAD1E0E1
:1027600089918F3F11F00E948A1381E0C23BD80704
:10277000B9F7DF91CF910895B0E0A0E0E2ECF3E18A
:102780000C94E12CEC01D62E062F10E0C8018E54DB
:102790009E4F7C01FC0180818F3F09F445C0F89475
:1027A000E82FE295EF70F0E091A18F7021E030E02A
:1027B00001C0220F8A95EAF7892F822B81A382A17B
:1027C0002095282322A378940E942613ECEAF1E0B6
:1027D00042EB51E031E0C12C21912F3F51F1A22F6A
:1027E000A295AF70B0E090968C9190E02F7002C0EF
:1027F000959587952A95E2F780FD1BC0832FC82AFF
:10280000330F4E175F0741F7F70180818F3F11F0BB
:102810000E948A1361E0C11001C060E08D2D0E940A
:102820002813C00FD11FC882CDB7DEB7E8E00C94E3
:10283000FD2C80E0E4CF809102018091020195E0BF
:10284000811190E090933C0385E0891B80932703DE
:102850000E94A1138AE0E2E3F3E0DF01982F1D92CA
:102860009A95E9F7E8E2F3E0DF011D928A95E9F72E
:1028700085E00E9481140E94F4030895AAE0B0E06C
:10288000E4E4F4E10C94E32C8E010F5F1F4F8AE027
:10289000F80111928A95E9F7F12C6F2DC8010E9479
:1028A000BC13F394F5E0FF12F8CF4AE050E0B80112
:1028B00088E293E00E940E2D7C0121E0892B09F42F
:1028C00020E0E114F10441F08AE0F801A8E2B3E06D
:1028D00001900D928A95E1F760913C0370E06E5C87
:1028E0007C4F45E088E293E00E94821481E090E012
:1028F000E114F10411F40E942F132A96E6E00C94DF
:10290000FF2C0895FF920F931F93CF93DF93F82E20
:10291000092F162FD72FC42F222349F081E080934F
:1029200077020E94572590937602809375028091DA
:1029300077028823A1F080917502909176020E941F
:102940006F25059760F0EF2DF02FA12FBD2FCE0F33
:10295000DF2FD11DEC17FD0739F410927702CDB7A8
:10296000DEB7E5E00C94002D81918D93F3CF80913B
:102970007A02811107C00E949C2C882351F081E0CB
:1029800080937A0281E090917A02913009F080E0A0
:10299000089582E080937A020E94972CF3CF0E94E0
:1029A000B71408950E94CF14809302010E94B714B7
:1029B00081110E94201508950E94B714811102C050
:1029C0000E942315089581E090917B029A3008F0CF
:1029D00080E008950F931F93CF93DF93EC018B0159
:1029E00080917B028A30B8F4B801CE010E946E1546
:1029F000C82F811122C080917B028F3FB9F40E94C1
:102A0000572590937902809378028C2FDF91CF9194
:102A10001F910F91089580917802909179020E9400
:102A20006F25843F914000F7C0E0EFCF8F5F809328
:102A30007B028A3020F7C1E0E8CF10927B02E5CF1D
:102A40000E948E2208950E9491220895B0E0A0E095
:102A5000ECE2F5E10C94E22C7901C82F880FDD0B34
:102A600041155105A9F0FE0193E0EE0FFF1F9A9565
:102A7000E1F7ED5FFE4F8181928184589D4F208167
:102A800030E04217530708F49A01A9010E941B2D58
:102A9000CE010E947A23D82E8823D1F0011511058A
:102AA000B9F083E0CC0FDD1F8A95E1F7FE01ED5F01
:102AB000FE4F438150E00417150708F4A801CD5FCD
:102AC000DE4F6C817D8164587D4FC7010E941B2DB4
:102AD0008D2DCDB7DEB7E7E00C94FE2C0E948A1650
:102AE00008950E94AB160895A4E0B0E0EAE7F5E18E
:102AF0000C94E52C6091990270919A0280919B024E
:102B000090919C020E947E2511E06436710581053A
:102B1000910518F10E94D1126E5F7F4F8F4F9F4F2A
:102B200069837A838B839C8310E000E030E020E0AF
:102B300044E050E0BE016F5F7F4F84E00E942615A5
:102B4000182F882351F00E94632560939902709397
:102B50009A0280939B0290939C02812F2496E4E03A
:102B60000C94012DA1E0B0E0E8EBF5E10C94DC2C35
:102B7000762E4A015901680101E010E09E012F5FA5
:102B80003F4F50E040E070E060E00E942615182FB3
:102B9000882399F1F40160817181828193810E947F
:102BA0007E25643671058105910500F18701950147
:102BB00050E040E070E060E0872D0E942615B82EBE
:102BC000B701C6010E94771911E09981981310E0AE
:102BD0001B2139F00E946325F40160837183828395
:102BE0009383812F2196EDE00C94F82CB701C60158
:102BF0000E94771999818913D9CFA701B601C50120
:102C00000E941B2DEECFA1E0B0E0E9E0F6E10C94CC
:102C1000E32C0091B7011091B801095F1F4FEE241A
:102C2000E394F12C9E012F5F3F4F45E952E063E0B2
:102C300082E00E94B215182F882321F0CE01019660
:102C40000E942120812F2196E6E00C94FF2CA5E024
:102C5000B0E0EDE2F6E10C94E12C6B010091B701DC
:102C60001091B8010F5F1F4F85E0E82EF12C9E01F7
:102C70002F5F3F4F41E952E061E080E00E94B215D2
:102C8000882349F095E0FE013196ACE8B2E001906E
:102C90000D929A95E1F795E0ECE8F2E0D60101900B
:102CA0000D929A95E1F72596E8E00C94FD2CB0E0A2
:102CB000A0E0EDE5F6E10C94DF2C7C015B016A01FC
:102CC0000E94E31401E010E0882311F00AE010E014
:102CD000C1E0D0E0B501C701F6010995811104C03A
:102CE00021960C171D072CF4CDB7DEB7EAE00C9443
:102CF000FB2CCC9F9001CD9F300D300D112490E026
:102D000080E045E34A95F1F70000019682179307AA
:102D1000C1F7E0CF0F931F93CF93DF93EC018B01AB
:102D200047E256E10E945716811106C080E0DF910C
:102D3000CF911F910F91089543E056E1B801CE0164
:102D40000E945716882391F344E755E1B801CE015C
:102D50000E945716ECCFA1E0B0E0E1EBF6E10C9455
:102D6000E52C0091B7011091B801C801019625E04A
:102D7000FB01DC0101900D922A95E1F765E070E01E
:102D80000E947719F8018083CE0101960E941620D7
:102D90008981F801878361E070E0CE0101960E948D
:102DA0007719F80186836085718582859385009106
:102DB00088021091890220918A0230918B0260175B
:102DC00071078207930751F060938802709389021C
:102DD00080938A0290938B020E94B4122196E4E0C1
:102DE0000C94012D0E9472270E9411100E947F27CF
:102DF00008950E9484270E9498100E949E2708959B
:102E00000E94F0240E9458270E94F90F0E94F21697
:102E10000E94F9160E940710FBCF8091A50280FF47
:102E20000DC060912F0170E0660F771F603871054B
:102E300070F56115710569F1862F089581FF07C04E
:102E400060912F0184E0689FB0011124EFCF609161
:102E50002F0182FD0AC08091A4028823A9F020914D
:102E60002E0160912F01821710F088E0ECCF869F31
:102E7000C001112433E0880F991F3A95E1F7622FC2
:102E800070E00E94BD2CD2CF68E070E0D5CF8FE714
:102E9000089581E008958091A50280FF0CC06091A3
:102EA0002C0170E0759567957595679561157105AD
:102EB00049F1862F089581FF06C060912C0170E0D2
:102EC00075956795F3CF60912C0182FD0BC09091B1
:102ED000A3029923A1F060912B0180912C019617F8
:102EE00038F0682F70E06038710500F38FE70895BF
:102EF000899FC001112470E00E94BD2CF4CF61E0D5
:102F000070E0D7CF81E008958D3E31F40E940D1717
:102F100081958093A90208958E3E19F40E940D17A1
:102F2000F8CF8F3E31F40E940D1781958093A8024F
:102F30000895803F19F40E940D17F8CF893F29F4B6
:102F40000E944B178093AA0208958A3F21F40E94A1
:102F50004B178195F7CF8B3F31F40E944B1781952A
:102F60008093AB0208958C3F19F40E944B17F8CF61
:102F70009FE0980F983070F4815F990B21E030E06A
:102F800001C0220F8A95EAF78091A702822B8093D5
:102F9000A70208958D3F31F48091A502816080934E
:102FA000A50208958E3F21F48091A5028260F7CF9B
:102FB0008F3FB9F78091A5028460F1CF4091A802BC
:102FC0008D3E59F48091A90287FF0DC01092A9028D
:102FD00041110BC01092A40208C08E3E81F4809172
:102FE000A90218169CF3442381F08091AA029091C3
:102FF000AB02892B09F05AC01092A30208958F3EAC
:1030000049F447FFF0CF1092A8028091A9028111E4
:10301000ECCFE0CF803F19F41416ACF3E4CF9091DD
:10302000AA02893F29F41916F4F61092AA02DBCFFE
:103030008A3F19F497FFD7CFF8CF9091AB028B3F1F
:1030400029F497FFD0CF1092AB02CDCF8C3F19F46B
:103050001916CCF3C8CF9FE0980F983090F4815F99
:10306000990B21E030E0B90102C0660F771F8A9505
:10307000E2F7CB0180959091A70289238093A70264
:10308000B2CF8D3F31F48091A5028E7F8093A5024F
:10309000AACF8E3F21F48091A5028D7FF7CF8F3F7D
:1030A00009F0A1CF8091A5028B7FF0CF08950E94F7
:1030B00057259C019091A8028091A902982B21F09C
:1030C0003093A2022093A1029091AA028091AB02B8
:1030D000982B21F03093A00220939F0286EA92E081
:1030E0000E9419240895A6E0B0E0E9E7F8E10C9405
:1030F000E62C86E0E6EAF2E0DE01119601900D9200
:103100008A95E1F71092A8021092A9021092AA02E1
:103110001092AB028B819C81892B81F08091A1025E
:103120009091A2020E946F25AC019091A402992374
:1031300091F18091300184171506D0F18D819E8127
:10314000892B91F080919F029091A0020E946F259F
:10315000AC019091A302992309F46BC080912D01D9
:103160008417150608F473C0BE016F5F7F4F86EAAF
:1031700092E00E94A82481110E94571886E0FE0167
:103180003196A6EAB2E001900D928A95E1F7269673
:10319000E3E00C94022D20919E028AE0289F90018A
:1031A00011242417350750F69F5F9093A40202C0A4
:1031B0009F3FD1F71B81112359F00E940D179FEFFC
:1031C00011160CF491E0899F802D11248093A802A0
:1031D0001C81112359F00E940D179FEF11160CF45A
:1031E00091E0899F802D11248093A9023091A8023B
:1031F000332309F4A3CF2091A902222309F49ECFFF
:1032000045EB3403C0011124992359F09093A8028F
:1032100045EB240390011124332339F03093A902A4
:103220008DCF81E08093A802F3CF81E08093A90243
:1032300085CF20919D028AE0289F900111242417B8
:10324000350708F091CF9F5F9093A30202C09F3F84
:10325000D1F71D81112359F00E944B179FEF1116D2
:103260000CF491E0899F802D11248093AA021E8185
:10327000112359F00E944B179FEF11160CF491E0A7
:10328000899F802D11248093AB023091AA023323B1
:1032900009F46ACF2091AB02222309F465CF45EBF4
:1032A0003403C0011124992359F09093AA0245EBED
:1032B000240390011124332339F03093AB0254CF0F
:1032C00081E08093AA02F3CF81E08093AB024CCFE0
:1032D00086E0E6EAF2E0DF011D928A95E9F71092B6
:1032E000A4021092A3021092A50208950895FC0171
:1032F000680F791F8FEF91E36E177F0709F4089528
:103300002191822728E030E087FF06C0880F8927B7
:1033100021503109C9F7F0CF880FFACFB0E0A0E013
:10332000E4E9F9E10C94E12C6C017B0164E670E0C6
:1033300088E70E944B21EC0197FD12C010E000E0ED
:10334000F601E00FF11F849164E670E00E94B9215C
:10335000EC01892B29F40F5F1F4F0E151F0581F714
:103360000E943022CE01CDB7DEB7E8E00C94FD2CF0
:1033700008950E94B8190895EDE3F3E080E092E02B
:10338000DF019C011D9221503040E1F7F09344058C
:10339000E09343058FEF9FEF9093D2028093D10289
:1033A00008950E94B8190E94B9198093CD0280FD3A
:1033B0000FC080E88093CC020E9445216DE070E050
:1033C0008BEF94E00E948E19892B21F080E0089504
:1033D00080E2F0CF8091CD0263E070E081FD26C0F5
:1033E00088EF94E00E948E19892B81F76DE070E0E0
:1033F00088EE94E00E948E19892B41F70E94632584
:10340000605A75418F4F9F4F60933F057093400501
:1034100080934105909342050E94BC1981E08093FE
:10342000D0028093CF021092CE02089585EF94E0EF
:10343000D9CF2091CC0236E0839FC0011124629F36
:10344000800D911D1124811522E0920714F090E067
:1034500080E0835C9C4F90934405809343050895DE
:103460008091D002811103C08091CF0208950E9403
:103470006325605A75418F4F9F4F60933F0570934E
:10348000400580934105909342058091CF028111C0
:10349000EBCF62E070E086EE94E00E948E19892BFB
:1034A00019F781E08093CF02DFCF2F923F925F9296
:1034B0006F927F928F929F92AF92BF92CF92DF9244
:1034C000EF92FF920F931F93CF93DF938091D002DF
:1034D000882369F02091D1023091D2022115310563
:1034E00031F08091CE0261E070E0882399F0DF91A5
:1034F000CF911F910F91FF90EF90DF90CF90BF90F1
:10350000AF909F908F907F906F905F903F902F90A3
:1035100008958F5F082F10E01B01082E02C0220CB7
:10352000331C0A94E2F7A90142215321452B89F368
:103530009091CD0290FD44C08295880F8076809353
:1035400033019801369527953695279520933601B6
:10355000815E809334011092370124E630E047E029
:1035600050E061E371E088E70E94E821892B09F0CF
:10357000BECFA80125E0440F551F2A95E1F78091A1
:10358000CD0280FD2BC0435C5C4F04E610E020E2DE
:1035900030E060E488E70E940922892B09F0A7CF78
:1035A0000E94301AE101C095D0958091D10290918E
:1035B000D202C823D923D093D202C093D10297CF8D
:1035C000880F880F880F8093330110923601895F2E
:1035D0008093340183E080933701BFCFECEAF2E0BF
:1035E00080E2DF011D928A95E9F7ADEBB1E009EBCE
:1035F00011E081ECC82E81E0D82E97E0592E772477
:1036000073948D91E80129918E01240F352F311D7E
:10361000235C3C4FE82FF0E0E455FD4F90E080E064
:10362000652C681A872C082E01C0880C0A94EAF7CA
:103630007901A12CE701B9907E01B820662D6A19A5
:103640006770962E062E000C770BDB2D01C0DD0F68
:103650009A94EAF77195619571096770772701C0AF
:10366000B6946A95EAF7BD2A6081962E9B289082CF
:10367000A39468E0A612DECF0196319688309105BA
:1036800079F6CA16DB0609F0BCCF04E610E020E2AA
:1036900030E04CEA52E07DCF8091CF029091D00291
:1036A000911103C091E089270895882369F062E0B1
:1036B00070E084EE94E00E948E19892B19F08091BD
:1036C000CF0208951092CF028091CF02EBCF81E01C
:1036D00008950E94671B08950F931F938091D00255
:1036E000882379F180913D0590913E050E946F25D8
:1036F000C29760F00E94572590933E0580933D0548
:1037000060E080E00E94191A0E94691B0E94551A0D
:103710008091CF028823A9F00E94632500913F0584
:10372000109140052091410530914205601B710BBD
:10373000820B930B6F3F7F4F8F4F9F4710F40E9478
:103740004C1B1F910F910895CF93DF93EC01FB0168
:103750008281882309F433C1C430FDE5DF07C0F559
:10376000CB3F9CE5D90730F49E0122503C452431E3
:103770003105B0F50E94290F90932603809325030D
:10378000C1318CE5D80709F4EEC008F069C0C93032
:10379000ECE5DE0709F4D5C0C8F5C5308CE5D807DF
:1037A00009F4C7C000F5C330ECE5DE0709F4B9C081
:1037B00008F0BBC0C230DC4509F4ADC080912503E0
:1037C000909126030E94370F0E94190980E008C0DB
:1037D000C236EDE5DE0771F2C63AFDE5DF0751F2CC
:1037E000DF91CF910895809125038062C7309CE5D9
:1037F000D90709F493C0809125038061C830DC4566
:1038000008F48CC080912503806488C080912503D2
:103810008B7FCD30FCE5DF0709F480C098F4809100
:1038200025038E7FCB309CE5D90709F477C08091C2
:1038300025038C60CC30DC4508F470C080912503F2
:103840008D7F6CC0809125038F7ECF30FCE5DF0734
:1038500009F464C008F47BC0809125038F7D5EC0AD
:10386000CE3F9CE5D90709F47AC050F5C531FCE597
:10387000DF0709F486C098F480912503837FC33164
:103880009CE5D90709F44AC008F471C00E941909DF
:1038900090912503892F97FB87F980583FC0CC3F33
:1038A000FCE5DF0709F449C008F055C08091260304
:1038B0008160CB3FDC4509F081CF809326037ECF2A
:1038C000C230EDE5DE0709F468C0A8F4C1158DE546
:1038D000D80709F452C0809126038360C130DD45CA
:1038E00060F380912603982F909591708E7F892B9D
:1038F00090FB81F9E2CFC236EDE5DE0709F451C055
:10390000C63AFDE5DF0709F453C0C330DD4509F0D1
:1039100055CF80E043C080912503816080932503CB
:103920004DCF809125038260F9CF8091250384607B
:10393000F5CF809125038860F1CF809126038260C6
:10394000BCCF0E941909809125038068E7CF809140
:103950002503877FE3CF809126038E7FAECF8091B2
:1039600026038D7FAACF809125038F7BD7CF0E941E
:103970001909809125038F77D1CF809126038C7F01
:103980009CCF8091250382FB992790F921E0922713
:1039900090FB82F990FB83F9C1CF81E00E94C40FB4
:1039A0000DCF90912503892F8F7E94FF8061B6CF34
:1039B00090912503892F8E7F90FF8160AFCF81E0AA
:1039C0000FCF80913801877F8093380182E00E9479
:1039D000460E8091380184FF06C08F7E80933801A7
:1039E00082E00E94300E8091380185FF06C08F7DF5
:1039F0008093380180E20E94300E0E946E0E08957E
:103A000080E008958B32910539F040F49C012E51ED
:103A100031092A30310558F481E008958D3291053D
:103A200030F089339105C0F384369105A9F30E94E3
:103A3000001D0895CF93DF93EC01662319F082E017
:103A40000E94400ECE019056811520E2920720F090
:103A5000905E8115904108F4DD27CE010E94790324
:103A6000DF91CF9108959C013056211540E2340733
:103A700020F0305E2115304108F499270E948F0311
:103A80000895FC0123E0F695E7952A95E1F7EE719C
:103A9000FF27ED52FD4F20813181AC014F7055273A
:103AA00081E090E002C0880F991F4A95E2F76623F3
:103AB00029F0822B932B9183808308958095909594
:103AC00082239323F8CFFC0123E0F695E7952A950E
:103AD000E1F7EE71FF27ED52FD4F8F70992721E03E
:103AE00030E002C0220F331F8A95E2F78081918176
:103AF0002823392381E0232B09F480E00895EF92F5
:103B0000FF920F931F93CF93DF93EC017B018A0108
:103B10008091380182FF63C02091F9023091FA024E
:103B20002C173D0719F0209709F059C090913801E2
:103B30009B7F9093380161E091FD10C08091FB0262
:103B40009091FC02A701481B590B61E0809139015B
:103B500090913A014817590708F460E0617080912C
:103B6000380160FB81F980933801C9010E94411D31
:103B70000E942D0E81FF08C08091380180618093E2
:103B8000380182E00E94360E0E942D0E85FF08C08B
:103B90008091380180628093380180E20E94360E65
:103BA0006091380166956170A8018091F902909149
:103BB000FA020E941A1D8FE39CE90197F1F700C0F9
:103BC00000006091380166956170A8018091F9024A
:103BD0009091FA020E94331D0E94E11C0FC0CE0199
:103BE0000E94631DA801682FCE010E94331D8091A1
:103BF000F9029091FA02C817D90771F3F092FC020A
:103C0000E092FB02CDB7DEB7E6E00C94FF2C80918A
:103C1000380182FF19C00E9457252091FB02309184
:103C2000FC02AC01421B530B2091390130913A0147
:103C30004217530748F043EF52E0BC018091F9026C
:103C40009091FA020E947F1D089590913801892F6A
:103C50008E7F90FF8160809338010E94E11C08955F
:103C6000809138018E7F809338010E94E11C089575
:103C7000CF92DF92EF92FF921F93CF93DF93EC01ED
:103C80007B010E9457256C01F70182818823D1F1C5
:103C90008091380182FF07C043EF52E0B60190E007
:103CA00080E00E947F1DCB31FCE5DF0711F1CC31B4
:103CB0002CE5D20721F1CA318CE5D80711F40E9416
:103CC000251ECE0190568115E0E29E0720F0905E01
:103CD0008115904128F51092FA021092F90211E034
:103CE000812FDF91CF911F91FF90EF90DF90CF90C8
:103CF000089580913801816080933801E2CF0E945D
:103D0000301EDFCF809138018F7EC13ED10531F06A
:103D1000C53ED105A1F5809138018F7D8093380192
:103D20008091380180FFDBCFB701CE010E94021DD8
:103D3000F7011281882309F461C0112309F458C0E6
:103D40000E942D0E182F0E94500E812B8D7F19F18D
:103D50001092FA021092F90260E0CE010E94411D19
:103D6000A70160E0CE010E941A1D0E94500E8D7FB7
:103D70000E94570E82E00E94D10E10E0B1CFCE011A
:103D800090568115904208F4AACFCE019054811527
:103D9000904130F6A4CF86E0F701A3EFB2E00190A6
:103DA0000D928A95E1F71092F5021092F7021092A7
:103DB000F6020E942D0E182F0E94500E812B90911A
:103DC000380181FB91F9909338010E94500E8D7F4C
:103DD0000E94570ED093FA02C093F902D092FC02CF
:103DE000C092FB0280913801846080933801C2CF79
:103DF000A701B601CE010E947F1D72CF11116BCFBA
:103E00006ECF8FE891E00197F1F700C000000895B0
:103E100081E008950E94081F08950F931F93CF9388
:103E2000DF939091020181E0982790930103282F5E
:103E3000291B20930003909102018093020390912B
:103E400002018093FF0280910201811106C084EF7C
:103E500080933C0185EF80933B0120913C01E22F50
:103E6000E295EF70F0E061A12F7081E090E0AC018D
:103E700001C0440F2A95EAF7342F3095362331A339
:103E800022A1242B22A320913B01E22FE295EF7087
:103E9000F0E031A12F7001C0880F2A95EAF7982F22
:103EA0009095932391A392A1892B82A30E94011F35
:103EB0006091020345E053E0CCE3D1E00BE311E075
:103EC000FA0126C02991822F82958F7090E0DC0143
:103ED00090968C9190E02F7002C0959587952A95C9
:103EE000E2F78170D8019D918D01292F22952F70C5
:103EF00030E0D90190962C9130E09F7002C035954A
:103F000027959A95E2F790E020FD92E0892B819326
:103F10008E2F841B8617B0F2DF91CF911F910F91E6
:103F20000895CF92DF92FF920F931F93CF93DF9369
:103F300010E000E082E0C82ED12C80910203181717
:103F400048F0802FDF91CF911F910F91FF90DF906C
:103F5000CF900895C12FD0E0FE01E45CFE4F808138
:103F6000E82FE295EF70F0E0E0A1F0E08F7002C082
:103F7000F595E7958A95E2F7E170DE01A55CBE4F05
:103F80004C91A42FA295AF70B0E090968C9190E0E8
:103F90004F7002C0959587954A95E2F780FD44C021
:103FA00080E08E2BDE01AB5FBC4FEC919E2F9370B7
:103FB0009817C1F1EE0FEE0FE82BEC93F090010390
:103FC000F10EEF70F0E0EF53FE4FCD5FDC4F8081DC
:103FD0009881890F888320E0823064F0EF2DF0E033
:103FE000E350FD4F80818F5F808360E08F2D0E94C2
:103FF0000A1F21E088818F3F64F4EF2DF0E0E35049
:10400000FD4F80818150808361E08F2D0E940A1FC7
:1040100021E08881082E000C990BB6010E94BD2C6E
:104020008883022B1F5F89CF82E0BBCF40910203C0
:1040300050E06091010370E063507D4F0E941B2DA2
:104040000895B0E0A0E0E7E2F0E20C94E12C6C010E
:10405000D0E080E09091FF02D91740F081110E94DA
:10406000DD0FCDB7DEB7E8E00C94FD2CF090000337
:10407000FD0E0F2D10E003501D4FF601ED0FF11D49
:10408000C081F8019081C91BEC2E1E1444F09C2FB6
:10409000C7FD90E0C91BC1110DC0DF5FDBCFEA9403
:1040A000F80180818F5F808360E08F2D0E940A1F5E
:1040B00081E0EBCFCF5FF80180818150808361E0A8
:1040C0008F2D0E940A1F81E0E6CFCF93DF93EB0193
:1040D00086319C4511F50E942D0E9A81992399F005
:1040E0008A7A91E009F490E090930703811109C066
:1040F00089E20E94DF0D0E946E0E80E0DF91CF9179
:10410000089585E3F6CF80910703811104C089E209
:104110000E94E70DF0CF85E3FBCF81E0EFCF0F9357
:104120001F93CF93DF93C42FD22FFC01828188236A
:10413000C9F040930A030E94572590930903809386
:10414000080380E28C0F883040F4C77081E001C022
:10415000880FCA95EAF70E940506DF91CF911F915B
:104160000F91089510910A03141332C0809108032F
:10417000909109030E946F25883C910548F5C0E2A3
:10418000CD0F1D17B9F080E2810F883040F4177011
:1041900081E001C0880F1A95EAF70E940C06C8302A
:1041A00048F481E09D2F977001C0880F9A95EAF737
:1041B0000E940506802F0E94FC05C83070F6D7705B
:1041C00081E001C0880FDA95EAF70E940C06C5CF9E
:1041D00080E28C0F883008F6C77081E001C0880F3C
:1041E000CA95EAF7F2CF0F939C01CB01243F4CE52F
:1041F000340759F1A8F4293DFCE53F0701F12A3DB8
:104200004CE53407D1F1283D3C4591F406E221EE1E
:1042100041EE68ED7CE50E948F2080E00F910895CB
:10422000263FFCE53F07E9F0B0F0273F3C45F9F0B9
:10423000FC018281882339F110920A03EFCF07E253
:1042400025EE45EE69ED7CE5E6CF06E221EE40EE97
:1042500064EF7CE5E0CF07E225EE44EE65EF7CE518
:10426000DACF06E221EE42EE66EF7CE5D4CF07E23C
:1042700025EE46EE67EF7CE5CECF08E221E045EE85
:104280006AED7CE5C8CF81E0C9CF1092B9008CE01F
:104290008093B8000895B0E0A0E0E1E5F1E20C946D
:1042A000DE2CB82EEB010E9457256C01EE24E3941E
:1042B000F12CC431D10560F025E0E22EF12CCF3F86
:1042C000DC0731F0CE0164E170E00E94A92C7B0193
:1042D00084EAA82E94E8992E1092BC00A092BC000B
:1042E0000E9457258C018091BC0087FF0DC08091F2
:1042F000B900887F883001F18091B900887F8031D2
:10430000D9F00FEF1FEF09C00E945725801B910BBA
:104310008E159F0540F30EEF1FEFCF3FDC07E1F254
:10432000C6010E946F258C179D07B0F2C801CDB75A
:10433000DEB7EBE00C94FA2CB092BB009092BC007C
:104340000E9457258C018091BC0087FF0AC0809194
:10435000B900887F883111F0803499F610E000E0D0
:10436000E5CF0E945725801B910B8E159F0558F3B2
:10437000D2CF0F931F93CF93DF93EB018093BB00BA
:1043800084E88093BC000E9457258C018091BC007A
:1043900087FF11C02091B900287F81E090E028328A
:1043A00011F490E080E0919581959109DF91CF9192
:1043B0001F910F910895CF3FDC0741F30E945725CD
:1043C000801B910B8C179D0708F38EEF9FEFEECFAC
:1043D000B0E0A0E0EEEEF1E20C94E12C6B018A017A
:1043E0007901B9010E944B21E6010C0D1D1DC0177A
:1043F000D10711F097FF08C024E92093BC00CDB786
:10440000DEB7E8E00C94FD2CB70189910E94B92138
:10441000EECFB0E0A0E0EFE0F2E20C94E12CC62F8A
:104420006A017901B8010E944B2197FD0CC0B801C7
:104430008C2F0E94B921E601EC0CFD1CCE15DF0586
:1044400011F097FF08C024E92093BC00CDB7DEB778
:10445000E8E00C94FD2CB80189910E94B921EECFBF
:1044600084E98093BC0008958EE14A9B02C081508C
:10447000E1F74A9BFECF08955A9880E28A95F1F7BA
:104480005A9A0895FC013BE03A95F1F798E020E054
:1044900080E031E040E14A95F1F7880F4A9B02C085
:1044A0008160232742E04A95F1F7000040E14A95F8
:1044B000F1F7915079F790E19A95F1F799B132E0DF
:1044C0003A95F1F7000040E14A95F1F792FB992700
:1044D00090F992272081920F90830895A1E0B0E097
:1044E000E4E7F2E20C94E32C19828C017C01E60EE5
:1044F000F11C0E151F0541F481E09981911180E0B6
:104500002196E6E00C94FF2C0E943422CE01019605
:104510000E944222F80181938F01EBCF529A5A9A5E
:10452000089552985A9AEA9AE9E6F0E080818F7CE1
:10453000808308956150770B91E001C0990F6A95CF
:10454000EAF720E031E0911108C0222391F05A9A55
:1045500080E28A95F1F75A980895492F482339F057
:104560005A9A232740E24A95F1F79695ECCF5A984C
:10457000F9CF5A98EDCFFF920F931F93CF93DF930C
:10458000EC018C01060F111DC017D10729F4CDB71E
:10459000DEB7E5E00C94002DF9900E943C2268E023
:1045A0008F2D0E949A22F0CF1F920F920FB60F927A
:1045B00011240F931F932F933F934F935F936F9308
:1045C0007F938F939F93AF93BF93EF93FF93CF937B
:1045D000DF930F92CDB7DEB719820E943422CE014D
:1045E00001960E944222082F069506950695282FCF
:1045F00022952570902F9570290F922F93702695F4
:104600002695920F982797708981982B09F05CC0A6
:10461000063008F059C080E18A95F1F75A9A529A0B
:1046200082E08A95F1F700C05A9888E0089F8001DF
:104630001124D801AD5FBE4F1696ED91FC911797EE
:104640003097A9F06091B7017091B80114962D913F
:104650003C911597260F371F11968D919C911297BB
:10466000680F791F13964C9113978C910995F80157
:10467000ED5FFE4F6381662351F02091B7013091C9
:10468000B80184819581820F931F0E94BB220E94F2
:104690003C2280E18A95F1F75A9852985A9A80E123
:1046A0008A95F1F7F801ED5FFE4F6081662351F0C6
:1046B0002091B7013091B80181819281820F931FBF
:1046C0000E946E220E9434220F90DF91CF91FF91C1
:1046D000EF91BF91AF919F918F917F916F915F917A
:1046E0004F913F912F911F910F910F900FBE0F90FF
:1046F0001F9018950F931F93CF93DF93EC010697AC
:104700000CF04CC0F894529A5A9885E08A95F1F7CB
:1047100000009C2F969595708C2F8570980F892F8F
:1047200083709695969523E0CC0FDD1F2A95E1F7CF
:10473000980F8E01092B0E943C2200C068E0802F58
:104740000E949A2280E18A95F1F752985A9A4A9BE0
:104750001EC087E090E04A991CC0FE01ED5FFE4F4D
:1047600063816623F9F02091B7013091B80184810B
:104770009581820F931F0E946E22811113C0529A5D
:104780005A9A7894DF91CF911F910F91089500C0AC
:10479000DECF019729F4529A5A9A789480E0F2CFAA
:1047A00000C0D9CF0E94342280E28A95F1F75A984E
:1047B000529A80E18A95F1F7CD5FDE4F68816623DA
:1047C00051F02091B7013091B80189819A81820F0F
:1047D000931F0E94BB220E943C22789481E0D2CF9A
:1047E0009093D3018093D201089590931103809305
:1047F000100308950E94B714811103C080910B0328
:104800000895E0911003F0911103309729F0019081
:10481000F081E02D0995089580E00895E09110035E
:10482000F0911103309721F00280F381E02D09957A
:104830000895E0911003F0911103309739F022E0D0
:10484000DC012C930480F581E02D099508952091D9
:104850000E0330910F032817390771F090930F035F
:1048600080930E03E0911003F0911103309721F033
:104870000680F781E02D0995089520910C03309171
:104880000D032817390771F090930D0380930C03E3
:10489000E0911003F0911103309721F00084F1852D
:1048A000E02D099508959C012E5F3F4FAC01485FB4
:1048B0005F4F80E02417350709F40895F9019191BD
:1048C0009F019923B9F38F5FF5CF662349F0FC016F
:1048D000329608962191261729F0E817F907D1F7A3
:1048E00080E0089581E008959C01FC0132969FEFDD
:1048F00080E04191461751F09F3F19F4411101C0EA
:10490000982F8F5F8630A9F79F3F09F40895290FEC
:10491000311D97FD3A95F90162830895FC013296A5
:1049200008962191261303C0DF0111971C92E81706
:10493000F907B9F708950E94742408950E948E24FF
:104940000895029626E0FC0111922A95E9F7089550
:1049500046E050E00E940E2D21E0892B09F420E072
:10496000822F089508950E94B2240895811106C0EF
:1049700081E0809312030E94B324089582E0F9CF6E
:1049800083E0809312030E94B32408950E94B6240A
:10499000089581E0809312030E94B32408950E9439
:1049A000C9240895089508950E94D3240895089570
:1049B00008950E94D2240895CF930E94D7240E9484
:1049C0003E140E94D824C0E08C2F0E941B1381113A
:1049D00005C0CF5FCA30C1F7CF91089581E0FCCF09
:1049E00085B7806885BF85B7806885BF08951F92A9
:1049F0001FB61F9211248F939F93AF93BF93809103
:104A00001303811113C08091450590914605A09133
:104A10004705B09148054196A11DB11D80934505FC
:104A200090934605A0934705B0934805BF91AF9179
:104A30009F918F911F901FBE1F90189580914D05DB
:104A4000843031F10E946D041092130388E190E0EC
:104A500020E40FB6F894A895809360000FBE2093D1
:104A6000600083B7817F846083BF83B7816083BF29
:104A70007894889583B78E7F83BF0FB6F894A895F6
:104A800080916000886180936000109260000FBE8A
:104A900008950E9419090E947404089582E084BD5B
:104AA00093E095BD9AEF97BD80936E0008952FB760
:104AB000F8948091450590914605A0914705B091E5
:104AC00048052FBF08952FB7F89460914505709160
:104AD000460580914705909148052FBF08959C0198
:104AE0004FB7F8948091450590914605A0914705F0
:104AF000B09148054FBF821B930B0895CF92DF9270
:104B0000EF92FF922FB7F894C0904505D0904605DC
:104B1000E0904705F09048052FBFA7019601261B9E
:104B2000370B480B590BCA01B901FF90EF90DF908A
:104B3000CF90089578941F921FB61F9211248F93DF
:104B40009F93AF93BF938091450590914605A091A7
:104B50004705B09148050196A11DB11D80934505FB
:104B600090934605A0934705B0934805BF91AF9138
:104B70009F918F911F901FBE1F90189587E797E711
:104B8000909301088093000888E19AE00FB6F894AA
:104B9000A895809360000FBE90936000FFCF88E1DE
:104BA0009AE00FB6F894A895809360000FBE90939A
:104BB0006000FFCF80911F03089508959C0182E05B
:104BC0008093E9009FEF8091E800915085FD06C039
:104BD00085ED8A95F1F700009111F5CF8091E800FD
:104BE00085FF0CC050E040E066E070E0C9010E9423
:104BF00010288091E8008E778093E8000895CF9385
:104C0000DF93EC0181E08093E9008FEF9091E80061
:104C1000815095FD06C095ED9A95F1F70000811140
:104C2000F5CF8091E80085FF14C050E040E068E0D7
:104C300070E0CE010E9410288091E8008E7780936A
:104C4000E80088E0FE01A7E1B3E001900D928A95AB
:104C5000E1F7DF91CF9108958093140370931603C9
:104C60006093150380914D05843001F582E08093B7
:104C7000E9008FEF9091E800815095FD06C095ED19
:104C80009A95F1F700008111F5CF8091E80085FF3A
:104C90000DC050E040E063E070E084E193E00E94EA
:104CA00010288091E8008E778093E8000895BC0179
:104CB00084E00E942C260895BC0183E00E942C26EB
:104CC000089580914C05811109C00E94A0290E947D
:104CD000FD298091E20084608093E20008951092A3
:104CE0004C0508950E94C92408956091490581E00A
:104CF000611101C080E00E94C024089590914D058B
:104D000081E0943009F080E0609149050E94C6245A
:104D1000089542E061EC81E00E941C2942E261ECCE
:104D200082E00E941C2990914D0581E0943009F0A9
:104D300080E0609149050E94B624089580914F0556
:104D4000833009F461C030F48130D1F1823009F44C
:104D50009EC008958A3009F48AC08B3009F46FC070
:104D6000893009F050C080914E05813209F04BC066
:104D70008091520590915305029708F044C08091AC
:104D8000E800877F8093E8008091E80082FF37C0C9
:104D90009091F3008091F200029731F48091F1003C
:104DA000813011F0863021F48091F10080931F034F
:104DB0008091E8008B778093E8000E94502923C0FF
:104DC00080914E05813AF9F48091E800877F8093C5
:104DD000E8008091520590915305892B61F468E0B9
:104DE00087E193E070E00E945F288091E8008B7774
:104DF0008093E800089560E090E080E0F3CF809138
:104E00004D058111C1CF089580914E05813AD9F7A2
:104E10008091520590915305892BA9F78091E80064
:104E2000877F8093E8008091E80080FFFCCF80912D
:104E300049018093F1008091E8008E77BCCF80918A
:104E40004E05813201F78091520590915305892BCF
:104E5000D1F68091E800877F8093E8000E94502976
:104E600080915005809349010E941909089580910D
:104E70004E05813241F68091E800877F8093E800FB
:104E80000E945029809151058093200308958091BC
:104E90004E05813A09F0B7CF8091E800877F809373
:104EA000E8008091E80080FFFCCF80912003C1CF13
:104EB00084B7877F84BF0FB6F894A895809160006F
:104EC000886180936000109260000FBE80E890E0DF
:104ED0000FB6F89480936100909361000FBE0E941A
:104EE000CF2408950E94A0290E94FD29E2EEF0E05F
:104EF00080818460808378940E947C2C08958DE367
:104F000091E00E94F523089580914D05853031F49C
:104F100080914D05853019F00E94492508950E9421
:104F20001E2580914B05882399F30E94DC24882359
:104F300079F30E94FA270E941909EACF08950E9486
:104F4000A2270895292F33272330310519F168F45A
:104F50002130310509F444C02230310509F445C03F
:104F600090E080E030E020E025C02132310549F1B9
:104F700022323105A9F780E490E02EEF35E061158B
:104F80007105C1F08BE790E023E835E061307105F1
:104F900089F0E6CF99278130910581F0009729F0BB
:104FA0000297F1F6E8E0F5E002C0E2E3F5E0849173
:104FB00090E09F01FA01318320830895E6E1F5E056
:104FC000F6CF89E090E028E435E06115710591F3B2
:104FD00089E090E021E635E06130710559F3C0CFFA
:104FE00082E190E021E735E0E5CF8BE390E026E336
:104FF00035E0E0CF80E189BD82E189BD09B400FEE2
:10500000FDCF8091D8008F7D8093D8008091E00003
:1050100082608093E0008091E00081FDFCCF0895E4
:10502000AF92BF92CF92DF92FF920F931F93CF93D5
:10503000DF936C01EB018A010E946F29F82E811128
:1050400023C00115110539F0F80180819181C81B39
:10505000D90BC80ED91EB12CA12C2097A9F0809194
:10506000E80085FD22C08091E8008E778093E800FB
:1050700001151105A1F0F80180819181A80EB91EDA
:10508000B182A08285E0F82E8F2DDF91CF911F9104
:105090000F91FF90DF90CF90BF90AF9008950E9446
:1050A0006F298823D1F2F82EEFCFF60181916F019D
:1050B0008093F1002197FFEFAF1ABF0ACECFFC011A
:1050C000809154059091550586179707A0F06115BA
:1050D000710529F49091E8009E779093E80090E0A4
:1050E0006115710551F4911108C08091E80082FFAB
:1050F00034C080E00895BC01F2CF80914D05882333
:10510000C1F18530C1F18091E80083FD30C080910C
:10511000E80082FDEACF8091E80080FFE1CF809136
:10512000F3002091F200382F6115710519F0283035
:10513000310558F091E02830310509F090E02091D8
:10514000E8002E772093E800CBCF81918093F10087
:10515000615071092F5F3F4FE7CF80914D05882344
:1051600041F0853041F08091E80083FFBECF81E0BF
:10517000089582E0089583E00895FC01809154052C
:105180009091550586179707A0F06115710529F4D0
:105190008091E8008E778093E80090E061157105BA
:1051A00051F4911108C08091E80082FF35C080E081
:1051B0000895BC01F2CF80914D058823C9F1853057
:1051C000C9F18091E80083FD31C08091E80082FD43
:1051D000EACF8091E80080FFE1CF8091F300209139
:1051E000F200382F6115710519F02830310558F09B
:1051F00091E02830310509F090E08091E8008E7749
:105200008093E800CBCF84918093F1003196615078
:1052100071092F5F3F4FE6CF80914D05882341F004
:10522000853041F08091E80083FFBDCF81E0089593
:1052300082E0089583E00895982F973028F08F70CA
:105240008093E90081E008959093E900242F762F60
:1052500050E0981731F07091EC002091ED005091E2
:10526000F00021FD02C09F5FE8CF3091EB003E7F50
:105270003093EB003091ED003D7F3093ED003091A5
:10528000EB0031603093EB007093EC002093ED0065
:105290005093F0002091EE0027FDE5CF80E00895C7
:1052A00080914E0587FF13C08091E80082FF06C001
:1052B0008091E8008B778093E80004C080914D05D1
:1052C0008111F2CF089580914D058823D9F3809103
:1052D000E80080FFF8CF8091E8008E77ECCF209136
:1052E000E4003091E50095E6A9012091EC00822FC1
:1052F000817020FF06C08091E80080FF06C080E03A
:1053000008952091E80022FD1AC080914D05882360
:1053100089F0853089F08091EB0085FD0FC02091E8
:10532000E4003091E50042175307F9F29150E1F69D
:1053300084E0089582E0089583E0089581E008956F
:105340000E940F2A0E94172AE0EEF0E0808181601F
:105350008083E8EDF0E080818F77808319BCA7ED32
:10536000B0E08C918E7F8C9380818F7E80831092B1
:105370004C0508950F931F93CF93DF930E940F2A3C
:105380000E94172AC8EDD0E088818F7788838881B2
:105390008068888388818F7D888319BC10924D0531
:1053A0001092490510924B0510924A0500EE10E04C
:1053B000F80180818B7F808388818160888342E0CF
:1053C00060E080E00E941C29E1EEF0E080818E7FA9
:1053D0008083E2EEF0E0808181608083808188605C
:1053E0008083F80180818E7F8083888180618883BB
:1053F000DF91CF911F910F910895E8EDF0E080814A
:105400008F7E8083E7EDF0E080818160808384E09F
:1054100082BF81E080934C050E94BA290895E8ED8F
:10542000F0E080818E7F80831092E20008951092D8
:10543000DA001092E10008951F920F920FB60F92BA
:1054400011242F933F934F935F936F937F938F9389
:105450009F93AF93BF93EF93FF938091E10082FFFF
:105460000BC08091E20082FF07C08091E1008B7F3A
:105470008093E1000E947B2C8091DA0080FF19C0AC
:105480008091D80080FF15C08091DA008E7F8093D4
:10549000DA008091D90080FF96C080E189BD82E169
:1054A00089BD09B400FEFDCF81E080934D050E94C7
:1054B00061268091E10080FF19C08091E20080FFA9
:1054C00015C08091E2008E7F8093E2008091E2001F
:1054D00080618093E2008091D80080628093D80040
:1054E00019BC85E080934D050E9475268091E100EE
:1054F00084FF2BC08091E20084FF27C080E189BD3A
:1055000082E189BD89B5982F917080FFFBCF809192
:10551000D8008F7D8093D8008091E1008F7E8093AA
:10552000E1008091E2008F7E8093E2008091E200B2
:1055300081608093E20080914905882309F449C085
:1055400084E080934D050E947E268091E10083FFD8
:1055500029C08091E20083FF25C08091E100877F10
:105560008093E10082E080934D051092490580917F
:10557000E1008E7F8093E1008091E2008E7F809336
:10558000E2008091E20080618093E20042E060E00E
:1055900080E00E941C298091F00088608093F000D8
:1055A0000E947226FF91EF91BF91AF919F918F91D1
:1055B0007F916F915F914F913F912F910F900FBE0F
:1055C0000F901F90189519BC10924D050E946F26E0
:1055D00070CF8091E30087FD93E090934D05B3CFAA
:1055E0001F920F920FB60F9211242F933F934F9358
:1055F0005F936F937F938F939F93AF93BF93CF935B
:10560000DF93EF93FF93D091E900DF708091EC007E
:10561000C82FC17080FDC0E81092E9008091F000B1
:10562000877F8093F00078940E94342B1092E900D9
:105630008091F00088608093F000CD2BCF70C093F4
:10564000E900FF91EF91DF91CF91BF91AF919F91D1
:105650008F917F916F915F914F913F912F910F901B
:105660000FBE0F901F901895AAE2B0E0EAE3FBE2AC
:105670000C94E62C8EE495E02091F100FC0121933E
:10568000CF01F5E086359F07B9F70E949E268091ED
:10569000E80083FF1EC180914E0590914F059A301E
:1056A00008F017C1E92FF0E0E558F24D0C94D12C29
:1056B000803899F0823809F00CC1809152058F70C2
:1056C000873008F006C18093E9008091EB0085FBEC
:1056D000882780F91092E90006C080914A059091D0
:1056E0004B05911182609091E800977F9093E800BC
:1056F0008093F1001092F1008091E8008E77E5C070
:10570000882309F4D3C0823009F0E3C080915005AA
:105710008111D6C0809152058F702FEF280F26304F
:1057200008F0D7C08093E9002091EB0020FFC8C0AB
:10573000933031F48091EB0080628093EB00C0C025
:105740009091EB0090619093EB0021E030E001C07C
:10575000220F8A95EAF72093EA001092EA008091DE
:10576000EB008860EACF8111B4C0109150051F771B
:105770008091E3008078812B8093E3008091E800A2
:10578000877F8093E8000E9450298091E80080FF85
:10579000FCCF8091E30080688093E30082E01111E8
:1057A00083E080934D0595C08058823008F091C009
:1057B00080915005909151058C3D23E09207A1F511
:1057C00083E08A838AE289834FB7F894DE011396D7
:1057D00020E03EE051E2E32FF0E050935700E491E7
:1057E00020FF03C0E295EF703F5FEF708E2F90E0D7
:1057F000EA30C0F0C7968D939D932F5F243159F7FF
:105800004FBF8091E800877F8093E8006AE270E0F4
:10581000CE0101960E945F288091E8008B778093EB
:10582000E80057C0C096E7CF6091520570915305CC
:10583000AE014F5F5F4F0E949F27BC01892B09F487
:1058400048C09091E800977F9093E80089819A8101
:105850000E94BD28E1CF8038E1F58091E800877F84
:105860008093E800809149058093F10045CF811134
:1058700030C090915005923060F58091E800877FAC
:105880008093E800909349050E9450298091490532
:10589000882311F084E005C08091E30087FDFACFF2
:1058A00081E080934D050E94892613C080915005A8
:1058B000813079F481E0933009F080E080934B05EA
:1058C0001092E9008091E800877F8093E8000E94B1
:1058D00050298091E80083FF0AC08091E800877F0B
:1058E0008093E8008091EB0080628093EB00AA96A1
:1058F000E3E00C94022D0895CF9380914D05882309
:10590000A1F0C091E900CF709091EC00892F8170D7
:1059100090FD80E8C82B1092E9008091E80083FD9B
:105920000E94342BCF70C093E900CF9108950E945C
:10593000A02910924D050895E8EDF0E08081806186
:1059400080838AE18A95F1F700C08091D900817047
:105950000895AA1BBB1B51E107C0AA1FBB1FA617B6
:10596000B70710F0A61BB70B881F991F5A95A9F708
:1059700080959095BC01CD01089597FB072E16F4F4
:10598000009407D077FD09D00E94A92C07FC05D010
:105990003EF4909581959F4F0895709561957F4F46
:1059A0000895EE0FFF1F0590F491E02D09942F92BA
:1059B0003F924F925F926F927F928F929F92AF929F
:1059C000BF92CF92DF92EF92FF920F931F93CF93EC
:1059D000DF93CDB7DEB7CA1BDB0B0FB6F894DEBF83
:1059E0000FBECDBF09942A88398848885F846E84A9
:1059F0007D848C849B84AA84B984C884DF80EE80F3
:105A0000FD800C811B81AA81B981CE0FD11D0FB6FB
:105A1000F894DEBF0FBECDBFED010895FB01DC01A0
:105A200004C08D910190801921F441505040C8F775
:105A3000881B990B0895FB01DC0102C001900D92B7
:105A400041505040D8F70895F999FECF92BD81BDDD
:105A5000F89A992780B50895A8E1B0E042E050E0B7
:105A60000C94582D262FF999FECF92BD81BDF89A3E
:105A7000019700B4021639F01FBA20BD0FB6F89492
:105A8000FA9AF99A0FBE08950396272F0E94332D94
:105A90000E94322D252F0E94332D242F0C94332D5C
:105AA0000196272F0E94332D0C94322DDC01CB015F
:105AB000FC01F999FECF06C0F2BDE1BDF89A31961E
:105AC00000B40D9241505040B8F70895F894FFCFBC
:105AD00056065606BA06BA06260742075208860632
